:04000000C3EF24F036
:020006001200E6
:1000080000C023F001C022F002C021F003C020F09C
:1000180004C01FF005C01EF006C01DF007C01CF08C
:1000280008C01BF009C01AF00AC019F00BC018F07C
:100038000CC017F00DC016F00EC015F0E1CF2CF073
:10004800E2CF2DF0E9CF2AF0EACF2BF0F3CF28F05A
:10005800F4CF29F0F5CF27F0F8CF24F0F7CF25F02B
:10006800F6CF26F0F2A405D0E4EC23F000EC24F05F
:10007800F294A1AA03D0EAEC22F0A19A27C0F5FFD6
:1000880024C0F8FF25C0F7FF26C0F6FF28C0F3FFFD
:1000980029C0F4FF23C000F022C001F021C002F003
:1000A80020C003F01FC004F01EC005F01DC006F0FC
:1000B8001CC007F01BC008F01AC009F019C00AF0EC
:1000C80018C00BF017C00CF016C00DF015C00EF0DC
:1000D8002AC0E9FF2BC0EAFF2CC0E1FF2DC0E2FFD8
:0200E800110005
:1000EA000B820BAE7FEF00F00368026801680068BC
:0800FA000A360232FF0E12006B
:0E010200026A016A006A086A036A000E1200AF
:100110000B840BAE93EF00F0010E036E026A016ACE
:0A012000006A0A360232FF0E1200D8
:08012A000AAE029E000E120055
:10013200090E0101675D0AE2010E6615016E0150AA
:10014200000A010ED8A4000E006E06D00C0E675DE8
:0A015200010ED8B0000E006E12007E
:10015C00090E0101665D010ED8B0000E006E120092
:10016C00020E01016625E16E000E6721E26EE66A61
:10017C00E66A66C1E1FF67C1E2FFE66AE66A120061
:10018C000CB008EF01F00CA2AEEF01F00E6A000EFD
:10019C0002641FEF01F0F00E0214D8A4EAEF00F095
:1001AC00023A01380F0B02260138F00B016E0038B1
:1001BC000F0B01260038F00B006E08380F0B0026D1
:1001CC000838F00B086E0E84D89002BE03EF01F0D5
:1001DC0008360036013602360E2A02BE03EF01F055
:1001EC0008360036013602360E2A02BE03EF01F045
:1001FC0008360036013602360E2A0E500364A4EF80
:10020C0001F0035E0BBC08AEA9EF01F0D880800EA4
:10021C0008640030000E002201220222D8A0A9EFAF
:10022C0001F0023201320032034AAEEF01F0A9EFC5
:10023C0001F001C002F000C001F008C000F0086A33
:10024C00000E0E86026456EF01F0F00E0214D8A4D4
:10025C003EEF01F0023A01380F0B02260138F00B89
:10026C00016E00380F0B01260038F00B006E0E8467
:10027C00D89002BE03EF01F00036013602360E2A8A
:10028C0002BE03EF01F00036013602360E2A02BE22
:10029C0003EF01F00036013602360E2A03EF01F0AF
:1002AC0001C002F000C001F0006A000E0E960E882C
:1002BC00026483EF01F0F00E0214D8A46EEF01F08B
:1002CC00023A01380F0B02260138F00B016E0E8436
:1002DC00D89002BE03EF01F0013602360E2A02BEA0
:1002EC0003EF01F0013602360E2A02BE03EF01F0D5
:1002FC00013602360E2A03EF01F001C002F0016A4A
:10030C00000E0E860264B3EF01F0F00E0214D8A4B6
:10031C0092EF01F0023A0E84D89002BE03EF01F086
:10032C0002360E2A02BE03EF01F002360E2A02BE7E
:10033C0003EF01F002360E2A03EF01F0010E0C6EF2
:10034C00E1DEB6EF01F0020E0C6EE9DEB6EF01F065
:10035C00040E0C6EC4DEB6EF01F0080E0C6ECBDE94
:02036C0012007D
:10036E000B6A0A6A096A00500402F4CF09F0F3CF4F
:10037E0008F001500502F4CF0BF0F3CF0AF0005055
:10038E000502F3500926F4500A22E86A0B220150A6
:10039E000402F3500926F4500A22E86A0B2208C020
:1003AE0000F009C001F00AC002F00BC003F0120009
:1003BE001E0E716E100E0001CA6F040ECB6FCAC0F6
:1003CE00E1FFCBC0E2FFE69ECAC0E1FFCBC0E2FF79
:1003DE00E69C040ECA25E16E000ECB21E26EE68C81
:1003EE00180EB46F040EB56FB4C0E1FFB5C0E2FFD6
:1003FE00E69EB4C0E1FFB5C0E2FFE69C040EB42554
:10040E00E16E000EB521E26EE68C020ECA25E16E9B
:10041E00000ECB21E26E19C1E6FF1AC1E6FF010EF6
:10042E00CA25E16E000ECB21E26E400EE66ECAC00A
:10043E00E9FFCBC0EAFFEECF00F0CAC0E1FFCBC0B0
:10044E00E2FF400E0014E66ECAC0E9FFCBC0EAFF21
:10045E00EECF00F0880E0012CAC0E1FFCBC0E2FF63
:10046E0000C0E6FFCAC011F1CBC012F1040ECA19CA
:08047E00006E00C0CAF012007C
:10048600000E0001AB5D02E1080EAA5D10E2AAC0F3
:1004960003F0ABC004F0A551000A03E1010EA56FFD
:1004A60005D0A551010A02E1020EA56F04D0080E7F
:1004B600036E000E046EB2C0E1FFB3C0E2FFE69227
:1004C600B2C0E1FFB3C0E2FFE690B2C0E9FFB3C03D
:1004D600EAFFEECF00F0B2C0E1FFB3C0E2FF045086
:1004E6000010E66E010EB225E16E000EB321E26E3B
:1004F60003C0E6FF0350AA5D006E0450AB59016EBF
:1005060000C0AAF001C0ABF0280E5A6E040E5B6E56
:10051600A9B12FD0035004102BE0A6C0F6FFA7C048
:10052600F7FFA8C0F8FF0900F5CF00F05AC0E1FFB9
:100536005BC0E2FF00C0E6FF5A4A5B2A010EA62511
:10054600006E000EA721016E000EA821026E00C0EB
:10055600A6F001C0A7F002C0A8F0010E035C006E71
:10056600000E0458016E00C003F001C004F0D2D79B
:1005760024D00350041021E0A6C0E9FFA7C0EAFF7B
:100586005AC0E1FF5BC0E2FFEECFE6FF5A4A5B2AA4
:10059600010EA625006E000EA721016E00C0A6F072
:1005A60001C0A7F0010E035C006E000E0458016E38
:0C05B60000C003F001C004F0DCD712000C
:1005C20004012251010A13E120C401F01F0E011699
:1005D2000150000A0CE10001A98F04012151030A14
:1005E20004E1010E0001606F02D00001606B0401A2
:1005F2002251000AD8A48DD020C401F01F0E01168A
:100602000150020AD8A485D024C401F00F0E0116AD
:100612000150000AD8B47DD00001A98F040124BF83
:1006220016D024C403F00F0E031603C000F0000E10
:10063200016E003600900136C80E0024E96E000EED
:100642000120EA6EEECF04F0EECF05F015D024C4FF
:1006520003F00F0E031603C000F0000E016E003609
:1006620000900136B20E0024E96E000E0120EA6EFF
:10067200EECF04F0EECF05F02151030A07E104C0EA
:10068200E1FF05C0E2FF840EE66E43D024C400F011
:100692000F0E0016700E026E0F0E036E0050022631
:1006A200D8B0032A02C0E9FF03C0EAFFFE0EEE142F
:1006B200006EEECF01F0FF0E011602C0E1FF03C093
:1006C200E2FF00C0E6FF01C0E6FF24AF11D004C084
:1006D200E1FF05C0E2FFE66A040E0418006E00C0E6
:1006E20004F004C0E1FF05C0E2FF400EE66E11D047
:1006F20004C0E1FF05C0E2FF880EE66E040E041896
:10070200006E00C004F004C0E1FF05C0E2FFC80EA5
:04071200E66E12007D
:1007160004012051800AD8A479D0C00E0001A96F27
:100726006AD00001A50E006E4B0E016E000E026E21
:1007360000C0A6F001C0A7F002C0A8F0120EAA6F72
:10074600000EAB6F63D00001030E006E000E016E4B
:1007560022C404F0000E056E07DEB60E0024E96E14
:10076600000E0120EA6EEECFA6F0EECFA7F0EECF98
:10077600A8F0020EA625F66E000EA721F76E000E53
:10078600A821F86E0900F5CF00F00900F5CF01F0B9
:1007960000C0AAF001C0ABF039D0040122515D5C63
:1007A60024E3030E006E000E016E22C404F0000E58
:1007B600056EDADDBC0E0024E96E000E0120EA6E3D
:1007C600EECFA6F0EECFA7F0EECFA8F0A6C0F6FFCC
:1007D600A7C0F7FFA8C0F8FF0900F5CF00F000C0DA
:1007E600AAF0000E0001AB6F02D00001A96B0ED07B
:1007F6000001A96B0BD004012351010A92E0235199
:0E080600020AA1E02351030AC8E0F2D7120053
:10081400025006180E6E086A096A0B6A03500764D0
:10082400FDEF04F006500A6E068E028E03500B6E26
:100834000750036E000E0B644DEF04F00B50075E7F
:10084400D8B4EEEF04F0070E0764BCEF04F0075EC3
:1008540000C008F001C000F002C001F0026A074EB7
:10086400EEEF04F0076491EF04F0075E00C008F0B7
:1008740001C000F0016A074EEEEF04F007646FEF69
:1008840004F0075E00C008F0006A074EEEEF04F0C3
:10089400076456EF04F00AC002F005C001F004C07A
:1008A40000F0086A1AEF06F0030E076461EF04F023
:1008B400075E08380F0B086E074EEEEF04F0D89071
:1008C4000832074EEEEF04F0D8900832074EEEEFF0
:1008D40004F0D8900832EEEF04F0030E076480EFC2
:1008E40004F0075E08380F0B086E0038F00B08267A
:1008F40000380F0B006E074EEEEF04F0D890003274
:100904000832074EEEEF04F0D89000320832074E5A
:10091400EEEF04F0D89000320832EEEF04F0030E4C
:100924000764A8EF04F0075E08380F0B086E003860
:10093400F00B082600380F0B006E0138F00B002670
:1009440001380F0B016E074EEEEF04F0D890013220
:1009540000320832074EEEEF04F0D8900132003234
:100964000832074EEEEF04F0D8900132003208321C
:10097400EEEF04F0030E0764D9EF04F0075E0838C5
:100984000F0B086E0038F00B082600380F0B006EB2
:100994000138F00B002601380F0B016E0238F00B02
:1009A400012602380F0B026E074EEEEF04F0D890CA
:1009B4000232013200320832074EEEEF04F0D890D2
:1009C4000232013200320832074EEEEF04F0D890C2
:1009D4000232013200320832096A000E0EAEE2EF32
:1009E40005F0081E001E011E021E082A0022012214
:1009F4000222E2EF05F00750D8A403EF05F01AEF46
:100A040006F0096A02C00AF0028E068E0750035CE3
:100A1400076ED8B4D5EF05F0070E0764A3EF05F011
:100A2400075E0450096E0550046E0650056E066A92
:100A3400074ED5EF05F0070E076478EF05F0075E63
:100A44000450096E0550046E056A074ED5EF05F093
:100A5400070E076456EF05F0075E0450096E046A3A
:100A6400074ED5EF05F0070E07643DEF05F00AC009
:100A740002F01AEF06F0030E076448EF05F0075E74
:100A840009380F0B096E074ED5EF05F0D8900932DF
:100A9400074ED5EF05F0D8900932074ED5EF05F093
:100AA400D8900932D5EF05F0030E076467EF05F01F
:100AB400075E09380F0B096E0438F00B0926043859
:100AC4000F0B046E074ED5EF05F0D89004320932AF
:100AD400074ED5EF05F0D89004320932074ED5EF12
:100AE40005F0D89004320932D5EF05F0030E0764FF
:100AF4008FEF05F0075E09380F0B096E0438F00B11
:100B0400092604380F0B046E0538F00B042605384B
:100B14000F0B056E074ED5EF05F0D8900532043261
:100B24000932074ED5EF05F0D89005320432093268
:100B3400074ED5EF05F0D890053204320932D5EFCF
:100B440005F0030E0764C0EF05F0075E09380F0BCC
:100B5400096E0438F00B092604380F0B046E0538AF
:100B6400F00B042605380F0B056E0638F00B05262E
:100B740006380F0B066E074ED5EF05F0D8900632F7
:100B8400053204320932074ED5EF05F0D89006320B
:100B9400053204320932074ED5EF05F0D8900632FB
:100BA400053204320932086A000E0EAEE2EF05F097
:100BB400091E041E051E061E092A042205220622F9
:100BC4000950082604500022055001220650022232
:100BD4000EBEF9EF05F0D8A008EF06F0023201329C
:100BE40000320832033E08EF06F014EF06F0D8B0E6
:100BF4000EEF06F0000E081E001E011E021E082A3B
:100C04000022012202220A7E0EEF06F0010E0C6E73
:100C1400C6EC00F01CEF06F0020E0C6EC6EC00F001
:100C24001CEF06F0040E0C6E75EC00F01CEF06F0E1
:060C3400000E0C6E120020
:100C3A000001A98F716AC76B22C4BBF0BB51000ABD
:100C4A0003E1100EB16F04D0200EB16FDFEC01F09A
:020C5A00120086
:100C5C000401286B296B4AD00001A98F040128815B
:100C6C0000016051010A02E10401288354D0000103
:100C7C00A98F51D00001A98F040124BF16D024C420
:100C8C0003F00F0E031603C000F0000E016E0036C9
:100C9C0000900136C80E0024E96E000E0120EA6EA9
:100CAC00EECF04F0EECF05F015D024C403F00F0EF8
:100CBC00031603C000F0000E016E003600900136E2
:100CCC00B20E0024E96E000E0120EA6EEECF04F0A5
:100CDC00EECF05F004C0E9FF05C0EAFFEECF01F04E
:100CEC0001A403D00401010E286F15D020C401F01B
:100CFC001F0E01160150000AAFE020C401F01F0EB8
:100D0C0001160150010AB3E020C401F01F0E0116B8
:100D1C000150020AAFE00001A9AF07D0280EA66F60
:0C0D2C00040EA76FA981020EAA6F12002E
:100D380020C401F01F0E01160150010A01E094D0F1
:100D480004012451000A01E08FD02151060A42E132
:100D580037D00001BB51010A17E1380E006E4B0E67
:100D6800016E000E026E120E0026000E01220222F3
:100D780000C0A6F001C0A7F002C0A8F0090EAA6F33
:100D8800000EAB6FC00EA96F25D00001BB51010A40
:100D980012E1840E006E4B0E016E000E026E00C052
:100DA800A6F001C0A7F002C0A8F0210EAA6F000E9D
:100DB800AB6FC00EA96F0ED00001800EA96F0AD0CC
:100DC80004012351210AC5E02351220ADEE0235100
:100DD800230AF2E020C401F0600E0116050E006E31
:100DE800005004E00132019EFF0FFBD70150010AB9
:100DF80001E03AD026D038D037D09F0E0001A66F38
:100E0800000EA76F010EAA6F000EAB6FC10EA96F7F
:100E18002BD00001800EA96F23C49FF025D00001BC
:100E2800A00EA66F000EA76F010EAA6F000EAB6F83
:100E3800810EA96F19D00001800EA96F22C4A0F0FD
:100E480013D004012151010AD6E02151090AD4E046
:100E58002151020AD2E021510A0ADBE02151030A9A
:0A0E6800DEE021510B0AE7E0120062
:100E720062C166F1AEEC00F0005252E047D0006A67
:100E82006ED0010E006E6BD0020E006E68D0030EA3
:100E9200625D13E263C166F162C167F199EC00F031
:100EA200005202E0006A5BD06251010A03E1020EC5
:100EB200006E55D0010E006E52D0060E625D13E236
:100EC20063C166F162C167F199EC00F0005203E080
:100ED200010E006E44D06251040A02E1006A3FD062
:100EE200020E006E3CD063C166F162C167F199ECFB
:100EF20000F0005203E0020E006E31D06251070A88
:100F020002E1006A2CD0010E006E29D06251000A63
:100F1200B6E06251030AB5E06251060AB5E0B7D7FE
:100F22006251090A04E062510C0A01E002D0006A2F
:100F320016D062510A0A04E062510D0A01E003D0A0
:100F4200020E006E0CD062510B0A04E062510E0ACE
:100F520001E003D0010E006E02D0FF0E006E1200FF
:100F620062C1E1FF63C1E2FF010EE66E010E010103
:100F72006225E16E000E6321E26EE66A020E6225D0
:100F8200E16E000E6321E26EE66A030E6225E16EF7
:100F9200000E6321E26EE66A040E6225E16E000E27
:100FA2006321E26EE66A050E6225E16E000E6321A0
:100FB200E26EE66A05014491120E01016225E16EBC
:100FC200000E6321E26EE66A130E6225E16E000EE8
:100FD2006321E26EE66A0501409540914093409795
:100FE20051915193140E01016225E16E000E6321AD
:100FF200E26EE66A0501409B4099408D150E0101A3
:101002006225E16E000E6321E26EE66A160E62252B
:10101200E16E000E6321E26EE66A05014191170E50
:1010220001016225E16E000E6321E26EE66A180E8E
:101032006225E16E000E6321E26EE66A05014197C8
:10104200190E01016225E16E000E6321E26EE66A6D
:101052001C0E6225E16E000E6321E26EE66A1D0E31
:101062006225E16E000E6321E26EE66A1A0E6225C7
:10107200E16E000E6321E26EE66A1B0E6225E16EEE
:10108200000E6321E26EE66A05014199419F838267
:1010920043818390439381A002D083944395839E9E
:0C10A200429F839A429D839C429B120057
:0E10AE0062C166F163C167F1B6EC00F012009A
:1010BC0001016251010A07E06251040A04E0625125
:1010CC00070A01E003D0010E006E01D0006A120085
:1010DC00086A096A100E0C6E013408360936045081
:1010EC00085E0550D8A0053C095ED8B007D0045066
:1010FC0008260550D8B0053C0926D8900036013694
:06110C000C2EEAD71200D0
:101112003B4A3C2A030E3C5C02E1E80E3B5C30E3B6
:101122003B6A3C6A62C103F063C104F062C1E9FF39
:1011320063C1EAFFEECF00F0EECF01F0004A012AD0
:1011420062C1E1FF63C1E2FF00C0E6FF01C0E6FF4A
:1011520003C0E9FF04C0EAFFEECF01F0EECF02F0D8
:1011620001016551025C02E16451015C09E362C163
:10117200E1FF63C1E2FFE66AE66A010E006E01D09A
:04118200006A1200ED
:10118600380E0001B66F4B0EB76F000EB86FBF0E6C
:10119600BC6F4B0EBD6F000EBE6FE40EBF6F4A0EE6
:1011A600C06F000EC16F0E0EC26F4B0EC36F000EE6
:0411B600C46F1200F0
:0E11BA00160E6F6E9F0E6B6E3B0E696E12006E
:1011C8000B800BAEF0EF08F0026A0AAEFF0E026E5B
:0C11D800016E006E0A360232FF0E12009B
:1011E40020C401F0600E0116050E006E005004E0EC
:1011F4000132019EFF0FFBD70150000A01E060D0CD
:101204003CD00001A98F080EB16F5AD08BEC03F0CB
:1012140057D011DD55D00001BB0EA66F000EA76F8D
:10122400A981010EAA6FA98F4BD016DD49D0E1EC3C
:1012340002F046D0C70E006E000E016E0401245168
:101244000026D8B0012A00C0A6F001C0A7F0000112
:10125400A981010EAA6FA98F33D00001A98FC70EEF
:10126400E16E000EE26E04012451E126D8B0E22AB8
:1012740022C4E6FF25D024D023D004012151050A3D
:10128400C0E02151060AC2E02151090AC2E02151FD
:10129400080AC1E02151000AC8E02151010AC7E04F
:1012A4002151030AC4E021510A0AC4E021510B0A66
:1012B400D4E02151070ADFE021510C0ADDE0DCD73C
:0212C400120016
:0812C6005C5201E036DD12006C
:0812CE000B6A0B86FF0E1200F3
:1012D600086A096A000E07620364F0EF09F002501B
:1012E60006180A6E075003267E0ED8A081EF09F075
:1012F600035ED8B0F5EF09F085EF09F0035ED8A0DC
:10130600FAEF09F0028E068E02C00EF001C00BF055
:1013160000C00DF000500402F4CF0CF0015005029D
:10132600F4CF00F0F3CF08F00402F3500C26F4508B
:101336000822000E00220D500502F3500C26F45030
:101346000822000E002202500402F3500826F45030
:10135600002202500502016A000E0122F350002607
:10136600F45001220D500602F3500826F4500022D4
:10137600026A000E012202220B500602F3500026DA
:10138600F4500122000E02220E500602F3500126EE
:10139600F450022202BED8EF09F0083600360136B4
:1013A60002360306D8B4FAEF09F0EBEF09F0D8805D
:1013B600800E08640030000E002201220222D8A00E
:1013C600EBEF09F0023201320032034AF5EF09F081
:1013D6000AAE029E000EFDEF09F0010E81EC00F050
:1013E600FDEF09F0020E75EC00F0FDEF09F0040EBA
:0613F60088EC00F012007B
:1013FC006D980001A9BF49D053AE28D0020EB06F32
:10140C00010EB225E16E000EB321E26EE66AB2C0A7
:10141C00E1FFB3C0E2FFC80EE66E010EA125E16E3E
:10142C00000EA221E26E080EE66E020EA125E16E00
:10143C00000EA221E26E280EE66E040EE66EA1C02E
:10144C00E1FFA2C0E2FFC80EE66E1ED0010EA12580
:10145C00E16E000EA221E26E080EE66E020EA125D0
:10146C00E16E000EA221E26E200EE66E040EE66E18
:10147C00A1C0E1FFA2C0E2FF8C0EE66EB2C0E1FF9C
:10148C00B3C0E2FF840EE66E83D053BE81D004015C
:10149C0020AF56D00001AB510401275D04E10001DF
:1014AC00AA510401265D04E226C4AAF027C4ABF0BD
:1014BC0043EC02F0010EB06F010EA125E16E000E9F
:1014CC00A221E26E080EE66E020EA125E16E000E60
:1014DC00A221E26E200EE66E040EE66EA1C0E1FFC4
:1014EC00A2C0E2FF800EE66E5F6A010E6125E16E1E
:1014FC00000E6221E26E080EE66E020E6125E16EB0
:10150C00000E6221E26E200EE66E040EE66E61C0E5
:10151C00E1FF62C0E2FF840EE66E010E5F6E020E0A
:10152C00B225E16E000EB321E26E280EE66E040EBB
:10153C00E66EB2C0E1FFB3C0E2FFC80EE66E28D083
:10154C000001020EB06F010EB225E16E000EB32148
:10155C00E26EE66AB2C0E1FFB3C0E2FFC80EE66E0F
:10156C00010EA125E16E000EA221E26E080EE66EC0
:10157C00020EA125E16E000EA221E26E280EE66E8F
:10158C00040EE66EA1C0E1FFA2C0E2FFC80EE66E3B
:02159C0012003B
:0A159E00D08EA28AA08AF28E1200FD
:1015A8005DC104F0000E056ECB50010F006E016A9C
:1015B800000E0122B7EC01F0640E046E000E056EF9
:1015C80089DD00C05EF101C05FF1000E026E0150BE
:1015D800025C02E10050FF0805E2FF0E01015E6FA8
:1015E800000E5F6F01015EA102D0BA8801D0BA98DF
:1015F8005EA302D0BA8A01D0BA9A5EC1BBFF1200BC
:10160800170E01015D25026E000E5E21036E7AD071
:101618000501419341954197B1D005014187170EC6
:1016280001015D25E16E000E5E21E26E0A0EE66E96
:10163800A5D0180E5D25E96E000E5E21EA6EEE5209
:101648000DE0050100AF09D0170E01015D25E16E1F
:10165800000E5E21E26E0F0EE66E0CD0050101A5AC
:1016680009D0170E01015D25E16E000E5E21E26EC4
:10167800190EE66E83D005014197418301A309D075
:10168800170E01015D25E16E000E5E21E26E140E5B
:10169800E66E74D005014193170E01015D25E16ED8
:1016A800000E5E21E26E230EE66E68D005014197BA
:1016B800418501A909D0170E01015D25E16E000ED3
:1016C8005E21E26E1E0EE66E59D005014195170E99
:1016D80001015D25E16E000E5E21E26E230EE66ECD
:1016E8004DD0170E5D25E16E000E5E21E26EE66AB2
:1016F800190E5D25E16E000E5E21E26E050EE66EA6
:101708003DD03CD002C0E9FF03C0EAFFEE50000A1A
:10171800D8B47ED702C0E9FF03C0EAFFEE50050A3D
:10172800D8B47BD702C0E9FF03C0EAFFEE500A0A2B
:10173800D8B47FD702C0E9FF03C0EAFFEE500F0A12
:101748009AE002C0E9FF03C0EAFFEE50140AA2E0E3
:1017580002C0E9FF03C0EAFFEE50190AA7E002C081
:10176800E9FF03C0EAFFEE501E0AAFE002C0E9FF3E
:0E17780003C0EAFFEE50230AB4E0C3D712000C
:10178600050109B118D05DC162F15EC163F1B1EC2A
:1017960007F00E0E01015D25626F000E5E21636F7C
:1017A600010E646F000E656FB1DC005203E00501A7
:1017B6004375837411D05DC1E9FF5EC1EAFFEECFC8
:1017C60000F0005209E0040E01015D25E16E000EF5
:0A17D6005E21E26E0AC5E6FF120074
:1017E0005DC104F0000E056ECB50010F006E016A62
:1017F000000E0122B7EC01F0640E046E000E056EBF
:101800006DDC00C05EF101C05FF1000E026E0150A0
:10181000025C02E10050FF0805E2FF0E01015E6F6D
:10182000000E5F6F01015EA102D0BD8801D0BD989E
:101830005EA302D0BD8A01D0BD9A5EC1BEFF120078
:10184000190E01015D25036E000E5E21046E86D225
:101850000501419D419B429342914199419F42998B
:101860004295429734D31D0E01015D25E96E000EAD
:101870005E21EA6EEE5209E0190E5D25E16E000E62
:101880005E21E26E0A0EE66E08D0190E5D25E16E4D
:10189000000E5E21E26E640EE66E19D305014189E9
:1018A0001C0E01015D25E96E000E5E21EA6EEE520E
:1018B00009E0190E5D25E16E000E5E21E26E1E0E3E
:1018C000E66E08D0190E5D25E16E000E5E21E26E17
:1018D0000F0EE66EFCD20501418B01AB0AD01A0E49
:1018E00001015D25E16E000E5E21E26E010EE66EE5
:1018F00018D001011A0E5D25E96E000E5E21EA6E18
:10190000EE520FE01A0E5D25E16E000E5E21E26ED2
:10191000E66A190E5D25E16E000E5E21E26EC80ECC
:10192000E66ED5D2050101AB0AD01A0E01015D2584
:10193000E16E000E5E21E26E010EE66E18D001012E
:101940001A0E5D25E96E000E5E21EA6EEE520FE082
:101950001A0E5D25E16E000E5E21E26EE66A190E3A
:101960005D25E16E000E5E21E26E230EE66EAFD2C3
:1019700005014199418D01AF09D0190E01015D2585
:10198000E16E000E5E21E26E820EE66EA0D20501CF
:10199000418F1C0E01015D25E96E000E5E21EA6E8D
:1019A000EE5209E0190E5D25E16E000E5E21E26E39
:1019B000780EE66E08D0190E5D25E16E000E5E21F0
:1019C000E26E690EE66E83D20501428102A10AD061
:1019D0001B0E01015D25E16E000E5E21E26E010E1F
:1019E000E66E18D001011B0E5D25E96E000E5E212A
:1019F000EA6EEE520FE01B0E5D25E16E000E5E21D9
:101A0000E26EE66A190E5D25E16E000E5E21E26E61
:101A1000C80EE66E5CD2050102A10AD01B0E0101C0
:101A20005D25E16E000E5E21E26E010EE66E18D0BD
:101A300001011B0E5D25E96E000E5E21EA6EEE527D
:101A40000FE01B0E5D25E16E000E5E21E26EE66A80
:101A5000190E5D25E16E000E5E21E26E790EE66ED6
:101A600036D20501419F428302A509D0190E01011A
:101A70005D25E16E000E5E21E26E820EE66E27D2DB
:101A8000050101AF0BD002A509D0190E01015D259A
:101A9000E16E000E5E21E26E870EE66E18D2050141
:101AA000428702A90AD01A0E01015D25E16E000EDF
:101AB0005E21E26E010EE66E18D001011A0E5D2560
:101AC000E96E000E5E21EA6EEE520FE01A0E5D2501
:101AD000E16E000E5E21E26EE66A190E5D25E16E92
:101AE000000E5E21E26E8C0EE66EF1D10501428998
:101AF00002AB09D0190E01015D25E16E000E5E21D9
:101B0000E26E910EE66EE3D10501419D01BF09D061
:101B1000190E01015D25E16E000E5E21E26E960E4A
:101B2000E66ED5D10501429702A90AD01A0E01012D
:101B30005D25E16E000E5E21E26E010EE66E18D0AC
:101B400001011A0E5D25E96E000E5E21EA6EEE526D
:101B50000FE01A0E5D25E16E000E5E21E26EE66A70
:101B6000190E5D25E16E000E5E21E26E9B0EE66EA3
:101B7000AED10501428502A70AD01B0E01015D25E9
:101B8000E16E000E5E21E26E010EE66E18D00101DC
:101B90001B0E5D25E96E000E5E21EA6EEE520FE02F
:101BA0001B0E5D25E16E000E5E21E26EE66A190EE7
:101BB0005D25E16E000E5E21E26EA00EE66E87D11D
:101BC00005014287429302A90AD01B0E01015D253F
:101BD000E16E000E5E21E26E010EE66E18D001018C
:101BE0001B0E5D25E96E000E5E21EA6EEE520FE0DF
:101BF0001B0E5D25E16E000E5E21E26EE66A190E97
:101C00005D25E16E000E5E21E26EA50EE66E5FD1EF
:101C100005014299190E01015D25E16E000E5E215C
:101C2000E26EAA0EE66E53D10501429702A90AD0D0
:101C30001B0E01015D25E16E000E5E21E26E010EBC
:101C4000E66E18D001011B0E5D25E96E000E5E21C7
:101C5000EA6EEE520FE01B0E5D25E16E000E5E2176
:101C6000E26EE66A190E5D25E16E000E5E21E26EFF
:101C7000AF0EE66E2CD105014281418F4295190EBF
:101C800001015D25E16E000E5E21E26EC80EE66E7A
:101C90001ED1050102BD09D0190E01015D25E16EBD
:101CA000000E5E21E26ECD0EE66E11D10101040E32
:101CB0005D25016E000E5E21026E01C0E9FF02C0CB
:101CC000EAFFEECF48F501C0E9FF02C0EAFF0501D7
:101CD0000751EE5C0BE34481190E01015D25E16EB5
:101CE000000E5E21E26ED20EE66E08D00101190EE2
:101CF0005D25E16E000E5E21E26EE66AE8D0050128
:101D00000751000A29E14491040E01015D25E16EAD
:101D1000000E5E21E26EE66A030E5D25E16E000EA6
:101D20005E21E26EE66A0501486B020E01015D2547
:101D3000E96E000E5E21EA6EEE5207E0020E5D25AE
:101D4000E16E000E5E21E26EE66A190E5D25E16E1F
:101D5000000E5E21E26EE66ABAD0B9D003C0E9FF98
:101D600004C0EAFFEE50000AD8B472D503C0E9FF00
:101D700004C0EAFFEE50050AD8B475D503C0E9FFE8
:101D800004C0EAFFEE500A0AD8B488D503C0E9FFC0
:101D900004C0EAFFEE500F0AD8B49DD503C0E9FF96
:101DA00004C0EAFFEE501E0AD8B4BCD503C0E9FF58
:101DB00004C0EAFFEE50230AD8B4DAD503C0E9FF25
:101DC00004C0EAFFEE50640AD8B4E1D503C0E9FFCD
:101DD00004C0EAFFEE50690AD8B4F6D503C0E9FFA3
:101DE00004C0EAFFEE50780AD8B415D603C0E9FF64
:101DF00004C0EAFFEE50790AD8B433D603C0E9FF35
:101E000004C0EAFFEE50820AD8B43AD603C0E9FF14
:101E100004C0EAFFEE50870AD8B441D603C0E9FFF8
:101E200004C0EAFFEE508C0AD8B460D603C0E9FFC4
:101E300004C0EAFFEE50910AD8B466D603C0E9FFA9
:101E400004C0EAFFEE50960AD8B46CD603C0E9FF8E
:101E500004C0EAFFEE509B0AD8B48BD603C0E9FF5A
:101E600004C0EAFFEE50A00AD8B4AAD603C0E9FF26
:101E700004C0EAFFEE50A50AD8B4CAD603C0E9FFF1
:101E800004C0EAFFEE50AA0AD8B4CED603C0E9FFD8
:101E900004C0EAFFEE50AF0AD8B4EDD603C0E9FFA4
:101EA00004C0EAFFEE50C80AD8B4F3D603C0E9FF75
:101EB00004C0EAFFEE50CD0AD8B4F8D603C0E9FF5B
:101EC00004C0EAFFEE50D20AD8B419D746D71200A0
:101ED0000001B06BB2C0E1FFB3C0E2FFE66A040EDE
:101EE000B219E16EB3C0E2FF000EE21AE66A53BE19
:041EF000539E1200EB
:101EF400A50E006E4B0E016E000E026E0E0E002437
:101F0400F66E000E0120F76E000E0220F86E090036
:101F1400F5CF03F003C004F00F0E0024F66E000E9C
:101F24000120F76E000E0220F86E0900F5CF01F0D3
:101F34000150035C12E2A50E006E4B0E016E000E02
:101F4400026E0F0E0024F66E000E0120F76E000ED6
:101F54000220F86E0900F5CF04F0A50E006E4B0EBA
:101F6400016E000E026E100E0024F66E000E0120AB
:101F7400F76E000E0220F86E0900F5CF01F0015053
:101F8400045C12E2A50E006E4B0E016E000E026E92
:101F9400100E0024F66E000E0120F76E000E0220D3
:0E1FA400F86E0900F5CF04F004C000F0120042
:101FB2000A6A0350D8A40A800750D8A40A820A5099
:101FC200D8B43CEF10F0030AD8B4F5EF0FF00AB022
:101FD200F0EF0FF006AE3AEF10F038EF10F002AE6D
:101FE20038EF10F03AEF10F00250800B0A6E029EAA
:101FF2000650800B069E0A18D8B406EF10F00A505D
:10200200D8B438EF10F03AEF10F00750035CD8B4B0
:1020120010EF10F0D8A02CEF10F032EF10F00650B5
:10202200025CD8B41AEF10F0D8A02CEF10F032EF07
:1020320010F00550015CD8B424EF10F0D8A02CEFBA
:1020420010F032EF10F00450005CD8B43CEF10F006
:10205200D8B032EF10F00A52D8B43AEF10F038EF9D
:1020620010F00A52D8B438EF10F03AEF10F0D880DE
:0E2072001200D8901200D880D88412001200FC
:10208000010E00016125E96E000E6221EA6EEECFBD
:1020900000F000C002F0000E555C02E10250545CFA
:1020A00003E254C002F00AD00250545C006E000EED
:1020B0005558016E00C054F001C055F0036A02503B
:1020C000035C1CE2280EE96E040EEA6E0350E9265A
:1020D000D8B0EA2AEECF00F051C0E1FF52C0E2FFD3
:1020E00000C0E6FF010E5124006E000E5220016E6A
:1020F00000C051F001C052F0032AE1D7000E006E7B
:102100005550005C02E15450000828E2010EA12560
:10211000E16E000EA221E26E080EE66E020EA1250F
:10212000E16E000EA221E26E280EE66E040EE66E4F
:1021300061C0E9FF62C0EAFFEECF00F000BC07D04B
:10214000A1C0E1FFA2C0E2FFC80EE66E06D0A1C0AA
:10215000E1FFA2C0E2FF880EE66E19D0010EA125B4
:10216000E16E000EA221E26E080EE66E020EA125BF
:10217000E16E000EA221E26E200EE66E040EE66E07
:10218000A1C0E1FFA2C0E2FF840EE66E539E1200E2
:08219000067E0AEC04F01200C7
:10219800020E01015D25036E000E5E21046E03C070
:1021A800E9FF04C0EAFF010EEE24006E000EEE20E7
:1021B800016E03C0E1FF04C0E2FF00C0E6FF01C0FA
:1021C800E6FF03C0E9FF04C0EAFFEECF01F0EECF5F
:1021D80002F06051025C02E15F51015C0BE3020E08
:1021E8005D25E16E000E5E21E26EE66AE66A010E8A
:0821F800006E01D0006A120024
:10220000140E01015D255F6F000E5E21606F5ED0D0
:1022100005014099409B409D120E01015D25E96E2C
:10222000000E5E21EA6EEE50190A08E1140E5D25DB
:10223000E16E000E5E21E26E050EE66E6BD00101CE
:10224000050E5D25E96E000E5E21EA6EEECF66F1A9
:1022500006C567F199EC00F0005203E00501408FDC
:1022600002D00501409F140E01015D25E16E000EB4
:102270005E21E26E0A0EE66E4DD00501408B00AB8A
:1022800009D0140E01015D25E16E000E5E21E26EA3
:102290000F0EE66E3FD0050100B909D0140E010102
:1022A0005D25E16E000E5E21E26E140EE66E32D008
:1022B000050100A909D0140E01015D25E16E000E93
:1022C0005E21E26E190EE66E25D024D05FC1E9FFD3
:1022D00060C1EAFFEE50000A9BE05FC1E9FF60C108
:1022E000EAFFEE50050AABE05FC1E9FF60C1EAFF1B
:1022F000EE500A0AC2E05FC1E9FF60C1EAFFEE509A
:102300000F0AC9E05FC1E9FF60C1EAFFEE50140A9D
:06231000CFE0DBD7120054
:10231600120E01015D25606F000E5E21616FD2D045
:102326000501409540914093409751915193010E7C
:1023360001015D25E96E000E5E21EA6EEECF00F02A
:10234600005215E1020E5D25E96E000E5E21EA6E71
:10235600EECF00F000520BE1030E5D25E96E000E94
:102366005E21EA6EEECF00F0005201E110D0030EBE
:102376005D25E16E000E5E21E26E010EE66E120E26
:102386005D25E16E000E5E21E26E050EE66EC1D0A1
:10239600040E5D25E96E000E5E21EA6E0501075109
:1023A600EE5C0AE2120E01015D25E16E000E5E2171
:1023B600E26E0A0EE66E08D00101120E5D25E16E90
:1023C600000E5E21E26EE66AA4D006C562F1050E35
:1023D6005D25E96E000E5E21EA6EEECF63F139EC03
:1023E60007F000C05FF10050FF0A35E05F51000AB8
:1023F60010E10501408100A10BD040915181120EE0
:1024060001015D25E16E000E5E21E26E0F0EE66EA5
:1024160022D001015F51010A10E10501408300A3AA
:102426000BD040935183120E01015D25E16E000E23
:102436005E21E26E0F0EE66E0ED00501408500A508
:102446000AD04095120E01015D25E16E000E5E2157
:10245600E26E0F0EE66E5DD00501408700A70AD03A
:10246600130E01015D25E16E000E5E21E26E010E86
:10247600E66E18D00101130E5D25E96E000E5E2191
:10248600EA6EEE520FE0130E5D25E16E000E5E2140
:10249600E26EE66A120E5D25E16E000E5E21E26EC8
:1024A600140EE66E36D00501409751915193120EE7
:1024B60001015D25E16E000E5E21E26E190EE66EEB
:1024C60028D027D060C1E9FF61C1EAFFEE50000ABB
:1024D600D8B426D760C1E9FF61C1EAFFEE50050A0C
:1024E600D8B456D760C1E9FF61C1EAFFEE500A0AC7
:1024F600D8B46BD760C1E9FF61C1EAFFEE500F0A9D
:10250600ABE060C1E9FF61C1EAFFEE50140ACBE01F
:04251600D8D7120000
:10251A00838C0501428B409D060E01015D25626F89
:10252A00000E5E21636F010E646F000E656F89EC09
:10253A0008F0005203E083720501437181B620D08E
:10254A000501408941934195419D419B42934291A6
:10255A004299429742950A0E01015D25626F000E6B
:10256A005E21636F010E646F000E656F89EC08F0DF
:10257A00005205E05DC1E1FF5EC1E2FFE66A09D0F3
:10258A000A0E01015D25626F000E5E21636F57EC32
:04259A0008F0120033
:10259E0001013C6B3D6B3E6B020E3925F66E000E53
:1025AE003A21F76E000E3B21F86E0900F5CF05F0CB
:1025BE00030E3925F66E000E3A21F76E000E3B2102
:1025CE00F86E0900F5CF00F000C003F0000E046EA7
:1025DE0003C001F0006A05500024066E000E0120B3
:1025EE00076E39C108F03AC109F03BC10AF0010E7D
:1025FE000824F66E000E0920F76E000E0A20F86E03
:10260E000900F5CF01F00150020A1BE1060E082465
:10261E00F66E000E0920F76E000E0A20F86E090005
:10262E00F5CF01F001503C5D0CE2060E0824F66E6B
:10263E00000E0920F76E000E0A20F86E0900F5CF85
:10264E003CF1010E0824F66E000E0920F76E000E06
:10265E000A20F86E0900F5CF01F00150040A1BE1C3
:10266E00080E0824F66E000E0920F76E000E0A20E2
:10267E00F86E0900F5CF01F001503C5D0CE2080E3A
:10268E000824F66E000E0920F76E000E0A20F86E72
:10269E000900F5CF3CF108C0F6FF09C0F7FF0AC0EC
:1026AE00F8FF0900F5CF00F000503D25016E000E39
:1026BE003E21026E01C03DF102C03EF10750025CA8
:1026CE0002E10650015C01E30FD008C0F6FF09C01D
:1026DE00F7FF0AC0F8FF0900F5CF00F000500826FA
:0E26EE00000E09220A2283D73CC100F0120020
:1026FC000C6A0E6A0250D8A497EF13F001C002F0D6
:10270C0000C001F0006A0E860250D8A497EF13F0B7
:10271C0001C002F0016A0E960E880250D8B4A9EFDF
:10272C0013F00E50035ED8A4D8A0AFEF13F0D890DE
:10273C0002BEB5EF13F0003601360236032E9EEFC3
:10274C0013F0AFEF13F0010E0C6E81EC00F0B9EF4B
:10275C0013F0020E0C6E88EC00F0B9EF13F0040EBF
:08276C000C6E95EC00F0120068
:10277400150E01015D255F6F000E5E21606F0DD1A6
:1027840005014191160E01015D25E16E000E5E21E9
:10279400E26EE66A05010451000812E2140E01011A
:1027A4005D25E96E000E5E21EA6EEE50190A08E11D
:1027B400150E5D25E16E000E5E21E26E030EE66EDF
:1027C40012D104C562F15EEC08F00052D8A4A0D086
:1027D40006C566F1AEEC00F000523DE0050E5D2545
:1027E400016E000E5E21026E01C0E9FF02C0EAFF25
:1027F400EE50010F006E01C0E1FF02C0E2FF00C015
:10280400E6FF01C0E9FF02C0EAFF020EEE5C1AE334
:10281400040E5D25016E000E5E21026E01C0E9FF0B
:1028240002C0EAFFEE50010F006E01C0E1FF02C0DA
:10283400E2FF00C0E6FF050E5D25E16E000E5E219D
:10284400E26EE66A1C0E5D25E16E000E5E21E26E0C
:10285400010EE66E1AD0040E5D25016E000E5E2197
:10286400026E01C0E9FF02C0EAFFEE50010F006EE4
:1028740001C0E1FF02C0E2FF00C0E6FF1C0E5D25BF
:10288400E16E000E5E21E26EE66A05010451020A61
:1028940007E00451050A04E00451080A01E012D0DB
:1028A400180E01015D25E16E000E5E21E26E010E3F
:1028B400E66E1D0E5D25E16E000E5E21E26E010ED8
:1028C400E66E0FD00101180E5D25E16E000E5E214B
:1028D400E26EE66A1D0E5D25E16E000E5E21E26E7B
:1028E400E66A120E5D25E16E000E5E21E26EE66A76
:1028F400140E5D25E16E000E5E21E26EE66A150E91
:102904005D25E16E000E5E21E26E050EE66E08D0D6
:10291400150E5D25E16E000E5E21E26E0F0EE66E71
:1029240062D00501418100AD12D0160E01015D2572
:10293400E16E000E5E21E26E010EE66E170E5D255D
:10294400E16E000E5E21E26E050EE66E18D0010106
:10295400160E5D25E96E000E5E21EA6EEE520FE062
:10296400160E5D25E16E000E5E21E26EE66A150E1E
:102974005D25E16E000E5E21E26E0A0EE66E33D036
:1029840005014191150E01015D25E16E000E5E21E8
:10299400E26EE66A28D027D026D05FC1E9FF60C185
:1029A400EAFFEE50000AD8B4EBD65FC1E9FF60C17C
:1029B400EAFFEE50030AD8B404D75FC1E9FF60C14F
:1029C400EAFFEE50050AADE05FC1E9FF60C1EAFF2E
:1029D400EE500A0AD5E05FC1E9FF60C1EAFFEE509C
:0829E4000F0AD9E0D9D7120057
:1029EC00839205014391839C429B81B20CD0010ED2
:1029FC0001015D25E16E000E5E21E26EE66A839EAA
:102A0C000501429F2BD081B429D081B814D0010E7E
:102A1C0001015D25E16E000E5E21E26E010EE66E97
:102A2C00020E5D25E16E000E5E21E26EE66A838E7B
:102A3C000501428F13D0020E01015D25E16E000EDF
:102A4C005E21E26E010EE66E010E5D25E16E000E5A
:102A5C005E21E26EE66A839E0501429F030E010130
:102A6C005D25E96E000E5E21EA6EEECF00F000529D
:102A7C000AE1050109A102D0438583848390439325
:102A8C00838A428D09D0050109A102D08394439514
:0A2A9C0083804383839A429D120059
:102AA600E70E83148C6E49C15DF14AC15EF1C3EC39
:102AB6000BF081A007D049C162F14AC163F1B1ECC4
:102AC60007F02FD049C1E9FF4AC1EAFFEECF00F077
:102AD600005206E049C15DF14AC15EF11BDD21D01D
:102AE60049C15DF14AC15EF17EDF49C15DF14AC16E
:102AF6005EF10EDC49C15DF14AC15EF100EC11F0F8
:102B060049C15DF14AC15EF132DE49C15DF14AC19A
:102B16005EF104EC0BF049C15DF14AC15EF120ECB7
:042B26000CF012009D
:102B2A00BF0E8314006E009AF70E00148C6E800E8E
:0C2B3A008310006E100E00108C6E120054
:102B46004DC104F04EC105F04FC106F050C107F06B
:102B560049C100F04AC101F04BC102F04CC103F07B
:102B6600C8EC10F000C051F101C052F102C053F19F
:102B760003C054F14DC004F04EC005F04FC006F03E
:102B860050C007F00AEC04F000C04DF001C04EF052
:102B960002C04FF003C050F000C004F001C005F0C1
:102BA60002C006F003C007F0000E006E000E016EB4
:102BB600480E026E850E036ED9EC0FF0010ED8B0EA
:102BC600000E006E005208E0000E4D6E000E4E6EB6
:102BD600480E4F6E850E506E000E046E000E056E8A
:102BE600C80E066E850E076E4DC000F04EC001F091
:102BF6004FC002F050C003F0D9EC0FF0010ED8B070
:102C0600000E006E005208E0000E4D6E000E4E6E75
:102C1600C80E4F6E850E506E45C004F046C005F0D6
:102C260047C006F048C007F051C100F052C101F09C
:102C360053C102F054C103F0C8EC10F0CD0E046E7F
:102C4600CC0E056E4C0E066E7B0E076E6BEC09F015
:102C560000C055F101C056F102C057F103C058F14A
:102C6600660E006E660E016E660E026E7E0E036EB8
:102C760049C004F04AC005F04BC006F04CC007F04E
:102C86006BEC09F055C104F056C105F057C106F0CA
:102C960058C107F00AEC04F000C059F101C05AF11E
:102CA60002C05BF103C05CF151C145F052C146F070
:102CB60053C147F054C148F059C149F05AC14AF0CE
:102CC6005BC14BF05CC14CF0000E006E000E016E55
:102CD600200E026E810E036E51C104F052C105F042
:102CE60053C106F054C107F06BEC09F000C055F172
:102CF60001C056F102C057F103C058F1000E006E34
:102D0600000E016E000E026E7E0E036E4DC004F0C4
:102D16004EC005F04FC006F050C007F06BEC09F04E
:102D260055C104F056C105F057C106F058C107F069
:102D36000AEC04F000C055F101C056F102C057F18B
:102D460003C058F1CD0E006ECC0E016E4C0E026E15
:102D56007C0E036E59C104F05AC105F05BC106F042
:102D66005CC107F06BEC09F055C104F056C105F0E3
:0E2D760057C106F058C107F00AEC04F0120035
:062D84008C948C8012000B
:062D8A008C948C80120005
:102D90000501546B556B01015D6BD4EC0AF0050124
:102DA000526B536B01015D6BF0EC0BF08C90EE0EEF
:102DB0005D6F000E5E6FF40E5F6F010E606FCCEC06
:0A2DC00010F00052D8A48C74120029
:102DCA000501486B076B49C1E1FF4AC1E2FF010EE9
:102DDA00E66E010E01014925E16E000E4A21E26EFE
:102DEA00E66A020E4925E16E000E4A21E26EE66AA3
:102DFA00030E4925E16E000E4A21E26EE66A040ED0
:102E0A004925E16E000E4A21E26EE66A050E492561
:102E1A00E16E000E4A21E26EE66A120E4925E16E63
:102E2A00000E4A21E26EE66A130E4925E16E000E93
:102E3A004A21E26EE66A140E4925E16E000E4A2125
:102E4A00E26EE66A150E4925E16E000E4A21E26E2F
:102E5A00E66A160E4925E16E000E4A21E26EE66A1E
:102E6A00170E4925E16E000E4A21E26EE66A180E37
:102E7A004925E16E000E4A21E26EE66A190E4925DD
:102E8A00E16E000E4A21E26EE66A1C0E4925E16EE9
:102E9A00000E4A21E26EE66A1D0E4925E16E000E19
:102EAA004A21E26EE66A1A0E4925E16E000E4A21AF
:102EBA00E26EE66A1B0E4925E16E000E4A21E26EB9
:042ECA00E66A1200A2
:102ECE00BF0E8314006E009A0092FE0E00148C6EDC
:0E2EDE00800E8310006E040E00108C6E120029
:102EEC008C908C928C848C9A8C9C8C8E8C968C88EE
:022EFC001200C2
:102EFE00FE0E8314006E0092F70E00148C6E040EFC
:0C2F0E008310006E100E00108C6E12007C
:042F1A00A19A120066
:102F1E000001B151000A0CE16D6A696ADDEC08F03E
:102F2E00CFEC0AF06DB602D06D86FCD7010EB16FF4
:022F3E0012007F
:0A2F40006984EF0E68166D8212001E
:102F4A00C3EC08F00101116B126B0001A36BA46BB7
:102F5A006A6A686ADDEC08F06D8C6E6A716A6D9C4B
:102F6A00C56BC66B000EC65D02E1080EC55D17E2B1
:102F7A00C5C000F0C6C001F0003600900136003628
:102F8A0000900136000E0024E16E040E0120E26E6C
:102F9A00E66AE66AE66AE66AC54BC62BE3D7160E08
:102FAA00706E68A603D0F70E6816FBD7A96B536A32
:102FBA00546A556A6D98080EB26F040EB36FBB6BF4
:042FCA00B16B1200D5
:102FCE007AEC0FF000C037F1380E0101396F4B0E5D
:102FDE003A6F000E3B6FCFEC12F000C038F1375154
:102FEE00005C03E237C100F002D038C100F01200DD
:102FFE000B6A0A6A096A086A0E6A033408360450B4
:10300E00085E0550D8A0053C095E0650D8A0063CC7
:10301E000A5E0750D8A0073C0B5EE86AD8A0010EE6
:10302E000E5E0336070E0C6E0334083609360A366A
:10303E000B360E36045003A012D0085E0550D8A0F1
:10304E00053C095E0650D8A0063C0A5E0750D8A083
:10305E00073C0B5EE86AD8A0010E0E5E11D0082662
:10306E000550D8B0053C09260650D8B0063C0A26B5
:10307E000750D8B0073C0B26E86AD8B0010E0E26D2
:10308E0003360C2ED1D70234083609360A360B36E3
:10309E000E36045003A012D0085E0550D8A0053C91
:1030AE00095E0650D8A0063C0A5E0750D8A0073C21
:1030BE000B5EE86AD8A0010E0E5E11D008260550F0
:1030CE00D8B0053C09260650D8B0063C0A26075053
:1030DE00D8B0073C0B26E86AD8B0010E0E26023691
:1030EE00070E0C6E0234083609360A360B360E36CB
:1030FE00045002A012D0085E0550D8A0053C095E0F
:10310E000650D8A0063C0A5E0750D8A0073C0B5EBE
:10311E00E86AD8A0010E0E5E11D008260550D8B070
:10312E00053C09260650D8B0063C0A260750D8B0F2
:10313E00073C0B26E86AD8B0010E0E2602360C2E7E
:10314E00D1D70134083609360A360B360E360450FE
:10315E0002A012D0085E0550D8A0053C095E0650AC
:10316E00D8A0063C0A5E0750D8A0073C0B5EE86A62
:10317E00D8A0010E0E5E11D008260550D8B0053C21
:10318E0009260650D8B0063C0A260750D8B0073C90
:10319E000B26E86AD8B0010E0E260136070E0C6E0D
:1031AE000134083609360A360B360E36045001A0A5
:1031BE0012D0085E0550D8A0053C095E0650D8A076
:1031CE00063C0A5E0750D8A0073C0B5EE86AD8A002
:1031DE00010E0E5E11D008260550D8B0053C09260A
:1031EE000650D8B0063C0A260750D8B0073C0B262E
:1031FE00E86AD8B0010E0E2601360C2ED1D7003457
:10320E00083609360A360B360E36045001A012D097
:10321E00085E0550D8A0053C095E0650D8A0063CB5
:10322E000A5E0750D8A0073C0B5EE86AD8A0010ED4
:10323E000E5E11D008260550D8B0053C0926065062
:10324E00D8B0063C0A260750D8B0073C0B26E86AD1
:10325E00D8B0010E0E260036070E0C6E003408365E
:10326E0009360A360B360E36045000A012D0085E10
:10327E000550D8A0053C095E0650D8A0063C0A5E53
:10328E000750D8A0073C0B5EE86AD8A0010E0E5E70
:10329E0011D008260550D8B0053C09260650D8B0E6
:1032AE00063C0A260750D8B0073C0B26E86AD8B071
:1032BE00010E0E2600360C2ED1D700B00ED00450C3
:1032CE0008260550D8B0053C09260650D8B0063C55
:0C32DE000A260750D8B0073C0B2612004F
:1032EA000050086E0150006E016A026A036A0B6A96
:1032FA000C6A960E036E0A6A00C001F008C000F05C
:0A330A00086A026A7EEC13F012005C
:10331400B2C0E9FFB3C0EAFFEECF00F000AE05D0C3
:10332400B2C0E1FFB3C0E2FFE66A0001A56BB06B77
:10333400AA6BAB6BA96BF2EC08F063EC09F0FEEC42
:0433440009F012007A
:10334800040E0001B219006E00C0B2F0B151080AB3
:103358000AE122C46EFF6E50000803E2100EB16F3E
:1033680002D0040EB16FB051010A3BE1020EB22542
:10337800E16E000EB321E26E280EE66E040EE66ED4
:1033880043EC02F0A551020A07E1B2C0E1FFB3C065
:10339800E2FF840EE66E24D0040EB219006E00C05F
:1033A800B2F0B2C0E9FFB3C0EAFFEECF00F000BC54
:1033B8000CD0040EB219006E00C0B2F0B2C0E1FF2A
:1033C800B3C0E2FFC80EE66E0BD0040EB219006E51
:1033D80000C0B2F0B2C0E1FFB3C0E2FF880EE66EF3
:0833E80002D068EC0FF01200A6
:1033F00070A01CD061C0E9FF62C0EAFFEECF01F00F
:103400000150800A12E1B2C0E9FFB3C0EAFFEECF7B
:1034100001F0000E000A02E1840E011806E161C00D
:10342000E1FF62C0E2FF8C0EE66E7090DF0E681660
:02343000120088
:103432000B6A0C6A0A6A0350D8B463EF1AF0028E60
:103442008E0E035E03BE2BEF1AF0D8B42BEF1AF0E8
:1034520067EF1AF0036C080E035CD8A042EF1AF073
:10346200036E013602C001F0026A080E035CD8A0A6
:1034720042EF1AF00136016A0350D8A4D8904CEFFB
:103482001AF00350D8B44CEF1AF0D890023201323D
:10349200032E46EF1AF00BBC01A059EF1AF0D8A088
:1034A20059EF1AF0012AD8B4022A02BE76EF1AF0B6
:1034B2000AAE7CEF1AF0021E011E012AD8B4022ABB
:1034C2007CEF1AF0026A016A7CEF1AF00B800BAEF5
:1034D20080EF1AF0026A0AAE80EF1AF0FF0E026E57
:1034E200016E0A36023280EF1AF0010E0C6EE4EC25
:1034F20008F082EF1AF0000E0C6E82EF1AF0FF0E47
:0C3502000C6E0150006E0250016E1200B1
:10350E000501546B556B01015D6BD4EC0AF005019E
:10351E00526B536B01015D6BF0EC0BF08C900B0E4C
:10352E005D6F010E5E6FF40E5F6F010E606FCCEC7F
:0A353E0010F00052D8A48C741200A3
:103548000001B051020A03E140EC10F01FD068EC12
:103558000FF05F50000A19E1010EA125E16E000E7F
:10356800A221E26E080EE66E020EA125E16E000EA3
:10357800A221E26E200EE66E040EE66EA1C0E1FF07
:0E358800A2C0E2FF8C0EE66E01D05F6A120058
:103596006D92699468A403D0FB0E6816FBD71200DF
:1035A6000450000A12E10550000A0FE10650000A15
:1035B6000CE10750000A09E1FF0E006EFF0E016ED6
:1035C6007F0E026EFF0E036EA8D0086A096A0750C6
:1035D600D8B47EEF1BF00350D8B483EF1BF0025033
:1035E60006180A6E028E068E0E6A02C008F001C028
:1035F6000CF000C00DF004500D5E0550D8A0053C3F
:103606000C5E0650D8A0063C085E086A0C6A0D6A75
:10361600D8A015EF1BF0D8900232013200320832E2
:10362600010E0E6E0750035ED8A022EF1BF07E0E31
:103636000E240326D8B088EF1BF028EF1BF07E0E71
:103646000E240326D8A08DEF1BF0180E0B6E0D3638
:103656000C3608360036013602360E360450005E49
:103666000550D8A0053C015E0650D8A0063C025E77
:1036760006340E120EA043EF1BF00D804EEF1BF02A
:10368600045000260550D8B0053C01260650D8B097
:10369600062802260D900B2E2AEF1BF074EF1BF066
:1036A600D8900036013602360E360450005E0550BC
:1036B600D8A0053C015E0650D8A0063C025E063442
:1036C6000E10010B0D26D8B00C2AD8B4082AD8A49F
:1036D60074EF1BF008320C320D32032AD8B488EF8F
:1036E6001BF00AAE089E0850026E0C50016E0D507B
:1036F600006E90EF1BF0010E67EC09F090EF1BF0E7
:10370600020E81EC00F090EF1BF0040E75EC00F059
:0C37160090EF1BF0080E88EC00F0120091
:103722008C6A01015D6BF0EC0BF05D6BD4EC0AF07E
:02373200120083
:103734000501466B2E520BE0085183188C6E0AC5A6
:103744005DF1F0EC0BF011C55DF1D4EC0AF0120060
:103754003CDC00C05DF0010E5C6E2DC119F12EC180
:103764001AF12FC1B9F030C1BAF0A5EC17F0010E6F
:0E377400016E0150010A02E18FEC17F0120005
:0C378200240E0D6E0D2EFED7000012006C
:10378E00030E0501466FBED08C808C928C9495EC06
:10379E0015F0FA0E0101626F000E636F080E646F72
:1037AE00000E656F89EC08F0005202E0010E366ED5
:1037BE00CAD08C908C828C9495EC15F0FA0E010187
:1037CE00626F000E636F030E646F000E656F89ECFF
:1037DE0008F0005202E0020E366EB5D076EC17F00D
:1037EE00FA0E0101626F000E636F010E646F000E20
:1037FE00656F89EC08F0005202E0030E366EA3D01E
:10380E008C8A8C9C8C9E7FEC17F0FA0E0101626FF5
:10381E00000E636F080E646F000E656F89EC08F082
:10382E00005202E0040E366E8ED08C9A8C8C8C9EDA
:10383E007FEC17F0FA0E0101626F000E636F030E3C
:10384E00646F000E656F89EC08F0005202E0050E01
:10385E00366E79D076EC17F0FA0E0101626F000E1B
:10386E00636F010E646F000E656F89EC08F00052F5
:10387E0002E0060E366E67D08C868C9867EC17F0D9
:10388E00FA0E0101626F000E636F050E646F000E7B
:10389E00656F89EC08F0005202E0070E366E53D0C9
:1038AE008C96FE0E01015D6F000E5E6FF40E5F6F63
:1038BE00010E606FCCEC10F00052D8A48C7867EC3F
:1038CE0017F0FA0E626F000E636F030E646F000E38
:1038DE00656F89EC08F0005202E0080E366E33D0A8
:1038EE0076EC17F0FA0E0101626F000E636F010E97
:1038FE00646F000E656F89EC08F00052D8A4366A2A
:10390E0022D021D03650000AD8B43ED73650010A04
:10391E00D8B44FD73650020AD8B460D73650030AFF
:10392E00D8B46ED73650040AD8B47FD73650050AAD
:10393E0091E03650060AA0E03650070AB1E0365044
:08394E00080ACEE0DED71200EA
:10395600020E0501466FCC0E0101496F000E4A6F3B
:0639660053EC15F0120005
:10396C00000E01012E1902E1000E2D1902E1016A6F
:10397C000AD02DC1E9FF2EC1EAFFEECF00F0000EF8
:0C398C0000BE010E016E01C000F0120030
:0239980012001B
:10399A00060E0501466F81B403D001010F6B07D0F3
:1039AA0081B005D00101010E0F6FC5EC16F00101BF
:1039BA000F53D8B472D0070E5D6F010E5E6FE80E1A
:1039CA005F6F030E606FCCEC10F0005265E00EC51D
:1039DA0001F0006A005005010D11026E000E01107F
:1039EA00036E01011651031802E10250151946E04F
:1039FA000EC501F0006A005005010D11026E000E9D
:103A0A000110036E01011651035C02E11551025CBB
:103A1A0012E20501546B556B01015D6BD4EC0AF09F
:103A2A00E80E0501526F030E536F640E01015D6FBC
:103A3A00F0EC0BF022D00EC501F0006A005005012F
:103A4A000D11026E000E0110036E03500101165D86
:103A5A0002E10250155D11E20501526B536B01013F
:103A6A005D6BF0EC0BF0E80E0501546F030E556F19
:103A7A00640E01015D6FD4EC0AF00ED00501526BA1
:103A8A00536B01015D6BF0EC0BF00501546B556B48
:0E3A9A0001015D6BD4EC0AF001D034DD1200A6
:103AA8000B6A0C6A0A6A0350D8B489EF1DF00A9EA3
:103AB800028E860E035E03BE67EF1DF0D8B467EF73
:103AC8001DF08CEF1DF0036C080E035CD8A075EF99
:103AD8001DF0036E0236026A0350D8A4D8907EEF18
:103AE8001DF00350D8B47EEF1DF0D8900232032E9B
:103AF80079EF1DF00BBC02A089EF1DF0D8A089EF6B
:103B08001DF0022AD8B493EF1DF0016A99EF1DF059
:103B18000B800BAE9DEF1DF0016A9DEF1DF0010EAD
:103B28000C6EE4EC08F09FEF1DF0000E0C6E9FEF9A
:0C3B38001DF0FF0E0C6E0250006E12001B
:103B440001012E51000A12E02DC100F0000E016E99
:103B5400003600900136B20E0024E96E000E0120FA
:103B6400EA6EEECF04F0EECF05F011D02DC100F0D7
:103B7400000E016E003600900136C80E0024E96E76
:103B8400000E0120EA6EEECF04F0EECF05F0020E37
:103B94000424E16E000E0520E26E2FC1E6FF30C161
:103BA400E6FF010E0424E16E000E0520E26E31C131
:103BB400E6FF04C0E9FF05C0EAFFEECF00F004C051
:103BC400E1FF05C0E2FF400E0014E66E04C0E9FF09
:103BD40005C0EAFFEECF00F0880E001204C0E1FF3A
:103BE40005C0E2FF00C0E6FF2E51000A1BE02DC114
:103BF40000F0000E016E003600900136B20E002473
:103C0400026E000E0120036E02C0E9FF03C0EAFF4A
:103C1400040EEE18006E02C0E1FF03C0E2FF00C014
:103C2400E6FF1AD02DC100F0000E016E00360090A0
:103C34000136C80E0024026E000E0120036E02C07D
:103C4400E9FF03C0EAFF040EEE18006E02C0E1FFB4
:103C540003C0E2FF00C0E6FF04C000F005C001F0AD
:023C640012004C
:103C66000001B151000A0BE16D6A696ADDEC08F0EA
:103C76006DB602D06D86FCD70001010EB16FB15151
:103C8600010A08E16DBA06D0686A696A69806988BE
:103C9600020EB16F68A405D069A403D0FB0E6816A6
:103CA60077DC6DA203D08DEC17F0E1D068A019D0B7
:103CB60069A017D0A5EC17F0040EB16F200E040111
:103CC600026F040E036F080E016F000E0015006EE2
:103CD60000C000F48C0E0011006E00C000F4FE0E51
:103CE600681668A806D069A804D0A0EC17F0EF0EF5
:103CF600681668AC04D069AC02D0BF0E681668AA14
:103D060004D069AA02D0F8EC19F068A202D069B210
:103D16006A6A040E0001B15D03E28DEC17F0A7D0CC
:103D260069A6A3D001012E6B040E2E5DD8B09DD0DE
:103D360068A697D06CCF10F1F70E6816780E10159E
:103D4600016E0150000AD8A48BD0FD0E1015016E2D
:103D5600026AFF0E0216000E021802E1000E01189A
:103D66006FE17E0E1015016E01C003F00332039E53
:103D760003C000F0000E016E0036009001360036DA
:103D860000900136000E0024026E040E0120036E20
:103D960002C061F003C062F002C0A1F003C0A2F04D
:103DA600040E0001A119006E00C0A1F002C0E9FFD7
:103DB60003C0EAFFEECF00F000C001F03C0E011692
:103DC6000132019E0132019E01500D0A36E1020EBA
:103DD6006125E96E000E6221EA6EEECF01F0EECFAC
:103DE60002F00250040A02E1280E011823E1020E35
:103DF6006125E16E000E6221E26E200EE66E040E73
:103E0600E66E01012D6B080E2D5D14E2200EE16EAB
:103E1600040EE26E2D51E126D8B0E22A280EE96E94
:103E2600040EEA6E2D51E926D8B0EA2AEECFE6FF57
:103E36002D2BE9D78AEC19F002D0A4EC1AF00FD09A
:103E4600FD0E01011015016E026AFF0E0216000E2C
:103E5600021802E1040E011802E1A4EC19F000D0E8
:103E660001D003D001012E2B5FD78DEC17F0120085
:103E76002DC104F02EC105F0000E066E076E043645
:103E8600049005360636073604360490053606369F
:103E96000736000E006E6C0E016EDC0E026E020E10
:103EA600036EFFEC17F000C004F001C005F002C07D
:103EB60006F003C007F0010E045E000E055A065A0E
:103EC600075A04C033F105C034F106C035F107C006
:103ED60036F10750000808E10650000805E10550D4
:103EE600000802E10450FF0808E2FF0E01012F6FEF
:103EF600000E306F316F326F08D033C12FF134C1ED
:103F060030F135C131F136C132F12FC1CBFF12008C
:023F1600120097
:0A3F18000101026BC8EC16F0120064
:103F2200CC0E0101496F000E4A6FE5EC16F012004B
:103F3200010E0501466F394A3A2A030E3A5C02E144
:103F4200E80E395C04E3831C8C6E396A3A6A12000B
:0A3F520001010F6B87EC1AF012005A
:103F5C00040E0501466F374A382A3850070A02E129
:103F6C00D00E371809E18350010F006E00C083FF9B
:0A3F7C0083CF8CFF376A386A120009
:103F8600050E0501466F81B403D00101026B07D00F
:103F960081B005D00101010E026FC2EC16F00101DD
:103FA6000253D8B41CD1EA0E5D6F000E5E6FE80EA8
:103FB6005F6F030E606FCCEC10F00052D8B40ED1D8
:103FC6000EC501F0006A05010D510012000E011226
:103FD60075EC19F000C045F101C046F102C047F189
:103FE60003C048F145C1F2F046C1F3F047C1F4F011
:103FF60048C1F5F015C100F016C101F075EC19F0D5
:1040060000C0F6F001C0F7F002C0F8F003C0F9F006
:1040160000C049F101C04AF102C04BF103C04CF1A6
:1040260045C14DF146C14EF147C14FF148C150F16E
:10403600A3EC15F000C030F001C031F002C032F040
:1040460003C033F000C004F001C005F002C006F062
:1040560003C007F0006A016A026A036AD9EC0FF02E
:10406600010ED8B0000E006E005251E00501546BEF
:10407600556B01015D6BD4EC0AF030C000F031C025
:1040860001F032C002F033C003F019EC1AF000C0A0
:1040960052F501C002F0036A02C053F5000E046E29
:1040A600C00E056E7F0E066E880E076E30C000F0DD
:1040B60031C001F032C002F033C003F0D3EC1AF085
:1040C600000E046E000E056E480E066E850E076E17
:1040D6006BEC09F019EC1AF000C034F001C035F0B1
:1040E600000E026E0150025C02E10050640806E216
:1040F600640E0101416F000E426F04D034C041F1DD
:1041060035C042F141C15DF1F0EC0BF067D0327E73
:104116000501526B536B01015D6BF0EC0BF0000E69
:104126003018006E000E3118016E800E3218026EC5
:10413600000E3318036E19EC1AF000C054F5000E89
:104146003018006E000E3118016E800E3218026EA5
:10415600000E3318036E19EC1AF001C002F0036A60
:1041660002C055F5000E3018006E000E3118016EB3
:10417600800E3218026E000E3318036E000E046EA7
:10418600C00E056E7F0E066E880E076ED3EC1AF013
:10419600000E046E000E056E480E066E850E076E46
:1041A6006BEC09F019EC1AF000C034F001C035F0E0
:1041B600000E026E0150025C02E10050640806E245
:1041C600640E0101436F000E446F04D034C043F106
:1041D60035C044F143C15DF1D4EC0AF002D0C8EC1D
:0441E60016F01200BD
:1041EA009492949425C100F026C101F027C102F0EF
:1041FA0028C103F019EC1AF000C02DF101C02EF10C
:10420A0035DE0C0EBD6E0C0EBA6EBE6ABB6A070EA8
:04421A00CA6E120056
:10421E00C26A2F1C006E0050C116070EC012C08E4F
:10422E0025C100F000360090003600900050C212FA
:10423E00C280C1EC1BF0C282C2A201D0FDD7C4CF96
:10424E0001F0006AC3500012000E0112C29012005B
:10425E000101255303E0F28AD58E02D0F29AD59E43
:02426E0012003C
:104270009B0E01012B6F000E2C6F296B2A6B800E99
:104280002A19006E800E005C02E1040E295D0AE22C
:104290002BC1E1FF2CC1E2FFE66A2B4B2C2B294BF3
:1042A0002A2BEDD7D59ED58CD59AD598D596D58481
:1042B000D592D58025C100F026C101F027C102F0BA
:1042C00028C103F0000E046E1B0E056E370E066E3D
:1042D000960E076E6BEC09F0000E046E000E056E74
:1042E000000E066E850E076ED3EC1AF000C004F0C7
:1042F00001C005F002C006F003C007F0000E006E1A
:10430000000E016E000E026E870E036EC8EC10F0F8
:0A43100054EC1DF000C05EF0120036
:10431A0001012B6B200E0001B15D03E36DB201D0E8
:10432A0002D0006A2FD011C12DF112C12EF1B6ECC4
:10433A001CF0005226E111C129F112C12AF1000E26
:10434A00121902E1000E11190AE0010E2925E96E7F
:10435A00000E2A21EA6EEECF00F000C02BF128C130
:10436A002DF12E6B25C12FF126C130F127C131F174
:10437A00A2EC1DF000C011F101C012F12BC100F036
:06438A0001D0006A1200E0
:10439000FF0E0001AC6FFF0EAD6FFF0EAE6FFF0E94
:1043A000AF6FC26A2F1C006E0050C116070EC012FC
:0643B000C08EC280120065
:0843B600D09EF28EF28C120081
:1043BE00200E0001B15D03E36DB201D002D0006AA0
:1043CE0054D0A3C02DF1A4C02EF1B6EC1CF00052B7
:1043DE004BE128C12DF1010E2E6F25C12FF126C103
:1043EE0030F127C131F1A2EC1DF000C0A3F001C0E5
:1043FE00A4F0036B046B056B066BA3C02DF1A4C078
:10440E002EF1B6EC1CF0005218E0200E0001B15D4A
:10441E0003E36DB201D002D0006A27D0010E016E07
:10442E000150000A01E118DC0101035104110511CC
:10443E00061102E0006A19D0E0D7A3C029F1A4C08A
:10444E002AF1000E0001A41902E1000EA3190AE0E0
:10445E00010E01012925E96E000E2A21EA6EEECF2A
:0C446E0000F003D0006A01D0006A1200C8
:10447A00F250026EF29E0500FF6A0150FE6E005075
:08448A00FD6E02BEF28E12006D
:10449200000E01012D6F050E2E6F400E2F6F050EBF
:0844A200306FAAEC1BF01200C0
:1044AA00B70E926EFF0E936EF19E956A8C6A120099
:1044BA001BC125F11CC126F11DC127F1010E010105
:0644CA00286F78DF1200EC
:1044D00081CF4DF583CF4EF513C14AF514C102F0DB
:1044E000036A02C04BF515C100F00036009000369B
:1044F00000900050021005014B6F060E026E15C1B0
:1045000000F016C101F0025005E001320032019EB8
:10451000FF0FFAD700C04CF517C14FF518C100F0D6
:08452000016A00C050F5120011
:1045280023C100F024C101F00036009001360036A6
:1045380000900136630E0024E16E000E0120E26E49
:104548001BC1E6FF1CC1E6FF1DC1E6FF1EC1E6FF59
:1045580023C100F024C101F0003600900136003676
:10456800009001367F0E0024E16E000E0120E26EFD
:104578001FC1E6FF20C1E6FF21C1E6FF22C1E6FF19
:0245880012001F
:10458A0002DF8EDF000E0101256F800E266F3B0EC3
:10459A00276F8A0E286F24DE77DF6F0E0101256FE1
:1045AA00120E266F030E276F750E286F5CDE010E42
:0A45BA000101256F4FDEFADE12004A
:1045C4000900F5CFE6FF0006FBE10106F9E1120060
:1045D4000001B151010A07E16DBA05D0686A69802A
:1045E4006988020EB16F68A406D069A404D0FB0EDA
:1045F4006816CBEC1AF06DA203D08DEC17F0E1D065
:1046040068A019D069A017D0A5EC17F0040EB16FFB
:10461400200E0401026F040E036F080E016F000EDA
:104624000015006E00C000F48C0E0011006E00C076
:1046340000F4FE0E681668A806D069A804D0A0ECA1
:1046440017F0EF0E681668AC04D069AC02D0BF0E48
:10465400681668AA04D069AA02D0F8EC19F068A216
:1046640002D069B26A6A040E0001B15D03E28DEC06
:1046740017F0A7D069A6A3D00101406B040E405DDA
:10468400D8B09DD068A697D06CCF10F1F70E6816FD
:10469400780E1015016E0150000AD8A48BD0FD0EBF
:1046A4001015016E026AFF0E0216000E021802E1D6
:1046B400000E01186FE17E0E1015016E01C003F0AB
:1046C4000332039E03C000F0000E016E003600901A
:1046D4000136003600900136000E0024026E040EEE
:1046E4000120036E02C061F003C062F002C0A1F0B9
:1046F40003C0A2F0040E0001A119006E00C0A1F0D5
:1047040002C0E9FF03C0EAFFEECF00F000C001F0F1
:104714003C0E01160132019E0132019E01500D0A28
:1047240036E1020E6125E96E000E6221EA6EEECFDB
:1047340001F0EECF02F00250040A02E1280E011843
:1047440023E1020E6125E16E000E6221E26E200E6D
:10475400E66E040EE66E01013F6B080E3F5D14E247
:10476400200EE16E040EE26E3F51E126D8B0E22A3B
:10477400280EE96E040EEA6E3F51E926D8B0EA2A03
:10478400EECFE6FF3F2BE9D78AEC19F002D0A4EC78
:104794001AF00FD0FD0E01011015016E026AFF0E12
:1047A4000216000E021802E1040E011802E1A4EC44
:1047B40019F000D001D003D00101402B5FD78DEC5C
:0447C40017F01200D8
:1047C8000501458105C500F0000E016E0036009018
:1047D80001360036009001367F0E0024E96E000E87
:1047E8000120EA6EEECF00F0EECF01F0EECF02F03E
:0847F800EECF03F03EDE1200DB
:10480000076A086A3D0E096E000E0A6E800E0818CF
:10481000006E800E005C02E1040E075C52E209C0EB
:10482000E9FF0AC0EAFF010EEE24006E000EEE2042
:10483000016E09C0E1FF0AC0E2FF00C0E6FF01C04F
:10484000E6FF09C0E9FF0AC0EAFFEECF05F0EECFB0
:1048500006F007C000F008C001F0000E08BEFF0E11
:10486000026E036E00360090013602360336B70E34
:104870000024F66E4B0E0120F76E000E0220F86E3B
:104880000900F5CF01F00900F5CF02F00250065CF7
:1048900002E10150055C0EE39B0E0724E16E000E61
:1048A0000820E26E010EE66E09C0E1FF0AC0E2FFD9
:1048B000E66AE66A074A082A020E0926000E0A225C
:0848C000A5D75EC0D6FF12006F
:1048C80019C125F11AC126F1400E0101276F010E09
:0648D800286F1FDD120035
:1048DE0001011B6B030E1B5D4EE21D6B1E6B1F6BEE
:1048EE00206B1C6B100E1C5D1AE21BC125F190DCB7
:1048FE0075EC19F01DC104F01EC105F01FC106F0C4
:10490E0020C107F00AEC04F000C01DF101C01EF139
:10491E0002C01FF103C020F101011C2BE3D71BC104
:10492E0000F0000E016E003600900136130E0024CA
:10493E00216F010E0120226F000E046E000E056E17
:10494E00000E066E830E076E1DC100F01EC101F033
:10495E001FC102F020C103F0D3EC1AF019EC1AF0CB
:10496E0021C1E1FF22C1E2FF00C0E6FF01C0E6FF68
:08497E0001011B2BAFD7120051
:10498600E2EC25F0220E01011B6F370E1C6F000EA4
:104996001D6F000E1E6F340E1F6F370E206F000E38
:1049A600216F000E226F236B246BBBDD160E1B6F6F
:1049B6003F0E1C6F000E1D6F000E1E6F320E1F6F16
:1049C6003F0E206F000E216F000E226F010E236F27
:1049D600000E246FA6DD980E1B6F390E1C6F000E9D
:1049E6001D6F000E1E6F5C0E1F6F3F0E206F000EB8
:1049F600216F000E226F040E236F000E246F91DDCF
:104A0600180E1B6F3F0E1C6F000E1D6F000E1E6FE3
:104A1600860E1F6F3F0E206F000E216F000E226F55
:104A2600050E236F000E246F7CDD060E1B6F000E35
:104A36001C6F000E1D6F000E1E6F8E0E1F6F370E41
:104A4600206F000E216F000E226F030E236F000EE3
:104A5600246F67DD220E1B6F3F0E1C6F000E1D6F4D
:104A6600000E1E6F560E1F6F390E206F000E216F3F
:104A7600000E226F020E236F000E246F52DD520EBF
:104A86001B6F3F0E1C6F000E1D6F000E1E6F9A0EE1
:104A96001F6F390E206F000E216F000E226F060E5B
:104AA600236F000E246F3DDD6DDD0501056B0001F2
:104AB6009B5306E006DF00C02EF00EDF00019B6B65
:104AC6009D530BE002DD400E01011B6F050E1C6FAE
:0E4AD600400E1D6FEFDC00019D6BE9D7FFD78E
:104BC40010EE2EF0230E006E010E016E610EF66ED5
:0E4BD4004B0EF76E000EF86EE2EC22F01200AF
:104AE4002A03430065006E007400720061006C00CC
:104AF400200043006F006E00740072006F006C00B1
:0A4B0400610064006F0072006100A0
:104B0E002A03430065006E007400720061006C00A1
:104B1E00200043006F006E00740072006F006C0086
:0A4B2E00610064006F007200610076
:104B38000902290001010080320904000002030073
:104B4800000009210101000122210007058103401D
:094B580000010705010340000102
:014B61000053
:014B62003022
:044B6300000000004E
:024B670000004C
:014B6900004B
:024B6A00000049
:024B6C00000047
:024B6E00000045
:084B700000000000000000003D
:044B78000000000039
:044B7C000000000035
:044B80000000000031
:104B84000600FF0901A10119012940150026FF00B3
:104B940075089540810219012940750895409102D4
:014BA400C050
:104BA5001201000200000008341201000001010298
:024BB5000001FD
:084BB7000100020003000500EB
:044BBF0004030904DE
:020000040030CA
:0E000000240E381EFF0181FF0FC00FE00F40DD
:00000001FF
