:04000000CBEF24F02E
:020006001200E6
:1000080000C023F001C022F002C021F003C020F09C
:1000180004C01FF005C01EF006C01DF007C01CF08C
:1000280008C01BF009C01AF00AC019F00BC018F07C
:100038000CC017F00DC016F00EC015F0E1CF2CF073
:10004800E2CF2DF0E9CF2AF0EACF2BF0F3CF28F05A
:10005800F4CF29F0F5CF27F0F8CF24F0F7CF25F02B
:10006800F6CF26F0F2A405D0ECEC23F008EC24F04F
:10007800F294A1AA03D0F2EC22F0A19A27C0F5FFCE
:1000880024C0F8FF25C0F7FF26C0F6FF28C0F3FFFD
:1000980029C0F4FF23C000F022C001F021C002F003
:1000A80020C003F01FC004F01EC005F01DC006F0FC
:1000B8001CC007F01BC008F01AC009F019C00AF0EC
:1000C80018C00BF017C00CF016C00DF015C00EF0DC
:1000D8002AC0E9FF2BC0EAFF2CC0E1FF2DC0E2FFD8
:0200E800110005
:0E00EA00026A016A006A086A036A000E1200C8
:1000F8000B840BAE87EF00F0010E036E026A016AF3
:0A010800006A0A360232FF0E1200F0
:080112000AAE029E000E12006D
:10011A000B820BAE97EF00F0036802680168006873
:08012A000A360232FF0E12003A
:10013200090E0101625D0AE2010E6115016E0150B4
:10014200000A010ED8A4000E006E06D00C0E625DED
:0A015200010ED8B0000E006E12007E
:10015C00090E0101615D010ED8B0000E006E120097
:10016C00020E01016125E16E000E6221E26EE66A6B
:10017C00E66A61C1E1FF62C1E2FFE66AE66A12006B
:10018C000CB008EF01F00CA2AEEF01F00E6A000EFD
:10019C0002641FEF01F0F00E0214D8A4EAEF00F095
:1001AC00023A01380F0B02260138F00B016E0038B1
:1001BC000F0B01260038F00B006E08380F0B0026D1
:1001CC000838F00B086E0E84D89002BE03EF01F0D5
:1001DC0008360036013602360E2A02BE03EF01F055
:1001EC0008360036013602360E2A02BE03EF01F045
:1001FC0008360036013602360E2A0E500364A4EF80
:10020C0001F0035E0BBC08AEA9EF01F0D880800EA4
:10021C0008640030000E002201220222D8A0A9EFAF
:10022C0001F0023201320032034AAEEF01F0A9EFC5
:10023C0001F001C002F000C001F008C000F0086A33
:10024C00000E0E86026456EF01F0F00E0214D8A4D4
:10025C003EEF01F0023A01380F0B02260138F00B89
:10026C00016E00380F0B01260038F00B006E0E8467
:10027C00D89002BE03EF01F00036013602360E2A8A
:10028C0002BE03EF01F00036013602360E2A02BE22
:10029C0003EF01F00036013602360E2A03EF01F0AF
:1002AC0001C002F000C001F0006A000E0E960E882C
:1002BC00026483EF01F0F00E0214D8A46EEF01F08B
:1002CC00023A01380F0B02260138F00B016E0E8436
:1002DC00D89002BE03EF01F0013602360E2A02BEA0
:1002EC0003EF01F0013602360E2A02BE03EF01F0D5
:1002FC00013602360E2A03EF01F001C002F0016A4A
:10030C00000E0E860264B3EF01F0F00E0214D8A4B6
:10031C0092EF01F0023A0E84D89002BE03EF01F086
:10032C0002360E2A02BE03EF01F002360E2A02BE7E
:10033C0003EF01F002360E2A03EF01F0010E0C6EF2
:10034C00D5DEB6EF01F0020E0C6EDDDEB6EF01F07D
:10035C00040E0C6EDCDEB6EF01F0080E0C6EBFDE88
:02036C0012007D
:10036E001E0E716E100E00017F6F040E806F7FC027
:10037E00E1FF80C0E2FFE69E7FC0E1FF80C0E2FFAA
:10038E00E69C040E7F25E16E000E8021E26EE68C67
:10039E00180E866F040E876F86C0E1FF87C0E2FFDE
:1003AE00E69E86C0E1FF87C0E2FFE69C040E86252E
:1003BE00E16E000E8721E26EE68C020E7F25E16E65
:1003CE00000E8021E26E67C0E6FF68C0E6FF010EF8
:1003DE007F25E16E000E8021E26E400EE66E7FC03C
:1003EE00E9FF80C0EAFFEECF00F07FC0E1FF80C0E2
:1003FE00E2FF400E0014E66E7FC0E9FF80C0EAFF08
:10040E00EECF00F0880E00127FC0E1FF80C0E2FF49
:10041E0000C0E6FF7FC05BF080C05CF0040E7F1969
:08042E00006E00C07FF0120017
:100436000B6A0A6A096A00500402F4CF09F0F3CF86
:1004460008F001500502F4CF0BF0F3CF0AF000508C
:100456000502F3500926F4500A22E86A0B220150DD
:100466000402F3500926F4500A22E86A0B2208C057
:1004760000F009C001F00AC002F00BC003F0120040
:1004860000016C8F716A826B22C481F08151000A6F
:1004960003E1100E836F03D0200E836F65DF120019
:1004A60020C401F01F0E01160150010A01E094D08C
:1004B60004012451000A01E08FD02151060A42E1CD
:1004C60037D000018151010A17E1460E006E4B0E2E
:1004D600016E000E026E120E0026000E012202228E
:1004E60000C069F001C06AF002C06BF0090E6D6FC2
:1004F600000E6E6FC00E6C6F25D000018151010A8F
:1005060012E1910E006E4B0E016E000E026E00C0DF
:1005160069F001C06AF002C06BF0210E6D6F000E2B
:100526006E6FC00E6C6F0ED00001800E6C6F0AD01D
:1005360004012351210AC5E02351220ADEE023519A
:10054600230AF2E020C401F0600E0116050E006ECB
:10055600005004E00132019EFF0FFBD70150010A53
:1005660001E03AD026D038D037D0630E0001696F4B
:10057600000E6A6F010E6D6F000E6E6FC10E6C6F0E
:100586002BD00001800E6C6F23C463F025D00001D0
:10059600600E696F000E6A6F010E6D6F000E6E6F52
:1005A600810E6C6F19D00001800E6C6F22C460F052
:1005B60013D004012151010AD6E02151090AD4E0E1
:1005C6002151020AD2E021510A0ADBE02151030A35
:0A05D600DEE021510B0AE7E01200FD
:1005E00004012251010A13E120C401F01F0E01167B
:1005F0000150000A0CE100016C8F04012151030A33
:1006000004E1010E00016F6F02D000016F6B040165
:100610002251000AD8A48DD020C401F01F0E01166B
:100620000150020AD8A485D024C401F00F0E01168F
:100630000150000AD8B47DD000016C8F040124BFA2
:1006400016D024C403F00F0E031603C000F0000EF2
:10065000016E0036009001367D0E0024E96E000E1A
:100660000120EA6EEECF04F0EECF05F015D024C4E1
:1006700003F00F0E031603C000F0000E016E0036EB
:1006800000900136840E0024E96E000E0120EA6E0F
:10069000EECF04F0EECF05F02151030A07E104C0CC
:1006A000E1FF05C0E2FF840EE66E43D024C400F0F3
:1006B0000F0E0016700E026E0F0E036E0050022613
:1006C000D8B0032A02C0E9FF03C0EAFFFE0EEE1411
:1006D000006EEECF01F0FF0E011602C0E1FF03C075
:1006E000E2FF00C0E6FF01C0E6FF24AF11D004C066
:1006F000E1FF05C0E2FFE66A040E0418006E00C0C8
:1007000004F004C0E1FF05C0E2FF400EE66E11D028
:1007100004C0E1FF05C0E2FF880EE66E040E041877
:10072000006E00C004F004C0E1FF05C0E2FFC80E87
:04073000E66E12005F
:10073400025006180E6E086A096A0B6A03500764B1
:100744008DEF04F006500A6E068E028E03500B6E77
:100754000750036E000E0B64DDEF03F00B50075ED1
:10076400D8B47EEF04F0070E07644CEF04F0075E84
:1007740000C008F001C000F002C001F0026A074E98
:100784007EEF04F0076421EF04F0075E00C008F078
:1007940001C000F0016A074E7EEF04F00764FFEF2A
:1007A40003F0075E00C008F0006A074E7EEF04F015
:1007B4000764E6EF03F00AC002F005C001F004C0CC
:1007C40000F0086AAAEF05F0030E0764F1EF03F0E6
:1007D400075E08380F0B086E074E7EEF04F0D890C2
:1007E4000832074E7EEF04F0D8900832074E7EEFB1
:1007F40004F0D89008327EEF04F0030E076410EF83
:1008040004F0075E08380F0B086E0038F00B08265A
:1008140000380F0B006E074E7EEF04F0D8900032C4
:100824000832074E7EEF04F0D89000320832074EAB
:100834007EEF04F0D890003208327EEF04F0030E0D
:10084400076438EF04F0075E08380F0B086E0038B1
:10085400F00B082600380F0B006E0138F00B002651
:1008640001380F0B016E074E7EEF04F0D890013271
:1008740000320832074E7EEF04F0D8900132003285
:100884000832074E7EEF04F0D8900132003208326D
:100894007EEF04F0030E076469EF04F0075E083886
:1008A4000F0B086E0038F00B082600380F0B006E93
:1008B4000138F00B002601380F0B016E0238F00BE3
:1008C400012602380F0B026E074E7EEF04F0D8901B
:1008D4000232013200320832074E7EEF04F0D89023
:1008E4000232013200320832074E7EEF04F0D89013
:1008F4000232013200320832096A000E0EAE72EF83
:1009040005F0081E001E011E021E082A00220122F4
:10091400022272EF05F00750D8A493EF04F0AAEF77
:1009240005F0096A02C00AF0028E068E0750035CC5
:10093400076ED8B465EF05F0070E076433EF05F0D2
:10094400075E0450096E0550046E0650056E066A73
:10095400074E65EF05F0070E076408EF05F0075E24
:100964000450096E0550046E056A074E65EF05F0E4
:10097400070E0764E6EF04F0075E0450096E046A8C
:10098400074E65EF05F0070E0764CDEF04F00AC0CB
:1009940002F0AAEF05F0030E0764D8EF04F0075E37
:1009A40009380F0B096E074E65EF05F0D890093230
:1009B400074E65EF05F0D8900932074E65EF05F054
:1009C400D890093265EF05F0030E0764F7EF04F0E1
:1009D400075E09380F0B096E0438F00B092604383A
:1009E4000F0B046E074E65EF05F0D8900432093200
:1009F400074E65EF05F0D89004320932074E65EFD3
:100A040005F0D8900432093265EF05F0030E07644F
:100A14001FEF05F0075E09380F0B096E0438F00B61
:100A2400092604380F0B046E0538F00B042605382C
:100A34000F0B056E074E65EF05F0D89005320432B2
:100A44000932074E65EF05F0D890053204320932B9
:100A5400074E65EF05F0D89005320432093265EF90
:100A640005F0030E076450EF05F0075E09380F0B1D
:100A7400096E0438F00B092604380F0B046E053890
:100A8400F00B042605380F0B056E0638F00B05260F
:100A940006380F0B066E074E65EF05F0D890063248
:100AA400053204320932074E65EF05F0D89006325C
:100AB400053204320932074E65EF05F0D89006324C
:100AC400053204320932086A000E0EAE72EF05F0E8
:100AD400091E041E051E061E092A042205220622DA
:100AE4000950082604500022055001220650022213
:100AF4000EBE89EF05F0D8A098EF05F0023201325E
:100B040000320832033E98EF05F0A4EF05F0D8B0A8
:100B14009EEF05F0000E081E001E011E021E082A8C
:100B24000022012202220A7E9EEF05F0010E0C6EC5
:100B3400C6EC00F0ACEF05F0020E0C6EC6EC00F053
:100B4400ACEF05F0040E0C6E8DEC00F0ACEF05F08C
:060B5400000E0C6E120001
:100B5A00000E00016E5D02E1080E6D5D10E26DC0CF
:100B6A0003F06EC004F05050000A03E1010E506E0B
:100B7A0005D05050010A02E1020E506E04D0080E50
:100B8A00036E000E046E84C0E1FF85C0E2FFE692A8
:100B9A0084C0E1FF85C0E2FFE69084C0E9FF85C01A
:100BAA00EAFFEECF00F084C0E1FF85C0E2FF045007
:100BBA000010E66E010E8425E16E000E8521E26EBC
:100BCA0003C0E6FF03506D5D006E04506E59016E5E
:100BDA0000C06DF001C06EF0280E616F040E626FE6
:100BEA006CB12FD0035004102BE069C0F6FF6AC025
:100BFA00F7FF6BC0F8FF0900F5CF00F061C0E1FF15
:100C0A0062C0E2FF00C0E6FF614B622B010E69255C
:100C1A00006E000E6A21016E000E6B21026E00C08A
:100C2A0069F001C06AF002C06BF0010E035C006E4D
:100C3A00000E0458016E00C003F001C004F0D2D7C0
:100C4A0024D00350041021E069C0E9FF6AC0EAFF1A
:100C5A0061C0E1FF62C0E2FFEECFE6FF614B622BAB
:100C6A00010E6925006E000E6A21016E00C069F04E
:100C7A0001C06AF0010E035C006E000E0458016E9A
:0C0C8A0000C003F001C004F0DCD7120031
:100C960004012051800AD8A47AD0C00E00016C6FDE
:100CA6006BD00001B20E006E4B0E016E000E026E8E
:100CB60000C069F001C06AF002C06BF0120E6D6FE1
:100CC600000E6E6F64D00001030E006E000E016E02
:100CD60022C404F0000E056E1BEC02F07A0E00240E
:100CE600E96E000E0120EA6EEECF69F0EECF6AF0F3
:100CF600EECF6BF0020E6925F66E000E6A21F76ED6
:100D0600000E6B21F86E0900F5CF00F00900F5CF53
:100D160001F000C06DF001C06EF039D0040122511F
:100D26000001885D24E3030E006E000E016E22C4EE
:100D360004F0000E056E1BEC02F0700E0024E96E46
:100D4600000E0120EA6EEECF69F0EECF6AF0EECF2C
:100D56006BF069C0F6FF6AC0F7FF6BC0F8FF0900C9
:100D6600F5CF00F000C06DF0000E6E6F01D06C6B19
:100D76000ED000016C6B0BD004012351010A91E0E7
:100D86002351020AA0E02351030AC8E0F2D7120059
:100D96000401286B296B4AD000016C8F040128815D
:100DA60000016F51010A02E10401288354D00001B9
:100DB6006C8F51D000016C8F040124BF16D024C45F
:100DC60003F00F0E031603C000F0000E016E00368E
:100DD600009001367D0E0024E96E000E0120EA6EB9
:100DE600EECF04F0EECF05F015D024C403F00F0EBD
:100DF600031603C000F0000E016E003600900136A7
:100E0600840E0024E96E000E0120EA6EEECF04F097
:100E1600EECF05F004C0E9FF05C0EAFFEECF01F012
:100E260001A403D00401010E286F15D020C401F0DF
:100E36001F0E01160150000AAFE020C401F01F0E7C
:100E460001160150010AB3E020C401F01F0E01167D
:100E56000150020AAFE000016CAF07D0280E696F9F
:0C0E6600040E6A6F6C81020E6D6F1200AA
:100E72005DC161F1AEEC00F0005252E047D0006A71
:100E82006ED0010E006E6BD0020E006E68D0030EA3
:100E92005D5D13E25EC161F15DC162F199EC00F04A
:100EA200005202E0006A5BD05D51010A03E1020ECA
:100EB200006E55D0010E006E52D0060E5D5D13E23B
:100EC2005EC161F15DC162F199EC00F0005203E094
:100ED200010E006E44D05D51040A02E1006A3FD067
:100EE200020E006E3CD05EC161F15DC162F199EC0F
:100EF20000F0005203E0020E006E31D05D51070A8D
:100F020002E1006A2CD0010E006E29D05D51000A68
:100F1200B6E05D51030AB5E05D51060AB5E0B7D708
:100F22005D51090A04E05D510C0A01E002D0006A39
:100F320016D05D510A0A04E05D510D0A01E003D0AA
:100F4200020E006E0CD05D510B0A04E05D510E0AD8
:100F520001E003D0010E006E02D0FF0E006E1200FF
:100F62005DC1E1FF5EC1E2FF010EE66E010E01010D
:100F72005D25E16E000E5E21E26EE66A020E5D25DF
:100F8200E16E000E5E21E26EE66A030E5D25E16E01
:100F9200000E5E21E26EE66A040E5D25E16E000E31
:100FA2005E21E26EE66A050E5D25E16E000E5E21AF
:100FB200E26EE66A05014491120E01015D25E16EC1
:100FC200000E5E21E26EE66A130E5D25E16E000EF2
:100FD2005E21E26EE66A050140954091409340979A
:100FE20051915193140E01015D25E16E000E5E21B7
:100FF200E26EE66A0501409B4099408D150E0101A3
:101002005D25E16E000E5E21E26EE66A160E5D253A
:10101200E16E000E5E21E26EE66A05014191170E55
:1010220001015D25E16E000E5E21E26EE66A180E98
:101032005D25E16E000E5E21E26EE66A05014197D2
:10104200190E01015D25E16E000E5E21E26EE66A77
:101052001C0E5D25E16E000E5E21E26EE66A1D0E3B
:101062005D25E16E000E5E21E26EE66A1A0E5D25D6
:10107200E16E000E5E21E26EE66A1B0E5D25E16EF8
:10108200000E5E21E26EE66A05014199419F83826C
:1010920043818390439381A002D083944395839E9E
:0C10A200429F839A429D839C429B120057
:0E10AE005DC161F15EC162F1B6EC00F01200AE
:1010BC0001015D51010A07E05D51040A04E05D5134
:1010CC00070A01E003D0010E006E01D0006A120085
:1010DC00086A096A100E0C6E013408360936045081
:1010EC00085E0550D8A0053C095ED8B007D0045066
:1010FC0008260550D8B0053C0926D8900036013694
:06110C000C2EEAD71200D0
:10111200374A382A030E385C02E1E80E375C30E3C6
:10112200376A386A5DC103F05EC104F05DC1E9FF50
:101132005EC1EAFFEECF00F0EECF01F0004A012AD5
:101142005DC1E1FF5EC1E2FF00C0E6FF01C0E6FF54
:1011520003C0E9FF04C0EAFFEECF01F0EECF02F0D8
:1011620001016051025C02E15F51015C09E35DC172
:10117200E1FF5EC1E2FFE66AE66A010E006E01D09F
:04118200006A1200ED
:101186000101376B386B396B020E3425F66E000E93
:101196003521F76E000E3621F86E0900F5CF05F001
:1011A600030E3425F66E000E3521F76E000E36213D
:1011B600F86E0900F5CF00F000C003F0000E046ED3
:1011C60003C001F0006A05500024066E000E0120DF
:1011D600076E34C108F035C109F036C10AF0010EB8
:1011E6000824F66E000E0920F76E000E0A20F86E2F
:1011F6000900F5CF01F00150020A1BE1060E082492
:10120600F66E000E0920F76E000E0A20F86E090031
:10121600F5CF01F00150375D0CE2060E0824F66E9C
:10122600000E0920F76E000E0A20F86E0900F5CFB1
:1012360037F1010E0824F66E000E0920F76E000E37
:101246000A20F86E0900F5CF01F00150040A1BE1EF
:10125600080E0824F66E000E0920F76E000E0A200E
:10126600F86E0900F5CF01F00150375D0CE2080E6B
:101276000824F66E000E0920F76E000E0A20F86E9E
:101286000900F5CF37F108C0F6FF09C0F7FF0AC01D
:10129600F8FF0900F5CF00F000503825016E000E6A
:1012A6003921026E01C038F102C039F10750025CE3
:1012B60002E10650015C01E30FD008C0F6FF09C049
:1012C600F7FF0AC0F8FF0900F5CF00F00050082626
:0E12D600000E09220A2283D737C100F0120051
:0A12E400D08EA28AA08AF28E1200BA
:0E12EE00160E6F6E9F0E6B6E3B0E696E120039
:1012FC00050109B117D058C15DF159C15EF12BDE62
:10130C000E0E010158255D6F000E59215E6F010E06
:10131C005F6F000E606FF7DE005203E0050143754E
:10132C00837411D058C1E9FF59C1EAFFEECF00F028
:10133C00005209E0040E01015825E16E000E5921FE
:08134C00E26E0AC5E6FF120083
:10135400460E00017A6F4B0E7B6F000E7C6FCC0E35
:10136400706F4B0E716F000E726FF20E736F4A0E38
:10137400746F000E756F1C0E766F4B0E776F000E38
:04138400786F12006C
:0A1388005D5202E053EC02F0120087
:1013920020C401F0600E0116050E006E005004E03C
:1013A2000132019EFF0FFBD70150000A01E060D01D
:1013B2003CD000016C8F080E836F5AD06BDC58D082
:1013C20043EC02F055D00001810E696F000E6A6F86
:1013D2006C81010E6D6F6C8F4BD0DCDC49D0F0EC70
:1013E20002F046D0820E006E000E016E04012451FE
:1013F2000026D8B0012A00C069F001C06AF00001DD
:101402006C81010E6D6F6C8F33D000016C8F820E78
:10141200E16E000EE26E04012451E126D8B0E22A08
:1014220022C4E6FF25D024D023D004012151050A8D
:10143200C0E02151060AC2E02151090AC1E021514E
:10144200080AC1E02151000AC8E02151010AC7E09F
:101452002151030AC4E021510A0AC4E021510B0AB6
:10146200D4E02151070ADFE021510C0ADDE0DCD78C
:02147200120066
:101474005A6A84C0E1FF85C0E2FFE66A040E0001F7
:101484008419E16E85C0E2FF000EE21AE66A53BEDB
:04149400539E120051
:10149800010E5E24E96E000E5F20EA6EEECF00F0CA
:1014A80000C002F0000E555C02E10250545C03E2F9
:1014B80054C002F00AD00250545C006E000E555819
:1014C800016E00C054F001C055F0036A0250035C7D
:1014D8001CE2280EE96E040EEA6E0350E926D8B025
:1014E800EA2AEECF00F051C0E1FF52C0E2FF00C08F
:1014F800E6FF010E5124006E000E5220016E00C05E
:1015080051F001C052F0032AE1D7000E006E555089
:10151800005C02E15450000829E2010E0001642534
:10152800E16E000E6521E26E080EE66E020E64257D
:10153800E16E000E6521E26E280EE66E040EE66E80
:101548005EC0E9FF5FC0EAFFEECF00F000BC07D045
:1015580064C0E1FF65C0E2FFC80EE66E06D064C055
:10156800E1FF65C0E2FF880EE66E1AD00001010EA9
:101578006425E16E000E6521E26E080EE66E020E2D
:101588006425E16E000E6521E26E200EE66E040E03
:10159800E66E64C0E1FF65C0E2FF840EE66E539E0E
:0215A80012002F
:1015AA006D9800016CBF49D053AE28D0020E5A6E16
:1015BA00010E8425E16E000E8521E26EE66A84C082
:1015CA00E1FF85C0E2FFC80EE66E010E6425E16EFA
:1015DA00000E6521E26E080EE66E020E6425E16ECB
:1015EA00000E6521E26E280EE66E040EE66E64C0F9
:1015FA00E1FF65C0E2FFC80EE66E1ED0010E64254B
:10160A00E16E000E6521E26E080EE66E020E64259A
:10161A00E16E000E6521E26E200EE66E040EE66EA5
:10162A0064C0E1FF65C0E2FF8C0EE66E84C0E1FF94
:10163A0085C0E2FF840EE66E83D053BE81D00401DA
:10164A0020AF56D000016E510401275D04E100016C
:10165A006D510401265D04E226C46DF027C46EF0C4
:10166A00ADEC05F0010E5A6E010E6425E16E000E16
:10167A006521E26E080EE66E020E6425E16E000E2A
:10168A006521E26E200EE66E040EE66E64C0E1FF8E
:10169A0065C0E2FF800EE66E666B010E5E24E16EA7
:1016AA00000E5F20E26E080EE66E020E5E24E16E08
:1016BA00000E5F20E26E200EE66E040EE66E5EC03D
:1016CA00E1FF5FC0E2FF840EE66E010E666F020E56
:1016DA008425E16E000E8521E26E280EE66E040E68
:1016EA00E66E84C0E1FF85C0E2FFC80EE66E28D030
:1016FA000001020E5A6E010E8425E16E000E85214C
:10170A00E26EE66A84C0E1FF85C0E2FFC80EE66EBB
:10171A00010E6425E16E000E6521E26E080EE66E8A
:10172A00020E6425E16E000E6521E26E280EE66E59
:10173A00040EE66E64C0E1FF65C0E2FFC80EE66E05
:02174A0012008B
:10174C0058C104F0000E056ECB50010F006E016AFB
:10175C00000E01221BEC02F0640E046E000E056EEE
:10176C00B7DC00C059F101C05AF1000E026E0150F5
:10177C00025C02E10050FF0805E2FF0E0101596F07
:10178C00000E5A6F010159A102D0BD8801D0BD983D
:10179C0059A302D0BD8A01D0BD9A59C1BEFF120017
:1017AC00140E010158255A6F000E59215B6F5ED043
:1017BC0005014099409B409D120E01015825E96E90
:1017CC00000E5921EA6EEE50190A08E1140E582544
:1017DC00E16E000E5921E26E050EE66E6BD0010132
:1017EC00050E5825E96E000E5921EA6EEECF61F117
:1017FC0006C562F199EC00F0005203E00501408F40
:10180C0002D00501409F140E01015825E16E000E17
:10181C005921E26E0A0EE66E4DD00501408B00ABED
:10182C0009D0140E01015825E16E000E5921E26E0B
:10183C000F0EE66E3FD0050100B909D0140E010160
:10184C005825E16E000E5921E26E140EE66E32D070
:10185C00050100A909D0140E01015825E16E000EF6
:10186C005921E26E190EE66E25D024D05AC1E9FF3B
:10187C005BC1EAFFEE50000A9BE05AC1E9FF5BC175
:10188C00EAFFEE50050AABE05AC1E9FF5BC1EAFF83
:10189C00EE500A0AC2E05AC1E9FF5BC1EAFFEE5002
:1018AC000F0AC9E05AC1E9FF5BC1EAFFEE50140A06
:0618BC00CFE0DBD71200B3
:1018C200150E010158255A6F000E59215B6F0DD17B
:1018D20005014191160E01015825E16E000E5921B4
:1018E200E26EE66A05010451000812E2140E0101DB
:1018F2005825E96E000E5921EA6EEE50190A08E1E8
:10190200150E5825E16E000E5921E26E030EE66EA9
:1019120012D104C55DF15EEC08F00052D8A4A0D04B
:1019220006C561F1AEEC00F000523DE0050E58250F
:10193200016E000E5921026E01C0E9FF02C0EAFFEA
:10194200EE50010F006E01C0E1FF02C0E2FF00C0D5
:10195200E6FF01C0E9FF02C0EAFF020EEE5C1AE3F5
:10196200040E5825016E000E5921026E01C0E9FFD6
:1019720002C0EAFFEE50010F006E01C0E1FF02C09B
:10198200E2FF00C0E6FF050E5825E16E000E592168
:10199200E26EE66A1C0E5825E16E000E5921E26ED7
:1019A200010EE66E1AD0040E5825016E000E592162
:1019B200026E01C0E9FF02C0EAFFEE50010F006EA5
:1019C20001C0E1FF02C0E2FF00C0E6FF1C0E582585
:1019D200E16E000E5921E26EE66A05010451020A27
:1019E20007E00451050A04E00451080A01E012D09C
:1019F200180E01015825E16E000E5921E26E010E0A
:101A0200E66E1D0E5825E16E000E5921E26E010EA2
:101A1200E66E0FD00101180E5825E16E000E592115
:101A2200E26EE66A1D0E5825E16E000E5921E26E45
:101A3200E66A120E5825E16E000E5921E26EE66A40
:101A4200140E5825E16E000E5921E26EE66A150E5B
:101A52005825E16E000E5921E26E050EE66E08D0A1
:101A6200150E5825E16E000E5921E26E0F0EE66E3C
:101A720062D00501418100AD12D0160E0101582538
:101A8200E16E000E5921E26E010EE66E170E582528
:101A9200E16E000E5921E26E050EE66E18D00101CC
:101AA200160E5825E96E000E5921EA6EEE520FE02D
:101AB200160E5825E16E000E5921E26EE66A150EE9
:101AC2005825E16E000E5921E26E0A0EE66E33D001
:101AD20005014191150E01015825E16E000E5921B3
:101AE200E26EE66A28D027D026D05AC1E9FF5BC150
:101AF200EAFFEE50000AD8B4EBD65AC1E9FF5BC147
:101B0200EAFFEE50030AD8B404D75AC1E9FF5BC119
:101B1200EAFFEE50050AADE05AC1E9FF5BC1EAFFF8
:101B2200EE500A0AD5E05AC1E9FF5BC1EAFFEE5066
:081B32000F0AD9E0D9D7120017
:101B3A00020E01015825036E000E5921046E03C0DE
:101B4A00E9FF04C0EAFF010EEE24006E000EEE204B
:101B5A00016E03C0E1FF04C0E2FF00C0E6FF01C05E
:101B6A00E6FF03C0E9FF04C0EAFFEECF01F0EECFC3
:101B7A0002F05B51025C02E15A51015C0BE3020E76
:101B8A005825E16E000E5921E26EE66AE66A010EF8
:081B9A00006E01D0006A120088
:101BA200120E010158255B6F000E59215C6FD2D0D5
:101BB2000501409540914093409751915193010EF8
:101BC20001015825E96E000E5921EA6EEECF00F0B0
:101BD200005215E1020E5825E96E000E5921EA6EF7
:101BE200EECF00F000520BE1030E5825E96E000E15
:101BF2005921EA6EEECF00F0005201E110D0030E3F
:101C02005825E16E000E5921E26E010EE66E120EAB
:101C12005825E16E000E5921E26E050EE66EC1D026
:101C2200040E5825E96E000E5921EA6E050107518E
:101C3200EE5C0AE2120E01015825E16E000E5921F6
:101C4200E26E0A0EE66E08D00101120E5825E16E10
:101C5200000E5921E26EE66AA4D006C55DF1050EBA
:101C62005825E96E000E5921EA6EEECF5EF139EC8D
:101C720007F000C05AF10050FF0A35E05A51000A3D
:101C820010E10501408100A10BD040915181120E5B
:101C920001015825E16E000E5921E26E0F0EE66E2B
:101CA20022D001015A51010A10E10501408300A32B
:101CB2000BD040935183120E01015825E16E000EA4
:101CC2005921E26E0F0EE66E0ED00501408500A589
:101CD2000AD04095120E01015825E16E000E5921DD
:101CE200E26E0F0EE66E5DD00501408700A70AD0B6
:101CF200130E01015825E16E000E5921E26E010E0C
:101D0200E66E18D00101130E5825E96E000E592116
:101D1200EA6EEE520FE0130E5825E16E000E5921C5
:101D2200E26EE66A120E5825E16E000E5921E26E4D
:101D3200140EE66E36D00501409751915193120E62
:101D420001015825E16E000E5921E26E190EE66E70
:101D520028D027D05BC1E9FF5CC1EAFFEE50000A40
:101D6200D8B426D75BC1E9FF5CC1EAFFEE50050A91
:101D7200D8B456D75BC1E9FF5CC1EAFFEE500A0A4C
:101D8200D8B46BD75BC1E9FF5CC1EAFFEE500F0A22
:101D9200ABE05BC1E9FF5CC1EAFFEE50140ACBE0A5
:041DA200D8D712007C
:101DA600838C0501428B409D060E010158255D6F0F
:101DB600000E59215E6F010E5F6F000E606F89EC99
:101DC60008F0005203E083720501437181B620D00A
:101DD6000501408941934195419D419B4293429122
:101DE6004299429742950A0E010158255D6F000EF1
:101DF60059215E6F010E5F6F000E606F89EC08F06F
:101E0600005205E058C1E1FF59C1E2FFE66A09D078
:101E16000A0E010158255D6F000E59215E6F57ECC1
:041E260008F01200AE
:101E2A00170E01015825026E000E5921036E7AD051
:101E3A000501419341954197B1D005014187170E9C
:101E4A0001015825E16E000E5921E26E0A0EE66E76
:101E5A00A5D0180E5825E96E000E5921EA6EEE52E9
:101E6A000DE0050100AF09D0170E01015825E16EFA
:101E7A00000E5921E26E0F0EE66E0CD0050101A587
:101E8A0009D0170E01015825E16E000E5921E26EA4
:101E9A00190EE66E83D005014197418301A309D04B
:101EAA00170E01015825E16E000E5921E26E140E3B
:101EBA00E66E74D005014193170E01015825E16EB3
:101ECA00000E5921E26E230EE66E68D00501419795
:101EDA00418501A909D0170E01015825E16E000EAE
:101EEA005921E26E1E0EE66E59D005014195170E74
:101EFA0001015825E16E000E5921E26E230EE66EAD
:101F0A004DD0170E5825E16E000E5921E26EE66A91
:101F1A00190E5825E16E000E5921E26E050EE66E85
:101F2A003DD03CD002C0E9FF03C0EAFFEE50000AF0
:101F3A00D8B47ED702C0E9FF03C0EAFFEE50050A13
:101F4A00D8B47BD702C0E9FF03C0EAFFEE500A0A01
:101F5A00D8B47FD702C0E9FF03C0EAFFEE500F0AE8
:101F6A009AE002C0E9FF03C0EAFFEE50140AA2E0B9
:101F7A0002C0E9FF03C0EAFFEE50190AA7E002C057
:101F8A00E9FF03C0EAFFEE501E0AAFE002C0E9FF14
:0E1F9A0003C0EAFFEE50230AB4E0C3D71200E2
:101FA80058C104F0000E056ECB50010F006E016A97
:101FB800000E01221BEC02F0640E046E000E056E8A
:101FC8006EEC08F000C059F101C05AF1000E026E23
:101FD8000150025C02E10050FF0805E2FF0E01011A
:101FE800596F000E5A6F010159A102D0BA8801D069
:101FF800BA9859A302D0BA8A01D0BA9A59C1BBFF7C
:022008001200C4
:10200A00190E01015825036E000E5921046E86D25D
:10201A000501419D419B429342914199419F4299B9
:10202A004295429734D31D0E01015825E96E000EE0
:10203A005921EA6EEE5209E0190E5825E16E000E9A
:10204A005921E26E0A0EE66E08D0190E5825E16E85
:10205A00000E5921E26E640EE66E19D3050141891C
:10206A001C0E01015825E96E000E5921EA6EEE5246
:10207A0009E0190E5825E16E000E5921E26E1E0E76
:10208A00E66E08D0190E5825E16E000E5921E26E4F
:10209A000F0EE66EFCD20501418B01AB0AD01A0E77
:1020AA0001015825E16E000E5921E26E010EE66E1D
:1020BA0018D001011A0E5825E96E000E5921EA6E50
:1020CA00EE520FE01A0E5825E16E000E5921E26E0B
:1020DA00E66A190E5825E16E000E5921E26EC80E05
:1020EA00E66ED5D2050101AB0AD01A0E01015825B8
:1020FA00E16E000E5921E26E010EE66E18D0010162
:10210A001A0E5825E96E000E5921EA6EEE520FE0BA
:10211A001A0E5825E16E000E5921E26EE66A190E72
:10212A005825E16E000E5921E26E230EE66EAFD2FB
:10213A0005014199418D01AF09D0190E01015825B8
:10214A00E16E000E5921E26E820EE66EA0D2050102
:10215A00418F1C0E01015825E96E000E5921EA6EC5
:10216A00EE5209E0190E5825E16E000E5921E26E71
:10217A00780EE66E08D0190E5825E16E000E592128
:10218A00E26E690EE66E83D20501428102A10AD08F
:10219A001B0E01015825E16E000E5921E26E010E57
:1021AA00E66E18D001011B0E5825E96E000E592162
:1021BA00EA6EEE520FE01B0E5825E16E000E592111
:1021CA00E26EE66A190E5825E16E000E5921E26E9A
:1021DA00C80EE66E5CD2050102A10AD01B0E0101EF
:1021EA005825E16E000E5921E26E010EE66E18D0F6
:1021FA0001011B0E5825E96E000E5921EA6EEE52B6
:10220A000FE01B0E5825E16E000E5921E26EE66AB8
:10221A00190E5825E16E000E5921E26E790EE66E0E
:10222A0036D20501419F428302A509D0190E010148
:10223A005825E16E000E5921E26E820EE66E27D213
:10224A00050101AF0BD002A509D0190E01015825CD
:10225A00E16E000E5921E26E870EE66E18D2050174
:10226A00428702A90AD01A0E01015825E16E000E12
:10227A005921E26E010EE66E18D001011A0E582598
:10228A00E96E000E5921EA6EEE520FE01A0E582539
:10229A00E16E000E5921E26EE66A190E5825E16ECA
:1022AA00000E5921E26E8C0EE66EF1D105014289CB
:1022BA0002AB09D0190E01015825E16E000E592111
:1022CA00E26E910EE66EE3D10501419D01BF09D090
:1022DA00190E01015825E16E000E5921E26E960E83
:1022EA00E66ED5D10501429702A90AD01A0E01015C
:1022FA005825E16E000E5921E26E010EE66E18D0E5
:10230A0001011A0E5825E96E000E5921EA6EEE52A5
:10231A000FE01A0E5825E16E000E5921E26EE66AA8
:10232A00190E5825E16E000E5921E26E9B0EE66EDB
:10233A00AED10501428502A70AD01B0E010158251C
:10234A00E16E000E5921E26E010EE66E18D001010F
:10235A001B0E5825E96E000E5921EA6EEE520FE067
:10236A001B0E5825E16E000E5921E26EE66A190E1F
:10237A005825E16E000E5921E26EA00EE66E87D155
:10238A0005014287429302A90AD01B0E0101582572
:10239A00E16E000E5921E26E010EE66E18D00101BF
:1023AA001B0E5825E96E000E5921EA6EEE520FE017
:1023BA001B0E5825E16E000E5921E26EE66A190ECF
:1023CA005825E16E000E5921E26EA50EE66E5FD128
:1023DA0005014299190E01015825E16E000E592195
:1023EA00E26EAA0EE66E53D10501429702A90AD0FF
:1023FA001B0E01015825E16E000E5921E26E010EF5
:10240A00E66E18D001011B0E5825E96E000E5921FF
:10241A00EA6EEE520FE01B0E5825E16E000E5921AE
:10242A00E26EE66A190E5825E16E000E5921E26E37
:10243A00AF0EE66E2CD105014281418F4295190EED
:10244A0001015825E16E000E5921E26EC80EE66EB2
:10245A001ED1050102BD09D0190E01015825E16EF0
:10246A00000E5921E26ECD0EE66E11D10101040E65
:10247A005825016E000E5921026E01C0E9FF02C003
:10248A00EAFFEECF48F501C0E9FF02C0EAFF050105
:10249A000751EE5C0BE34481190E01015825E16EE8
:1024AA00000E5921E26ED20EE66E08D00101190E15
:1024BA005825E16E000E5921E26EE66AE8D0050160
:1024CA000751000A29E14491040E01015825E16EE1
:1024DA00000E5921E26EE66A030E5825E16E000EDF
:1024EA005921E26EE66A0501486B020E0101582580
:1024FA00E96E000E5921EA6EEE5207E0020E5825E7
:10250A00E16E000E5921E26EE66A190E5825E16E57
:10251A00000E5921E26EE66ABAD0B9D003C0E9FFCB
:10252A0004C0EAFFEE50000AD8B472D503C0E9FF2E
:10253A0004C0EAFFEE50050AD8B475D503C0E9FF16
:10254A0004C0EAFFEE500A0AD8B488D503C0E9FFEE
:10255A0004C0EAFFEE500F0AD8B49DD503C0E9FFC4
:10256A0004C0EAFFEE501E0AD8B4BCD503C0E9FF86
:10257A0004C0EAFFEE50230AD8B4DAD503C0E9FF53
:10258A0004C0EAFFEE50640AD8B4E1D503C0E9FFFB
:10259A0004C0EAFFEE50690AD8B4F6D503C0E9FFD1
:1025AA0004C0EAFFEE50780AD8B415D603C0E9FF92
:1025BA0004C0EAFFEE50790AD8B433D603C0E9FF63
:1025CA0004C0EAFFEE50820AD8B43AD603C0E9FF43
:1025DA0004C0EAFFEE50870AD8B441D603C0E9FF27
:1025EA0004C0EAFFEE508C0AD8B460D603C0E9FFF3
:1025FA0004C0EAFFEE50910AD8B466D603C0E9FFD8
:10260A0004C0EAFFEE50960AD8B46CD603C0E9FFBC
:10261A0004C0EAFFEE509B0AD8B48BD603C0E9FF88
:10262A0004C0EAFFEE50A00AD8B4AAD603C0E9FF54
:10263A0004C0EAFFEE50A50AD8B4CAD603C0E9FF1F
:10264A0004C0EAFFEE50AA0AD8B4CED603C0E9FF06
:10265A0004C0EAFFEE50AF0AD8B4EDD603C0E9FFD2
:10266A0004C0EAFFEE50C80AD8B4F3D603C0E9FFA3
:10267A0004C0EAFFEE50CD0AD8B4F8D603C0E9FF89
:10268A0004C0EAFFEE50D20AD8B419D746D71200CE
:10269A00839205014391839C429B81B20CD0010E27
:1026AA0001015825E16E000E5921E26EE66A839E09
:1026BA000501429F2BD081B429D081B814D0010ED4
:1026CA0001015825E16E000E5921E26E010EE66EF7
:1026DA00020E5825E16E000E5921E26EE66A838EDB
:1026EA000501428F13D0020E01015825E16E000E3A
:1026FA005921E26E010EE66E010E5825E16E000EBA
:10270A005921E26EE66A839E0501429F030E01018A
:10271A005825E96E000E5921EA6EEECF00F00052FC
:10272A000AE1050109A102D043858384839043937A
:10273A00838A428D09D0050109A102D08394439569
:0A274A0083804383839A429D1200AE
:102754000A6A0350D8A40A800750D8A40A820A50EF
:10276400D8B40DEF14F0030AD8B4C6EF13F00AB0CE
:10277400C1EF13F006AE0BEF14F009EF14F002AE44
:1027840009EF14F00BEF14F00250800B0A6E029E56
:102794000650800B069E0A18D8B4D7EF13F00A50DF
:1027A400D8B409EF14F00BEF14F00750035CD8B45D
:1027B400E1EF13F0D8A0FDEF13F003EF14F006508F
:1027C400025CD8B4EBEF13F0D8A0FDEF13F003EFE5
:1027D40014F00550015CD8B4F5EF13F0D8A0FDEF68
:1027E40013F003EF14F00450005CD8B40DEF14F0B0
:1027F400D8B003EF14F00A52D8B40BEF14F009EF79
:1028040014F00A52D8B409EF14F00BEF14F0D88086
:0E2814001200D8901200D880D8841200120052
:10282200086A096A000E0762036496EF14F0025008
:1028320006180A6E075003267E0ED8A027EF14F062
:10284200035ED8B09BEF14F02BEF14F0035ED8A018
:10285200A0EF14F0028E068E02C00EF001C00BF043
:1028620000C00DF000500402F4CF0CF0015005023C
:10287200F4CF00F0F3CF08F00402F3500C26F4502A
:102882000822000E00220D500502F3500C26F450CF
:102892000822000E002202500402F3500826F450CF
:1028A200002202500502016A000E0122F3500026A6
:1028B200F45001220D500602F3500826F450002273
:1028C200026A000E012202220B500602F350002679
:1028D200F4500122000E02220E500602F35001268D
:1028E200F450022202BE7EEF14F0083600360136A2
:1028F20002360306D8B4A0EF14F091EF14F0D8809A
:10290200800E08640030000E002201220222D8A0AC
:1029120091EF14F0023201320032034A9BEF14F0BD
:102922000AAE029E000EA3EF14F0010E75EC00F049
:10293200A3EF14F0020E8DEC00F0A3EF14F0040EDE
:062942007CEC00F0120025
:08294800067E9AEC03F0120078
:102950000B800BAEB4EF14F0026A0AAEFF0E026EEB
:0C296000016E006E0A360232FF0E1200FB
:10296C00B20E006E4B0E016E000E026E0E0E0024A7
:10297C00F66E000E0120F76E000E0220F86E0900B4
:10298C00F5CF03F003C004F00F0E0024F66E000E1A
:10299C000120F76E000E0220F86E0900F5CF01F051
:1029AC000150035C12E2B20E006E4B0E016E000E73
:1029BC00026E0F0E0024F66E000E0120F76E000E54
:1029CC000220F86E0900F5CF04F0B20E006E4B0E2B
:1029DC00016E000E026E100E0024F66E000E012029
:1029EC00F76E000E0220F86E0900F5CF01F00150D1
:1029FC00045C12E2B20E006E4B0E016E000E026E03
:102A0C00100E0024F66E000E0120F76E000E022050
:0E2A1C00F86E0900F5CF04F004C000F01200BF
:082A2A000B6A0B86FF0E12007F
:102A32000C6A0E6A0250D8A432EF15F001C002F0FF
:102A420000C001F0006A0E860250D8A432EF15F0E1
:102A520001C002F0016A0E960E880250D8B444EF0B
:102A620015F00E50035ED8A4D8A04AEF15F0D89006
:102A720002BE50EF15F0003601360236032E39EF52
:102A820015F04AEF15F0010E0C6E75EC00F054EFE4
:102A920015F0020E0C6E7CEC00F054EF15F0040EF3
:082AA2000C6E89EC00F012003B
:102AAA000501486B076B44C1E1FF45C1E2FF010E16
:102ABA00E66E010E01014425E16E000E4521E26E2B
:102ACA00E66A020E4425E16E000E4521E26EE66AD0
:102ADA00030E4425E16E000E4521E26EE66A040EFD
:102AEA004425E16E000E4521E26EE66A050E442594
:102AFA00E16E000E4521E26EE66A120E4425E16E91
:102B0A00000E4521E26EE66A130E4425E16E000EC0
:102B1A004521E26EE66A140E4425E16E000E452157
:102B2A00E26EE66A150E4425E16E000E4521E26E5C
:102B3A00E66A160E4425E16E000E4521E26EE66A4B
:102B4A00170E4425E16E000E4521E26EE66A180E64
:102B5A004425E16E000E4521E26EE66A190E44250F
:102B6A00E16E000E4521E26EE66A1C0E4425E16E16
:102B7A00000E4521E26EE66A1D0E4425E16E000E46
:102B8A004521E26EE66A1A0E4425E16E000E4521E1
:102B9A00E26EE66A1B0E4425E16E000E4521E26EE6
:042BAA00E66A1200C5
:102BAE000501546B556B0101586BD4EC0FF0050108
:102BBE00526B536B0101586BA6EC0BF08C90D00E40
:102BCE00586F000E596FF40E5A6F010E5B6F9DEC2D
:0A2BDE000DF00052D8A48C74120010
:102BE800BF0E8314006E009A0092FE0E00148C6EC5
:0E2BF800800E8310006E040E00108C6E120012
:102C06000B6A0A6A096A086A0E6A033408360450AF
:102C1600085E0550D8A0053C095E0650D8A0063CC3
:102C26000A5E0750D8A0073C0B5EE86AD8A0010EE2
:102C36000E5E0336070E0C6E0334083609360A3666
:102C46000B360E36045003A012D0085E0550D8A0ED
:102C5600053C095E0650D8A0063C0A5E0750D8A07F
:102C6600073C0B5EE86AD8A0010E0E5E11D008265E
:102C76000550D8B0053C09260650D8B0063C0A26B1
:102C86000750D8B0073C0B26E86AD8B0010E0E26CE
:102C960003360C2ED1D70234083609360A360B36DF
:102CA6000E36045003A012D0085E0550D8A0053C8D
:102CB600095E0650D8A0063C0A5E0750D8A0073C1D
:102CC6000B5EE86AD8A0010E0E5E11D008260550EC
:102CD600D8B0053C09260650D8B0063C0A2607504F
:102CE600D8B0073C0B26E86AD8B0010E0E2602368D
:102CF600070E0C6E0234083609360A360B360E36C7
:102D0600045002A012D0085E0550D8A0053C095E0A
:102D16000650D8A0063C0A5E0750D8A0073C0B5EBA
:102D2600E86AD8A0010E0E5E11D008260550D8B06C
:102D3600053C09260650D8B0063C0A260750D8B0EE
:102D4600073C0B26E86AD8B0010E0E2602360C2E7A
:102D5600D1D70134083609360A360B360E360450FA
:102D660002A012D0085E0550D8A0053C095E0650A8
:102D7600D8A0063C0A5E0750D8A0073C0B5EE86A5E
:102D8600D8A0010E0E5E11D008260550D8B0053C1D
:102D960009260650D8B0063C0A260750D8B0073C8C
:102DA6000B26E86AD8B0010E0E260136070E0C6E09
:102DB6000134083609360A360B360E36045001A0A1
:102DC60012D0085E0550D8A0053C095E0650D8A072
:102DD600063C0A5E0750D8A0073C0B5EE86AD8A0FE
:102DE600010E0E5E11D008260550D8B0053C092606
:102DF6000650D8B0063C0A260750D8B0073C0B262A
:102E0600E86AD8B0010E0E2601360C2ED1D7003452
:102E1600083609360A360B360E36045001A012D093
:102E2600085E0550D8A0053C095E0650D8A0063CB1
:102E36000A5E0750D8A0073C0B5EE86AD8A0010ED0
:102E46000E5E11D008260550D8B0053C092606505E
:102E5600D8B0063C0A260750D8B0073C0B26E86ACD
:102E6600D8B0010E0E260036070E0C6E003408365A
:102E760009360A360B360E36045000A012D0085E0C
:102E86000550D8A0053C095E0650D8A0063C0A5E4F
:102E96000750D8A0073C0B5EE86AD8A0010E0E5E6C
:102EA60011D008260550D8B0053C09260650D8B0E2
:102EB600063C0A260750D8B0073C0B26E86AD8B06D
:102EC600010E0E2600360C2ED1D700B00ED00450BF
:102ED60008260550D8B0053C09260650D8B0063C51
:0C2EE6000A260750D8B0073C0B2612004B
:102EF2000450000A12E10550000A0FE10650000AD0
:102F02000CE10750000A09E1FF0E006EFF0E016E90
:102F12007F0E026EFF0E036EA7D0086A096A075081
:102F2200D8B424EF18F00350D8B428EF18F00250A8
:102F320006180A6E028E068E0E6A02C008F001C0E2
:102F42000CF000C00DF004500D5E0550D8A0053CF9
:102F52000C5E0650D8A0063C085E086A0C6A0D6A30
:102F6200D8A0BBEF17F0D8900232013200320832FB
:102F7200010E0E6E0750035ED8A0C8EF17F07E0E4A
:102F82000E240326D8B02DEF18F0CEEF17F07E0EE8
:102F92000E240326D8A032EF18F0180E0B6E0D3651
:102FA2000C3608360036013602360E360450005E04
:102FB2000550D8A0053C015E0650D8A0063C025E32
:102FC20006340E120EA0E9EF17F00D80F4EF17F0A1
:102FD200045000260550D8B0053C01260650D8B052
:102FE200062802260D900B2ED0EF17F01AEF18F0DC
:102FF200D8900036013602360E360450005E055077
:10300200D8A0053C015E0650D8A0063C025E0634FC
:103012000E10010B0D26D8B00C2AD8B4082AD8A459
:103022001AEF18F008320C320D32032AD8B42DEF01
:1030320018F00AAE089E0850026E0C50016E0D5038
:10304200006E35EF18F0010EEFDC35EF18F0020ECE
:1030520075EC00F035EF18F0040E8DEC00F035EF52
:0A30620018F0080E7CEC00F01200DC
:10306C005A50020A03E14CEC0AF01FD03AEC0AF079
:10307C006651000A19E1010E6425E16E000E65210E
:10308C00E26E080EE66E020E6425E16E000E6521FE
:10309C00E26E200EE66E040EE66E64C0E1FF65C0C3
:0C30AC00E2FF8C0EE66E01D0666B120095
:1030B8006D92699468A403D0FB0E6816FBD71200C2
:1030C800FE0E8314006E0092F70E00148C6E040E30
:0C30D8008310006E100E00108C6E1200B1
:0630E4008C948C801200A8
:0630EA008C948C801200A2
:1030F0000501546B556B0101586BD4EC0FF00501C1
:10310000526B536B0101586BA6EC0BF08C90C10E07
:10311000586F000E596FF40E5A6F010E5B6F9DECE5
:0A3120000DF00052D8A48C741200C8
:10312A0048C104F049C105F04AC106F04BC107F095
:10313A0044C100F045C101F046C102F047C103F0A5
:10314A00A4EC14F000C04CF101C04DF102C04EF1E4
:10315A0003C04FF147C004F048C005F049C006F06B
:10316A004AC007F09AEC03F000C047F001C048F0EB
:10317A0002C049F003C04AF000C004F001C005F0E3
:10318A0002C006F003C007F0000E006E000E016ECA
:10319A00480E026E850E036EAAEC13F0010ED8B02B
:1031AA00000E006E005208E0000E476E000E486ED8
:1031BA00480E496E850E4A6E000E046E000E056EAC
:1031CA00C80E066E850E076E47C000F048C001F0B3
:1031DA0049C002F04AC003F0AAEC13F0010ED8B0BD
:1031EA00000E006E005208E0000E476E000E486E98
:1031FA00C80E496E850E4A6E4BC004F04CC005F0ED
:10320A004DC006F04EC007F04CC100F04DC101F0B0
:10321A004EC102F04FC103F0A4EC14F0CD0E046EBF
:10322A00CC0E056E4C0E066E7B0E076E11EC14F07A
:10323A0000C050F101C051F102C052F103C053F174
:10324A00660E006E660E016E660E026E7E0E036ECE
:10325A0043C004F044C005F045C006F046C007F07C
:10326A0011EC14F050C104F051C105F052C106F03E
:10327A0053C107F09AEC03F000C054F101C055F1B4
:10328A0002C056F103C057F14CC14BF04DC14CF08E
:10329A004EC14DF04FC14EF054C143F055C144F0F8
:1032AA0056C145F057C146F0000E006E000E016E81
:1032BA00200E026E810E036E4CC104F04DC105F062
:1032CA004EC106F04FC107F011EC14F000C050F1E6
:1032DA0001C051F102C052F103C053F1000E006E59
:1032EA00000E016E000E026E7E0E036E47C004F0E1
:1032FA0048C005F049C006F04AC007F011EC14F0C6
:10330A0050C104F051C105F052C106F053C107F093
:10331A009AEC03F000C050F101C051F102C052F121
:10332A0003C053F1CD0E006ECC0E016E4C0E026E30
:10333A007C0E036E54C104F055C105F056C106F067
:10334A0057C107F011EC14F050C104F051C105F057
:0E335A0052C106F053C107F09AEC03F01200C6
:103368008C908C928C848C9A8C9C8C8E8C968C886D
:02337800120041
:10337A00BF0E8314006E009AF70E00148C6E800E36
:0C338A008310006E100E00108C6E1200FC
:10339600E70E83148C6E44C158F145C159F17EEC99
:1033A60009F081A007D044C15DF145C15EF1B1ECE1
:1033B60007F033D044C1E9FF45C1EAFFEECF00F084
:1033C600005207E044C158F145C159F1D3EC0EF063
:1033D60024D044C158F145C159F14DEC13F044C114
:1033E60058F145C159F1D1EC0DF044C158F145C130
:1033F60059F1D6EC0BF044C158F145C159F161ECD5
:103406000CF044C158F145C159F115EC0FF044C117
:0C34160058F145C159F105EC10F012000E
:10342200B6EC14F000C032F1460E0101346F4B0EBF
:10343200356F000E366FC3EC08F000C033F1325125
:10344200005C03E232C100F002D033C100F012008E
:1034520070A01CD05EC0E9FF5FC0EAFFEECF01F0B2
:103462000150800A12E184C0E9FF85C0EAFFEECF75
:1034720001F0000E000A02E1840E011806E15EC0AE
:10348200E1FF5FC0E2FF8C0EE66E7090DF0E681601
:02349200120026
:1034940084C0E9FF85C0EAFFEECF00F000AE05D09E
:1034A40084C0E1FF85C0E2FFE66A506A5A6A0001FF
:1034B4006D6B6E6B6C6BC9EC09F0C4EC09F0D5EC68
:0434C4000AF01200F8
:1034C800AAEC09F05B6A5C6AC66BC76B6A6A686AD1
:1034D80077EC09F06D8C6E6A716A6D9CC86BC96B6C
:1034E800000EC95D02E1080EC85D17E2C8C000F011
:1034F800C9C001F000360090013600360090013650
:10350800000E0024E16E040E0120E26EE66AE66A0F
:10351800E66AE66AC84BC92BE3D7160E706E68A632
:1035280003D0F70E6816FBD76C6B536A546A556A5A
:103538006D98080E846F040E856F816B836B120083
:04354800A19A120032
:10354C00040E00018419006E00C084F08351080A37
:10355C000AE122C46EFF6E50000803E2100E836F66
:10356C0002D0040E836F5A50010A3BE1020E8425EF
:10357C00E16E000E8521E26E280EE66E040EE66EFC
:10358C00ADEC05F05050020A07E184C0E1FF85C0A4
:10359C00E2FF840EE66E24D0040E8419006E00C087
:1035AC0084F084C0E9FF85C0EAFFEECF00F000BCD8
:1035BC000CD0040E8419006E00C084F084C0E1FFAE
:1035CC0085C0E2FFC80EE66E0BD0040E8419006EA7
:1035DC0000C084F084C0E1FF85C0E2FF880EE66E77
:0835EC0002D03AEC0AF01200D3
:1035F4000B6A0C6A0A6A0350D8B444EF1BF0028EBB
:103604008E0E035E03BE0CEF1BF0D8B40CEF1BF060
:1036140048EF1BF0036C080E035CD8A023EF1BF0EB
:10362400036E013602C001F0026A080E035CD8A0E2
:1036340023EF1BF00136016A0350D8A4D8902DEF74
:103644001BF00350D8B42DEF1BF0D8900232013296
:10365400032E27EF1BF00BBC01A03AEF1BF0D8A000
:103664003AEF1BF0012AD8B4022A02BE57EF1BF02E
:103674000AAE5DEF1BF0021E011E012AD8B4022A15
:103684005DEF1BF0026A016A5DEF1BF00B800BAE6D
:1036940061EF1BF0026A0AAE61EF1BF0FF0E026ECF
:1036A400016E0A36023261EF1BF0010E0C6EA8ECBB
:1036B40014F063EF1BF0000E0C6E63EF1BF0FF0EB3
:0C36C4000C6E0150006E0250016E1200EE
:1036D00000018351000A0CE16D6A696A77EC09F018
:1036E00072EC09F06DB602D06D86FCD7010E836FC7
:0236F0001200C6
:0A36F2006984EF0E68166D82120065
:1036FC000050086E0150006E016A026A036A0B6A80
:10370C000C6A960E036E0A6A00C001F008C000F045
:0A371C00086A026A19EC15F01200A9
:103726008C6A0101586BA6EC0BF0586BD4EC0FF0C9
:0237360012007F
:10373800030E0501466FB7D08C808C928C9419DEED
:10374800AD0E01015D6F000E5E6F080E5F6F000E1B
:10375800606F89EC08F0005202E0010E2E6EC4D0B2
:103768008C908C828C9405DEAD0E01015D6F000E8D
:103778005E6F030E5F6F000E606F89EC08F00052F9
:1037880002E0020E2E6EB0D0EBDDAD0E01015D6FD2
:10379800000E5E6F010E5F6F000E606F89EC08F01F
:1037A800005202E0030E2E6E9FD08C8A8C9C8C9E59
:1037B80087DCAD0E01015D6F000E5E6F080E5F6F56
:1037C800000E606F89EC08F0005202E0040E2E6EC5
:1037D8008BD08C9A8C8C8C9E73DCAD0E01015D6F46
:1037E800000E5E6F030E5F6F000E606F89EC08F0CD
:1037F800005202E0050E2E6E77D0B2DDAD0E01014B
:103808005D6F000E5E6F010E5F6F000E606F89ECDA
:1038180008F0005202E0060E2E6E66D08C868C9858
:10382800F4EC15F0AD0E01015D6F000E5E6F050E34
:103838005F6F000E606F89EC08F0005202E0070E1F
:103848002E6E52D08C96B10E0101586F000E596F32
:10385800F40E5A6F010E5B6F9DEC0DF00052D8A468
:103868008C78F4EC15F0AD0E5D6F000E5E6F030EF4
:103878005F6F000E606F89EC08F0005202E0080EDE
:103888002E6E32D06DDDAD0E01015D6F000E5E6FE4
:10389800010E5F6F000E606F89EC08F00052D8A42B
:1038A8002E6A22D021D02E50000AD8B445D72E50E7
:1038B800010AD8B455D72E50020AD8B465D72E506D
:1038C800030AD8B472D72E50040AD8B482D72E501F
:1038D800050A93E02E50060AA1E02E50070AB2E02E
:0A38E8002E50080ACFE0DED71200D0
:1038F2000B6A0C6A0A6A0350D8B4AEEF1CF00A9E37
:10390200028E860E035E03BE8CEF1CF0D8B48CEFE1
:103912001CF0B1EF1CF0036C080E035CD8A09AEF08
:103922001CF0036E0236026A0350D8A4D890A3EFAB
:103932001CF00350D8B4A3EF1CF0D8900232032E2F
:103942009EEF1CF00BBC02A0AEEF1CF0D8A0AEEFB5
:103952001CF0022AD8B4B8EF1CF0016ABEEF1CF0CA
:103962000B800BAEC2EF1CF0016AC2EF1CF0010E1D
:103972000C6EA8EC14F0C4EF1CF0000E0C6EC4EF39
:0C3982001CF0FF0E0C6E0250006E1200D4
:10398E00000E0101291902E1000E281902E1016A57
:10399E000AD028C1E9FF29C1EAFFEECF00F0000EE0
:0C39AE0000BE010E016E01C000F012000E
:1039BA0033DD00C088F0010E5D6E28C167F029C1B1
:1039CA0068F02AC189F02BC18AF079DD010E016EF7
:0A39DA000150010A01E177DE12003E
:1039E40028C104F029C105F0000E066E076E0436E6
:1039F4000490053606360736043604900536063636
:103A04000736000E006E6C0E016EDC0E026E020EA6
:103A1400036E03EC16F000C004F001C005F002C010
:103A240006F003C007F0010E045E000E055A065AA4
:103A3400075A04C02EF105C02FF106C030F107C0AB
:103A440031F10750000808E10650000805E105506F
:103A5400000802E10450FF0808E2FF0E01012A6F8A
:103A6400000E2B6F2C6F2D6F08D02EC12AF12FC1A1
:103A74002BF130C12CF131C12DF12AC1CBFF120041
:103A840001012951000A12E028C100F0000E016E64
:103A9400003600900136840E0024E96E000E0120E9
:103AA400EA6EEECF04F0EECF05F011D028C100F09D
:103AB400000E016E0036009001367D0E0024E96E82
:103AC400000E0120EA6EEECF04F0EECF05F0020EF8
:103AD4000424E16E000E0520E26E2AC1E6FF2BC12C
:103AE400E6FF010E0424E16E000E0520E26E2CC1F7
:103AF400E6FF04C0E9FF05C0EAFFEECF00F004C012
:103B0400E1FF05C0E2FF400E0014E66E04C0E9FFC9
:103B140005C0EAFFEECF00F0880E001204C0E1FFFA
:103B240005C0E2FF00C0E6FF2951000A1BE028C1DE
:103B340000F0000E016E003600900136840E002461
:103B4400026E000E0120036E02C0E9FF03C0EAFF0B
:103B5400040EEE18006E02C0E1FF03C0E2FF00C0D5
:103B6400E6FF1AD028C100F0000E016E0036009066
:103B740001367D0E0024026E000E0120036E02C089
:103B8400E9FF03C0EAFF040EEE18006E02C0E1FF75
:103B940003C0E2FF00C0E6FF04C000F005C001F06E
:023BA40012000D
:103BA6000501466B4F520BE0085183188C6E0AC50F
:103BB60058F1A6EC0BF011C558F1D4EC0FF0120039
:0A3BC6000001CA6B78EC18F0120041
:103BD000040E0501466F394A3A2A3A50070A02E1B3
:103BE000D00E391809E18350010F006E00C083FF29
:0A3BF00083CF8CFF396A3A6A120095
:103BFA00050E0501466F81B403D00001CB6B07D0D7
:103C0A0081B005D00001010ECB6F75EC18F00001F0
:103C1A00CB53D8B417D1CC0E0101586F000E596F8F
:103C2A00640E5A6F000E5B6F9DEC0DF00052D8B413
:103C3A0008D10EC501F0006A05010D510012000EEF
:103C4A00011257DD00C040F101C041F102C042F14A
:103C5A0003C043F140C1B5F041C1B6F042C1B7F06B
:103C6A0043C1B8F012C100F013C101F042DD00C037
:103C7A00A9F001C0AAF002C0ABF003C0ACF000C0CA
:103C8A0044F101C045F102C046F103C047F140C109
:103C9A0048F141C149F142C14AF143C14BF195ECA6
:103CAA0018F000C031F001C032F002C033F003C096
:103CBA0034F000C004F001C005F002C006F003C0F1
:103CCA0007F0006A016A026A036AAAEC13F0010E9D
:103CDA00D8B0000E006E00524FE00501546B556BD0
:103CEA000101586BD4EC0FF031C000F032C001F082
:103CFA0033C002F034C003F078DC00C052F501C0D2
:103D0A0002F0036A02C053F5000E046EC00E056E7F
:103D1A007F0E066E880E076E31C000F032C001F0C9
:103D2A0033C002F034C003F079EC17F0000E046ED1
:103D3A00000E056E480E066E850E076E11EC14F025
:103D4A0054DC00C02FF001C030F0000E026E0150AA
:103D5A00025C02E10050640806E2640E01013C6F55
:103D6A00000E3D6F04D02FC03CF130C03DF13CC184
:103D7A0058F1A6EC0BF065D0337E0501526B536BFC
:103D8A000101586BA6EC0BF0000E3118006E000E04
:103D9A003218016E800E3318026E000E3418036E4C
:103DAA0024DC00C054F5000E3118006E000E3218E3
:103DBA00016E800E3318026E000E3418036E15DC85
:103DCA0001C002F0036A02C055F5000E3118006EF8
:103DDA00000E3218016E800E3318026E000E34186F
:103DEA00036E000E046EC00E056E7F0E066E880E00
:103DFA00076E79EC17F0000E046E000E056E480E81
:103E0A00066E850E076E11EC14F0FAEC1AF000C07B
:103E1A002FF001C030F0000E026E0150025C02E188
:103E2A000050640806E2640E01013E6F000E3F6F07
:103E3A0004D02FC03EF130C03FF13EC158F1D4EC5E
:0A3E4A000FF002D0D7EC15F01200C3
:103E540000018351000A0BE16D6A696A77EC09F08D
:103E64006DB602D06D86FCD70001010E836F8351BD
:103E7400010A08E16DBA06D0686A696A69806988CE
:103E8400020E836F68A406D069A404D0FB0E6816E2
:103E94005CEC18F06DA203D0A4EC1AF0E0D068A09A
:103EA40019D069A017D064EC1AF0040E836F200EA9
:103EB4000401026F040E036F080E016F000E00155B
:103EC400006E00C000F48C0E0011006E00C000F4FF
:103ED400FE0E681668A805D069A803D008DCEF0EAA
:103EE400681668AC04D069AC02D0BF0E681668AA24
:103EF40004D069AA02D029EC1AF068A202D069B2EF
:103F04006A6A040E0001835D03E2A4EC1AF0A7D0F0
:103F140069A6A3D00101296B040E295DD8B09DD0F8
:103F240068A697D06CCFC5F0F70E6816780E00011E
:103F3400C515016E0150000AD8A48AD0FD0EC5151E
:103F4400016E026AFF0E0216000E021802E1000E54
:103F540001186EE17E0EC515016E01C003F0033237
:103F6400039E03C000F0000E016E0036009001367F
:103F7400003600900136000E0024026E040E01206B
:103F8400036E02C05EF003C05FF002C064F003C0C1
:103F940065F0040E6419006E00C064F002C0E9FF0D
:103FA40003C0EAFFEECF00F000C001F03C0E0116A2
:103FB4000132019E0132019E01500D0A36E1020ECA
:103FC4005E24E96E000E5F20EA6EEECF01F0EECFC4
:103FD40002F00250040A02E1280E011823E1020E45
:103FE4005E24E16E000E5F20E26E200EE66E040E8B
:103FF400E66E0101286B080E285D14E2200EE16EC6
:10400400040EE26E2851E126D8B0E22A280EE96EA9
:10401400040EEA6E2851E926D8B0EA2AEECFE6FF6C
:10402400282BE9D74AEC1AF002D036EC18F00FD05E
:10403400FD0E0001C515016E026AFF0E0216000E88
:10404400021802E1040E011802E1A6EC1AF000D0F5
:1040540001D003D00101292B5FD7A4EC1AF0120080
:10406400060E0501466F81B403D00001CA6B07D068
:1040740081B005D00001010ECA6F72EC18F0000186
:10408400CA53D8B473D0BD0E0101586F000E596FD6
:10409400E80E5A6F030E5B6F9DEC0DF0005265E065
:1040A4000EC501F0006A005005010D11026E000EEC
:1040B4000110036E01011351031802E10250121999
:1040C40046E00EC501F0006A005005010D11026EB4
:1040D400000E0110036E01011351035C02E1125141
:1040E400025C12E20501546B556B0101586BD4EC70
:1040F4000FF0E80E0501526F030E536F640E0101B9
:10410400586FA6EC0BF022D00EC501F0006A0050E7
:1041140005010D11026E000E0110036E0350010122
:10412400135D02E10250125D11E20501526B536B03
:104134000101586BA6EC0BF0E80E0501546F030E59
:10414400556F640E0101586FD4EC0FF00ED00501C9
:10415400526B536B0101586BA6EC0BF00501546BC9
:10416400556B0101586BD4EC0FF002D078EC18F0C9
:02417400120037
:10417600010E0501466F354A362A030E365C02E10A
:10418600E80E355C04E3831C8C6E356A366A1200D1
:104196008B0E0101446F000E456F55EC15F01200B1
:1041A600020E0501466F8B0E0101446F000E456F2E
:0641B600CBEC19F0120031
:0241BC001200EF
:0241BE001200ED
:0A41C0000001CB6BD7EC15F01200E4
:1041CA000C0E0101266F010E276F246B256B800EE2
:1041DA002519006E800E005C02E1040E245D0AE2DD
:1041EA0026C1E1FF27C1E2FFE66A264B272B244BB3
:1041FA00252BEDD7D59ED58CD59AD598D596D5842D
:10420A00D592D58020C100F021C101F022C102F06F
:10421A0023C103F0000E046E1B0E056E370E066EE8
:10422A00960E076E11EC14F0000E046E000E056E69
:10423A00000E066E850E076E79EC17F000C004F0CA
:10424A0001C005F002C006F003C007F0000E006EC0
:10425A00000E016E000E026E870E036EA4EC14F0BF
:0A426A0079EC1CF000C079F012009E
:08427400D09EF28EF28C1200C4
:10427C00000E0101286F050E296F400E2A6F050EE6
:08428C002B6FDDEC1CF01200A9
:10429400928092829284036A046A800E0418006EEB
:1042A400800E005C02E1030E035C12E203C000F026
:1042B40004C001F0003600900136100E0024E16EB7
:1042C400010E0120E26EE66AE66A034A042AE5D793
:1042D4000C0EC16EC08EC08AC088C096C094C092B5
:0642E400C080C280120040
:1042EA000101205303E0F28AD58E02D0F29AD59EBC
:0242FA001200B0
:1042FC00200E0001835D03E36DB201D002D0006A91
:10430C0055D0C6C028F1C7C029F1C7EC1CF000522B
:10431C004CE123C128F1010E296F20C12AF121C1E2
:10432C002BF122C12CF142EC1DF000C0C6F001C0F3
:10433C00C7F00001B96BBA6BBB6BBC6BC6C028F184
:10434C00C7C029F1C7EC1CF0005218E0200E000188
:10435C00835D03E36DB201D002D0006A27D0010E59
:10436C00016E0150000A01E16FDD0001B951BA1173
:10437C00BB11BC1102E0006A19D0E0D70001C6C025
:10438C0024F1C7C025F1000EC71902E1000EC619B1
:10439C000AE0010E01012425E96E000E2521EA6ECA
:0E43AC00EECF00F003D0006A01D0006A1200CC
:1043BA000101266B200E0001835D03E36DB201D07B
:1043CA0002D0006A31D05BC028F15CC029F1C7EC89
:1043DA001CF0005228E15BC024F15CC025F1000EFC
:1043EA005C1802E1000E5B180BE00101010E2425A6
:1043FA00E96E000E2521EA6EEECF00F000C026F12C
:10440A00010123C128F1296B20C12AF121C12BF115
:10441A0022C12CF142EC1DF000C05BF001C05CF03F
:0A442A0026C100F001D0006A120064
:104434009492949420C100F021C101F022C102F0B1
:1044440023C103F0FAEC1AF000C028F101C029F1ED
:10445400F2EC1CF00C0EBD6E0C0EBA6EBE6ABB6A9A
:06446400070ECA6E1200F3
:10446A00F250026EF29E0500FF6A0150FE6E005085
:08447A00FD6E02BEF28E12007D
:10448200B70E926EFF0E936EF19E956A8C6A1200C1
:1044920020C100F000360090003600900050C21299
:1044A2000E0E206E0000202E53EF22F0C282C2A216
:1044B20001D0FDD7030EC216C4CF01F0006AC3506B
:0844C2000026000E0122120089
:1044CA0081CF4DF583CF4EF510C14AF511C102F0E7
:1044DA00036A02C04BF512C100F0003600900036A4
:1044EA0000900050021005014B6F060E026E12C1B9
:1044FA0000F013C101F0025005E001320032019EC2
:10450A00FF0FFAD700C04CF514C14FF515C100F0E2
:08451A00016A00C050F5120017
:1045220067C020F168C021F1400E0101226F010E27
:06453200236F42DF1200BE
:104538000900F5CFE6FF0006FBE10106F9E11200EC
:10454800A5DE9BDF000E0101206F800E216F3B0E60
:10455800226F8A0E236F6ADF8DDE6F0E0101206FD6
:10456800120E216F030E226F750E236F2ADE010EC5
:0A4578000101206FB6DE7ADE1200AA
:104582001EC100F01FC101F0003600900136003656
:1045920000900136D40E0024E16E000E0120E26E7E
:1045A20016C1E6FF17C1E6FF18C1E6FF19C1E6FF13
:1045B2001EC100F01FC101F0003600900136003626
:1045C20000900136F00E0024E16E000E0120E26E32
:1045D2001AC1E6FF1BC1E6FF1CC1E6FF1DC1E6FFD3
:0245E2001200C5
:1045E40000018351010A07E16DBA05D0686A698048
:1045F4006988020E836F68A406D069A404D0FB0EF8
:1046040068165CEC18F06DA203D0A4EC1AF0E1D0AB
:1046140068A019D069A017D064EC1AF0040E836F57
:10462400200E0401026F040E036F080E016F000ECA
:104634000015006E00C000F48C0E0011006E00C066
:1046440000F4FE0E681668A806D069A804D079ECB8
:104654001BF0EF0E681668AC04D069AC02D0BF0E34
:10466400681668AA04D069AA02D029EC1AF068A2D4
:1046740002D069B26A6A040E0001835D03E2A4EC0D
:104684001AF0A7D069A6A3D001013B6B040E3B5DD1
:10469400D8B09DD068A697D06CCFC5F0F70E681639
:1046A400780E0001C515016E0150000AD8A48AD005
:1046B400FD0EC515016E026AFF0E0216000E0218E9
:1046C40002E1000E01186EE17E0EC515016E01C0F7
:1046D40003F00332039E03C000F0000E016E0036A7
:1046E40000900136003600900136000E0024026E60
:1046F400040E0120036E02C05EF003C05FF002C02E
:1047040064F003C065F0040E6419006E00C064F028
:1047140002C0E9FF03C0EAFFEECF00F000C001F0E1
:104724003C0E01160132019E0132019E01500D0A18
:1047340036E1020E5E24E96E000E5F20EA6EEECFD3
:1047440001F0EECF02F00250040A02E1280E011833
:1047540023E1020E5E24E16E000E5F20E26E200E65
:10476400E66E040EE66E01013A6B080E3A5D14E241
:10477400200EE16E040EE26E3A51E126D8B0E22A30
:10478400280EE96E040EEA6E3A51E926D8B0EA2AF8
:10479400EECFE6FF3A2BE9D74AEC1AF002D036EC1A
:1047A40018F00FD0FD0E0001C515016E026AFF0E50
:1047B4000216000E021802E1040E011802E1A6EC32
:1047C4001AF000D001D003D001013B2B5FD7A4EC39
:0447D4001AF01200C5
:1047D8000501458105C500F0000E016E0036009008
:1047E8000136003600900136F00E0024E96E000E06
:1047F8000120EA6EEECF00F0EECF01F0EECF02F02E
:08480800EECF03F02EDE1200DA
:10481000076A086A3B0E096E000E0A6E800E0818C1
:10482000006E800E005C02E1040E075C52E209C0DB
:10483000E9FF0AC0EAFF010EEE24006E000EEE2032
:10484000016E09C0E1FF0AC0E2FF00C0E6FF01C03F
:10485000E6FF09C0E9FF0AC0EAFFEECF05F0EECFA0
:1048600006F007C000F008C001F0000E08BEFF0E01
:10487000026E036E00360090013602360336C40E17
:104880000024F66E4B0E0120F76E000E0220F86E2B
:104890000900F5CF01F00900F5CF02F00250065CE7
:1048A00002E10150055C0EE30C0E0724E16E010EDF
:1048B0000820E26E010EE66E09C0E1FF0AC0E2FFC9
:1048C000E66AE66A074A082A020E0926000E0A224C
:0848D000A5D779C0D6FF120044
:1048D8000101166B030E165D4EE2186B196B1A6B0D
:1048E8001B6B176B100E175D1AE216C120F1CDDD98
:1048F8007EEC1BF018C104F019C105F01AC106F0CE
:104908001BC107F09AEC03F000C018F101C019F1BF
:1049180002C01AF103C01BF10101172BE3D716C11E
:1049280000F0000E016E003600900136100E0024D3
:104938001C6F010E01201D6F000E046E000E056E27
:10494800000E066E830E076E18C100F019C101F043
:104958001AC102F01BC103F079EC17F0FAEC1AF057
:104968001CC1E1FF1DC1E2FF00C0E6FF01C0E6FF78
:084978000101162BAFD712005C
:1049800016C120F117C121F118C122F1010E010158
:06499000236FB4DC1200ED
:10499600E8EC25F0260E0101166F370E176F000E94
:1049A600186F000E196FA60E1A6F3B0E1B6F000EC6
:1049B6001C6F000E1D6F1E6B1F6BE0DDBE0E166FAB
:1049C600410E176F000E186F000E196F760E1A6FD4
:1049D600410E1B6F000E1C6F000E1D6F010E1E6F29
:1049E600000E1F6FCBDD060E166F000E176F000E42
:1049F600186F000E196FD00E1A6F3B0E1B6F000E4C
:104A06001C6F000E1D6F040E1E6F000E1F6FB6DDAD
:104A1600C00E166F410E176F000E186F000E196F3D
:104A2600FA0E1A6F3B0E1B6F000E1C6F000E1D6FE9
:104A3600050E1E6F000E1F6FA1DDBC0E166F410E18
:104A4600176F000E186F000E196F380E1A6F370E9B
:104A56001B6F000E1C6F000E1D6F030E1E6F000EE7
:104A66001F6F8CDD960E166F410E176F000E186FB6
:104A7600000E196FA60E1A6F410E1B6F000E1C6FEB
:104A8600000E1D6F020E1E6F000E1F6F77DDC60E25
:104A9600166F3B0E176F000E186F000E196F640E1F
:104AA6001A6F400E1B6F000E1C6F000E1D6F060E58
:104AB6001E6F000E1F6F62DD44DD0501056B0101EF
:104AC6000C5305E02BDD00C04FF001010C6B0E53BB
:104AD6000BE0F8DC400E0101166F050E176F400E55
:0C4AE600186F4BDFF6DE0E6BEAD7FFD72F
:104BD00010EE2EF0220E006E010E016E6F0EF66EBC
:0E4BE0004B0EF76E000EF86E9CEC22F01200E9
:104AF2002A03430065006E007400720061006C00BE
:104B0200200043006F006E00740072006F006C00A2
:0A4B1200610064006F007200610092
:104B1C002A03430065006E007400720061006C0093
:104B2C00200043006F006E00740072006F006C0078
:0A4B3C00610064006F007200610068
:104B46000902290001010080320904000002030065
:104B5600000009210101000122210007058103400F
:094B6600000107050103400001F4
:014B6F000045
:024B7000000043
:044B7200000000003F
:024B760000003D
:024B780000003B
:024B7A00000039
:084B7C00000000000000000031
:044B8400000000002D
:044B88000000000029
:044B8C000000000025
:014B90000024
:104B91000600FF0901A10119012940150026FF00A6
:104BA10075089540810219012940750895409102C7
:014BB100C043
:104BB200120100020000000834120100000101028B
:024BC2000001F0
:084BC4000100020003000500DE
:044BCC0004030904D1
:020000040030CA
:0E000000240E381EFF0181FF0FC00FE00F40DD
:00000001FF
