:04000000F2EF17F014
:1000080000C023F001C022F002C021F003C020F09C
:1000180004C01FF005C01EF006C01DF007C01CF08C
:1000280008C01BF009C01AF00AC019F00BC018F07C
:100038000CC017F00DC016F00EC015F0E1CF2CF073
:10004800E2CF2DF0E9CF2AF0EACF2BF0F3CF28F05A
:10005800F4CF29F0F5CF27F0F8CF24F0F7CF25F02B
:10006800F6CF26F0F2A40AD0D6EC17F0E00E010184
:10007800066F000E076F79EC16F0F294A1AA03D070
:10008800DEEC16F0A19A27C0F5FF24C0F8FF25C0C2
:10009800F7FF26C0F6FF28C0F3FF29C0F4FF23C0EE
:1000A80000F022C001F021C002F020C003F01FC000
:1000B80004F01EC005F01DC006F01CC007F01BC0F0
:1000C80008F01AC009F019C00AF018C00BF017C0E0
:1000D8000CF016C00DF015C00EF02AC0E9FF2BC0B9
:0C00E800EAFF2CC0E1FF2DC0E2FF110078
:0800F4000AAE029E000E12008C
:1000FC000B820BAE88EF00F00368026801680068A1
:08010C000A360232FF0E120058
:100114000B840BAE95EF00F0010E036E026A016AC8
:0A012400006A0A360232FF0E1200D4
:0E012E00026A016A006A086A036A000E120083
:10013C000B6A0A6A096A00500402F4CF09F0F3CF83
:10014C0008F001500502F4CF0BF0F3CF0AF0005089
:10015C000502F3500926F4500A22E86A0B220150DA
:10016C000402F3500926F4500A22E86A0B2208C054
:10017C0000F009C001F00AC002F00BC003F012003D
:10018C001E0E716E100E0001876F040E886F87C0F3
:10019C00E1FF88C0E2FFE69E87C0E1FF88C0E2FF76
:1001AC00E69C040E8725E16E000E8821E26EE68C3B
:1001BC00180E8B6F040E8C6F8BC0E1FF8CC0E2FFAE
:1001CC00E69E8BC0E1FF8CC0E2FFE69C040E8B2503
:1001DC00E16E000E8C21E26EE68C020E8725E16E3C
:1001EC00000E8821E26E72C0E6FF73C0E6FF010EBE
:1001FC008725E16E000E8821E26E400EE66E87C008
:10020C00E9FF88C0EAFFEECF00F087C0E1FF88C0AD
:10021C00E2FF400E0014E66E87C0E9FF88C0EAFFDB
:10022C00EECF00F0880E001287C0E1FF88C0E2FF1D
:10023C0000C0E6FF87C074F088C075F0040E871903
:08024C00006E00C087F01200F3
:100254000CB06CEF01F00CA212EF02F00E6A000E6B
:10026400026483EF01F0F00E0214D8A44EEF01F003
:10027400023A01380F0B02260138F00B016E0038E8
:100284000F0B01260038F00B006E08380F0B002608
:100294000838F00B086E0E84D89002BE67EF01F0A8
:1002A40008360036013602360E2A02BE67EF01F028
:1002B40008360036013602360E2A02BE67EF01F018
:1002C40008360036013602360E2A0E50036408EF53
:1002D40002F0035E0BBC08AE0DEF02F0D880800E76
:1002E40008640030000E002201220222D8A00DEF83
:1002F40002F0023201320032034A12EF02F00DEF33
:1003040002F001C002F000C001F008C000F0086A69
:10031400000E0E860264BAEF01F0F00E0214D8A4A7
:10032400A2EF01F0023A01380F0B02260138F00B5C
:10033400016E00380F0B01260038F00B006E0E849E
:10034400D89002BE67EF01F00036013602360E2A5D
:1003540002BE67EF01F00036013602360E2A02BEF5
:1003640067EF01F00036013602360E2A67EF01F01E
:1003740001C002F000C001F0006A000E0E960E8863
:100384000264E7EF01F0F00E0214D8A4D2EF01F0FA
:10039400023A01380F0B02260138F00B016E0E846D
:1003A400D89002BE67EF01F0013602360E2A02BE73
:1003B40067EF01F0013602360E2A02BE67EF01F044
:1003C400013602360E2A67EF01F001C002F0016A1D
:1003D400000E0E86026417EF02F0F00E0214D8A489
:1003E400F6EF01F0023A0E84D89002BE67EF01F0F6
:1003F40002360E2A02BE67EF01F002360E2A02BE52
:1004040067EF01F002360E2A67EF01F0010E0C6E61
:100414007FDE1AEF02F0020E0C6E6ADE1AEF02F0B3
:10042400040E0C6E69DE1AEF02F0080E0C6E7DDE0F
:020434001200B4
:1004360004012051800AD8A478D0C00E0001906F24
:1004460069D00001840E006E310E016E000E026E40
:1004560000C08DF001C08EF002C08FF0120E916FB9
:10046600000E926F62D00001030E006E000E016E48
:1004760022C404F0000E056E5EDEE40E0024E96E72
:10048600000E0120EA6EEECF8DF0EECF8EF0EECFAD
:100496008FF0020E8D25F66E000E8E21F76E000E81
:1004A6008F21F86E0900F5CF00F00900F5CF01F0B5
:1004B60000C091F001C092F038D004012251000131
:1004C600995D23E3030E006E000E016E22C404F054
:1004D600000E056E30DEB80E0024E96E000E012017
:1004E600EA6EEECF8DF0EECF8EF0EECF8FF08DC0B0
:1004F600F6FF8EC0F7FF8FC0F8FF0900F5CF00F0BA
:1005060000C091F0000E926F01D0906B0ED00001EA
:10051600906B0BD004012351010A93E02351020A88
:0C052600A2E02351030AC9E0F2D7120042
:10053200000E0001925D02E1080E915D10E291C091
:1005420003F092C004F09A51000A03E1010E9A6F7F
:1005520005D09A51010A02E1020E9A6F04D0080EE8
:10056200036E000E046E89C0E1FF8AC0E2FFE692CC
:1005720089C0E1FF8AC0E2FFE69089C0E9FF8AC034
:10058200EAFFEECF00F089C0E1FF8AC0E2FF04502B
:100592000010E66E010E8925E16E000E8A21E26EE0
:1005A20003C0E6FF0350915D006E04509259016E44
:1005B20000C091F001C092F0280E6F6F040E706FB0
:1005C20090B12FD0035004102BE08DC0F6FF8EC0E7
:1005D200F7FF8FC0F8FF0900F5CF00F06FC0E1FF11
:1005E20070C0E2FF00C0E6FF6F4B702B010E8D253D
:1005F200006E000E8E21016E000E8F21026E00C071
:100602008DF001C08EF002C08FF0010E035C006E0F
:10061200000E0458016E00C003F001C004F0D2D7EE
:1006220024D00350041021E08DC0E9FF8EC0EAFF00
:100632006FC0E1FF70C0E2FFEECFE6FF6F4B702BA1
:10064200010E8D25006E000E8E21016E00C08DF010
:1006520001C08EF0010E035C006E000E0458016EA4
:0C06620000C003F001C004F0DCD712005F
:10066E0004012251010A13E120C401F01F0E0116EC
:10067E000150000A0CE10001908F04012151030A80
:10068E0004E1010E0001836F02D00001836B0401AF
:10069E002251000AD8A48DD020C401F01F0E0116DD
:1006AE000150020AD8A485D024C401F00F0E011601
:1006BE000150000AD8B47DD00001908F040124BFF0
:1006CE0016D024C403F00F0E031603C000F0000E64
:1006DE00016E003600900136850E0024E96E000E84
:1006EE000120EA6EEECF04F0EECF05F015D024C453
:1006FE0003F00F0E031603C000F0000E016E00365D
:10070E0000900136890E0024E96E000E0120EA6E7B
:10071E00EECF04F0EECF05F02151030A07E104C03D
:10072E00E1FF05C0E2FF840EE66E43D024C400F064
:10073E000F0E0016700E026E0F0E036E0050022684
:10074E00D8B0032A02C0E9FF03C0EAFFFE0EEE1482
:10075E00006EEECF01F0FF0E011602C0E1FF03C0E6
:10076E00E2FF00C0E6FF01C0E6FF24AF11D004C0D7
:10077E00E1FF05C0E2FFE66A040E0418006E00C039
:10078E0004F004C0E1FF05C0E2FF400EE66E11D09A
:10079E0004C0E1FF05C0E2FF880EE66E040E0418E9
:1007AE00006E00C004F004C0E1FF05C0E2FFC80EF9
:0407BE00E66E1200D1
:1007C2000401286B296B4AD00001908F0401288113
:1007D20000018351010A02E10401288354D000017F
:1007E200908F51D00001908F040124BF16D024C4F1
:1007F20003F00F0E031603C000F0000E016E003668
:1008020000900136850E0024E96E000E0120EA6E8A
:10081200EECF04F0EECF05F015D024C403F00F0E96
:10082200031603C000F0000E016E00360090013680
:10083200890E0024E96E000E0120EA6EEECF04F06C
:10084200EECF05F004C0E9FF05C0EAFFEECF01F0EC
:1008520001A403D00401010E286F15D020C401F0B9
:100862001F0E01160150000AAFE020C401F01F0E56
:1008720001160150010AB3E020C401F01F0E011657
:100882000150020AAFE0000190AF07D0280E8D6F31
:0C089200040E8E6F9081020E916F120018
:10089E00025006180E6E086A096A0B6A0350076446
:1008AE0042EF05F006500A6E068E028E03500B6E56
:1008BE000750036E000E0B6492EF04F00B50075EB0
:1008CE00D8B433EF05F0070E076401EF05F0075EAD
:1008DE0000C008F001C000F002C001F0026A074E2D
:1008EE0033EF05F00764D6EF04F0075E00C008F0A2
:1008FE0001C000F0016A074E33EF05F00764B4EF54
:10090E0004F0075E00C008F0006A074E33EF05F0F2
:10091E0007649BEF04F00AC002F005C001F004C0AA
:10092E0000F0086A5FEF06F0030E0764A6EF04F00E
:10093E00075E08380F0B086E074E33EF05F0D890A0
:10094E000832074E33EF05F0D8900832074E33EFDA
:10095E0005F0D890083233EF05F0030E0764C5EFAB
:10096E0004F0075E08380F0B086E0038F00B0826EF
:10097E0000380F0B006E074E33EF05F0D8900032A3
:10098E000832074E33EF05F0D89000320832074E8A
:10099E0033EF05F0D8900032083233EF05F0030E36
:1009AE000764EDEF04F0075E08380F0B086E003891
:1009BE00F00B082600380F0B006E0138F00B0026E6
:1009CE0001380F0B016E074E33EF05F0D890013250
:1009DE0000320832074E33EF05F0D8900132003264
:1009EE000832074E33EF05F0D8900132003208324C
:1009FE0033EF05F0030E07641EEF05F0075E0838AF
:100A0E000F0B086E0038F00B082600380F0B006E27
:100A1E000138F00B002601380F0B016E0238F00B77
:100A2E00012602380F0B026E074E33EF05F0D890F9
:100A3E000232013200320832074E33EF05F0D89001
:100A4E000232013200320832074E33EF05F0D890F1
:100A5E000232013200320832096A000E0EAE27EF62
:100A6E0006F0081E001E011E021E082A0022012288
:100A7E00022227EF06F00750D8A448EF05F05FEFEB
:100A8E0006F0096A02C00AF0028E068E0750035C59
:100A9E00076ED8B41AEF06F0070E0764E8EF05F0FC
:100AAE00075E0450096E0550046E0650056E066A08
:100ABE00074E1AEF06F0070E0764BDEF05F0075E4E
:100ACE000450096E0550046E056A074E1AEF06F0C3
:100ADE00070E07649BEF05F0075E0450096E046A6B
:100AEE00074E1AEF06F0070E076482EF05F00AC0F4
:100AFE0002F05FEF06F0030E07648DEF05F0075E60
:100B0E0009380F0B096E074E1AEF06F0D89009320E
:100B1E00074E1AEF06F0D8900932074E1AEF06F07C
:100B2E00D89009321AEF06F0030E0764ACEF05F009
:100B3E00075E09380F0B096E0438F00B09260438CE
:100B4E000F0B046E074E1AEF06F0D89004320932DE
:100B5E00074E1AEF06F0D89004320932074E1AEFFC
:100B6E0006F0D890043209321AEF06F0030E07642D
:100B7E00D4EF05F0075E09380F0B096E0438F00B41
:100B8E00092604380F0B046E0538F00B04260538C1
:100B9E000F0B056E074E1AEF06F0D8900532043291
:100BAE000932074E1AEF06F0D89005320432093298
:100BBE00074E1AEF06F0D8900532043209321AEFBA
:100BCE0006F0030E076405EF06F0075E09380F0BFB
:100BDE00096E0438F00B092604380F0B046E053825
:100BEE00F00B042605380F0B056E0638F00B0526A4
:100BFE0006380F0B066E074E1AEF06F0D890063227
:100C0E00053204320932074E1AEF06F0D89006323A
:100C1E00053204320932074E1AEF06F0D89006322A
:100C2E00053204320932086A000E0EAE27EF06F0C6
:100C3E00091E041E051E061E092A0422052206226E
:100C4E0009500826045000220550012206500222A7
:100C5E000EBE3EEF06F0D8A04DEF06F00232013286
:100C6E0000320832033E4DEF06F059EF06F0D8B0D1
:100C7E0053EF06F0000E081E001E011E021E082A6B
:100C8E000022012202220A7E53EF06F0010E0C6EA4
:100C9E002AEC01F061EF06F0020E0C6E2AEC01F068
:100CAE0061EF06F0040E0C6E7EEC00F061EF06F0C4
:060CBE00000E0C6E120096
:100CC4000001908F716A9D6B22C49EF09E51000AB0
:100CD40003E1100E9C6F04D0200E9C6FC6EC00F054
:020CE4001200FC
:100CE6000134083609360450085E0550D8A0053C84
:100CF600095E003601360F0E0C6E013408360936D1
:100D0600045000A006D0085E0550D8A0053C095E38
:100D160005D008260550D8B0053C09260036013610
:100D26000C2EEBD700B006D0045008260550D8B0DC
:080D3600053C09260000120033
:100D3E0020C401F01F0E01160150010A01E094D0EB
:100D4E0004012451000A01E08FD02151060A42E12C
:100D5E0037D000019E51010A17E13A0E006E310E96
:100D6E00016E000E026E120E0026000E01220222ED
:100D7E0000C08DF001C08EF002C08FF0090E916F91
:100D8E00000E926FC00E906F25D000019E51010A89
:100D9E0012E1630E006E310E016E000E026E00C087
:100DAE008DF001C08EF002C08FF0210E916F000EFB
:100DBE00926FC00E906F0ED00001800E906F0AD011
:100DCE0004012351210AC5E02351220ADEE02351FA
:100DDE00230AF2E020C401F0600E0116050E006E2B
:100DEE00005004E00132019EFF0FFBD70150010AB3
:100DFE0001E03AD026D038D037D0820E00018D6F68
:100E0E00000E8E6F010E916F000E926FC10E906FDD
:100E1E002BD00001800E906F23C482F025D00001EC
:100E2E007F0E8D6F000E8E6F010E916F000E926F02
:100E3E00810E906F19D00001800E906F22C47FF04A
:100E4E0013D004012151010AD6E02151090AD4E040
:100E5E002151020AD2E021510A0ADBE02151030A94
:0A0E6E00DEE021510B0AE7E012005C
:100E7800840E006E310E016E000E026E0E0E0024FE
:100E8800F66E000E0120F76E000E0220F86E0900C3
:100E9800F5CF03F003C004F00F0E0024F66E000E29
:100EA8000120F76E000E0220F86E0900F5CF01F060
:100EB8000150035C12E2840E006E310E016E000ECA
:100EC800026E0F0E0024F66E000E0120F76E000E63
:100ED8000220F86E0900F5CF04F0840E006E310E82
:100EE800016E000E026E100E0024F66E000E012038
:100EF800F76E000E0220F86E0900F5CF01F00150E0
:100F0800045C12E2840E006E310E016E000E026E59
:100F1800100E0024F66E000E0120F76E000E02205F
:0E0F2800F86E0900F5CF04F004C000F01200CE
:100F3600086A096A000E0762036420EF08F002508F
:100F460006180A6E075003267E0ED8A0B1EF07F0EA
:100F5600035ED8B025EF08F0B5EF07F0035ED8A022
:100F66002AEF08F0028E068E02C00EF001C00BF0CA
:100F760000C00DF000500402F4CF0CF00150050241
:100F8600F4CF00F0F3CF08F00402F3500C26F4502F
:100F96000822000E00220D500502F3500C26F450D4
:100FA6000822000E002202500402F3500826F450D4
:100FB600002202500502016A000E0122F3500026AB
:100FC600F45001220D500602F3500826F450002278
:100FD600026A000E012202220B500602F35000267E
:100FE600F4500122000E02220E500602F350012692
:100FF600F450022202BE08EF08F008360036013629
:1010060002360306D8B42AEF08F01BEF08F0D880A2
:10101600800E08640030000E002201220222D8A0B1
:101026001BEF08F0023201320032034A25EF08F0C6
:101036000AAE029E000E2DEF08F0010E97EC00F0AE
:101046002DEF08F0020E7EEC00F02DEF08F0040EF6
:061056008AEC00F012001C
:10105C006D98000190BF49D078AF28D0020E9B6FDD
:10106C00010E8925E16E000E8A21E26EE66A89C0C6
:10107C00E1FF8AC0E2FFC80EE66E010E6D25E16E3F
:10108C00000E6E21E26E080EE66E020E6D25E16E0C
:10109C00000E6E21E26E280EE66E040EE66E6DC03A
:1010AC00E1FF6EC0E2FFC80EE66E1ED0010E6D258C
:1010BC00E16E000E6E21E26E080EE66E020E6D25DC
:1010CC00E16E000E6E21E26E200EE66E040EE66EF0
:1010DC006DC0E1FF6EC0E2FF8C0EE66E89C0E1FFD1
:1010EC008AC0E2FF840EE66E83D078BF81D0040103
:1010FC0020AF56D0000192510401275D04E100019C
:10110C0091510401265D04E226C491F027C492F0AB
:10111C0099EC02F0010E9B6F010E6D25E16E000E35
:10112C006E21E26E080EE66E020E6D25E16E000E6B
:10113C006E21E26E200EE66E040EE66E6DC0E1FFCF
:10114C006EC0E2FF800EE66E716B010E9325E16EB0
:10115C00000E9421E26E080EE66E020E9325E16EEF
:10116C00000E9421E26E200EE66E040EE66E93C025
:10117C00E1FF94C0E2FF840EE66E010E716F020E69
:10118C008925E16E000E8A21E26E280EE66E040EB1
:10119C00E66E89C0E1FF8AC0E2FFC80EE66E28D079
:1011AC000001020E9B6F010E8925E16E000E8A2153
:1011BC00E26EE66A89C0E1FF8AC0E2FFC80EE66E05
:1011CC00010E6D25E16E000E6E21E26E080EE66ECC
:1011DC00020E6D25E16E000E6E21E26E280EE66E9B
:1011EC00040EE66E6DC0E1FF6EC0E2FFC80EE66E47
:0211FC001200DF
:1011FE000001FE6B0101046B056B020E0125F66EFC
:10120E00000E0221F76E000E0321F86E0900F5CFD5
:10121E0005F0030E0125F66E000E0221F76E000E8C
:10122E000321F86E0900F5CF00F000C003F0000EA8
:10123E00046E03C001F0006A05500024066E000E15
:10124E000120076E01C108F002C109F003C10AF0C6
:10125E00010E0824F66E000E0920F76E000E0A200D
:10126E00F86E0900F5CF01F00150020A1CE1060EDE
:10127E000824F66E000E0920F76E000E0A20F86E96
:10128E000900F5CF01F001500001FE5D0CE2060EE3
:10129E000824F66E000E0920F76E000E0A20F86E76
:1012AE000900F5CFFEF0010E0824F66E000E09209F
:1012BE00F76E000E0A20F86E0900F5CF01F001500E
:1012CE00040A1CE10001080E0824F66E000E092027
:1012DE00F76E000E0A20F86E0900F5CF01F00150EE
:1012EE00FE5D0CE2080E0824F66E000E0920F76E65
:1012FE00000E0A20F86E0900F5CFFEF008C0F6FFCA
:10130E0009C0F7FF0AC0F8FF0900F5CF00F0005042
:10131E0001010425016E000E0521026E01C004F1CB
:10132E0002C005F10750025C02E10650015C01E3C8
:10133E000FD008C0F6FF09C0F7FF0AC0F8FF09007A
:10134E00F5CF00F000500826000E09220A2280D7A1
:06135E00FEC000F01200C9
:0A136400D08EA28AA08AF28E120039
:08136E00067E4FEC04F01200B2
:101376000B800BAEC7EF09F0026A0AAEFF0E026ED3
:0C138600016E006E0A360232FF0E1200EB
:081392000B6A0B86FF0E12002E
:0A139A000001845301E0CEDC1200D4
:1013A4000C6A0E6A0250D8A4EBEF09F001C002F0F7
:1013B40000C001F0006A0E860250D8A4EBEF09F0D9
:1013C40001C002F0016A0E960E880250D8B4FDEFF7
:1013D40009F00E50035ED8A4D8A003EF0AF0D89009
:1013E40002BE09EF0AF0003601360236032EF2EF90
:1013F40009F003EF0AF0010E0C6E97EC00F00DEF0C
:101404000AF0020E0C6E8AEC00F00DEF0AF0040EE6
:081414000C6E7AEC00F01200EE
:10141C003A0E0001E46F310EE56F000EE66FAA0E76
:10142C00B86F310EB96F000EBA6F100EBB6F310E64
:10143C00BC6F000EBD6FE60EBE6F300EBF6F000EA0
:04144C00C06F12005B
:101450000A6A0350D8A40A800750D8A40A820A5006
:10146000D8B48BEF0AF0030AD8B444EF0AF00AB0FC
:101470003FEF0AF006AE89EF0AF087EF0AF002AEFE
:1014800087EF0AF089EF0AF00250800B0A6E029E85
:101490000650800B069E0A18D8B455EF0AF00A5081
:1014A000D8B487EF0AF089EF0AF00750035CD8B48C
:1014B0005FEF0AF0D8A07BEF0AF081EF0AF0065048
:1014C000025CD8B469EF0AF0D8A07BEF0AF081EF94
:1014D0000AF00550015CD8B473EF0AF0D8A07BEF96
:1014E0000AF081EF0AF00450005CD8B48BEF0AF0E8
:1014F000D8B081EF0AF00A52D8B489EF0AF087EF2A
:101500000AF00A52D8B487EF0AF089EF0AF0D880BF
:0E1510001200D8901200D880D8841200120069
:10151E000450000A08E10550000A05E1FF0E006EB6
:10152E007F0E016E58D00D6A096A086A01500010CC
:10153E00D8B4000C015005180A6E0ABE0D1E0B6AB7
:10154E0005AE05D0041E051E042AD8B4052A01AE28
:10155E0005D0001E011E002AD8B4012A0150051024
:10156E000A6E0ABE10D073EC06F00BB020D00DAE92
:10157E00000C001E011E002AD8B4012A081E091EE6
:10158E00082AD8B4092A000C05AE0DD001BE07D02A
:10159E000150096E0050086E016A006AE8D7016AB0
:1015AE00006A002A000C011E001E0B2ADDD7082A35
:1015BE00D8B4092A0450085CD8A4D9D70550095CC0
:1015CE00D8A4D5D7096A086A002AD8B4012A01AE70
:0815DE00CED70000FF0C120043
:1015E600010E00019325E96E000E9421EA6EEECFFE
:1015F60000F000C002F0000E7A5D02E10250795D53
:1016060003E279C002F00AD00250795D006E000E46
:101616007A59016E00C079F001C07AF0036A02506F
:10162600035C1CE2280EE96E040EEA6E0350E926FE
:10163600D8B0EA2AEECF00F076C0E1FF77C0E2FF2D
:1016460000C0E6FF010E7625006E000E7721016EC2
:1016560000C076F001C077F0032AE1D7000E006ED5
:101666007A51005C02E17951000828E2010E6D25ED
:10167600E16E000E6E21E26E080EE66E020E6D251C
:10168600E16E000E6E21E26E280EE66E040EE66E28
:1016960093C0E9FF94C0EAFFEECF00F000BC07D08C
:1016A6006DC0E1FF6EC0E2FFC80EE66E06D06DC0EB
:1016B600E1FF6EC0E2FF880EE66E19D0010E6D25C1
:1016C600E16E000E6E21E26E080EE66E020E6D25CC
:1016D600E16E000E6E21E26E200EE66E040EE66EE0
:1016E6006DC0E1FF6EC0E2FF840EE66E789F1200C9
:0E16F600160E6F6E9F0E6B6E3B0E696E12002D
:1017040020C401F0600E0116050E006E005004E0C6
:101714000132019EFF0FFBD70150000A01E062D0A5
:101724003ED00001908F080E9C6F5CD01BEC02F041
:1017340059D062EC06F056D000019E0E8D6F000E5B
:101744008E6F9081010E916F908F4CD0E1EC03F07D
:1017540049D037EC03F046D09D0E006E000E016EAA
:10176400040124510026D8B0012A00C08DF001C024
:101774008EF000019081010E916F908F33D00001A3
:10178400908F9D0EE16E000EE26E04012451E1265D
:10179400D8B0E22A22C4E6FF25D024D023D0040105
:1017A4002151050ABEE02151060AC0E02151090A6F
:1017B400C0E02151080AC0E02151000AC7E02151CC
:1017C400010AC7E02151030AC4E021510A0AC4E016
:1017D40021510B0AD4E02151070ADFE021510C0A00
:0617E400DDE0DCD712007D
:1017EA0000019B6B89C0E1FF8AC0E2FFE66A040E32
:1017FA008919E16E8AC0E2FF000EE21AE66A78AF42
:06180A0001D0789F1200DE
:1018100012C104F013C105F014C106F015C107F0A0
:101820000EC100F00FC101F010C102F011C103F0B0
:101830009EDD00C016F101C017F102C018F103C00F
:1018400019F14CC004F04DC005F04EC006F04FC079
:1018500007F04FEC04F000C04CF001C04DF002C0A6
:101860004EF003C04FF000C004F001C005F002C00C
:1018700006F003C007F050C000F051C001F052C0A4
:1018800002F053C003F0E4DD010ED8B0000E006E8C
:10189000005208E050C04CF051C04DF052C04EF024
:1018A00053C04FF0000E5018046E000E5118056E14
:1018B000800E5218066E000E5318076E4CC000F0D2
:1018C0004DC001F04EC002F04FC003F0C1DD010E6B
:1018D000D8B0000E006E00520CE0000E50184C6E96
:1018E000000E51184D6E800E52184E6E000E531899
:1018F0004F6E54C004F055C005F056C006F057C0F6
:1019000007F016C100F017C101F018C102F019C1AB
:1019100003F02DDD65C004F066C005F067C006F079
:1019200068C007F09BEC07F000C01AF101C01BF182
:1019300002C01CF103C01DF165C004F066C005F0D3
:1019400067C006F068C007F0000E006E000E016E62
:10195000000E026E7F0E036E0ADD69C004F06AC0DD
:1019600005F06BC006F06CC007F09BEC07F01AC1E5
:1019700004F01BC105F01CC106F01DC107F04FECBF
:1019800004F000C01EF101C01FF102C020F103C02D
:1019900021F116C154F017C155F018C156F019C104
:1019A00057F01EC169F01FC16AF020C16BF021C160
:1019B0006CF061C000F062C001F063C002F064C06E
:1019C00003F016C104F017C105F018C106F019C1E3
:1019D00007F09BEC07F000C01AF101C01BF102C038
:1019E0001CF103C01DF158C000F059C001F05AC0ED
:1019F00002F05BC003F04CC004F04DC005F04EC0D7
:101A000006F04FC007F09BEC07F01AC104F01BC1B1
:101A100005F01CC106F01DC107F04FEC04F000C03A
:101A20001AF101C01BF102C01CF103C01DF15CC022
:101A300000F05DC001F05EC002F05FC003F01EC1A7
:101A400004F01FC105F020C106F021C107F09BEC96
:101A500007F01AC104F01BC105F01CC106F01DC13E
:081A600007F04FEC04F0120046
:101A6800CB50010F006E016A000E01220EC104F076
:101A7800000E056E9EEC00F0640E046E000E056EFE
:081A88004ADD00C0BEFF1200A0
:101A9000020E01010E25036E000E0F21046E03C01D
:101AA000E9FF04C0EAFF010EEE24006E000EEE20F6
:101AB000016E03C0E1FF04C0E2FF00C0E6FF01C009
:101AC000E6FF03C0E9FF04C0EAFFEECF01F0EECF6E
:101AD00002F01151025C02E11051015C0BE3020EB5
:101AE0000E25E16E000E0F21E26EE66AE66A010E37
:081AF000006E01D0006A120033
:101AF800BF0E8314006E009A0092FE0E00148C6EC6
:0E1B0800800E8310006E040E00108C6E120012
:101B16000B6A0C6A0A6A0350D8B4D5EF0DF0028E30
:101B26008E0E035E03BE9DEF0DF0D8B49DEF0DF053
:101B3600D9EF0DF0036C080E035CD8A0B4EF0DF0DE
:101B4600036E013602C001F0026A080E035CD8A0DB
:101B5600B4EF0DF00136016A0350D8A4D890BEEF59
:101B66000DF00350D8B4BEEF0DF0D890023201321A
:101B7600032EB8EF0DF00BBC01A0CBEF0DF0D8A0F3
:101B8600CBEF0DF0012AD8B4022A02BEE8EF0DF021
:101B96000AAEEEEF0DF0021E011E012AD8B4022A8B
:101BA600EEEF0DF0026A016AEEEF0DF00B800BAE60
:101BB600F2EF0DF0026A0AAEF2EF0DF0FF0E026EC2
:101BC600016E0A360232F2EF0DF0010E0C6EBBEC1E
:101BD60009F0F4EF0DF0000E0C6EF4EF0DF0FF0EB1
:0C1BE6000C6E0150006E0250016E1200E7
:101BF2000050086E0150006E016A026A036A0B6AA5
:101C02000C6A960E036E0A6A00C001F008C000F06A
:0A1C1200086A026AD2EC09F0120021
:101C1C008C908C928C848C9A8C9C8C8E8C968C88D0
:021C2C001200A4
:101C2E00BF0E8314006E009AF70E00148C6E800E99
:0C1C3E008310006E100E00108C6E12005F
:101C4A00404A412A030E415C02E1E80E405C30E35F
:101C5A00406A416A0EC103F00FC104F00EC1E9FFE8
:101C6A000FC1EAFFEECF00F0EECF01F0004A012AE1
:101C7A000EC1E1FF0FC1E2FF00C0E6FF01C0E6FFAF
:101C8A0003C0E9FF04C0EAFFEECF01F0EECF02F095
:101C9A0001011151025C02E11051015C09E30EC11C
:101CAA00E1FF0FC1E2FFE66AE66A010E006E01D0AB
:041CBA00006A1200AA
:101CBE00FE0E8314006E0092F70E00148C6E040E4E
:0C1CCE008310006E100E00108C6E1200CF
:101CDA003CEC07F000C0FCF03A0E0101016F310E36
:101CEA00026F000E036FFFEC08F000C0FDF0000168
:101CFA00FC51005C03E2FCC000F002D0FDC000F021
:021D0A001200C5
:101D0C006D92699468A403D0FB0E6816FBD7120081
:101D1C0000019B51020A02E160DC1ED060DD7151B2
:101D2C00000A19E1010E6D25E16E000E6E21E26EC6
:101D3C00080EE66E020E6D25E16E000E6E21E26E4F
:101D4C00200EE66E040EE66E6DC0E1FF6EC0E2FF83
:0A1D5C008C0EE66E01D0716B1200D0
:101D6600040E00018919006E00C089F09C51080A12
:101D76000AE122C46EFF6E50000803E2100E9C6F4B
:101D860002D0040E9C6F9B51010A3BE1020E89258D
:101D9600E16E000E8A21E26E280EE66E040EE66EF5
:101DA60099EC02F09A51020A07E189C0E1FF8AC064
:101DB600E2FF840EE66E24D0040E8919006E00C080
:101DC60089F089C0E9FF8AC0EAFFEECF00F000BCC7
:101DD6000CD0040E8919006E00C089F089C0E1FF9D
:101DE6008AC0E2FFC80EE66E0BD0040E8919006E9B
:101DF60000C089F089C0E1FF8AC0E2FF880EE66E66
:061E060001D0F0DC120027
:101E0C000EEC0AF0746B756B806B816B6A6A686A96
:101E1C006CDC6D8C6E6A716A6D9C9F6BA06B000E96
:101E2C00A05D02E1080E9F5D17E29FC000F0A0C00C
:101E3C0001F0003600900136003600900136000E9D
:101E4C000024E16E040E0120E26EE66AE66AE66AA0
:101E5C00E66A9F4BA02BE3D7160E706E68A603D0D4
:101E6C00F70E6816FBD7906B786B796B7A6B6D9865
:0E1E7C00080E896F040E8A6F9E6B9C6B12001D
:041E8A00A19A120007
:0A1E8E006984EF0E68166D821200E1
:101E980070A01CD093C0E9FF94C0EAFFEECF01F018
:101EA8000150800A12E189C0E9FF8AC0EAFFEECF3B
:101EB80001F0000E000A02E1840E011806E193C049
:101EC800E1FF94C0E2FF8C0EE66E7090DF0E68169C
:021ED8001200F6
:101EDA0000019C51000A0BE16D6A696A07DCB2ECE9
:101EEA0009F06DB602D06D86FCD7010E9C6F120008
:101EFA000450000A12E10550000A0FE10650000AD8
:101F0A000CE10750000A09E1FF0E006EFF0E016E98
:101F1A007F0E026EFF0E036EA8D0086A096A075088
:101F2A00D8B428EF10F00350D8B42DEF10F00250B7
:101F3A0006180A6E028E068E0E6A02C008F001C0EA
:101F4A000CF000C00DF004500D5E0550D8A0053C01
:101F5A000C5E0650D8A0063C085E086A0C6A0D6A38
:101F6A00D8A0BFEF0FF0D890023201320032083207
:101F7A00010E0E6E0750035ED8A0CCEF0FF07E0E56
:101F8A000E240326D8B032EF10F0D2EF0FF07E0EF7
:101F9A000E240326D8A037EF10F0180E0B6E0D365C
:101FAA000C3608360036013602360E360450005E0C
:101FBA000550D8A0053C015E0650D8A0063C025E3A
:101FCA0006340E120EA0EDEF0FF00D80F8EF0FF0B1
:101FDA00045000260550D8B0053C01260650D8B05A
:101FEA00062802260D900B2ED4EF0FF01EEF10F0EC
:101FFA00D8900036013602360E360450005E05507F
:10200A00D8A0053C015E0650D8A0063C025E063404
:10201A000E10010B0D26D8B00C2AD8B4082AD8A461
:10202A001EEF10F008320C320D32032AD8B432EF08
:10203A0010F00AAE089E0850026E0C50016E0D5048
:10204A00006E3AEF10F0010EC9EC09F03AEF10F009
:10205A00020E97EC00F03AEF10F0040E7EEC00F05E
:0C206A003AEF10F0080E8AEC00F01200B3
:1020760089C0E9FF8AC0EAFFEECF00F000AE05D0C6
:1020860089C0E1FF8AC0E2FFE66A00019A6B9B6B9A
:10209600916B926B906B82EC0BF0CDEC09F02EEC11
:0420A60008F012002C
:1020AA00040E0501466F3E4A3F2A3F50070A02E1E5
:1020BA00D00E3E1809E18350010F006E00C083FF65
:0A20CA0083CF8CFF3E6A3F6A1200CC
:1020D4000501466B0001605307E0050108518318B0
:0A20E4008C6E0AC50EF1BEDC12007E
:1020EE00010E0501466F424A432A030E435C02E18C
:1020FE00E80E425C04E3831C8C6E426A436A120053
:10210E00030E0501466FABD08C808C928C9488DDCB
:10211E00A10E01010E6F000E0F6F080E106F000E54
:10212E00116F8CDD005202E0010E316EB9D08C9031
:10213E008C828C9475DDA10E01010E6F000E0F6F57
:10214E00030E106F000E116F79DD005202E0020EC9
:10215E00316EA6D05CDDA10E01010E6F000E0F6F69
:10216E00010E106F000E116F69DD005202E0030EBA
:10217E00316E96D08C8A8C9C8C9E9ADDA10E0101BC
:10218E000E6F000E0F6F080E106F000E116F56DDE2
:10219E00005202E0040E316E83D08C9A8C8C8C9E91
:1021AE0087DDA10E01010E6F000E0F6F030E106F73
:1021BE00000E116F43DD005202E0050E316E70D03D
:1021CE0026DDA10E01010E6F000E0F6F010E106FB6
:1021DE00000E116F33DD005202E0060E316E60D03C
:1021EE008C868C9882DCA10E01010E6F000E0F6F93
:1021FE00050E106F000E116F21DD005202E0070E6A
:10220E00316E4ED08C96A50E01010E6F000E0F6F23
:10221E00F40E106F010E116F34DC0052D8A48C78BE
:10222E0064DCA10E0E6F000E0F6F030E106F000E0A
:10223E00116F04DD005202E0080E316E31D0E7DC82
:10224E00A10E01010E6F000E0F6F010E106F000E2A
:10225E00116FF4DC0052D8A4316A22D021D0315053
:10226E00000AD8B451D73150010AD8B460D73150D2
:10227E00020AD8B46FD73150030AD8B47BD7315085
:10228E00040AD8B48AD73150050A9AE03150060AAA
:10229E00A7E03150070AB6E03150080AD0E0DED789
:0222AE0012001C
:1022B0000001F851000A12E0F7C000F0000E016EB4
:1022C000003600900136890E0024E96E000E0120D0
:1022D000EA6EEECF04F0EECF05F011D0F7C000F0BB
:1022E000000E016E003600900136850E0024E96E66
:1022F000000E0120EA6EEECF04F0EECF05F0020EE4
:102300000424E16E000E0520E26EF9C0E6FFFAC07B
:10231000E6FF010E0424E16E000E0520E26EFBC014
:10232000E6FF04C0E9FF05C0EAFFEECF00F004C0FD
:10233000E1FF05C0E2FF400E0014E66E04C0E9FFB5
:1023400005C0EAFFEECF00F0880E001204C0E1FFE6
:1023500005C0E2FF00C0E6FFF851000A1BE0F7C02D
:1023600000F0000E016E003600900136890E002448
:10237000026E000E0120036E02C0E9FF03C0EAFFF7
:10238000040EEE18006E02C0E1FF03C0E2FF00C0C1
:10239000E6FF1AD0F7C000F0000E016E0036009084
:1023A0000136850E0024026E000E0120036E02C06D
:1023B000E9FF03C0EAFF040EEE18006E02C0E1FF61
:1023C00003C0E2FF00C0E6FF04C000F005C001F05A
:0223D0001200F9
:1023D200000E0001F81902E1000EF71902E1016A8C
:1023E2000AD0F7C0E9FFF8C0EAFFEECF00F0000E16
:0C23F20000BE010E016E01C000F01200E0
:1023FE000B6A0C6A0A6A0350D8B434EF12F00A9EC4
:10240E00028E860E035E03BE12EF12F0D8B412EFE8
:10241E0012F037EF12F0036C080E035CD8A020EF19
:10242E0012F0036E0236026A0350D8A4D89029EF38
:10243E0012F00350D8B429EF12F0D8900232032EC6
:10244E0024EF12F00BBC02A034EF12F0D8A034EF40
:10245E0012F0022AD8B43EEF12F0016A44EF12F0E5
:10246E000B800BAE48EF12F0016A48EF12F0010E2E
:10247E000C6EBBEC09F04AEF12F0000E0C6E4AEF38
:0C248E0012F0FF0E0C6E0250006E1200E7
:0C249A00240E0D6E0D2EFED70000120067
:1024A600050E0501466FA90E01010E6F000E0F6F96
:1024B6000A0E106F000E116F48EC0DF00052D8B4E2
:1024C600CCD00EC501F0006A05010D510012000EB8
:1024D6000112F9EC0DF000C00AF101C00BF102C0C7
:1024E6000CF103C00DF10AC136F00BC137F00CC177
:1024F60038F00DC139F0DCC000F0DDC001F0F9ECB8
:102506000DF000C03AF001C03BF002C03CF003C041
:102516003DF000C00EF101C00FF102C010F103C082
:1025260011F10AC112F10BC113F10CC114F10DC165
:1025360015F108EC0CF000C032F001C033F002C017
:1025460034F003C035F000C004F001C005F002C04D
:1025560006F003C007F0006A016A026A036A28EC03
:102566000AF0010ED8B0000E006E00524CE00501D4
:10257600546B556B32C000F033C001F034C002F02A
:1025860035C003F08BEC0DF000C052F501C002F02F
:10259600036A02C053F5000E046EC00E056E7F0E70
:1025A600066E880E076E32C000F033C001F034C0EC
:1025B60002F035C003F09EDC000E046E000E056EC0
:1025C600480E066E850E076E9BEC07F08BEC0DF041
:1025D60000C02FF001C030F0000E026E0150025C08
:1025E60002E10050640806E2640E0101086F000E65
:1025F600096F04D02FC008F130C009F108C10EF1EF
:1026060034EC0DF02AD0000E3218006E000E33188E
:10261600016E800E3418026E000E3518036E8BECB8
:102626000DF000C054F5000E3218006E000E33187F
:10263600016E800E3418026E000E3518036E8BEC98
:102646000DF001C002F0036A02C055F50501526B98
:0C265600536B01010E6B34EC0DF0120010
:08266200020E0501466F120093
:10266A0000019C51000A0BE16D6A696A7BEC0BF070
:10267A006DB602D06D86FCD70001010E9C6F9C518D
:10268A00010A08E16DBA06D0686A696A69806988D0
:10269A00020E9C6F68A406D069A404D0FB0E6816CB
:1026AA0086EC0EF06DA203D045EC0FF0DBD068A0EB
:1026BA0019D069A017D006EC0FF0040E9C6F200EFB
:1026CA000401026F040E036F080E016F000E00155D
:1026DA00006E00C000F48C0E0011006E00C000F401
:1026EA00FE0E681668A806D069A804D047EC0FF059
:1026FA00EF0E681668AC04D069AC02D0BF0E68163B
:10270A0068AA04D069AA02D04CEC0FF068A202D0E1
:10271A0069B26A6A040E00019C5D03E245EC0FF09F
:10272A00A1D069A69DD0F86B040EF85DD8B098D0F8
:10273A0068A693D06CCFB7F0F70E6816780EB71567
:10274A00016E0150000AD8A487D0FD0EB715016E9C
:10275A00026AFF0E0216000E021802E1000E0118AC
:10276A006CE17E0EB715016E01C003F00332039EC1
:10277A0003C000F0000E016E0036009001360036EC
:10278A0000900136000E0024026E040E0120036E32
:10279A0002C093F003C094F002C06DF003C06EF063
:1027AA00040E6D19006E00C06DF002C0E9FF03C08F
:1027BA00EAFFEECF00F000C001F03C0E0116013234
:1027CA00019E0132019E01500D0A34E1020E932549
:1027DA00E96E000E9421EA6EEECF01F0EECF02F020
:1027EA000250040A02E1280E011822E1020E932582
:1027FA00E16E000E9421E26E200EE66E040EE66E85
:10280A00F76B080EF75D14E2200EE16E040EE26E1D
:10281A00F751E126D8B0E22A280EE96E040EEA6ED4
:10282A00F751E926D8B0EA2AEECFE6FFF72BE9D727
:10283A001DDC02D08EEC0EF00ED0FD0EB715016E27
:10284A00026AFF0E0216000E021802E1040E0118B7
:10285A0002E1B3EC0EF000D001D002D0F82B64D71D
:06286A0045EC0FF0120026
:102870006DEC0EF000C099F0010E846FF7C072F09D
:10288000F8C073F0F9C0B5F0FAC0B6F006EC0FF07E
:10289000010E016E0150010A02E16DEC0FF0120011
:1028A000F250026EF29E0500FF6A0150FE6E00506B
:0828B000FD6E02BEF28E120063
:1028B800FF0E0001956FFF0E966FFF0E976FFF0ECC
:1028C800986FC26A2E1C006E0050C116070EC01207
:0628D800C08EC280120058
:1028DE00EDC0F5F0EEC0F6F00001F36BF46B800E78
:1028EE00F419006E800E005C02E1040EF35D0AE244
:1028FE00F5C0E1FFF6C0E2FFE66AF54BF62BF34BAF
:10290E00F42BEDD7D59ED58CD59AD598D596D58462
:10291E00D592D580EFC000F0F0C001F0F1C002F00A
:10292E00F2C003F0000E046E1B0E056E370E066E1F
:10293E00960E076E9BEC07F0000E046E000E056EF1
:10294E00000E066E850E076E7DEC0FF000C004F0D3
:10295E0001C005F002C006F003C007F0000E006EC5
:10296E00000E016E000E026E870E036EB7EC09F0BC
:08297E003FDD00C0D9F012009A
:102986000001ED5303E0F28AD58E02D0F29AD59E6D
:0229960012002D
:08299800D09EC00EF2121200E5
:1029A000200E00019C5D03E36DB201D002D0006AED
:1029B0004ED080C0F7F081C0F8F00BDD005246E148
:1029C000F0C0F7F0010EF86FEDC0F9F0EEC0FAF0CC
:1029D000EFC0FBF06DDC00C080F001C081F0B16B96
:1029E000B26BB36BB46B80C0F7F081C0F8F0F1DC70
:1029F000005217E0200E9C5D03E36DB201D002D0BF
:102A0000006A25D0010E016E0150000A01E12DDEA1
:102A10000001B151B211B311B41102E0006A17D034
:102A2000E2D780C0F1F081C0F2F0000E811902E11E
:102A3000000E801909E0010EF125E96E000EF22169
:102A4000EA6EEECF00F003D0006A01D0006A1200F7
:102A5000C26A2E1C006E0050C116070EC012C08E36
:102A6000EDC000F000360090003600900050C21219
:102A7000C28013DDC282C2A201D0FDD7C4CF01F053
:0E2A8000006AC3500012000E0112C290120034
:102A8E00000E0001F76F050EF86F400EF96F050E80
:062A9E00FA6FE7DE1200F2
:102AA400B70E926EFF0E936EF19E956A8C6A1200B9
:102AB4000001F36B200E9C5D03E36DB201D002D0E4
:102AC400006A2ED074C0F7F075C0F8F080DC0052B4
:102AD40026E174C0F1F075C0F2F0000E751902E140
:102AE400000E74190AE0010EF125E96E000EF221C0
:102AF400EA6EEECF00F000C0F3F0F0C0F7F0F86B30
:102B0400EDC0F9F0EEC0FAF0EFC0FBF058EC11F0B4
:102B140000C074F001C075F0F3C000F001D0006A89
:022B240012009D
:102B2600070ECA6E000E006E000E016E000E026EDB
:102B3600810E036EEDC004F0EEC005F0EFC006F0A6
:102B4600F0C007F09BEC07F000C004F001C005F0F0
:102B560002C006F003C007F0000E006E1B0E016EE9
:102B6600370E026E980E036E7DEC0FF0000E046EAB
:102B7600000E056E000E066E7F0E076EB7EC09F0AE
:102B86003BDC00C0F1F0010E005C05E30001F151F1
:102B9600FF0801E301D006D0F1C0CBFF94940C0EE0
:062BA600BD6EBE6A1200C4
:102BAC00EBC000F0ECC001F00036009001360036AE
:102BBC0000900136C10E0024E16E000E0120E26E81
:102BCC00E7C0E6FFE8C0E6FFE9C0E6FFEAC0E6FFC3
:022BDC001200E5
:102BDE006CDE61DF000EED6F400EEE6F1C0EEF6FC0
:102BEE008B0EF06F99DF4CDFE00EED6F000EEE6F87
:102BFE006F0EEF6F120EF06F030EF16F750EF26F18
:0E2C0E0067DE010E0001ED6FB7DEBFDE1200C3
:102C1C00E7C0EDF0E8C0EEF0E9C0EFF0010E000106
:062C2C00F06FB8DE12009B
:102C32000001E76B030EE75D1BE2E7C000F0000E48
:102C4200016E003600900136DA0E0024E86F000EA5
:102C52000120E96FE7C0EDF0FADEE8C0E1FFE9C06C
:102C6200E2FF00C0E6FF01C0E6FF0001E72BE2D76A
:022C720012004E
:102C740072C0EDF073C0EEF0400E0001EF6F010E74
:062C8400F06F16DF1200E4
:102C8A0081CF4DF583CF4EF5DAC04AF5DBC002F0AD
:102C9A00036A02C04BF5DCC000F000360090003633
:102CAA0000900050021005014B6F060E026EDCC048
:102CBA0000F0DDC001F0025005E001320032019E51
:102CCA00FF0FFAD700C04CF5DEC04FF5DFC000F0A9
:082CDA00016A00C050F5120070
:102CE2000900F5CFE6FF0006FBE10106F9E112005B
:102CF200076A086A440E096E000E0A6E800E0818F2
:102D0200006E800E005C02E1040E075C53E209C013
:102D1200E9FF0AC0EAFF010EEE24006E000EEE206B
:102D2200016E09C0E1FF0AC0E2FF00C0E6FF01C078
:102D3200E6FF09C0E9FF0AC0EAFFEECF05F0EECFD9
:102D420006F007C000F008C001F0000E08BEFF0E3A
:102D5200026E036E00360090013602360336A20E72
:102D62000024F66E310E0120F76E000E0220F86E7E
:102D72000900F5CF01F00900F5CF02F00250065C20
:102D820002E10150055C0FE3075001010625E16EE7
:102D920008500721E26E010EE66E09C0E1FF0AC08B
:102DA200E2FFE66AE66A074A082A020E0926000ED0
:0A2DB2000A22A4D7D9C0D6FF1200F0
:102DBC0000019C51010A07E16DBA05D0686A69806F
:102DCC006988020E9C6F68A406D069A404D0FB0E1F
:102DDC00681686EC0EF06DA203D045EC0FF0DFD038
:102DEC0068A019D069A017D006EC0FF0040E9C6FE8
:102DFC00200E0401026F040E036F080E016F000E0B
:102E0C000015006E00C000F48C0E0011006E00C0A6
:102E1C0000F4FE0E681668A806D069A804D047EC2A
:102E2C000FF0EF0E681668AC04D069AC02D0BF0E80
:102E3C00681668AA04D069AA02D04CEC0FF068A2FC
:102E4C0002D069B26A6A040E00019C5D03E245EC93
:102E5C000FF0A5D069A6A1D00101006B040E005D96
:102E6C00D8B09BD068A695D06CCFB7F0F70E68168B
:102E7C00780E0001B715016E0150000AD8A488D055
:102E8C00FD0EB715016E026AFF0E0216000E021837
:102E9C0002E1000E01186DE17E0EB715016E01C046
:102EAC0003F00332039E03C000F0000E016E0036E7
:102EBC0000900136003600900136000E0024026EA0
:102ECC00040E0120036E02C093F003C094F002C004
:102EDC006DF003C06EF0040E6D19006E00C06DF045
:102EEC0002C0E9FF03C0EAFFEECF00F000C001F022
:102EFC003C0E01160132019E0132019E01500D0A59
:102F0C0035E1020E9325E96E000E9421EA6EEECFA8
:102F1C0001F0EECF02F00250040A02E1280E011873
:102F2C0022E1020E9325E16E000E9421E26E200E3A
:102F3C00E66E040EE66EFF6B080EFF5D14E2200ECB
:102F4C00E16E040EE26EFF51E126D8B0E22A280EA3
:102F5C00E96E040EEA6EFF51E926D8B0EA2AEECFEC
:102F6C00E6FFFF2BE9D73BEC10F002D08EEC0EF015
:102F7C000ED0FD0EB715016E026AFF0E0216000E82
:102F8C00021802E1040E011802E1B3EC0EF000D0BD
:102F9C0001D003D00101002B61D745EC0FF01200DA
:102FAC000501458105C500F0000E016E003600904C
:102FBC000136003600900136C10E0024E96E000E79
:102FCC000120EA6EEECF00F0EECF01F0EECF02F072
:082FDC00EECF03F05FDC1200F0
:102FE400D7EC18F0D40E0001E76F200EE86F000E46
:102FF400E96F000EEA6FEB6BEC6BD6DDEE0EE76F5C
:10300400200EE86F000EE96F000EEA6F010EEB6F01
:10301400000EEC6FC9DDAA0EE76F200EE86F000EFC
:10302400E96F000EEA6F040EEB6F000EEC6FBCDD6F
:10303400A60EE76F240EE86F000EE96F000EEA6F2C
:10304400050EEB6F000EEC6FAFDD0E0EE76F210E79
:10305400E86F000EE96F000EEA6F030EEB6F000ECF
:10306400EC6FA2DD620EE76F260EE86F000EE96FCB
:10307400000EEA6F020EEB6F000EEC6F95DDADDD16
:103084000501056B0001E05304E0F2DD00C060F0CF
:10309400E06BE2530BE0CBDDF6DD400E0001E76FA1
:1030A400050EE86F400EE96FB7DDE26BEBD7FFD793
:1031AE0010EE2EF0320E006E010E016EB40EF66EA3
:1031BE00300EF76E000EF86E71EC16F010EE61F038
:1031CE000C0E006E010E016E960EF66E310EF76E3F
:1031DE00000EF86E71EC16F010EE60F0010E006E3F
:1031EE00010E016E060EF66E000EF76E000EF86EF4
:0631FE0071EC16F0120056
:0100060000F9
:0130B40030EB
:0230B500000019
:0130B7000018
:0430B8000000000014
:0430BC000000000010
:0430C0000000488440
:0230C40000000A
:0230C600000008
:0230C800000006
:0830CA000000000000000000FE
:0430D20000000000FA
:0430D6000000488529
:0430DA0000000000F2
:0430DE00CDCC4C7C8D
:0430E200CDCC4C7B8A
:1030E6002A03430065006E007400720061006C00E4
:1030F600200043006F006E00740072006F006C00C9
:0A310600610064006F0072006100B8
:103110002A03430065006E007400720061006C00B9
:10312000200043006F006E00740072006F006C009E
:0A313000610064006F00720061008E
:10313A00090229000101008032090400000203008B
:10314A000000092101010001222100070581034035
:09315A000001070501034000011A
:103163000600FF0901A10119012940150026FF00EE
:10317300750895408102190129407508954091020F
:01318300C08B
:1031840012010002000000083412010000010102D3
:02319400000138
:043196000000208194
:04319A00CDCC4C7BD1
:04319E00000000002D
:0831A20001000200030005001A
:0431AA00040309040D
:020000040030CA
:0E000000240E381EFF0181FF0FC00FE00F40DD
:00000001FF
