:04000000C4EF19F040
:1000080000C023F001C022F002C021F003C020F09C
:1000180004C01FF005C01EF006C01DF007C01CF08C
:1000280008C01BF009C01AF00AC019F00BC018F07C
:100038000CC017F00DC016F00EC015F0E1CF2CF073
:10004800E2CF2DF0E9CF2AF0EACF2BF0F3CF28F05A
:10005800F4CF29F0F5CF27F0F8CF24F0F7CF25F02B
:10006800F6CF26F0F2A40AD0A0EC18F0940E010105
:100078000A6F000E0B6FBCEC18F0F294A1AA03D023
:10008800A7EC17F0A19A27C0F5FF24C0F8FF25C0F8
:10009800F7FF26C0F6FF28C0F3FF29C0F4FF23C0EE
:1000A80000F022C001F021C002F020C003F01FC000
:1000B80004F01EC005F01DC006F01CC007F01BC0F0
:1000C80008F01AC009F019C00AF018C00BF017C0E0
:1000D8000CF016C00DF015C00EF02AC0E9FF2BC0B9
:0C00E800EAFF2CC0E1FF2DC0E2FF110078
:1000F4000B840BAE85EF00F0010E036E026A016AF9
:0A010400006A0A360232FF0E1200F4
:0E010E00026A016A006A086A036A000E1200A3
:10011C000B820BAE98EF00F0036802680168006870
:08012C000A360232FF0E120038
:080134000AAE029E000E12004B
:10013C000B6A0A6A096A00500402F4CF09F0F3CF83
:10014C0008F001500502F4CF0BF0F3CF0AF0005089
:10015C000502F3500926F4500A22E86A0B220150DA
:10016C000402F3500926F4500A22E86A0B2208C054
:10017C0000F009C001F00AC002F00BC003F012003D
:10018C001E0E716E100E0001AF6F040EB06FAFC07B
:10019C00E1FFB0C0E2FFE69EAFC0E1FFB0C0E2FFFE
:1001AC00E69C040EAF25E16E000EB021E26EE68CEB
:1001BC00180EC36F040EC46FC3C0E1FFC4C0E2FFCE
:1001CC00E69EC3C0E1FFC4C0E2FFE69C040EC3255B
:1001DC00E16E000EC421E26EE68C020EAF25E16EDC
:1001EC00000EB021E26EB4C0E6FFB5C0E6FF010E12
:1001FC00AF25E16E000EB021E26E400EE66EAFC090
:10020C00E9FFB0C0EAFFEECF00F0AFC0E1FFB0C035
:10021C00E2FF400E0014E66EAFC0E9FFB0C0EAFF8B
:10022C00EECF00F0880E0012AFC0E1FFB0C0E2FFCD
:10023C0000C0E6FFAFC0B2F0B0C0B3F0040EAF190F
:08024C00006E00C0AFF01200CB
:100254000CB06CEF01F00CA212EF02F00E6A000E6B
:10026400026483EF01F0F00E0214D8A44EEF01F003
:10027400023A01380F0B02260138F00B016E0038E8
:100284000F0B01260038F00B006E08380F0B002608
:100294000838F00B086E0E84D89002BE67EF01F0A8
:1002A40008360036013602360E2A02BE67EF01F028
:1002B40008360036013602360E2A02BE67EF01F018
:1002C40008360036013602360E2A0E50036408EF53
:1002D40002F0035E0BBC08AE0DEF02F0D880800E76
:1002E40008640030000E002201220222D8A00DEF83
:1002F40002F0023201320032034A12EF02F00DEF33
:1003040002F001C002F000C001F008C000F0086A69
:10031400000E0E860264BAEF01F0F00E0214D8A4A7
:10032400A2EF01F0023A01380F0B02260138F00B5C
:10033400016E00380F0B01260038F00B006E0E849E
:10034400D89002BE67EF01F00036013602360E2A5D
:1003540002BE67EF01F00036013602360E2A02BEF5
:1003640067EF01F00036013602360E2A67EF01F01E
:1003740001C002F000C001F0006A000E0E960E8863
:100384000264E7EF01F0F00E0214D8A4D2EF01F0FA
:10039400023A01380F0B02260138F00B016E0E846D
:1003A400D89002BE67EF01F0013602360E2A02BE73
:1003B40067EF01F0013602360E2A02BE67EF01F044
:1003C400013602360E2A67EF01F001C002F0016A1D
:1003D400000E0E86026417EF02F0F00E0214D8A489
:1003E400F6EF01F0023A0E84D89002BE67EF01F0F6
:1003F40002360E2A02BE67EF01F002360E2A02BE52
:1004040067EF01F002360E2A67EF01F0010E0C6E61
:100414006FDE1AEF02F0020E0C6E8ADE1AEF02F0A3
:10042400040E0C6E79DE1AEF02F0080E0C6E6DDE0F
:020434001200B4
:1004360020C401F01F0E01160150010A01E094D0FC
:1004460004012451000A01E08FD02151060A42E13D
:1004560037D000017851010A17E1EB0E006E340E19
:10046600016E000E026E120E0026000E01220222FE
:1004760000C06DF001C06EF002C06FF0090E716F22
:10048600000E726FC00E706F25D000017851010A00
:1004960012E1140E006E350E016E000E026E00C0E3
:1004A6006DF001C06EF002C06FF0210E716F000E8C
:1004B600726FC00E706F0ED00001800E706F0AD082
:1004C60004012351210AC5E02351220ADEE023510B
:1004D600230AF2E020C401F0600E0116050E006E3C
:1004E600005004E00132019EFF0FFBD70150010AC4
:1004F60001E03AD026D038D037D0AC0E00016D6F6F
:10050600000E6E6F010E716F000E726FC10E706F6E
:100516002BD00001800E706F23C4ACF025D00001F3
:10052600AB0E6D6F000E6E6F010E716F000E726F67
:10053600810E706F19D00001800E706F22C4ABF06F
:1005460013D004012151010AD6E02151090AD4E051
:100556002151020AD2E021510A0ADBE02151030AA5
:0A056600DEE021510B0AE7E012006D
:100570000001708F716A796B22C478F07851000A9B
:1005800003E1100E776F03D0200E776FFFDD1200AE
:10059000025006180E6E086A096A0B6A0350076457
:1005A000BBEF03F006500A6E068E028E03500B6EF0
:1005B0000750036E000E0B640BEF03F00B50075E49
:1005C000D8B4ACEF03F0070E07647AEF03F0075ED0
:1005D00000C008F001C000F002C001F0026A074E3E
:1005E000ACEF03F007644FEF03F0075E00C008F0C4
:1005F00001C000F0016A074EACEF03F007642DEF75
:1006000003F0075E00C008F0006A074EACEF03F08D
:10061000076414EF03F00AC002F005C001F004C043
:1006200000F0086AD6EF04F0030E07641FEF03F032
:10063000075E08380F0B086E074EACEF03F0D8903A
:100640000832074EACEF03F0D8900832074EACEFFB
:1006500003F0D8900832ACEF03F0030E07643EEFCE
:1006600003F0075E08380F0B086E0038F00B082601
:1006700000380F0B006E074EACEF03F0D89000323D
:100680000832074EACEF03F0D89000320832074E24
:10069000ACEF03F0D89000320832ACEF03F0030E59
:1006A000076466EF03F0075E08380F0B086E00382A
:1006B000F00B082600380F0B006E0138F00B0026F7
:1006C00001380F0B016E074EACEF03F0D8900132EA
:1006D00000320832074EACEF03F0D89001320032FE
:1006E0000832074EACEF03F0D890013200320832E6
:1006F000ACEF03F0030E076497EF03F0075E0838D2
:100700000F0B086E0038F00B082600380F0B006E38
:100710000138F00B002601380F0B016E0238F00B88
:10072000012602380F0B026E074EACEF03F0D89093
:100730000232013200320832074EACEF03F0D8909B
:100740000232013200320832074EACEF03F0D8908B
:100750000232013200320832096A000E0EAEA0EFFA
:1007600004F0081E001E011E021E082A002201229B
:100770000222A0EF04F00750D8A4C1EF03F0D6EF97
:1007800004F0096A02C00AF0028E068E0750035C6C
:10079000076ED8B493EF04F0070E076461EF04F01E
:1007A000075E0450096E0550046E0650056E066A19
:1007B000074E93EF04F0070E076436EF04F0075E70
:1007C0000450096E0550046E056A074E93EF04F05D
:1007D000070E076414EF04F0075E0450096E046A04
:1007E000074E93EF04F0070E0764FBEF03F00AC017
:1007F00002F0D6EF04F0030E076406EF04F0075E84
:1008000009380F0B096E074E93EF04F0D8900932A8
:10081000074E93EF04F0D8900932074E93EF04F09F
:10082000D890093293EF04F0030E076425EF04F02B
:10083000075E09380F0B096E0438F00B09260438DF
:100840000F0B046E074E93EF04F0D8900432093278
:10085000074E93EF04F0D89004320932074E93EF1D
:1008600004F0D8900432093293EF04F0030E0764C9
:100870004DEF04F0075E09380F0B096E0438F00BDA
:10088000092604380F0B046E0538F00B04260538D2
:100890000F0B056E074E93EF04F0D890053204322B
:1008A0000932074E93EF04F0D89005320432093232
:1008B000074E93EF04F0D89005320432093293EFDB
:1008C00004F0030E07647EEF04F0075E09380F0B97
:1008D000096E0438F00B092604380F0B046E053836
:1008E000F00B042605380F0B056E0638F00B0526B5
:1008F00006380F0B066E074E93EF04F0D8900632C1
:10090000053204320932074E93EF04F0D8900632D4
:10091000053204320932074E93EF04F0D8900632C4
:10092000053204320932086A000E0EAEA0EF04F060
:10093000091E041E051E061E092A0422052206227F
:1009400009500826045000220550012206500222B8
:100950000EBEB7EF04F0D8A0C6EF04F002320132A9
:1009600000320832033EC6EF04F0D0EF04F0D8B0F6
:10097000CBEF04F0000E081E001E011E021E082A06
:100980000022012202220A7ECBEF04F0010E0C6E3F
:1009900061DCD8EF04F0020E0C6E5CDCD8EF04F0E2
:1009A000040E0C6E8EEC00F0D8EF04F0000E0C6E0E
:0209B000120033
:1009B20004012251010A13E120C401F01F0E0116A5
:1009C2000150000A0CE10001708F04012151030A59
:1009D20004E1010E0001B16F02D00001B16B04010C
:1009E2002251000AD8A48DD020C401F01F0E011696
:1009F2000150020AD8A485D024C401F00F0E0116BA
:100A02000150000AD8B47DD00001708F040124BFC8
:100A120016D024C403F00F0E031603C000F0000E1C
:100A2200016E003600900136AD0E0024E96E000E14
:100A32000120EA6EEECF04F0EECF05F015D024C40B
:100A420003F00F0E031603C000F0000E016E003615
:100A520000900136C10E0024E96E000E0120EA6EFC
:100A6200EECF04F0EECF05F02151030A07E104C0F6
:100A7200E1FF05C0E2FF840EE66E43D024C400F01D
:100A82000F0E0016700E026E0F0E036E005002263D
:100A9200D8B0032A02C0E9FF03C0EAFFFE0EEE143B
:100AA200006EEECF01F0FF0E011602C0E1FF03C09F
:100AB200E2FF00C0E6FF01C0E6FF24AF11D004C090
:100AC200E1FF05C0E2FFE66A040E0418006E00C0F2
:100AD20004F004C0E1FF05C0E2FF400EE66E11D053
:100AE20004C0E1FF05C0E2FF880EE66E040E0418A2
:100AF200006E00C004F004C0E1FF05C0E2FFC80EB2
:040B0200E66E120089
:100B0600000E0001725D02E1080E715D10E271C017
:100B160003F072C004F0B751000A03E1010EB76F8B
:100B260005D0B751010A02E1020EB76F04D0080ED4
:100B3600036E000E046EC1C0E1FFC2C0E2FFE69282
:100B4600C1C0E1FFC2C0E2FFE690C1C0E9FFC2C07A
:100B5600EAFFEECF00F0C1C0E1FFC2C0E2FF0450E1
:100B66000010E66E010EC125E16E000EC221E26E96
:100B760003C0E6FF0350715D006E04507259016EAA
:100B860000C071F001C072F0280EC76F040EC86F66
:100B960070B12FD0035004102BE06DC0F6FF6EC06D
:100BA600F7FF6FC0F8FF0900F5CF00F0C7C0E1FFFF
:100BB600C8C0E2FF00C0E6FFC74BC82B010E6D257B
:100BC600006E000E6E21016E000E6F21026E00C0D7
:100BD6006DF001C06EF002C06FF0010E035C006E96
:100BE600000E0458016E00C003F001C004F0D2D715
:100BF60024D00350041021E06DC0E9FF6EC0EAFF67
:100C0600C7C0E1FFC8C0E2FFEECFE6FFC74BC82B67
:100C1600010E6D25006E000E6E21016E00C06DF096
:100C260001C06EF0010E035C006E000E0458016EEA
:0C0C360000C003F001C004F0DCD7120085
:100C42000401286B296B4AD00001708F04012881AE
:100C52000001B151010A02E10401288354D00001CC
:100C6200708F51D00001708F040124BF16D024C4AC
:100C720003F00F0E031603C000F0000E016E0036E3
:100C820000900136AD0E0024E96E000E0120EA6EDE
:100C9200EECF04F0EECF05F015D024C403F00F0E12
:100CA200031603C000F0000E016E003600900136FC
:100CB200C10E0024E96E000E0120EA6EEECF04F0B0
:100CC200EECF05F004C0E9FF05C0EAFFEECF01F068
:100CD20001A403D00401010E286F15D020C401F035
:100CE2001F0E01160150000AAFE020C401F01F0ED2
:100CF20001160150010AB3E020C401F01F0E0116D3
:100D02000150020AAFE0000170AF07D0280E6D6FEC
:0C0D1200040E6E6F7081020E716F1200F3
:100D1E0004012051800AD8A47AD0C00E0001706F51
:100D2E006BD00001350E006E350E016E000E026E98
:100D3E0000C06DF001C06EF002C06FF0120E716F48
:100D4E00000E726F64D00001030E006E000E016E75
:100D5E0022C404F0000E056E9EEC00F0A60E0024D8
:100D6E00E96E000E0120EA6EEECF6DF0EECF6EF062
:100D7E00EECF6FF0020E6D25F66E000E6E21F76E41
:100D8E00000E6F21F86E0900F5CF00F00900F5CFC7
:100D9E0001F000C071F001C072F039D0040122518F
:100DAE000001CB5D24E3030E006E000E016E22C423
:100DBE0004F0000E056E9EEC00F09D0E0024E96E10
:100DCE00000E0120EA6EEECF6DF0EECF6EF0EECF9C
:100DDE006FF06DC0F6FF6EC0F7FF6FC0F8FF090031
:100DEE00F5CF00F000C071F0000E726F01D0706B85
:100DFE000ED00001706B0BD004012351010A91E05B
:100E0E002351020AA0E02351030AC8E0F2D71200D0
:100E1E00350E006E350E016E000E026E0E0E0024A3
:100E2E00F66E000E0120F76E000E0220F86E09001D
:100E3E00F5CF03F003C004F00F0E0024F66E000E83
:100E4E000120F76E000E0220F86E0900F5CF01F0BA
:100E5E000150035C12E2350E006E350E016E000E6F
:100E6E00026E0F0E0024F66E000E0120F76E000EBD
:100E7E000220F86E0900F5CF04F0350E006E350E27
:100E8E00016E000E026E100E0024F66E000E012092
:100E9E00F76E000E0220F86E0900F5CF01F001503A
:100EAE00045C12E2350E006E350E016E000E026EFF
:100EBE00100E0024F66E000E0120F76E000E0220BA
:0E0ECE00F86E0900F5CF04F004C000F0120029
:100EDC000B800BAE7AEF07F0026A0AAEFF0E026EC1
:0C0EEC00016E006E0A360232FF0E12008A
:100EF80020C401F0600E0116050E006E005004E0DB
:100F08000132019EFF0FFBD70150000A01E05FD0BC
:100F18003BD00001708F080E776F59D0FCDE57D098
:100F2800B8EC02F054D00001780E6D6F000E6E6FB1
:100F38007081010E716F708F4AD07FDE48D035DD29
:100F480046D0790E006E000E016E04012451002671
:100F5800D8B0012A00C06DF001C06EF000017081A8
:100F6800010E716F708F33D00001708F790EE16EB2
:100F7800000EE26E04012451E126D8B0E22A22C410
:100F8800E6FF25D024D023D004012151050AC1E071
:100F98002151060AC3E02151090AC2E02151080A79
:100FA800C2E02151000AC9E02151010AC8E02151DB
:100FB800030AC5E021510A0AC4E021510B0AD4E012
:100FC8002151070ADFE021510C0ADDE0DCD71200CD
:100FD800086A096A000E0762036471EF08F002509C
:100FE80006180A6E075003267E0ED8A002EF08F0F6
:100FF800035ED8B076EF08F006EF08F0035ED8A0DD
:101008007BEF08F0028E068E02C00EF001C00BF0D6
:1010180000C00DF000500402F4CF0CF0015005029E
:10102800F4CF00F0F3CF08F00402F3500C26F4508C
:101038000822000E00220D500502F3500C26F45031
:101048000822000E002202500402F3500826F45031
:10105800002202500502016A000E0122F350002608
:10106800F45001220D500602F3500826F4500022D5
:10107800026A000E012202220B500602F3500026DB
:10108800F4500122000E02220E500602F3500126EF
:10109800F450022202BE59EF08F008360036013635
:1010A80002360306D8B47BEF08F06CEF08F0D8805E
:1010B800800E08640030000E002201220222D8A00F
:1010C8006CEF08F0023201320032034A76EF08F082
:1010D8000AAE029E000E7EEF08F0010E87EC00F0CB
:1010E8007EEF08F0020E8EEC00F07EEF08F0040EA2
:0610F8007AEC00F012008A
:1010FE000001FF6B0101086B096B020E0525F66EF0
:10110E00000E0621F76E000E0721F86E0900F5CFCE
:10111E0005F0030E0525F66E000E0621F76E000E85
:10112E000721F86E0900F5CF00F000C003F0000EA5
:10113E00046E03C001F0006A05500024066E000E16
:10114E000120076E05C108F006C109F007C10AF0BB
:10115E00010E0824F66E000E0920F76E000E0A200E
:10116E00F86E0900F5CF01F00150020A1CE1060EDF
:10117E000824F66E000E0920F76E000E0A20F86E97
:10118E000900F5CF01F001500001FF5D0CE2060EE3
:10119E000824F66E000E0920F76E000E0A20F86E77
:1011AE000900F5CFFFF0010E0824F66E000E09209F
:1011BE00F76E000E0A20F86E0900F5CF01F001500F
:1011CE00040A1CE10001080E0824F66E000E092028
:1011DE00F76E000E0A20F86E0900F5CF01F00150EF
:1011EE00FF5D0CE2080E0824F66E000E0920F76E65
:1011FE00000E0A20F86E0900F5CFFFF008C0F6FFCA
:10120E0009C0F7FF0AC0F8FF0900F5CF00F0005043
:10121E0001010825016E000E0921026E01C008F1C0
:10122E0002C009F10750025C02E10650015C01E3C5
:10123E000FD008C0F6FF09C0F7FF0AC0F8FF09007B
:10124E00F5CF00F000500826000E09220A2280D7A2
:06125E00FFC000F01200C9
:08126400067EC8EC02F0120046
:0A126C00D08EA28AA08AF28E120032
:081276000B6A0B86FF0E12004B
:0C127E000001B65302E01BEC02F012006D
:10128A000C6A0E6A0250D8A45EEF09F001C002F09F
:10129A0000C001F0006A0E860250D8A45EEF09F081
:1012AA0001C002F0016A0E960E880250D8B470EF9F
:1012BA0009F00E50035ED8A4D8A076EF09F0D890B2
:1012CA0002BE7CEF09F0003601360236032E65EFC6
:1012DA0009F076EF09F0010E0C6E87EC00F080EF52
:1012EA0009F0020E0C6E7AEC00F080EF09F0040EA1
:0812FA000C6E9AEC00F01200EA
:10130200EB0E0001A66F340EA76F000EA86F4F0EF2
:101312009D6F350E9E6F000E9F6FC10EA06F340E33
:10132200A16F000EA26F970EA36F340EA46F000E72
:04133200A56F120091
:101336000A6A0350D8A40A800750D8A40A820A5021
:10134600D8B4FEEF09F0030AD8B4B7EF09F00AB033
:10135600B2EF09F006AEFCEF09F0FAEF09F002AEC3
:10136600FAEF09F0FCEF09F00250800B0A6E029EBC
:101376000650800B069E0A18D8B4C8EF09F00A502A
:10138600D8B4FAEF09F0FCEF09F00750035CD8B4C3
:10139600D2EF09F0D8A0EEEF09F0F4EF09F006500D
:1013A600025CD8B4DCEF09F0D8A0EEEF09F0F4EF58
:1013B60009F00550015CD8B4E6EF09F0D8A0EEEFCD
:1013C60009F0F4EF09F00450005CD8B4FEEF09F020
:1013D600D8B0F4EF09F00A52D8B4FCEF09F0FAEFEE
:1013E60009F00A52D8B4FAEF09F0FCEF09F0D880F8
:0E13F6001200D8901200D880D8841200120085
:10140400086A096A100E0C6E013408360936045055
:10141400085E0550D8A0053C095ED8B007D004503A
:1014240008260550D8B0053C0926D8900036013668
:061434000C2EEAD71200A5
:10143A006D98000170BF49D0BAAF28D0020EA96FCB
:10144A00010EC125E16E000EC221E26EE66AC1C03C
:10145A00E1FFC2C0E2FFC80EE66E010EC925E16EC9
:10146A00000ECA21E26E080EE66E020EC925E16E72
:10147A00000ECA21E26E280EE66E040EE66EC9C0A0
:10148A00E1FFCAC0E2FFC80EE66E1ED0010EC925F2
:10149A00E16E000ECA21E26E080EE66E020EC92542
:1014AA00E16E000ECA21E26E200EE66E040EE66EB2
:1014BA00C9C0E1FFCAC0E2FF8C0EE66EC1C0E1FFFF
:1014CA00C2C0E2FF840EE66E83D0BABF81D00401A7
:1014DA0020AF56D0000172510401275D04E10001DA
:1014EA0071510401265D04E226C471F027C472F02A
:1014FA0083EC05F0010EA96F010EC925E16E000EFD
:10150A00CA21E26E080EE66E020EC925E16E000ED1
:10151A00CA21E26E200EE66E040EE66EC9C0E1FF35
:10152A00CAC0E2FF800EE66EAA6B010EC525E16E07
:10153A00000EC621E26E080EE66E020EC525E16EA9
:10154A00000EC621E26E200EE66E040EE66EC5C0DF
:10155A00E1FFC6C0E2FF840EE66E010EAA6F020E1C
:10156A00C125E16E000EC221E26E280EE66E040E5F
:10157A00E66EC1C0E1FFC2C0E2FFC80EE66E28D027
:10158A000001020EA96F010EC125E16E000EC221F3
:10159A00E26EE66AC1C0E1FFC2C0E2FFC80EE66EB3
:1015AA00010EC925E16E000ECA21E26E080EE66E32
:1015BA00020EC925E16E000ECA21E26E280EE66E01
:1015CA00040EE66EC9C0E1FFCAC0E2FFC80EE66EAD
:0215DA001200FD
:0E15DC00160E6F6E9F0E6B6E3B0E696E120048
:1015EA000001A96BC1C0E1FFC2C0E2FFE66A040EB6
:1015FA00C119E16EC2C0E2FF000EE21AE66ABAAF92
:06160A0001D0BA9F12009E
:10161000010E0001C525E96E000EC621EA6EEECF6F
:1016200000F000C002F0000EBC5D02E10250BB5DA4
:1016300003E2BBC002F00AD00250BB5D006E000E98
:10164000BC59016E00C0BBF001C0BCF0036A02507F
:10165000035C1CE2280EE96E040EEA6E0350E926D4
:10166000D8B0EA2AEECF00F0B8C0E1FFB9C0E2FF7F
:1016700000C0E6FF010EB825006E000EB921016E14
:1016800000C0B8F001C0B9F0032AE1D7000E006E27
:10169000BC51005C02E1BB51000828E2010EC925E3
:1016A000E16E000ECA21E26E080EE66E020EC9253A
:1016B000E16E000ECA21E26E280EE66E040EE66EA2
:1016C000C5C0E9FFC6C0EAFFEECF00F000BC07D0FE
:1016D000C9C0E1FFCAC0E2FFC80EE66E06D0C9C0AD
:1016E000E1FFCAC0E2FF880EE66E19D0010EC925DF
:1016F000E16E000ECA21E26E080EE66E020EC925EA
:10170000E16E000ECA21E26E200EE66E040EE66E59
:10171000C9C0E1FFCAC0E2FF840EE66EBA9F1200A4
:101720008C908C928C848C9A8C9C8C8E8C968C88D1
:021730001200A5
:10173200FE0E8314006E0092F70E00148C6E040EDF
:0C1742008310006E100E00108C6E120060
:10174E00BF0E8314006E009AF70E00148C6E800E7E
:0C175E008310006E100E00108C6E120044
:10176A000B6A0C6A0A6A0350D8B4FFEF0BF0028EB8
:10177A008E0E035E03BEC7EF0BF0D8B4C7EF0BF0B3
:10178A0003EF0CF0036C080E035CD8A0DEEF0BF03D
:10179A00036E013602C001F0026A080E035CD8A08B
:1017AA00DEEF0BF00136016A0350D8A4D890E8EFB7
:1017BA000BF00350D8B4E8EF0BF0D89002320132A4
:1017CA00032EE2EF0BF00BBC01A0F5EF0BF0D8A053
:1017DA00F5EF0BF0012AD8B4022A02BE12EF0CF080
:1017EA000AAE18EF0CF0021E011E012AD8B4022A12
:1017FA0018EF0CF0026A016A18EF0CF00B800BAEBE
:10180A001CEF0CF0026A0AAE1CEF0CF0FF0E026E1F
:10181A00016E0A3602321CEF0CF0010E0C6E6EECF1
:10182A0007F01EEF0CF0000E0C6E1EEF0CF0FF0E10
:0C183A000C6E0150006E0250016E120096
:1018460018C104F019C105F01AC106F01BC107F052
:1018560014C100F015C101F016C102F017C103F062
:10186600FEDC00C01CF101C01DF102C01EF103C068
:101876001FF134C004F035C005F036C006F037C09D
:1018860007F0C8EC02F000C034F001C035F002C029
:1018960036F003C037F000C004F001C005F002C006
:1018A60006F003C007F030C000F031C001F032C0CE
:1018B60002F033C003F03CDD010ED8B0000E006E1E
:1018C600005208E030C034F031C035F032C036F096
:1018D60033C037F0000E3018046E000E3118056E56
:1018E600800E3218066E000E3318076E34C000F0F4
:1018F60035C001F036C002F037C003F019DD010E25
:10190600D8B0000E006E00520CE0000E3018346E97
:10191600000E3118356E800E3218366E000E3318F2
:10192600376E40C004F041C005F042C006F043C027
:1019360007F01CC100F01DC101F01EC102F01FC15D
:1019460003F08DDC3CC004F03DC005F03EC006F05F
:101956003FC007F0ECEC07F000C020F101C021F118
:1019660002C022F103C023F13CC004F03DC005F0E3
:101976003EC006F03FC007F0000E006E000E016E7E
:10198600000E026E7F0E036E6ADC38C004F039C0AA
:1019960005F03AC006F03BC007F0ECEC07F020C1BA
:1019A60004F021C105F022C106F023C107F0C8ECFE
:1019B60002F000C024F101C025F102C026F103C0E7
:1019C60027F11CC140F01DC141F01EC142F01FC1EC
:1019D60043F024C138F025C139F026C13AF027C1B9
:1019E6003BF061C000F062C001F063C002F064C069
:1019F60003F01CC104F01DC105F01EC106F01FC195
:101A060007F0ECEC07F000C020F101C021F102C0A4
:101A160022F103C023F165C000F066C001F067C083
:101A260002F068C003F034C004F035C005F036C0DB
:101A360006F037C007F0ECEC07F020C104F021C136
:101A460005F022C106F023C107F0C8EC02F000C081
:101A560020F101C021F102C022F103C023F169C0C7
:101A660000F06AC001F06BC002F06CC003F024C144
:101A760004F025C105F026C106F027C107F0ECECFD
:101A860007F020C104F021C105F022C106F023C1F0
:081A960007F0C8EC02F0120099
:101A9E0014C104F0000E056ECB50010F006E016AEA
:101AAE00000E01229EEC00F0640E046E000E056E18
:101ABE00A2DC00C015F101C016F1000E026E01503D
:101ACE00025C02E10050FF0805E2FF0E0101156FF6
:101ADE00000E166F010115A102D0BA8801D0BA9876
:101AEE0015A302D0BA8A01D0BA9A15C1BBFF120053
:101AFE000050086E0150006E016A026A036A0B6A9A
:101B0E000C6A960E036E0A6A00C001F008C000F05F
:0A1B1E00086A026A45EC09F01200A3
:101B280014C104F0000E056ECB50010F006E016A5F
:101B3800000E01229EEC00F0640E046E000E056E8D
:101B48005DDC00C015F101C016F1000E026E0150F7
:101B5800025C02E10050FF0805E2FF0E0101156F6B
:101B6800000E166F010115A102D0BD8801D0BD98E5
:101B780015A302D0BD8A01D0BD9A15C1BEFF1200BF
:101B8800020E01011425036E000E1521046E03C018
:101B9800E9FF04C0EAFF010EEE24006E000EEE20FD
:101BA800016E03C0E1FF04C0E2FF00C0E6FF01C010
:101BB800E6FF03C0E9FF04C0EAFFEECF01F0EECF75
:101BC80002F01751025C02E11651015C0BE3020EB0
:101BD8001425E16E000E1521E26EE66AE66A010E32
:081BE800006E01D0006A12003A
:101BF000BF0E8314006E009A0092FE0E00148C6ECD
:0E1C0000800E8310006E040E00108C6E120019
:101C0E005A4A5B2A030E5B5C02E1E80E5A5C30E333
:101C1E005A6A5B6A14C103F015C104F014C1E9FFDE
:101C2E0015C1EAFFEECF00F0EECF01F0004A012A17
:101C3E0014C1E1FF15C1E2FF00C0E6FF01C0E6FFDF
:101C4E0003C0E9FF04C0EAFFEECF01F0EECF02F0D1
:101C5E0001011751025C02E11651015C09E314C146
:101C6E00E1FF15C1E2FFE66AE66A010E006E01D0E1
:041C7E00006A1200E6
:101C82006D92699468A403D0FB0E6816FBD712000C
:101C920081EC09F0B26BB36B756B766B6A6A686A3A
:101CA2009CDC6D8C6E6A716A6D9C736B746B000E3A
:101CB200745D02E1080E735D17E273C000F074C038
:101CC20001F0003600900136003600900136000E19
:101CD2000024E16E040E0120E26EE66AE66AE66A1C
:101CE200E66A734B742BE3D7160E706E68A603D0A8
:101CF200F70E6816FBD7706BBA6BBB6BBC6B6D983B
:0E1D0200080EC16F040EC26F786B776B120073
:101D10000450000A12E10550000A0FE10650000AC3
:101D20000CE10750000A09E1FF0E006EFF0E016E84
:101D30007F0E026EFF0E036EA8D0086A096A075074
:101D4000D8B433EF0FF00350D8B438EF0FF002508F
:101D500006180A6E028E068E0E6A02C008F001C0D6
:101D60000CF000C00DF004500D5E0550D8A0053CED
:101D70000C5E0650D8A0063C085E086A0C6A0D6A24
:101D8000D8A0CAEF0EF0D8900232013200320832E9
:101D9000010E0E6E0750035ED8A0D7EF0EF07E0E38
:101DA0000E240326D8B03DEF0FF0DDEF0EF07E0ECF
:101DB0000E240326D8A042EF0FF0180E0B6E0D363E
:101DC0000C3608360036013602360E360450005EF8
:101DD0000550D8A0053C015E0650D8A0063C025E26
:101DE00006340E120EA0F8EF0EF00D8003EF0FF088
:101DF000045000260550D8B0053C01260650D8B046
:101E0000062802260D900B2EDFEF0EF029EF0FF0C3
:101E1000D8900036013602360E360450005E05506A
:101E2000D8A0053C015E0650D8A0063C025E0634F0
:101E30000E10010B0D26D8B00C2AD8B4082AD8A44D
:101E400029EF0FF008320C320D32032AD8B43DEFDF
:101E50000FF00AAE089E0850026E0C50016E0D5035
:101E6000006E45EF0FF0010E3BEC09F045EF0FF06F
:101E7000020E87EC00F045EF0FF0040E8EEC00F040
:0C1E800045EF0FF0080E7AEC00F01200A5
:101E8C00C1C0E9FFC2C0EAFFEECF00F000AE05D042
:101E9C00C1C0E1FFC2C0E2FFE66A0001B76BA96BEB
:101EAC00716B726B706B7CEC07F03FEC09F01DEC06
:041EBC000AF0120016
:101EC0000B6A0A6A096A086A0E6A03340836045003
:101ED000085E0550D8A0053C095E0650D8A0063C17
:101EE0000A5E0750D8A0073C0B5EE86AD8A0010E36
:101EF0000E5E0336070E0C6E0334083609360A36BA
:101F00000B360E36045003A012D0085E0550D8A040
:101F1000053C095E0650D8A0063C0A5E0750D8A0D2
:101F2000073C0B5EE86AD8A0010E0E5E11D00826B1
:101F30000550D8B0053C09260650D8B0063C0A2604
:101F40000750D8B0073C0B26E86AD8B0010E0E2621
:101F500003360C2ED1D70234083609360A360B3632
:101F60000E36045003A012D0085E0550D8A0053CE0
:101F7000095E0650D8A0063C0A5E0750D8A0073C70
:101F80000B5EE86AD8A0010E0E5E11D0082605503F
:101F9000D8B0053C09260650D8B0063C0A260750A2
:101FA000D8B0073C0B26E86AD8B0010E0E260236E0
:101FB000070E0C6E0234083609360A360B360E361A
:101FC000045002A012D0085E0550D8A0053C095E5E
:101FD0000650D8A0063C0A5E0750D8A0073C0B5E0E
:101FE000E86AD8A0010E0E5E11D008260550D8B0C0
:101FF000053C09260650D8B0063C0A260750D8B042
:10200000073C0B26E86AD8B0010E0E2602360C2ECD
:10201000D1D70134083609360A360B360E3604504D
:1020200002A012D0085E0550D8A0053C095E0650FB
:10203000D8A0063C0A5E0750D8A0073C0B5EE86AB1
:10204000D8A0010E0E5E11D008260550D8B0053C70
:1020500009260650D8B0063C0A260750D8B0073CDF
:102060000B26E86AD8B0010E0E260136070E0C6E5C
:102070000134083609360A360B360E36045001A0F4
:1020800012D0085E0550D8A0053C095E0650D8A0C5
:10209000063C0A5E0750D8A0073C0B5EE86AD8A051
:1020A000010E0E5E11D008260550D8B0053C092659
:1020B0000650D8B0063C0A260750D8B0073C0B267D
:1020C000E86AD8B0010E0E2601360C2ED1D70034A6
:1020D000083609360A360B360E36045001A012D0E7
:1020E000085E0550D8A0053C095E0650D8A0063C05
:1020F0000A5E0750D8A0073C0B5EE86AD8A0010E24
:102100000E5E11D008260550D8B0053C09260650B1
:10211000D8B0063C0A260750D8B0073C0B26E86A20
:10212000D8B0010E0E260036070E0C6E00340836AD
:1021300009360A360B360E36045000A012D0085E5F
:102140000550D8A0053C095E0650D8A0063C0A5EA2
:102150000750D8A0073C0B5EE86AD8A0010E0E5EBF
:1021600011D008260550D8B0053C09260650D8B035
:10217000063C0A260750D8B0073C0B26E86AD8B0C0
:10218000010E0E2600360C2ED1D700B00ED0045012
:1021900008260550D8B0053C09260650D8B0063CA4
:0C21A0000A260750D8B0073C0B2612009E
:0421AC00A19A1200E2
:1021B00070A01CD0C5C0E9FFC6C0EAFFEECF01F099
:1021C0000150800A12E1C1C0E9FFC2C0EAFFEECFB0
:1021D00001F0000E000A02E1840E011806E1C5C0FC
:1021E000E1FFC6C0E2FF8C0EE66E7090DF0E68164F
:0221F0001200DB
:1021F200040E0001C119006E00C0C1F07751080A37
:102202000AE122C46EFF6E50000803E2100E776FDF
:1022120002D0040E776FA951010A3BE1020EC125DB
:10222200E16E000EC221E26E280EE66E040EE66E2C
:1022320083EC05F0B751020A07E1C1C0E1FFC2C059
:10224200E2FF840EE66E24D0040EC119006E00C0B7
:10225200C1F0C1C0E9FFC2C0EAFFEECF00F000BC8E
:102262000CD0040EC119006E00C0C1F0C1C0E1FF64
:10227200C2C0E2FFC80EE66E0BD0040EC119006E9A
:1022820000C0C1F0C1C0E1FFC2C0E2FF880EE66E2D
:0822920002D0F5EC0AF0120085
:10229A000FEC07F000C0FDF0EB0E0101056F340EE4
:1022AA00066F000E076F7FEC08F000C0FEF0000119
:1022BA00FD51005C03E2FDC000F002D0FEC000F058
:0222CA00120000
:1022CC000001A951020A03E108EC0BF01FD0F5EC58
:1022DC000AF0AA51000A19E1010EC925E16E000E9F
:1022EC00CA21E26E080EE66E020EC925E16E000EE2
:1022FC00CA21E26E200EE66E040EE66EC9C0E1FF46
:0E230C00CAC0E2FF8C0EE66E01D0AA6B120072
:0A231A006984EF0E68166D82120050
:1023240000017751000A0CE16D6A696AEEEC0AF06B
:1023340036EC09F06DB602D06D86FCD7010E776FCE
:02234400120085
:10234600040E0501466F5C4A5D2A5D50070A02E1EC
:10235600D00E5C1809E18350010F006E00C083FFA8
:0A23660083CF8CFF5C6A5D6A1200F1
:10237000030E0501466FC3D08C808C928C94A7EC21
:102380000BF0E30E0101146F000E156F080E166FAF
:10239000000E176F3CDC005203E0010E0001606F7D
:1023A000D0D08C908C828C94A7EC0BF0E30E0101C2
:1023B000146F000E156F030E166F000E176F27DCDB
:1023C000005203E0020E0001606FBBD090EC0BF0F6
:1023D000E30E0101146F000E156F010E166F000E53
:1023E000176F15DC005203E0030E0001606FA9D0E7
:1023F0008C8A8C9C8C9E99EC0BF0E30E0101146F7F
:10240000000E156F080E166F000E176F00DC0052DD
:1024100003E0040E0001606F94D08C9A8C8C8C9E2B
:1024200099EC0BF0E30E0101146F000E156F030E13
:10243000166F000E176F07EC0EF0005203E0050E4A
:102440000001606F7ED090EC0BF0E30E0101146F81
:10245000000E156F010E166F000E176F07EC0EF0D1
:10246000005203E0060E0001606F6BD08C868C98E2
:10247000F8EC0DF0E30E0101146F000E156F050E60
:10248000166F000E176F07EC0EF0005203E0070EF8
:102490000001606F56D08C96DF0E0101146F000EA4
:1024A000156FF40E166F010E176FC4EC0DF000528D
:1024B000D8A48C78F8EC0DF0E30E146F000E156FB5
:1024C000030E166F000E176F07EC0EF0005203E0BC
:1024D000080E0001606F35D090EC0BF0E30E0101A7
:1024E000146F000E156F010E166F000E176F07ECBC
:1024F0000EF0005202E00001606B23D022D00001F8
:102500006051000AD8B438D76051010AD8B449D70D
:102510006051020AD8B45AD76051030AD8B468D7B8
:102520006051040AD8B479D76051050A8CE0605133
:10253000060A9CE06051070AAEE06051080ACCE050
:04254000DDD71200D1
:10254400010E0501466F5E4A5F2A030E5F5C02E1DD
:10255400E80E5E5C04E3831C8C6E5E6A5F6A1200A4
:10256400050E0501466FD70E0101146F000E156F9D
:102574000A0E166F000E176FC4EC0DF00052D8B49B
:102584000DD10EC501F0006A05010D510012000EB7
:1025940001127FEC0DF000C010F101C011F102C076
:1025A40012F103C013F110C144F011C145F012C17E
:1025B40046F013C147F0D3C000F0D4C001F07FEC63
:1025C4000DF000C04CF001C04DF002C04EF003C04D
:1025D4004FF000C014F101C015F102C016F103C0A0
:1025E40017F110C118F111C119F112C11AF113C177
:1025F4001BF123EC0CF000C048F001C049F002C00C
:102604004AF003C04BF000C004F001C005F002C062
:1026140006F003C007F0006A016A026A036A9BECD1
:1026240009F0010ED8B0000E006E005251E0050111
:10263400546B556B0101146B4FEC0DF048C000F066
:1026440049C001F04AC002F04BC003F0B5EC0BF0F6
:1026540000C052F501C002F0036A02C053F5000E37
:10266400046EC00E056E7F0E066E880E076E48C09F
:1026740000F049C001F04AC002F04BC003F088ECFE
:102684000EF0000E046E000E056E480E066E850EEA
:10269400076EECEC07F0B5EC0BF000C050F001C095
:1026A40051F0000E026E0150025C02E10050640819
:1026B40006E2640E01010C6F000E0D6F04D050C0D1
:1026C4000CF151C00DF10CC114F194EC0DF066D075
:1026D4000501526B536B0101146B94EC0DF0000E69
:1026E4004818006E000E4918016E800E4A18026EDA
:1026F400000E4B18036EB5EC0BF000C054F5000E41
:102704004818006E000E4918016E800E4A18026EB9
:10271400000E4B18036EB5EC0BF001C002F0036A17
:1027240002C055F5000E4818006E000E4918016EDF
:10273400800E4A18026E000E4B18036E000E046ED3
:10274400C00E056E7F0E066E880E076E88EC0EF0C6
:10275400000E046E000E056E480E066E850E076EA2
:10276400ECEC07F0B5EC0BF000C050F001C051F0F8
:10277400000E026E0150025C02E10050640806E2A1
:10278400640E01010E6F000E0F6F04D050C00EF1E5
:0E27940051C00FF10EC114F14FEC0DF0120008
:0827A200020E0501466F120052
:1027AA000501466B2F520BE0085183188C6E0AC53F
:1027BA0014F194EC0DF011C514F14FEC0DF0120068
:1027CA00F7C004F0F8C005F0000E066E076E043676
:1027DA000490053606360736043604900536063662
:1027EA000736000E006E6C0E016EDC0E026E020ED3
:1027FA00036E60EC0FF000C004F001C005F002C0E7
:10280A0006F003C007F0010E045E000E055A065AD0
:10281A00075A04C001F105C002F106C003F107C05E
:10282A0004F10750000808E10650000805E10550C8
:10283A00000802E10450FF0808E2FF0E0001F96FE8
:10284A00000EFA6FFB6FFC6F08D001C1F9F002C1EC
:10285A00FAF003C1FBF004C1FCF0F9C0CBFF12008F
:10286A000001F851000A12E0F7C000F0000E016EF4
:10287A00003600900136C10E0024E96E000E0120D8
:10288A00EA6EEECF04F0EECF05F011D0F7C000F0FB
:10289A00000E016E003600900136AD0E0024E96E7E
:1028AA00000E0120EA6EEECF04F0EECF05F0020E24
:1028BA000424E16E000E0520E26EF9C0E6FFFAC0BC
:1028CA00E6FF010E0424E16E000E0520E26EFBC055
:1028DA00E6FF04C0E9FF05C0EAFFEECF00F004C03E
:1028EA00E1FF05C0E2FF400E0014E66E04C0E9FFF6
:1028FA0005C0EAFFEECF00F0880E001204C0E1FF27
:10290A0005C0E2FF00C0E6FFF851000A1BE0F7C06D
:10291A0000F0000E016E003600900136C10E002450
:10292A00026E000E0120036E02C0E9FF03C0EAFF37
:10293A00040EEE18006E02C0E1FF03C0E2FF00C001
:10294A00E6FF1AD0F7C000F0000E016E00360090C4
:10295A000136AD0E0024026E000E0120036E02C085
:10296A00E9FF03C0EAFF040EEE18006E02C0E1FFA1
:10297A0003C0E2FF00C0E6FF04C000F005C001F09A
:02298A00120039
:0C298C00240E0D6E0D2EFED70000120070
:102998000B6A0C6A0A6A0350D8B401EF15F00A9E54
:1029A800028E860E035E03BEDFEF14F0D8B4DFEFAD
:1029B80014F004EF15F0036C080E035CD8A0EDEFDB
:1029C80014F0036E0236026A0350D8A4D890F6EFCA
:1029D80014F00350D8B4F6EF14F0D8900232032E56
:1029E800F1EF14F00BBC02A001EF15F0D8A001EF35
:1029F80015F0022AD8B40BEF15F0016A11EF15F0A3
:102A08000B800BAE15EF15F0016A15EF15F0010EEE
:102A18000C6E6EEC07F017EF15F0000E0C6E17EF4A
:0C2A280015F0FF0E0C6E0250006E120044
:102A340000017751000A0BE16D6A696AEEEC0AF055
:102A44006DB602D06D86FCD70001010E776F775109
:102A5400010A08E16DBA06D0686A696A6980698802
:102A6400020E776F68A406D069A404D0FB0E681622
:102A740041EC0EF06DA203D0D6EC10F0DBD068A0D0
:102A840019D069A017D049EC0EF0040E776F200E10
:102A94000401026F040E036F080E016F000E00158F
:102AA400006E00C000F48C0E0011006E00C000F433
:102AB400FE0E681668A805D069A803D02CDCEF0EBA
:102AC400681668AC04D069AC02D0BF0E681668AA58
:102AD40004D069AA02D0D8EC10F068A202D069B27E
:102AE4006A6A040E0001775D03E2D6EC10F0A2D00E
:102AF40069A69ED0F86B040EF85DD8B099D068A68C
:102B040094D06CCFCCF0F70E6816780ECC15016E0D
:102B14000150000AD8A488D0FD0ECC15016E026ABB
:102B2400FF0E0216000E021802E1000E01186DE1FC
:102B34007E0ECC15016E01C003F00332039E03C068
:102B440000F0000E016E0036009001360036009051
:102B54000136000E0024026E040E0120036E02C032
:102B6400C5F003C0C6F002C0C9F003C0CAF0040E29
:102B7400C919006E00C0C9F002C0E9FF03C0EAFF32
:102B8400EECF00F000C001F03C0E01160132019EB0
:102B94000132019E01500D0A35E1020EC525E96E90
:102BA400000EC621EA6EEECF01F0EECF02F0025025
:102BB400040A02E1280E011822E1020EC525E16E85
:102BC400000EC621E26E200EE66E040EE66EF76B72
:102BD400080EF75D14E2200EE16E040EE26EF7516A
:102BE400E126D8B0E22A280EE96E040EEA6EF75107
:102BF400E926D8B0EA2AEECFE6FFF72BE9D746EC70
:102C04000FF002D066EC11F00ED0FD0ECC15016E63
:102C1400026AFF0E0216000E021802E1040E0118E9
:102C240002E1F9EC10F000D001D002D0F82B63D708
:062C3400D6EC10F01200C6
:102C3A004DEC11F000C0CBF0010EB66FF7C0B4F046
:102C4A00F8C0B5F0F9C07AF0FAC07BF049EC0EF0A2
:102C5A00010E016E0150010A02E192EC11F012001C
:102C6A00000E0001F81902E1000EF71902E1016AEB
:102C7A000AD0F7C0E9FFF8C0EAFFEECF00F0000E75
:0C2C8A0000BE010E016E01C000F012003F
:102C9600F250026EF29E0500FF6A0150FE6E005071
:082CA600FD6E02BEF28E120069
:102CAE00FF0E0001996FFF0E9A6FFF0E9B6FFF0EC6
:102CBE009C6FC26A2E1C006E0050C116070EC01209
:062CCE00C08EC28012005E
:102CD400B70E926EFF0E936EF19E956A8C6A120087
:102CE400EDC0F5F0EEC0F6F00001F36BF46B800E6E
:102CF400F419006E800E005C02E1040EF35D0AE23A
:102D0400F5C0E1FFF6C0E2FFE66AF54BF62BF34BA4
:102D1400F42BEDD7D59ED58CD59AD598D596D58458
:102D2400D592D580EFC000F0F0C001F0F1C002F000
:102D3400F2C003F0000E046E1B0E056E370E066E15
:102D4400960E076EECEC07F0000E046E000E056E96
:102D5400000E066E850E076E88EC0EF000C004F0BF
:102D640001C005F002C006F003C007F0000E006EBB
:102D7400000E016E000E026E870E036E32EC09F037
:082D840009DE00C098F0120006
:102D8C00200E0001775D03E36DB201D002D0006A22
:102D9C004ED075C0F7F076C0F8F061DF005246E116
:102DAC00F0C0F7F0010EF86FEDC0F9F0EEC0FAF0DC
:102DBC00EFC0FBF054DD00C075F001C076F0CD6BB8
:102DCC00CE6BCF6BD06B75C0F7F076C0F8F047DFE9
:102DDC00005217E0200E775D03E36DB201D002D0F4
:102DEC00006A25D0010E016E0150000A01E11CDEC3
:102DFC000001CD51CE11CF11D01102E0006A17D0D5
:102E0C00E2D775C0F1F076C0F2F0000E761902E14F
:102E1C00000E751909E0010EF125E96E000EF22184
:102E2C00EA6EEECF00F003D0006A01D0006A120007
:102E3C00000E0001F76F050EF86F400EF96F050ECE
:062E4C00FA6FF5DE120032
:102E52000001ED5303E0F28AD58E02D0F29AD59E9C
:022E620012005C
:082E6400D09EC00EF212120014
:102E6C000001F36B200E775D03E36DB201D002D04D
:102E7C00006A2DD0B2C0F7F0B3C0F8F0F0DE00520B
:102E8C0025E1B2C0F1F0B3C0F2F0000EB31902E1CB
:102E9C00000EB2190AE0010EF125E96E000EF221C6
:102EAC00EA6EEECF00F000C0F3F0F0C0F7F0F86B74
:102EBC00EDC0F9F0EEC0FAF0EFC0FBF0D0DC00C0D2
:102ECC00B2F001C0B3F0F3C000F001D0006A120000
:102EDC00C26A2E1C006E0050C116070EC012C08EA6
:102EEC00EDC000F000360090003600900050C21289
:102EFC00C28046DDC282C2A201D0FDD7C4CF01F090
:0E2F0C00006AC3500012000E0112C2901200A3
:102F1A0094929494EDC000F0EEC001F0EFC002F07C
:102F2A00F0C003F0B5EC0BF000C0F7F001C0F8F008
:102F3A0047DC0C0EBD6E0C0EBA6EBE6ABB6A070E7B
:042F4A00CA6E120039
:102F4E0000017751010A07E16DBA05D0686A698000
:102F5E006988020E776F68A406D069A404D0FB0EB0
:102F6E00681641EC0EF06DA203D0D6EC10F0E0D056
:102F7E0068A019D069A017D049EC0EF0040E776F37
:102F8E00200E0401026F040E036F080E016F000E77
:102F9E000015006E00C000F48C0E0011006E00C013
:102FAE0000F4FE0E681668A806D069A804D08DEC51
:102FBE0011F0EF0E681668AC04D069AC02D0BF0EEB
:102FCE00681668AA04D069AA02D0D8EC10F068A2DC
:102FDE0002D069B26A6A040E0001775D03E2D6EC94
:102FEE0010F0A6D069A6A2D001010A6B040E0A5DEC
:102FFE00D8B09CD068A696D06CCFCCF0F70E6816E1
:10300E00780E0001CC15016E0150000AD8A489D0AB
:10301E00FD0ECC15016E026AFF0E0216000E02188E
:10302E0002E1000E01186EE17E0ECC15016E01C09C
:10303E0003F00332039E03C000F0000E016E003653
:10304E0000900136003600900136000E0024026E0C
:10305E00040E0120036E02C0C5F003C0C6F002C00C
:10306E00C9F003C0CAF0040EC919006E00C0C9F041
:10307E0002C0E9FF03C0EAFFEECF00F000C001F08E
:10308E003C0E01160132019E0132019E01500D0AC5
:10309E0036E1020EC525E96E000EC621EA6EEECFB0
:1030AE0001F0EECF02F00250040A02E1280E0118E0
:1030BE0023E1020EC525E16E000EC621E26E200E42
:1030CE00E66E040EE66E0101006B080E005D14E262
:1030DE00200EE16E040EE26E0051E126D8B0E22A17
:1030EE00280EE96E040EEA6E0051E926D8B0EA2ADF
:1030FE00EECFE6FF002BE9D746EC0FF002D066ECE0
:10310E0011F00ED0FD0ECC15016E026AFF0E0216E6
:10311E00000E021802E1040E011802E1F9EC10F0A3
:10312E0000D001D003D001010A2B60D7D6EC10F0ED
:02313E0012007D
:103140000501458105C500F0000E016E00360090B6
:1031500001360036009001367C0E0024E96E000E28
:103160000120EA6EEECF00F0EECF01F0EECF02F0DC
:08317000EECF03F090DD120028
:10317800076A086A520E096E000E0A6E800E081859
:10318800006E800E005C02E1040E075C53E209C089
:10319800E9FF0AC0EAFF010EEE24006E000EEE20E1
:1031A800016E09C0E1FF0AC0E2FF00C0E6FF01C0EE
:1031B800E6FF09C0E9FF0AC0EAFFEECF05F0EECF4F
:1031C80006F007C000F008C001F0000E08BEFF0EB0
:1031D800026E036E00360090013602360336470E43
:1031E8000024F66E350E0120F76E000E0220F86EF0
:1031F8000900F5CF01F00900F5CF02F00250065C96
:1032080002E10150055C0FE3075001010A25E16E58
:1032180008500B21E26E010EE66E09C0E1FF0AC0FC
:10322800E2FFE66AE66A074A082A020E0926000E45
:0A3238000A22A4D798C0D6FF1200A6
:10324200EBC000F0ECC001F0003600900136003611
:10325200009001367C0E0024E16E000E0120E26E29
:10326200E7C0E6FFE8C0E6FFE9C0E6FFEAC0E6FF26
:02327200120048
:103274001CDD2EDD000EED6F800EEE6F3B0EEF6F4A
:103284008A0EF06F48DED8DD940EED6F000EEE6FFF
:103294006F0EEF6F120EF06F030EF16F750EF26F7B
:0E32A4001FDD010E0001ED6FD2DDDADD12003C
:1032B200B4C0EDF0B5C0EEF0400E0001EF6F010EAC
:0632C200F06FD3DD1200E5
:1032C8000001E76B030EE75D1BE2E7C000F0000EAC
:1032D800016E003600900136D10E0024E86F000E12
:1032E8000120E96FE7C0EDF0F5DDE8C0E1FFE9C0D6
:1032F800E2FF00C0E6FF01C0E6FF0001E72BE2D7CE
:023308001200B1
:10330A0081CF4DF583CF4EF5D1C04AF5D2C002F038
:10331A00036A02C04BF5D3C000F0003600900036B5
:10332A0000900050021005014B6F060E026ED3C0CA
:10333A0000F0D4C001F0025005E001320032019ED3
:10334A00FF0FFAD700C04CF5D5C04FF5D6C000F034
:08335A00016A00C050F51200E9
:103362000900F5CFE6FF0006FBE10106F9E11200D4
:10337200E7C0EDF0E8C0EEF0E9C0EFF0010E0001A9
:06338200F06F03DD1200F4
:10338800AAEC1AF0AA0E0001E76F270EE86F000EEC
:10339800E96F000EEA6FEB6BEC6B4FDF440EE76FE3
:1033A800250EE86F000EE96F000EEA6F010EEB6F55
:1033B800000EEC6F42DF460EE76F230EE86F000E3B
:1033C800E96F000EEA6F040EEB6F000EEC6F35DF4D
:1033D800640EE76F250EE86F000EE96F000EEA6FC6
:1033E800050EEB6F000EEC6F28DF700EE76F230EF3
:1033F800E86F000EE96F000EEA6F030EEB6F000E28
:10340800EC6F1BDFA20EE76F270EE86F000EE96F67
:10341800000EEA6F020EEB6F000EEC6F0EDF26DF78
:103428000501056B0001945304E03FDF00C02FF055
:10343800946B96530BE044DF64DF400E0001E76FA6
:10344800050EE86F400EE96F90DF966BEBD7FFD75C
:1035540010EE2EF03F0E006E010E016E580EF66E48
:0E356400340EF76E000EF86EB1EC19F0120086
:013458003043
:013459000072
:04345A0000004885A1
:04345E00000000006A
:043462000000000066
:04346600CDCC4C7B02
:04346A00000000005E
:04346E00000000005A
:043472000000000056
:043476000000488486
:02347A00000050
:08347C00000000000000000048
:02348400000046
:02348600000044
:02348800000042
:01348A000041
:04348B00000020829B
:04348F000000007EBB
:04349300CDCC4C7CD4
:103497002A03430065006E007400720061006C002F
:1034A700200043006F006E00740072006F006C0014
:0A34B700610064006F007200610004
:1034C1002A03430065006E007400720061006C0005
:1034D100200043006F006E00740072006F006C00EA
:0A34E100610064006F0072006100DA
:1034EB0009022900010100803209040000020300D7
:1034FB000000092101010001222100070581034081
:09350B0000010705010340000165
:103514000600FF0901A10119012940150026FF0039
:10352400750895408102190129407508954091025A
:01353400C0D6
:10353500120100020000000834120100000101021E
:02354500000183
:08354700010002000300050071
:04354F000403090464
:020000040030CA
:0E000000240E381EFF0181FF0FC00FE00F40DD
:00000001FF
