:04000000C7EF1AF03C
:020006001200E6
:1000080000C023F001C022F002C021F003C020F09C
:1000180004C01FF005C01EF006C01DF007C01CF08C
:1000280008C01BF009C01AF00AC019F00BC018F07C
:100038000CC017F00DC016F00EC015F0E1CF2CF073
:10004800E2CF2DF0E9CF2AF0EACF2BF0F3CF28F05A
:10005800F4CF29F0F5CF27F0F8CF24F0F7CF25F02B
:10006800F6CF26F0F2A405D030EC19F063EC1AF0C4
:10007800F294A1AA03D06AEC19F0A19A27C0F5FF5F
:1000880024C0F8FF25C0F7FF26C0F6FF28C0F3FFFD
:1000980029C0F4FF23C000F022C001F021C002F003
:1000A80020C003F01FC004F01EC005F01DC006F0FC
:1000B8001CC007F01BC008F01AC009F019C00AF0EC
:1000C80018C00BF017C00CF016C00DF015C00EF0DC
:1000D8002AC0E9FF2BC0EAFF2CC0E1FF2DC0E2FFD8
:0200E800110005
:1000EA000B840BAE80EF00F0010E036E026A016A08
:0A00FA00006A0A360232FF0E1200FF
:080104000AAE029E000E12007B
:10010C000B820BAE90EF00F0036802680168006888
:08011C000A360232FF0E120048
:0E012400026A016A006A086A036A000E12008D
:100132000B6A0A6A096A00500402F4CF09F0F3CF8D
:1001420008F001500502F4CF0BF0F3CF0AF0005093
:100152000502F3500926F4500A22E86A0B220150E4
:100162000402F3500926F4500A22E86A0B2208C05E
:1001720000F009C001F00AC002F00BC003F0120047
:100182001E0E716E100E0001716F040E726F71C03F
:10019200E1FF72C0E2FFE69E71C0E1FF72C0E2FFC2
:1001A200E69C040E7125E16E000E7221E26EE68C71
:1001B200180E956F040E966F95C0E1FF96C0E2FF90
:1001C200E69E95C0E1FF96C0E2FFE69C040E9525EF
:1001D200E16E000E9621E26EE68C020E7125E16E52
:1001E200000E7221E26E73C0E6FF74C0E6FF010EDC
:1001F2007125E16E000E7221E26E400EE66E71C054
:10020200E9FF72C0EAFFEECF00F071C0E1FF72C0F9
:10021200E2FF400E0014E66E71C0E9FF72C0EAFF11
:10022200EECF00F0880E001271C0E1FF72C0E2FF53
:1002320000C0E6FF71C07DF072C07EF0040E71193D
:08024200006E00C071F0120013
:10024A000CB067EF01F00CA20DEF02F00E6A000E7F
:10025A0002647EEF01F0F00E0214D8A449EF01F017
:10026A00023A01380F0B02260138F00B016E0038F2
:10027A000F0B01260038F00B006E08380F0B002612
:10028A000838F00B086E0E84D89002BE62EF01F0B7
:10029A0008360036013602360E2A02BE62EF01F037
:1002AA0008360036013602360E2A02BE62EF01F027
:1002BA0008360036013602360E2A0E50036403EF62
:1002CA0002F0035E0BBC08AE08EF02F0D880800E85
:1002DA0008640030000E002201220222D8A008EF92
:1002EA0002F0023201320032034A0DEF02F008EF47
:1002FA0002F001C002F000C001F008C000F0086A74
:10030A00000E0E860264B5EF01F0F00E0214D8A4B6
:10031A009DEF01F0023A01380F0B02260138F00B6B
:10032A00016E00380F0B01260038F00B006E0E84A8
:10033A00D89002BE62EF01F00036013602360E2A6C
:10034A0002BE62EF01F00036013602360E2A02BE04
:10035A0062EF01F00036013602360E2A62EF01F032
:10036A0001C002F000C001F0006A000E0E960E886D
:10037A000264E2EF01F0F00E0214D8A4CDEF01F00E
:10038A00023A01380F0B02260138F00B016E0E8477
:10039A00D89002BE62EF01F0013602360E2A02BE82
:1003AA0062EF01F0013602360E2A02BE62EF01F058
:1003BA00013602360E2A62EF01F001C002F0016A2C
:1003CA00000E0E86026412EF02F0F00E0214D8A498
:1003DA00F1EF01F0023A0E84D89002BE62EF01F00A
:1003EA0002360E2A02BE62EF01F002360E2A02BE61
:1003FA0062EF01F002360E2A62EF01F0010E0C6E76
:10040A006FDE15EF02F0020E0C6E77DE15EF02F0CA
:10041A00040E0C6E76DE15EF02F0080E0C6E7DDE11
:02042A001200BE
:10042C0004012251010A13E120C401F01F0E011630
:10043C000150000A0CE100018A8F04012151030ACA
:10044C0004E1010E00017F6F02D000017F6B0401FB
:10045C002251000AD8A48DD020C401F01F0E011621
:10046C000150020AD8A485D024C401F00F0E011645
:10047C000150000AD8B47DD000018A8F040124BF3A
:10048C0016D024C403F00F0E031603C000F0000EA8
:10049C00016E0036009001366F0E0024E96E000EDE
:1004AC000120EA6EEECF04F0EECF05F015D024C497
:1004BC0003F00F0E031603C000F0000E016E0036A1
:1004CC0000900136930E0024E96E000E0120EA6EB6
:1004DC00EECF04F0EECF05F02151030A07E104C082
:1004EC00E1FF05C0E2FF840EE66E43D024C400F0A9
:1004FC000F0E0016700E026E0F0E036E00500226C9
:10050C00D8B0032A02C0E9FF03C0EAFFFE0EEE14C6
:10051C00006EEECF01F0FF0E011602C0E1FF03C02A
:10052C00E2FF00C0E6FF01C0E6FF24AF11D004C01B
:10053C00E1FF05C0E2FFE66A040E0418006E00C07D
:10054C0004F004C0E1FF05C0E2FF400EE66E11D0DE
:10055C0004C0E1FF05C0E2FF880EE66E040E04182D
:10056C00006E00C004F004C0E1FF05C0E2FFC80E3D
:04057C00E66E120015
:10058000000E00018C5D02E1080E8B5D10E28BC055
:1005900003F08CC004F0A051000A03E1010EA06F2B
:1005A00005D0A051010A02E1020EA06F04D0080E8E
:1005B000036E000E046E93C0E1FF94C0E2FFE6926A
:1005C00093C0E1FF94C0E2FFE69093C0E9FF94C0BE
:1005D000EAFFEECF00F093C0E1FF94C0E2FF0450C9
:1005E0000010E66E010E9325E16E000E9421E26E7E
:1005F00003C0E6FF03508B5D006E04508C59016E02
:1006000000C08BF001C08CF0280E826F040E836F47
:100610008AB12FD0035004102BE087C0F6FF88C0AA
:10062000F7FF89C0F8FF0900F5CF00F082C0E1FFB5
:1006300083C0E2FF00C0E6FF824B832B010E8725BB
:10064000006E000E8821016E000E8921026E00C02E
:1006500087F001C088F002C089F0010E035C006ED3
:10066000000E0458016E00C003F001C004F0D2D7A0
:1006700024D00350041021E087C0E9FF88C0EAFFBE
:1006800082C0E1FF83C0E2FFEECFE6FF824B832B07
:10069000010E8725006E000E8821016E00C087F0D4
:1006A00001C088F0010E035C006E000E0458016E5C
:0C06B00000C003F001C004F0DCD7120011
:1006BC0004012051800AD8A478D0C00E00018A6FA2
:1006CC0069D00001BB0E006E370E016E000E026E7B
:1006DC0000C087F001C088F002C089F0120E8B6F49
:1006EC00000E8C6F62D00001030E006E000E016EC6
:1006FC0022C404F0000E056E16DDFF0E0024E96E18
:10070C00000E0120EA6EEECF87F0EECF88F0EECF30
:10071C0089F0020E8725F66E000E8821F76E000E0A
:10072C008921F86E0900F5CF00F00900F5CF01F032
:10073C0000C08BF001C08CF038D0040122510001B4
:10074C00905D23E3030E006E000E016E22C404F0D4
:10075C00000E056EE8DC030E0024E96E010E01208C
:10076C00EA6EEECF87F0EECF88F0EECF89F087C03F
:10077C00F6FF88C0F7FF89C0F8FF0900F5CF00F03D
:10078C0000C08BF0000E8C6F01D08A6B0ED0000174
:10079C008A6B0BD004012351010A93E02351020A06
:0C07AC00A2E02351030AC9E0F2D71200BA
:1007B80000018A8F716A8D6B22C484F08451000A0B
:1007C80003E1100E856F03D0200E856FD6DC120072
:1007D800025006180E6E086A096A0B6A035007640D
:1007E800DFEF04F006500A6E068E028E03500B6E81
:1007F8000750036E000E0B642FEF04F00B50075EDA
:10080800D8B4D0EF04F0070E07649EEF04F0075E3B
:1008180000C008F001C000F002C001F0026A074EF3
:10082800D0EF04F0076473EF04F0075E00C008F02F
:1008380001C000F0016A074ED0EF04F0076451EFE1
:1008480004F0075E00C008F0006A074ED0EF04F01D
:10085800076438EF04F00AC002F005C001F004C0D4
:1008680000F0086AFCEF05F0030E076443EF04F09C
:10087800075E08380F0B086E074ED0EF04F0D890CB
:100888000832074ED0EF04F0D8900832074ED0EF68
:1008980004F0D8900832D0EF04F0030E076462EF3A
:1008A80004F0075E08380F0B086E0038F00B0826B6
:1008B80000380F0B006E074ED0EF04F0D8900032CE
:1008C8000832074ED0EF04F0D89000320832074EB5
:1008D800D0EF04F0D89000320832D0EF04F0030EC5
:1008E80007648AEF04F0075E08380F0B086E0038BB
:1008F800F00B082600380F0B006E0138F00B0026AD
:1009080001380F0B016E074ED0EF04F0D89001327A
:1009180000320832074ED0EF04F0D890013200328E
:100928000832074ED0EF04F0D89001320032083276
:10093800D0EF04F0030E0764BBEF04F0075E08383D
:100948000F0B086E0038F00B082600380F0B006EEE
:100958000138F00B002601380F0B016E0238F00B3E
:10096800012602380F0B026E074ED0EF04F0D89024
:100978000232013200320832074ED0EF04F0D8902C
:100988000232013200320832074ED0EF04F0D8901C
:100998000232013200320832096A000E0EAEC4EF8C
:1009A80005F0081E001E011E021E082A0022012250
:1009B8000222C4EF05F00750D8A4E5EF04F0FCEFDD
:1009C80005F0096A02C00AF0028E068E0750035C21
:1009D800076ED8B4B7EF05F0070E076485EF05F08A
:1009E800075E0450096E0550046E0650056E066ACF
:1009F800074EB7EF05F0070E07645AEF05F0075EDC
:100A08000450096E0550046E056A074EB7EF05F0ED
:100A1800070E076438EF05F0075E0450096E046A94
:100A2800074EB7EF05F0070E07641FEF05F00AC081
:100A380002F0FCEF05F0030E07642AEF05F0075EED
:100A480009380F0B096E074EB7EF05F0D890093239
:100A5800074EB7EF05F0D8900932074EB7EF05F00B
:100A6800D8900932B7EF05F0030E076449EF05F097
:100A7800075E09380F0B096E0438F00B0926043895
:100A88000F0B046E074EB7EF05F0D8900432093209
:100A9800074EB7EF05F0D89004320932074EB7EF8A
:100AA80005F0D89004320932B7EF05F0030E076459
:100AB80071EF05F0075E09380F0B096E0438F00B6B
:100AC800092604380F0B046E0538F00B0426053888
:100AD8000F0B056E074EB7EF05F0D89005320432BC
:100AE8000932074EB7EF05F0D890053204320932C3
:100AF800074EB7EF05F0D890053204320932B7EF48
:100B080005F0030E0764A2EF05F0075E09380F0B26
:100B1800096E0438F00B092604380F0B046E0538EB
:100B2800F00B042605380F0B056E0638F00B05266A
:100B380006380F0B066E074EB7EF05F0D890063251
:100B4800053204320932074EB7EF05F0D890063265
:100B5800053204320932074EB7EF05F0D890063255
:100B6800053204320932086A000E0EAEC4EF05F0F1
:100B7800091E041E051E061E092A04220522062235
:100B8800095008260450002205500122065002226E
:100B98000EBEDBEF05F0D8A0EAEF05F00232013215
:100BA80000320832033EEAEF05F0F6EF05F0D8B060
:100BB800F0EF05F0000E081E001E011E021E082A96
:100BC8000022012202220A7EF0EF05F0010E0C6ECF
:100BD80025EC01F0FEEF05F0020E0C6E25EC01F09D
:100BE800FEEF05F0040E0C6E86EC00F0FEEF05F04B
:060BF800000E0C6E12005D
:100BFE0020C401F01F0E01160150010A01E094D02D
:100C0E0004012451000A01E08FD02151060A42E16D
:100C1E0037D000018451010A17E1710E006E370EB4
:100C2E00016E000E026E120E0026000E012202222E
:100C3E0000C087F001C088F002C089F0090E8B6FEA
:100C4E00000E8C6FC00E8A6F25D000018451010AF0
:100C5E0012E19A0E006E370E016E000E026E00C08B
:100C6E0087F001C088F002C089F0210E8B6F000E54
:100C7E008C6FC00E8A6F0ED00001800E8A6F0AD064
:100C8E0004012351210AC5E02351220ADEE023513B
:100C9E00230AF2E020C401F0600E0116050E006E6C
:100CAE00005004E00132019EFF0FFBD70150010AF4
:100CBE0001E03AD026D038D037D0760E0001876FBB
:100CCE00000E886F010E8B6F000E8C6FC10E8A6F37
:100CDE002BD00001800E8A6F23C476F025D0000140
:100CEE00770E876F000E886F010E8B6F000E8C6F64
:100CFE00810E8A6F19D00001800E8A6F22C477F0A0
:100D0E0013D004012151010AD6E02151090AD4E081
:100D1E002151020AD2E021510A0ADBE02151030AD5
:0A0D2E00DEE021510B0AE7E012009D
:100D38000401286B296B4AD000018A8F040128819D
:100D480000017F51010A02E10401288354D0000107
:100D58008A8F51D000018A8F040124BF16D024C481
:100D680003F00F0E031603C000F0000E016E0036EC
:100D7800009001366F0E0024E96E000E0120EA6E25
:100D8800EECF04F0EECF05F015D024C403F00F0E1B
:100D9800031603C000F0000E016E00360090013605
:100DA800930E0024E96E000E0120EA6EEECF04F0E7
:100DB800EECF05F004C0E9FF05C0EAFFEECF01F071
:100DC80001A403D00401010E286F15D020C401F03E
:100DD8001F0E01160150000AAFE020C401F01F0EDB
:100DE80001160150010AB3E020C401F01F0E0116DC
:100DF8000150020AAFE000018AAF07D0280E876FC2
:0C0E0800040E886F8A81020E8B6F1200AE
:100E1400086A096A100E0C6E01340836093604504B
:100E2400085E0550D8A0053C095ED8B007D0045030
:100E340008260550D8B0053C0926D890003601365E
:060E44000C2EEAD712009B
:100E4A00BB0E006E370E016E000E026E0E0E0024EF
:100E5A00F66E000E0120F76E000E0220F86E0900F1
:100E6A00F5CF03F003C004F00F0E0024F66E000E57
:100E7A000120F76E000E0220F86E0900F5CF01F08E
:100E8A000150035C12E2BB0E006E370E016E000EBB
:100E9A00026E0F0E0024F66E000E0120F76E000E91
:100EAA000220F86E0900F5CF04F0BB0E006E370E73
:100EBA00016E000E026E100E0024F66E000E012066
:100ECA00F76E000E0220F86E0900F5CF01F001500E
:100EDA00045C12E2BB0E006E370E016E000E026E4B
:100EEA00100E0024F66E000E0120F76E000E02208E
:0E0EFA00F86E0900F5CF04F004C000F01200FD
:100F0800086A096A000E0762036409EF08F00250D4
:100F180006180A6E075003267E0ED8A09AEF07F02F
:100F2800035ED8B00EEF08F09EEF07F0035ED8A07E
:100F380013EF08F0028E068E02C00EF001C00BF00F
:100F480000C00DF000500402F4CF0CF0015005026F
:100F5800F4CF00F0F3CF08F00402F3500C26F4505D
:100F68000822000E00220D500502F3500C26F45002
:100F78000822000E002202500402F3500826F45002
:100F8800002202500502016A000E0122F3500026D9
:100F9800F45001220D500602F3500826F4500022A6
:100FA800026A000E012202220B500602F3500026AC
:100FB800F4500122000E02220E500602F3500126C0
:100FC800F450022202BEF1EF07F00836003601366F
:100FD80002360306D8B413EF08F004EF08F0D880FF
:100FE800800E08640030000E002201220222D8A0E0
:100FF80004EF08F0023201320032034A0EEF08F023
:101008000AAE029E000E16EF08F0010E92EC00F0F8
:1010180016EF08F0020E86EC00F016EF08F0040E4A
:0610280075EC00F012005F
:0A102E000001755301E0E4DD12003B
:1010380020C401F0600E0116050E006E005004E099
:101048000132019EFF0FFBD70150000A01E061D079
:101058003DD000018A8F080E856F5BD05EEC03F0EF
:1010680058D0DCEC03F055D00001840E876F000ED9
:10107800886F8A81010E8B6F8A8F4BD059DE49D0D9
:1010880016EC02F046D08D0E006E000E016E0401C3
:1010980024510026D8B0012A00C087F001C088F08A
:1010A80000018A81010E8B6F8A8F33D000018A8FED
:1010B8008D0EE16E000EE26E04012451E126D8B0D7
:1010C800E22A22C4E6FF25D024D023D004012151EE
:1010D800050ABFE02151060AC1E02151090AC1E011
:1010E8002151080AC1E02151000AC8E02151010A32
:1010F800C7E02151030AC4E021510A0AC4E0215182
:101108000B0AD4E02151070ADFE021510C0ADDE087
:04111800DCD712000E
:10111C000101336B346B356B020E3025F66E000E0D
:10112C003121F76E000E3221F86E0900F5CF05F073
:10113C00030E3025F66E000E3121F76E000E3221B3
:10114C00F86E0900F5CF00F000C003F0000E046E3D
:10115C0003C001F0006A05500024066E000E012049
:10116C00076E30C108F031C109F032C10AF0010E2E
:10117C000824F66E000E0920F76E000E0A20F86E99
:10118C000900F5CF01F00150020A1BE1060E0824FC
:10119C00F66E000E0920F76E000E0A20F86E09009C
:1011AC00F5CF01F00150335D0CE2060E0824F66E0B
:1011BC00000E0920F76E000E0A20F86E0900F5CF1C
:1011CC0033F1010E0824F66E000E0920F76E000EA6
:1011DC000A20F86E0900F5CF01F00150040A1BE15A
:1011EC00080E0824F66E000E0920F76E000E0A2079
:1011FC00F86E0900F5CF01F00150335D0CE2080EDA
:10120C000824F66E000E0920F76E000E0A20F86E08
:10121C000900F5CF33F108C0F6FF09C0F7FF0AC08B
:10122C00F8FF0900F5CF00F000503425016E000ED8
:10123C003521026E01C034F102C035F10750025C59
:10124C0002E10650015C01E30FD008C0F6FF09C0B3
:10125C00F7FF0AC0F8FF0900F5CF00F00050082690
:0E126C00000E09220A2283D733C100F01200BF
:08127A00067EECEC03F012000B
:081282000B6A0B86FF0E12003F
:10128A000B800BAE51EF09F0026A0AAEFF0E026E36
:0C129A00016E006E0A360232FF0E1200D8
:0A12A600D08EA28AA08AF28E1200F8
:0E12B000160E6F6E9F0E6B6E3B0E696E120077
:1012BE000C6A0E6A0250D8A478EF09F001C002F051
:1012CE0000C001F0006A0E860250D8A478EF09F033
:1012DE0001C002F0016A0E960E880250D8B48AEF51
:1012EE0009F00E50035ED8A4D8A090EF09F0D89064
:1012FE0002BE96EF09F0003601360236032E7FEF5E
:10130E0009F090EF09F0010E0C6E92EC00F09AEFDE
:10131E0009F0020E0C6E75EC00F09AEF09F0040E57
:08132E000C6E82EC00F01200CD
:1013360054C104F0000E056ECB50010F006E016A19
:10134600000E012299EC00F0640E046E000E056E8C
:101356005EDD00C055F101C056F1000E026E01506F
:10136600025C02E10050FF0805E2FF0E0101556F25
:10137600000E566F010155A102D0BD8801D0BD985F
:1013860055A302D0BD8A01D0BD9A55C1BEFF120039
:101396000A6A0350D8A40A800750D8A40A820A50C1
:1013A600D8B42EEF0AF0030AD8B4E7EF09F00AB072
:1013B600E2EF09F006AE2CEF0AF02AEF0AF002AED1
:1013C6002AEF0AF02CEF0AF00250800B0A6E029EFA
:1013D6000650800B069E0A18D8B4F8EF09F00A509A
:1013E600D8B42AEF0AF02CEF0AF00750035CD8B401
:1013F60002EF0AF0D8A01EEF0AF024EF0AF006501A
:10140600025CD8B40CEF0AF0D8A01EEF0AF024EF65
:101416000AF00550015CD8B416EF0AF0D8A01EEF0A
:101426000AF024EF0AF00450005CD8B42EEF0AF05C
:10143600D8B024EF0AF00A52D8B42CEF0AF02AEFFB
:101446000AF00A52D8B42AEF0AF02CEF0AF0D88034
:0E1456001200D8901200D880D8841200120024
:1014640054C104F0000E056ECB50010F006E016AEA
:10147400000E012299EC00F0640E046E000E056E5D
:10148400C7DC00C055F101C056F1000E026E0150D8
:10149400025C02E10050FF0805E2FF0E0101556FF6
:1014A400000E566F010155A102D0BA8801D0BA9836
:1014B40055A302D0BA8A01D0BA9A55C1BBFF120013
:1014C400020E01015425036E000E5521046E03C063
:1014D400E9FF04C0EAFF010EEE24006E000EEE20C8
:1014E400016E03C0E1FF04C0E2FF00C0E6FF01C0DB
:1014F400E6FF03C0E9FF04C0EAFFEECF01F0EECF40
:1015040002F05751025C02E15651015C0BE3020EFA
:101514005425E16E000E5521E26EE66AE66A010E7C
:08152400006E01D0006A120004
:10152C00010E00018E25E96E000E8F21EA6EEECFC2
:10153C0000F000C002F0000E9B5D02E102509A5DCB
:10154C0003E29AC002F00AD002509A5D006E000EBF
:10155C009B59016E00C09AF001C09BF0036A0250C7
:10156C00035C1CE2280EE96E040EEA6E0350E926B9
:10157C00D8B0EA2AEECF00F097C0E1FF98C0E2FFA6
:10158C0000C0E6FF010E9725006E000E9821016E3B
:10159C0000C097F001C098F0032AE1D7000E006E4E
:1015AC009B51005C02E19A51000828E2010E912542
:1015BC00E16E000E9221E26E080EE66E020E91258F
:1015CC00E16E000E9221E26E280EE66E040EE66EBF
:1015DC008EC0E9FF8FC0EAFFEECF00F000BC07D051
:1015EC0091C0E1FF92C0E2FFC80EE66E06D091C03A
:1015FC00E1FF92C0E2FF880EE66E19D0010E912534
:10160C00E16E000E9221E26E080EE66E020E91253E
:10161C00E16E000E9221E26E200EE66E040EE66E76
:10162C0091C0E1FF92C0E2FF840EE66E999F12001A
:10163C006D9800018ABF49D099AF28D0020E866FF1
:10164C00010E9325E16E000E9421E26EE66A93C0C2
:10165C00E1FF94C0E2FFC80EE66E010E9125E16E2B
:10166C00000E9221E26E080EE66E020E9125E16EDE
:10167C00000E9221E26E280EE66E040EE66E91C00C
:10168C00E1FF92C0E2FFC80EE66E1ED0010E91255E
:10169C00E16E000E9221E26E080EE66E020E9125AE
:1016AC00E16E000E9221E26E200EE66E040EE66EE6
:1016BC0091C0E1FF92C0E2FF8C0EE66E93C0E1FF99
:1016CC0094C0E2FF840EE66E83D099BF81D00401F2
:1016DC0020AF56D000018C510401275D04E10001BC
:1016EC008B510401265D04E226C48BF027C48CF0D8
:1016FC00C0EC02F0010E866F010E9125E16E000E1A
:10170C009221E26E080EE66E020E9125E16E000E3D
:10171C009221E26E200EE66E040EE66E91C0E1FFA1
:10172C0092C0E2FF800EE66E606B010E8E25E16EBC
:10173C00000E8F21E26E080EE66E020E8E25E16E13
:10174C00000E8F21E26E200EE66E040EE66E8EC049
:10175C00E1FF8FC0E2FF840EE66E010E606F020E99
:10176C009325E16E000E9421E26E280EE66E040EB7
:10177C00E66E93C0E1FF94C0E2FFC80EE66E28D07F
:10178C000001020E866F010E9325E16E000E94216E
:10179C00E26EE66A93C0E1FF94C0E2FFC80EE66E0B
:1017AC00010E9125E16E000E9221E26E080EE66E9E
:1017BC00020E9125E16E000E9221E26E280EE66E6D
:1017CC00040EE66E91C0E1FF92C0E2FFC80EE66E19
:0217DC001200F9
:1017DE00710E0001FF6F370E0101006F000E016FD9
:1017EE00E30E036F370E046F000E056F470E066F84
:1017FE00370E076F000E086F1D0E096F370E0A6F3A
:06180E00000E0B6F12003A
:101814000001866B93C0E1FF94C0E2FFE66A040E08
:101824009319E16E94C0E2FF000EE21AE66A99AFE2
:0618340001D0999F120093
:10183A00BF0E8314006E009AF70E00148C6E800E91
:0C184A008310006E100E00108C6E120057
:10185600BF0E8314006E009A0092FE0E00148C6E6A
:0E186600800E8310006E040E00108C6E1200B7
:101874008C908C928C848C9A8C9C8C8E8C968C887C
:02188400120050
:101886000B6A0C6A0A6A0350D8B48DEF0CF0028E0C
:101896008E0E035E03BE55EF0CF0D8B455EF0CF078
:1018A60091EF0CF0036C080E035CD8A06CEF0CF003
:1018B600036E013602C001F0026A080E035CD8A06E
:1018C6006CEF0CF00136016A0350D8A4D89076EF7D
:1018D6000CF00350D8B476EF0CF0D89002320132F7
:1018E600032E70EF0CF00BBC01A083EF0CF0D8A018
:1018F60083EF0CF0012AD8B4022A02BEA0EF0CF046
:101906000AAEA5EF0CF0021E011E012AD8B4022A67
:10191600A5EF0CF0026A016AA5EF0CF00B800BAE86
:10192600A9EF0CF0026A0AAEA9EF0CF0FF0E026EE8
:10193600016E0A360232A9EF0CF0010E0C6EA2DC23
:10194600ABEF0CF0000E0C6EABEF0CF0FF0E0C6E56
:0A1956000150006E0250016E1200F5
:101960000050086E0150006E016A026A036A0B6A39
:101970000C6A960E036E0A6A00C001F008C000F0FF
:08198000086A026A9CDC1200F7
:10198800444A452A030E455C02E1E80E445C30E314
:10199800446A456A40C103F041C104F040C1E9FF0F
:1019A80041C1EAFFEECF00F0EECF01F0004A012A74
:1019B80040C1E1FF41C1E2FF00C0E6FF01C0E6FF10
:1019C80003C0E9FF04C0EAFFEECF01F0EECF02F05A
:1019D80001014351025C02E14251015C09E340C14B
:1019E800E1FF41C1E2FFE66AE66A010E006E01D03E
:0419F800006A12006F
:0619FC008C948C801200A7
:101A02000501546B556B0101546B2BDD0501526BC3
:101A1200536B0101546B8EDC8C90BB0E546F000E25
:101A2200556FF40E566F010E576F4BDD0052D8A45E
:041A32008C7412009E
:061A36008C948C8012006C
:101A3C00FE0E8314006E0092F70E00148C6E040ED2
:0C1A4C008310006E100E00108C6E120053
:101A580044C104F045C105F046C106F047C107F08E
:101A680040C100F041C101F042C102F043C103F09E
:101A780000DC00C048F101C049F102C04AF103C0CE
:101A88004BF157C004F058C005F059C006F05AC0D1
:101A980007F0ECEC03F000C057F001C058F002C0AA
:101AA80059F003C05AF000C004F001C005F002C0AC
:101AB80006F003C007F05BC000F05CC001F05DC039
:101AC80002F05EC003F063DC010ED8B0000E006EB9
:101AD800005208E05BC057F05CC058F05DC059F098
:101AE8005EC05AF0000E5B18046E000E5C18056E9E
:101AF800800E5D18066E000E5E18076E57C000F067
:101B080058C001F059C002F05AC003F040DC010E81
:101B1800D8B0000E006E00520CE0000E5B18576E35
:101B2800000E5C18586E800E5D18596E000E5E1817
:101B38005A6E61C004F062C005F063C006F064C06C
:101B480007F048C100F049C101F04AC102F04BC199
:101B580003F03DEC09F04FC004F050C005F051C04F
:101B680006F052C007F084EC07F000C04CF101C049
:101B78004DF102C04EF103C04FF14FC004F050C008
:101B880005F051C006F052C007F0000E006E000EBE
:101B9800016E000E026E7F0E036E3DEC09F034C03C
:101BA80004F035C005F036C006F037C007F084EC05
:101BB80007F04CC104F04DC105F04EC106F04FC10D
:101BC80007F0ECEC03F000C050F101C051F102C085
:101BD80052F103C053F148C161F049C162F04AC1F2
:101BE80063F04BC164F050C134F051C135F052C1BB
:101BF80036F053C137F038C000F039C001F03AC0B0
:101C080002F03BC003F048C104F049C105F04AC1E5
:101C180006F04BC107F084EC07F000C04CF101C09E
:101C28004DF102C04EF103C04FF13CC000F03DC081
:101C380001F03EC002F03FC003F057C004F058C0A6
:101C480005F059C006F05AC007F084EC07F04CC103
:101C580004F04DC105F04EC106F04FC107F0ECECA1
:101C680003F000C04CF101C04DF102C04EF103C0B9
:101C78004FF12FC000F030C001F031C002F032C087
:101C880003F050C104F051C105F052C106F053C130
:101C980007F084EC07F04CC104F04DC105F04EC1CB
:0C1CA80006F04FC107F0ECEC03F0120056
:101CB4000501546B556B0101546B32EC0AF00501BC
:101CC400526B536B0101546B9BEC09F08C90AE0E7C
:101CD400546F000E556FF40E566F010E576F62EC81
:0A1CE4000AF00052D8A48C7412001C
:101CEE000B6A0A6A096A086A0E6A033408360450D7
:101CFE00085E0550D8A0053C095E0650D8A0063CEB
:101D0E000A5E0750D8A0073C0B5EE86AD8A0010E09
:101D1E000E5E0336070E0C6E0334083609360A368D
:101D2E000B360E36045003A012D0085E0550D8A014
:101D3E00053C095E0650D8A0063C0A5E0750D8A0A6
:101D4E00073C0B5EE86AD8A0010E0E5E11D0082685
:101D5E000550D8B0053C09260650D8B0063C0A26D8
:101D6E000750D8B0073C0B26E86AD8B0010E0E26F5
:101D7E0003360C2ED1D70234083609360A360B3606
:101D8E000E36045003A012D0085E0550D8A0053CB4
:101D9E00095E0650D8A0063C0A5E0750D8A0073C44
:101DAE000B5EE86AD8A0010E0E5E11D00826055013
:101DBE00D8B0053C09260650D8B0063C0A26075076
:101DCE00D8B0073C0B26E86AD8B0010E0E260236B4
:101DDE00070E0C6E0234083609360A360B360E36EE
:101DEE00045002A012D0085E0550D8A0053C095E32
:101DFE000650D8A0063C0A5E0750D8A0073C0B5EE2
:101E0E00E86AD8A0010E0E5E11D008260550D8B093
:101E1E00053C09260650D8B0063C0A260750D8B015
:101E2E00073C0B26E86AD8B0010E0E2602360C2EA1
:101E3E00D1D70134083609360A360B360E36045021
:101E4E0002A012D0085E0550D8A0053C095E0650CF
:101E5E00D8A0063C0A5E0750D8A0073C0B5EE86A85
:101E6E00D8A0010E0E5E11D008260550D8B0053C44
:101E7E0009260650D8B0063C0A260750D8B0073CB3
:101E8E000B26E86AD8B0010E0E260136070E0C6E30
:101E9E000134083609360A360B360E36045001A0C8
:101EAE0012D0085E0550D8A0053C095E0650D8A099
:101EBE00063C0A5E0750D8A0073C0B5EE86AD8A025
:101ECE00010E0E5E11D008260550D8B0053C09262D
:101EDE000650D8B0063C0A260750D8B0073C0B2651
:101EEE00E86AD8B0010E0E2601360C2ED1D700347A
:101EFE00083609360A360B360E36045001A012D0BB
:101F0E00085E0550D8A0053C095E0650D8A0063CD8
:101F1E000A5E0750D8A0073C0B5EE86AD8A0010EF7
:101F2E000E5E11D008260550D8B0053C0926065085
:101F3E00D8B0063C0A260750D8B0073C0B26E86AF4
:101F4E00D8B0010E0E260036070E0C6E0034083681
:101F5E0009360A360B360E36045000A012D0085E33
:101F6E000550D8A0053C095E0650D8A0063C0A5E76
:101F7E000750D8A0073C0B5EE86AD8A0010E0E5E93
:101F8E0011D008260550D8B0053C09260650D8B009
:101F9E00063C0A260750D8B0073C0B26E86AD8B094
:101FAE00010E0E2600360C2ED1D700B00ED00450E6
:101FBE0008260550D8B0053C09260650D8B0063C78
:0C1FCE000A260750D8B0073C0B26120072
:041FDA00A19A1200B6
:101FDE0000018651020A03E196EC0AF01ED013DCD2
:101FEE006051000A19E1010E9125E16E000E922159
:101FFE00E26E080EE66E020E9125E16E000E922143
:10200E00E26E200EE66E040EE66E91C0E1FF92C007
:0C201E00E2FF8C0EE66E01D0606B120039
:10202A0000018551000A0CE16D6A696A58EC09F0F1
:10203A0053EC09F06DB602D06D86FCD7010E856FA0
:02204A00120082
:10204C00EFEC0BF000017D6B7E6B806B816B6A6A31
:10205C00686A58EC09F06D8C6E6A716A6D9C786BCD
:10206C00796B000E795D02E1080E785D17E278C09D
:10207C0000F079C001F00036009001360036009077
:10208C000136000E0024E16E040E0120E26EE66AB9
:10209C00E66AE66AE66A784B792BE3D7160E706E21
:1020AC0068A603D0F70E6816FBD78A6B996B9A6BF0
:1020BC009B6B6D98080E936F040E946F846B856BFD
:0220CC00120000
:1020CE0070A01CD08EC0E9FF8FC0EAFFEECF01F0EA
:1020DE000150800A12E193C0E9FF94C0EAFFEECFEF
:1020EE0001F0000E000A02E1840E011806E18EC016
:1020FE00E1FF8FC0E2FF8C0EE66E7090DF0E681669
:02210E001200BD
:102110000450000A12E10550000A0FE10650000ABF
:102120000CE10750000A09E1FF0E006EFF0E016E80
:102130007F0E026EFF0E036EA8D0086A096A075070
:10214000D8B433EF11F00350D8B438EF11F0025087
:1021500006180A6E028E068E0E6A02C008F001C0D2
:102160000CF000C00DF004500D5E0550D8A0053CE9
:102170000C5E0650D8A0063C085E086A0C6A0D6A20
:10218000D8A0CAEF10F0D8900232013200320832E3
:10219000010E0E6E0750035ED8A0D7EF10F07E0E32
:1021A0000E240326D8B03DEF11F0DDEF10F07E0EC7
:1021B0000E240326D8A042EF11F0180E0B6E0D3638
:1021C0000C3608360036013602360E360450005EF4
:1021D0000550D8A0053C015E0650D8A0063C025E22
:1021E00006340E120EA0F8EF10F00D8003EF11F080
:1021F000045000260550D8B0053C01260650D8B042
:10220000062802260D900B2EDFEF10F029EF11F0BB
:10221000D8900036013602360E360450005E055066
:10222000D8A0053C015E0650D8A0063C025E0634EC
:102230000E10010B0D26D8B00C2AD8B4082AD8A449
:1022400029EF11F008320C320D32032AD8B43DEFD9
:1022500011F00AAE089E0850026E0C50016E0D502F
:10226000006E45EF11F0010E41EC09F045EF11F061
:10227000020E92EC00F045EF11F0040E86EC00F037
:0C22800045EF11F0080E75EC00F01200A4
:10228C0093C0E9FF94C0EAFFEECF00F000AE05D09A
:10229C0093C0E1FF94C0E2FFE66A0001A06B866B7D
:1022AC008B6B8C6B8A6B1CEC08F017EC08F01EEC3B
:0422BC000BF0120011
:0A22C0006984EF0E68166D821200AB
:1022CA00040E00019319006E00C093F08551080AAC
:1022DA000AE122C46EFF6E50000803E2100E856FF9
:1022EA0002D0040E856F8651010A3BE1020E932546
:1022FA00E16E000E9421E26E280EE66E040EE66E82
:10230A00C0EC02F0A051020A07E193C0E1FF94C0B9
:10231A00E2FF840EE66E24D0040E9319006E00C00C
:10232A0093F093C0E9FF94C0EAFFEECF00F000BC3F
:10233A000CD0040E9319006E00C093F093C0E1FF15
:10234A0094C0E2FFC80EE66E0BD0040E9319006E1D
:10235A0000C093F093C0E1FF94C0E2FF880EE66EDE
:08236A0002D00AEC0CF0120095
:102372006D92699468A403D0FB0E6816FBD7120015
:1023820025EC07F000C02EF1710E0101306F370EFF
:10239200316F000E326F8EEC08F000C02FF12E511B
:1023A200005C03E22EC100F002D02FC100F0120047
:0A23B2000001B66B01EC0DF0120003
:0823BC00020E0501466F12003C
:1023C400030E0501466FBED08C808C928C941DEC5C
:1023D4000CF0A10E0101406F000E416F080E426F18
:1023E400000E436FC4EC0CF0005202E0010E336E99
:1023F400CAD08C908C828C941DEC0CF0A10E01013F
:10240400406F000E416F030E426F000E436FC4EC29
:102414000CF0005202E0020E336EB5D03AEC0CF030
:10242400A10E0101406F000E416F010E426F000EBC
:10243400436FC4EC0CF0005202E0030E336EA3D0E1
:102444008C8A8C9C8C9E1EEC0DF0A10E0101406FB9
:10245400000E416F080E426F000E436FC4EC0CF087
:10246400005202E0040E336E8ED08C9A8C8C8C9EBB
:102474001EEC0DF0A10E0101406F000E416F030E22
:10248400426F000E436FC4EC0CF0005202E0050EE4
:10249400336E79D03AEC0CF0A10E0101406F000EBE
:1024A400416F010E426F000E436FC4EC0CF00052FA
:1024B40002E0060E336E67D08C868C982BEC0CF001
:1024C400A10E0101406F000E416F050E426F000E18
:1024D400436FC4EC0CF0005202E0070E336E53D08D
:1024E4008C96A50E0101546F000E556FF40E566FB5
:1024F400010E576F62EC0AF00052D8A48C782BECD2
:102504000CF0A10E406F000E416F030E426F000EDF
:10251400436FC4EC0CF0005202E0080E336E33D06B
:102524003AEC0CF0A10E0101406F000E416F010E58
:10253400426F000E436FC4EC0CF00052D8A4336A0F
:1025440022D021D03350000AD8B43ED73350010AE8
:10255400D8B44FD73350020AD8B460D73350030AE3
:10256400D8B46ED73350040AD8B47FD73350050A91
:1025740091E03350060AA0E03350070AB1E033502B
:08258400080ACEE0DED71200C8
:10258C00060E0501466F81B403D00001B66B07D06F
:10259C0081B005D00001010EB66F1BEC0DF00001EF
:1025AC00B65353E0B70E0101546F000E556F0A0E6F
:1025BC00566F000E576F62EC0AF0005245E00EC5E4
:1025CC0001F0006A005005010D11026E000E0110A1
:1025DC00036E01010F51031802E102500E1934E091
:1025EC000EC501F0006A005005010D11026E000EBF
:1025FC000110036E01010F51035C02E10E51025CEC
:10260C0012E20501546B556B0101546B32EC0AF06C
:10261C00E80E0501526F030E536F140E0101546F37
:10262C009BEC09F011D00501526B536B0101546BFB
:10263C009BEC09F0E80E0501546F030E556F140E58
:10264C000101546F32EC0AF002D001EC0DF01200D3
:02265C0012006A
:10265E008C6A0101546B9BEC09F0546B32EC0AF05E
:02266E00120058
:10267000050E0501466F81B403D00001A96B07D098
:1026800081B005D00001010EA96FFEEC0CF0000135
:10269000A953D8B41DD1AA0E0101546F000E556F75
:1026A0000A0E566F000E576F62EC0AF00052D8B453
:1026B0000ED10EC501F0006A05010D510012000E89
:1026C0000112B0EC0CF000C03CF101C03DF102C0C1
:1026D0003EF103C03FF13CC153F03DC154F03EC157
:1026E00055F03FC156F00EC100F00FC101F0B0EC43
:1026F0000CF000C065F001C066F002C067F003C0D6
:1027000068F000C040F101C041F102C042F103C0D5
:1027100043F13CC144F13DC145F13EC146F13FC1E9
:1027200047F12CEC0DF000C069F001C06AF002C066
:102730006BF003C06CF000C004F001C005F002C0F3
:1027400006F003C007F0006A016A026A036ACBEC74
:1027500009F0010ED8B0000E006E005250E00501E5
:10276000546B556B0101546B32EC0AF069C000F0F8
:102770006AC001F06BC002F06CC003F043EC0CF0D7
:1027800000C052F501C002F0036A02C053F5000E0A
:10279000046EC00E056E7F0E066E880E076E69C051
:1027A00000F06AC001F06BC002F06CC003F0B0DC56
:1027B000000E046E000E056E480E066E850E076E46
:1027C00084EC07F043EC0CF000C06DF001C06EF03B
:1027D000000E026E0150025C02E10050640806E245
:1027E000640E0101386F000E396F04D06DC038F1EE
:1027F0006EC039F138C154F19BEC09F068D000018A
:102800006B7F0501526B536B0101546B9BEC09F01C
:10281000000E00016919006E000E6A19016E800E2B
:102820006B19026E000E6C19036E43EC0CF000C0C5
:1028300054F5000E6919006E000E6A19016E800EC3
:102840006B19026E000E6C19036E43EC0CF001C0A4
:1028500002F0036A02C055F5000E6919006E000E01
:102860006A19016E800E6B19026E000E6C19036EF0
:10287000000E046EC00E056E7F0E066E880E076E8B
:1028800047DC000E046E000E056E480E066E850EC7
:10289000076E84EC07F043EC0CF000C06DF001C053
:1028A0006EF0000E026E0150025C02E100506408FE
:1028B00006E2640E01013A6F000E3B6F04D06DC05A
:1028C0003AF16EC03BF13AC154F132EC0AF002D059
:0628D0005AEC0EF01200AC
:0228D6001200EE
:1028D800010E0501466F404A412A030E415C02E1A0
:1028E800E80E405C04E3831C8C6E406A416A120067
:1028F8000B6A0C6A0A6A0350D8B4B1EF14F00A9E46
:10290800028E860E035E03BE8FEF14F0D8B48FEFED
:1029180014F0B4EF14F0036C080E035CD8A09DEF1C
:1029280014F0036E0236026A0350D8A4D890A6EFBA
:1029380014F00350D8B4A6EF14F0D8900232032E46
:10294800A1EF14F00BBC02A0B1EF14F0D8A0B1EFC6
:1029580014F0022AD8B4BBEF14F0016AC1EF14F0E6
:102968000B800BAEC5EF14F0016AC5EF14F0010E31
:102978000C6E45EC09F0C7EF14F0000E0C6EC7EFB3
:0C29880014F0FF0E0C6E0250006E1200E6
:10299400000E0101251902E1000E241902E1016A69
:1029A4000AD024C1E9FF25C1EAFFEECF00F0000EF2
:0C29B40000BE010E016E01C000F0120018
:1029C00024C104F025C105F0000E066E076E043622
:1029D000049005360636073604360490053606366A
:1029E0000736000E006E6C0E016EDC0E026E020EDB
:1029F000036E77EC0EF000C004F001C005F002C0D9
:102A000006F003C007F0010E045E000E055A065AD8
:102A1000075A04C02AF105C02BF106C02CF107C0EB
:102A20002DF10750000808E10650000805E10550A7
:102A3000000802E10450FF0808E2FF0E0101266FC2
:102A4000000E276F286F296F08D02AC126F12BC1ED
:102A500027F12CC128F12DC129F126C1CBFF12008D
:0C2A6000240E0D6E0D2EFED7000012009B
:102A6C0001012551000A12E024C100F0000E016E94
:102A7C00003600900136930E0024E96E000E012002
:102A8C00EA6EEECF04F0EECF05F011D024C100F0C9
:102A9C00000E016E0036009001366F0E0024E96EB8
:102AAC00000E0120EA6EEECF04F0EECF05F0020E20
:102ABC000424E16E000E0520E26E26C1E6FF27C15C
:102ACC00E6FF010E0424E16E000E0520E26E28C123
:102ADC00E6FF04C0E9FF05C0EAFFEECF00F004C03A
:102AEC00E1FF05C0E2FF400E0014E66E04C0E9FFF2
:102AFC0005C0EAFFEECF00F0880E001204C0E1FF23
:102B0C0005C0E2FF00C0E6FF2551000A1BE024C10E
:102B1C0000F0000E016E003600900136930E00247A
:102B2C00026E000E0120036E02C0E9FF03C0EAFF33
:102B3C00040EEE18006E02C0E1FF03C0E2FF00C0FD
:102B4C00E6FF1AD024C100F0000E016E0036009092
:102B5C0001366F0E0024026E000E0120036E02C0BF
:102B6C00E9FF03C0EAFF040EEE18006E02C0E1FF9D
:102B7C0003C0E2FF00C0E6FF04C000F005C001F096
:022B8C00120035
:102B8E00C1EC11F000C090F0010E0001756F24C170
:102B9E0073F025C174F026C17AF027C17BF026ECC4
:102BAE0010F0010E016E0150010A02E115EC10F059
:022BBE00120003
:102BC0000501466B5F520BE0085183188C6E0AC5F5
:102BD00054F19BEC09F011C554F132EC0AF01200EB
:102BE000040E0501466F424A432A4350070A02E198
:102BF000D00E421809E18350010F006E00C083FF20
:0A2C000083CF8CFF426A436A120082
:0A2C0A000001A96B5AEC0EF0120055
:102C140000018551000A0BE16D6A696A58EC09F0FC
:102C24006DB602D06D86FCD70001010E856F85510B
:102C3400010A08E16DBA06D0686A696A6980698820
:102C4400020E856F68A406D069A404D0FB0E681632
:102C5400B9EC11F06DA203D0EDEC0FF0E0D068A058
:102C640019D069A017D026EC10F0040E856F200E41
:102C74000401026F040E036F080E016F000E0015AD
:102C8400006E00C000F48C0E0011006E00C000F451
:102C9400FE0E681668A806D069A804D060EC11F08E
:102CA400EF0E681668AC04D069AC02D0BF0E68168B
:102CB40068AA04D069AA02D067EC10F068A202D016
:102CC40069B26A6A040E0001855D03E2EDEC0FF05F
:102CD400A6D069A6A2D00101256B040E255DD8B04B
:102CE4009CD068A696D06CCF7CF0F70E6816780E50
:102CF40000017C15016E0150000AD8A489D0FD0E94
:102D04007C15016E026AFF0E0216000E021802E123
:102D1400000E01186EE17E0E7C15016E01C003F0F9
:102D24000332039E03C000F0000E016E00360090D3
:102D34000136003600900136000E0024026E040EA7
:102D44000120036E02C08EF003C08FF002C091F028
:102D540003C092F0040E9119006E00C091F002C0FD
:102D6400E9FF03C0EAFFEECF00F000C001F03C0E23
:102D740001160132019E0132019E01500D0A36E115
:102D8400020E8E25E96E000E8F21EA6EEECF01F061
:102D9400EECF02F00250040A02E1280E011823E1EA
:102DA400020E8E25E16E000E8F21E26E200EE66E7D
:102DB400040EE66E0101246B080E245D14E2200E5D
:102DC400E16E040EE26E2451E126D8B0E22A280E08
:102DD400E96E040EEA6E2451E926D8B0EA2AEECF51
:102DE400E6FF242BE9D746EC11F002D0EFEC0FF00C
:102DF4000ED0FD0E7C15016E026AFF0E0216000E47
:102E0400021802E1040E011802E165EC11F000D091
:102E140001D003D00101252B60D7EDEC0FF0120097
:022E240012009A
:102E26000101226B200E0001855D03E36DB201D026
:102E360002D0006A30D07DC024F17EC025F1A7DD26
:102E4600005228E17DC020F17EC021F1000E000174
:102E56007E1902E1000E7D190BE0010E010120250D
:102E6600E96E000E2121EA6EEECF00F000C022F1DD
:102E760001011FC124F1256B1CC126F11DC127F1DB
:102E86001EC128F1F0DD00C07DF001C07EF022C138
:082E960000F001D0006A1200F7
:102E9E00000E0101246F050E256F400E266F050EE4
:062EAE00276F6EDE12002A
:102EB400C26A2E1C006E0050C116070EC012C08ECE
:102EC4001CC100F000360090003600900050C21281
:102ED400C280C4DDC282C2A201D0FDD7C4CF01F03A
:0E2EE400006AC3500012000E0112C2901200CC
:082EF200D09EF28EF28C12005A
:102EFA0001011C5303E0F28AD58E02D0F29AD59EC4
:022F0A001200B3
:102F0C00B70E926EFF0E936EF19E956A8C6A12004C
:102F1C00949294941CC100F01DC101F01EC102F0EA
:102F2C001FC103F043EC0CF000C024F101C025F1EB
:102F3C0041DD0C0EBD6E0C0EBA6EBE6ABB6A070E7E
:042F4C00CA6E120037
:102F5000F250026EF29E0500FF6A0150FE6E0050B4
:082F6000FD6E02BEF28E1200AC
:102F6800FB0E0101226F000E236F206B216B800E78
:102F78002119006E800E005C02E1040E205D0AE259
:102F880022C1E1FF23C1E2FFE66A224B232B204B3B
:102F9800212BEDD7D59ED58CD59AD598D596D584A5
:102FA800D592D5801CC100F01DC101F01EC102F0F0
:102FB8001FC103F0000E046E1B0E056E370E066E61
:102FC800960E076E84EC07F0000E046E000E056E78
:102FD800000E066E850E076E88EC10F000C004F037
:102FE80001C005F002C006F003C007F0000E006E35
:102FF800000E016E000E026E870E036E3DEC09F0A6
:0830080077DC00C002F11200A8
:10301000FF0E0001BF6FFF0EC06FFF0EC16FFF0EEE
:10302000C26FC26A2E1C006E0050C116070EC0127D
:06303000C08EC2801200F8
:10303600200E0001855D03E36DB201D002D0006A67
:1030460052D080C024F181C025F1A1DC00524AE1B2
:103056001FC124F1010E256F1CC126F11DC127F1E8
:103066001EC128F100DD00C080F001C081F0000122
:10307600B26BB36BB46BB56B80C024F181C025F124
:1030860086DC005218E0200E0001855D03E36DB278
:1030960001D002D0006A27D0010E016E0150000A4D
:1030A60001E1B5DD0001B251B311B411B51102E071
:1030B600006A19D0E1D7000180C020F181C021F15A
:1030C600000E811902E1000E80190AE0010E0101CD
:1030D6002025E96E000E2121EA6EEECF00F003D026
:0830E600006A01D0006A12002B
:1030EE0090DF0DDF000E01011C6F800E1D6F3B0E79
:1030FE001E6F8A0E1F6F0BDFCBDE6F0E01011C6F72
:10310E00120E1D6F030E1E6F750E1F6F26DF010E42
:0A311E0001011C6FEBDEE6DE12007B
:103128001AC100F01BC101F00036009001360036CC
:1031380000900136C30E0024E16E000E0120E26EFD
:1031480012C1E6FF13C1E6FF14C1E6FF15C1E6FF91
:103158001AC100F01BC101F000360090013600369C
:1031680000900136DF0E0024E16E000E0120E26EB1
:1031780016C1E6FF17C1E6FF18C1E6FF19C1E6FF51
:02318800120033
:10318A000900F5CFE6FF0006FBE10106F9E11200AE
:10319A0081CF4DF583CF4EF50CC14AF50DC102F032
:1031AA00036A02C04BF50EC100F0003600900036EB
:1031BA0000900050021005014B6F060E026E0EC100
:1031CA0000F00FC101F0025005E001320032019E09
:1031DA00FF0FFAD700C04CF510C14FF511C100F02E
:0831EA00016A00C050F512005B
:1031F20012C11CF113C11DF114C11EF1010E010116
:063202001F6F18DF12002F
:1032080073C01CF174C01DF1400E01011E6F010E48
:063218001F6F05DE12002D
:10321E000101126B030E125D1BE212C100F0000ED3
:10322E00016E0036009001360C0E0024136F010E55
:10323E000120146F12C11CF136DE13C1E1FF14C15F
:10324E00E2FF00C0E6FF01C0E6FF0101122BE2D74C
:02325E0012005C
:10326000050145814E5005191BE005C500F0000E13
:10327000016E003600900136003600900136C30E14
:103280000024E96E000E0120EA6EEECF00F0EECFD2
:1032900001F0EECF02F0EECF03F05ADE05C54EF09E
:1032A00005C500F0000E016E0036009001360036B4
:1032B00000900136DF0E0024E96E000E0120EA6E58
:1032C000EECF00F0EECF01F0EECF02F0EECF03F044
:0432D0003FDE1200CB
:1032D40000018551010A07E16DBA05D0686A698069
:1032E4006988020E856F68A406D069A404D0FB0E19
:1032F4006816B9EC11F06DA203D0EDEC0FF0E0D03C
:1033040068A019D069A017D026EC10F0040E856FC0
:10331400200E0401026F040E036F080E016F000EED
:103324000015006E00C000F48C0E0011006E00C089
:1033340000F4FE0E681668A806D069A804D060ECF4
:1033440011F0EF0E681668AC04D069AC02D0BF0E61
:10335400681668AA04D069AA02D067EC10F068A2C3
:1033640002D069B26A6A040E0001855D03E2EDECE5
:103374000FF0A6D069A6A2D00101376B040E375D09
:10338400D8B09CD068A696D06CCF7CF0F70E6816A7
:10339400780E00017C15016E0150000AD8A489D072
:1033A400FD0E7C15016E026AFF0E0216000E021855
:1033B40002E1000E01186EE17E0E7C15016E01C063
:1033C40003F00332039E03C000F0000E016E0036CA
:1033D40000900136003600900136000E0024026E83
:1033E400040E0120036E02C08EF003C08FF002C0F1
:1033F40091F003C092F0040E9119006E00C091F098
:1034040002C0E9FF03C0EAFFEECF00F000C001F004
:103414003C0E01160132019E0132019E01500D0A3B
:1034240036E1020E8E25E96E000E8F21EA6EEECF94
:1034340001F0EECF02F00250040A02E1280E011856
:1034440023E1020E8E25E16E000E8F21E26E200E26
:10345400E66E040EE66E0101366B080E365D14E26C
:10346400200EE16E040EE26E3651E126D8B0E22A57
:10347400280EE96E040EEA6E3651E926D8B0EA2A1F
:10348400EECFE6FF362BE9D746EC11F002D0EFEC95
:103494000FF00ED0FD0E7C15016E026AFF0E0216AF
:1034A400000E021802E1040E011802E165EC11F0AD
:1034B40000D001D003D00101372B60D7EDEC0FF021
:0234C4001200F4
:1034C600076A086A460E096E000E0A6E800E081814
:1034D600006E800E005C02E1040E075C52E209C039
:1034E600E9FF0AC0EAFF010EEE24006E000EEE2090
:1034F600016E09C0E1FF0AC0E2FF00C0E6FF01C09D
:10350600E6FF09C0E9FF0AC0EAFFEECF05F0EECFFD
:1035160006F007C000F008C001F0000E08BEFF0E5E
:10352600026E036E00360090013602360336DB0E5D
:103536000024F66E370E0120F76E000E0220F86E9C
:103546000900F5CF01F00900F5CF02F00250065C44
:1035560002E10150055C0EE3FB0E0724E16E000E4E
:103566000820E26E010EE66E09C0E1FF0AC0E2FF26
:10357600E66AE66A074A082A020E0926000E0A22A9
:08358600A5D702C1D6FF120017
:10358E00F4EC1BF05E0E0101126F260E136F000E8F
:10359E00146F000E156FC00E166F2B0E176F000EE8
:1035AE00186F000E196F1A6B1B6BB7DDD60E126FEC
:1035BE00280E136F000E146F000E156FD80E166FB7
:1035CE00280E176F000E186F000E196F010E1A6F6E
:1035DE00000E1B6FA2DD240E126F2E0E136F000E47
:1035EE00146F000E156FE00E166F2B0E176F000E78
:1035FE00186F000E196F040E1A6F000E1B6F8DDD03
:10360E000A0E126F2C0E136F000E146F000E156F34
:10361E00700E166F260E176F000E186F000E196FB4
:10362E00050E1A6F000E1B6F78DD060E126F000E60
:10363E00136F000E146F000E156FC40E166F230E4F
:10364E00176F000E186F000E196F030E1A6F000E13
:10365E001B6F63DD5C0E126F260E136F000E146F60
:10366E00000E156FBC0E166F230E176F000E186F1F
:10367E00000E196F020E1A6F000E1B6F4EDDB20E8A
:10368E00126F230E136F000E146F000E156F8C0E3B
:10369E00166F250E176F000E186F000E196F060E9F
:1036AE001A6F000E1B6F39DD1BDD0501056B000166
:1036BE00FB5305E0A2DD00C05FF00001FB6BFD5384
:1036CE000CE0A6DD63DD400E0101126F050E136FD7
:0E36DE00400E146F87DD0001FD6BE9D7FFD7AA
:1037E80010EE2EF0310E006E010E016EEC0EF66E2C
:1037F800360EF76E000EF86EC5EC18F010EE61F09C
:103808000E0E006E010E016ECD0EF66E370EF76EBF
:10381800000EF86EC5EC18F010EE5FF0010E006EA9
:10382800010E016EE70EF66E370EF76E000EF86E9B
:06383800C5EC18F01200BF
:0136EC0030AD
:0436ED00CDCC4C7C78
:0136F10000D8
:0436F20000000000D4
:0436F600000020822E
:0436FA000000007E4E
:0236FE000000CA
:023700000000C7
:023702000000C5
:083704000000000000000000BD
:01370C0000BC
:04370D00CDCC4C7B58
:0437110000000000B4
:0437150000000000B0
:0437190000004885DF
:10371D002A03430065006E007400720061006C00A6
:10372D00200043006F006E00740072006F006C008B
:0A373D00610064006F00720061007B
:103747002A03430065006E007400720061006C007C
:10375700200043006F006E00740072006F006C0061
:0A376700610064006F007200610051
:10377100090229000101008032090400000203004E
:1037810000000921010100012221000705810340F8
:09379100000107050103400001DD
:10379A000600FF0901A10119012940150026FF00B1
:1037AA0075089540810219012940750895409102D2
:0137BA00C04E
:1037BB001201000200000008341201000001010296
:0237CB000001FB
:0437CD0000000000F8
:0437D1000000488428
:0437D50000000000F0
:0237D9000000EE
:0837DB000100020003000500DB
:0437E30004030904CE
:0137E70000E1
:020000040030CA
:0E000000240E381EFF0181FF0FC00FE00F40DD
:00000001FF
