:0400000096EF24F063
:020006001200E6
:1000080000C023F001C022F002C021F003C020F09C
:1000180004C01FF005C01EF006C01DF007C01CF08C
:1000280008C01BF009C01AF00AC019F00BC018F07C
:100038000CC017F00DC016F00EC015F0E1CF2CF073
:10004800E2CF2DF0E9CF2AF0EACF2BF0F3CF28F05A
:10005800F4CF29F0F5CF27F0F8CF24F0F7CF25F02B
:10006800F6CF26F0F2A405D0CCEC23F006EC24F071
:10007800F294A1AA03D0D3EC22F0A19A27C0F5FFED
:1000880024C0F8FF25C0F7FF26C0F6FF28C0F3FFFD
:1000980029C0F4FF23C000F022C001F021C002F003
:1000A80020C003F01FC004F01EC005F01DC006F0FC
:1000B8001CC007F01BC008F01AC009F019C00AF0EC
:1000C80018C00BF017C00CF016C00DF015C00EF0DC
:1000D8002AC0E9FF2BC0EAFF2CC0E1FF2DC0E2FFD8
:0200E800110005
:1000EA000B840BAE80EF00F0010E036E026A016A08
:0A00FA00006A0A360232FF0E1200FF
:080104000AAE029E000E12007B
:10010C000B820BAE90EF00F0036802680168006888
:08011C000A360232FF0E120048
:0E012400026A016A006A086A036A000E12008D
:10013200090E01017C5D0AE2010E7B15016E015080
:10014200000A010ED8A4000E006E06D00C0E7C5DD3
:0A015200010ED8B0000E006E12007E
:10015C00090E01017B5D010ED8B0000E006E12007D
:10016C00020E01017B25E16E000E7C21E26EE66A37
:10017C00E66A7BC1E1FF7CC1E2FFE66AE66A120037
:10018C000CB008EF01F00CA2AEEF01F00E6A000EFD
:10019C0002641FEF01F0F00E0214D8A4EAEF00F095
:1001AC00023A01380F0B02260138F00B016E0038B1
:1001BC000F0B01260038F00B006E08380F0B0026D1
:1001CC000838F00B086E0E84D89002BE03EF01F0D5
:1001DC0008360036013602360E2A02BE03EF01F055
:1001EC0008360036013602360E2A02BE03EF01F045
:1001FC0008360036013602360E2A0E500364A4EF80
:10020C0001F0035E0BBC08AEA9EF01F0D880800EA4
:10021C0008640030000E002201220222D8A0A9EFAF
:10022C0001F0023201320032034AAEEF01F0A9EFC5
:10023C0001F001C002F000C001F008C000F0086A33
:10024C00000E0E86026456EF01F0F00E0214D8A4D4
:10025C003EEF01F0023A01380F0B02260138F00B89
:10026C00016E00380F0B01260038F00B006E0E8467
:10027C00D89002BE03EF01F00036013602360E2A8A
:10028C0002BE03EF01F00036013602360E2A02BE22
:10029C0003EF01F00036013602360E2A03EF01F0AF
:1002AC0001C002F000C001F0006A000E0E960E882C
:1002BC00026483EF01F0F00E0214D8A46EEF01F08B
:1002CC00023A01380F0B02260138F00B016E0E8436
:1002DC00D89002BE03EF01F0013602360E2A02BEA0
:1002EC0003EF01F0013602360E2A02BE03EF01F0D5
:1002FC00013602360E2A03EF01F001C002F0016A4A
:10030C00000E0E860264B3EF01F0F00E0214D8A4B6
:10031C0092EF01F0023A0E84D89002BE03EF01F086
:10032C0002360E2A02BE03EF01F002360E2A02BE7E
:10033C0003EF01F002360E2A03EF01F0010E0C6EF2
:10034C00CEDEB6EF01F0020E0C6ED6DEB6EF01F08B
:10035C00040E0C6ED5DEB6EF01F0080E0C6EDCDE72
:02036C0012007D
:10036E001E0E716E100E0001736F040E746F73C04B
:10037E00E1FF74C0E2FFE69E73C0E1FF74C0E2FFCE
:10038E00E69C040E7325E16E000E7421E26EE68C7F
:10039E00180E956F040E966F95C0E1FF96C0E2FFA2
:1003AE00E69E95C0E1FF96C0E2FFE69C040E952501
:1003BE00E16E000E9621E26EE68C020E7325E16E62
:1003CE00000E7421E26E75C0E6FF76C0E6FF010EE8
:1003DE007325E16E000E7421E26E400EE66E73C060
:1003EE00E9FF74C0EAFFEECF00F073C0E1FF74C006
:1003FE00E2FF400E0014E66E73C0E9FF74C0EAFF20
:10040E00EECF00F0880E001273C0E1FF74C0E2FF61
:10041E0000C0E6FF73C07DF074C07EF0040E731949
:08042E00006E00C073F0120023
:100436000B6A0A6A096A00500402F4CF09F0F3CF86
:1004460008F001500502F4CF0BF0F3CF0AF000508C
:100456000502F3500926F4500A22E86A0B220150DD
:100466000402F3500926F4500A22E86A0B2208C057
:1004760000F009C001F00AC002F00BC003F0120040
:1004860020C401F01F0E01160150010A01E094D0AC
:1004960004012451000A01E08FD02151060A42E1ED
:1004A60037D000018451010A17E10D0E006E4B0E84
:1004B600016E000E026E120E0026000E01220222AE
:1004C60000C087F001C088F002C089F0090E8B6F6A
:1004D600000E8C6FC00E8A6F25D000018451010A70
:1004E60012E1360E006E4B0E016E000E026E00C05B
:1004F60087F001C088F002C089F0210E8B6F000ED4
:100506008C6FC00E8A6F0ED00001800E8A6F0AD0E3
:1005160004012351210AC5E02351220ADEE02351BA
:10052600230AF2E020C401F0600E0116050E006EEB
:10053600005004E00132019EFF0FFBD70150010A73
:1005460001E03AD026D038D037D0600E0001876F50
:10055600000E886F010E8B6F000E8C6FC10E8A6FB6
:100566002BD00001800E8A6F23C460F025D00001D5
:10057600770E876F000E886F010E8B6F000E8C6FE3
:10058600810E8A6F19D00001800E8A6F22C477F01F
:1005960013D004012151010AD6E02151090AD4E001
:1005A6002151020AD2E021510A0ADBE02151030A55
:0A05B600DEE021510B0AE7E012001D
:1005C00000018A8F716A8D6B22C484F08451000A05
:1005D00003E1100E856F03D0200E856FC8DE120078
:1005E00004012051800AD8A478D0C00E00018A6F7F
:1005F00069D00001570E006E4B0E016E000E026EA8
:1006000000C087F001C088F002C089F0120E8B6F25
:10061000000E8C6F62D00001030E006E000E016EA2
:1006200022C404F0000E056E06DFDE0E0024E96E23
:10063000000E0120EA6EEECF87F0EECF88F0EECF0D
:1006400089F0020E8725F66E000E8821F76E000EE7
:100650008921F86E0900F5CF00F00900F5CF01F00F
:1006600000C08BF001C08CF038D004012251000191
:10067000905D23E3030E006E000E016E22C404F0B1
:10068000000E056ED8DEE10E0024E96E000E01209A
:10069000EA6EEECF87F0EECF88F0EECF89F087C01C
:1006A000F6FF88C0F7FF89C0F8FF0900F5CF00F01A
:1006B00000C08BF0000E8C6F01D08A6B0ED0000151
:1006C0008A6B0BD004012351010A93E02351020AE3
:0C06D000A2E02351030AC9E0F2D7120097
:1006DC0004012251010A13E120C401F01F0E01167E
:1006EC000150000A0CE100018A8F04012151030A18
:1006FC0004E1010E00017F6F02D000017F6B040149
:10070C002251000AD8A48DD020C401F01F0E01166E
:10071C000150020AD8A485D024C401F00F0E011692
:10072C000150000AD8B47DD000018A8F040124BF87
:10073C0016D024C403F00F0E031603C000F0000EF5
:10074C00016E003600900136710E0024E96E000E29
:10075C000120EA6EEECF04F0EECF05F015D024C4E4
:10076C0003F00F0E031603C000F0000E016E0036EE
:10077C0000900136930E0024E96E000E0120EA6E03
:10078C00EECF04F0EECF05F02151030A07E104C0CF
:10079C00E1FF05C0E2FF840EE66E43D024C400F0F6
:1007AC000F0E0016700E026E0F0E036E0050022616
:1007BC00D8B0032A02C0E9FF03C0EAFFFE0EEE1414
:1007CC00006EEECF01F0FF0E011602C0E1FF03C078
:1007DC00E2FF00C0E6FF01C0E6FF24AF11D004C069
:1007EC00E1FF05C0E2FFE66A040E0418006E00C0CB
:1007FC0004F004C0E1FF05C0E2FF400EE66E11D02C
:10080C0004C0E1FF05C0E2FF880EE66E040E04187A
:10081C00006E00C004F004C0E1FF05C0E2FFC80E8A
:04082C00E66E120062
:10083000000E00018C5D02E1080E8B5D10E28BC0A2
:1008400003F08CC004F0A051000A03E1010EA06F78
:1008500005D0A051010A02E1020EA06F04D0080EDB
:10086000036E000E046E93C0E1FF94C0E2FFE692B7
:1008700093C0E1FF94C0E2FFE69093C0E9FF94C00B
:10088000EAFFEECF00F093C0E1FF94C0E2FF045016
:100890000010E66E010E9325E16E000E9421E26ECB
:1008A00003C0E6FF03508B5D006E04508C59016E4F
:1008B00000C08BF001C08CF0280E826F040E836F95
:1008C0008AB12FD0035004102BE087C0F6FF88C0F8
:1008D000F7FF89C0F8FF0900F5CF00F082C0E1FF03
:1008E00083C0E2FF00C0E6FF824B832B010E872509
:1008F000006E000E8821016E000E8921026E00C07C
:1009000087F001C088F002C089F0010E035C006E20
:10091000000E0458016E00C003F001C004F0D2D7ED
:1009200024D00350041021E087C0E9FF88C0EAFF0B
:1009300082C0E1FF83C0E2FFEECFE6FF824B832B54
:10094000010E8725006E000E8821016E00C087F021
:1009500001C088F0010E035C006E000E0458016EA9
:0C09600000C003F001C004F0DCD712005E
:10096C00025006180E6E086A096A0B6A0350076477
:10097C00A9EF05F006500A6E068E028E03500B6E20
:10098C000750036E000E0B64F9EF04F00B50075E7A
:10099C00D8B49AEF05F0070E076468EF05F0075E10
:1009AC0000C008F001C000F002C001F0026A074E5E
:1009BC009AEF05F007643DEF05F0075E00C008F004
:1009CC0001C000F0016A074E9AEF05F007641BEFB7
:1009DC0005F0075E00C008F0006A074E9AEF05F0BC
:1009EC00076402EF05F00AC002F005C001F004C074
:1009FC0000F0086AC6EF06F0030E07640DEF05F071
:100A0C00075E08380F0B086E074E9AEF05F0D8906A
:100A1C000832074E9AEF05F0D8900832074E9AEF3D
:100A2C0005F0D89008329AEF05F0030E07642CEF0E
:100A3C0005F0075E08380F0B086E0038F00B08261F
:100A4C0000380F0B006E074E9AEF05F0D89000326D
:100A5C000832074E9AEF05F0D89000320832074E54
:100A6C009AEF05F0D890003208329AEF05F0030E99
:100A7C00076454EF05F0075E08380F0B086E00385A
:100A8C00F00B082600380F0B006E0138F00B002617
:100A9C0001380F0B016E074E9AEF05F0D89001321A
:100AAC0000320832074E9AEF05F0D890013200322E
:100ABC000832074E9AEF05F0D89001320032083216
:100ACC009AEF05F0030E076485EF05F0075E083812
:100ADC000F0B086E0038F00B082600380F0B006E59
:100AEC000138F00B002601380F0B016E0238F00BA9
:100AFC00012602380F0B026E074E9AEF05F0D890C4
:100B0C000232013200320832074E9AEF05F0D890CB
:100B1C000232013200320832074E9AEF05F0D890BB
:100B2C000232013200320832096A000E0EAE8EEF2C
:100B3C0006F0081E001E011E021E082A00220122B9
:100B4C0002228EEF06F00750D8A4AFEF05F0C6EFE7
:100B5C0006F0096A02C00AF0028E068E0750035C8A
:100B6C00076ED8B481EF06F0070E07644FEF06F05E
:100B7C00075E0450096E0550046E0650056E066A39
:100B8C00074E81EF06F0070E076424EF06F0075EB0
:100B9C000450096E0550046E056A074E81EF06F08D
:100BAC00070E076402EF06F0075E0450096E046A34
:100BBC00074E81EF06F0070E0764E9EF05F00AC057
:100BCC0002F0C6EF06F0030E0764F4EF05F0075EC3
:100BDC0009380F0B096E074E81EF06F0D8900932D9
:100BEC00074E81EF06F0D8900932074E81EF06F0E0
:100BFC00D890093281EF06F0030E076413EF06F06C
:100C0C00075E09380F0B096E0438F00B09260438FF
:100C1C000F0B046E074E81EF06F0D89004320932A8
:100C2C00074E81EF06F0D89004320932074E81EF5F
:100C3C0006F0D8900432093281EF06F0030E0764F7
:100C4C003BEF06F0075E09380F0B096E0438F00B0A
:100C5C00092604380F0B046E0538F00B04260538F2
:100C6C000F0B056E074E81EF06F0D890053204325B
:100C7C000932074E81EF06F0D89005320432093262
:100C8C00074E81EF06F0D89005320432093281EF1D
:100C9C0006F0030E07646CEF06F0075E09380F0BC5
:100CAC00096E0438F00B092604380F0B046E053856
:100CBC00F00B042605380F0B056E0638F00B0526D5
:100CCC0006380F0B066E074E81EF06F0D8900632F1
:100CDC00053204320932074E81EF06F0D890063205
:100CEC00053204320932074E81EF06F0D8900632F5
:100CFC00053204320932086A000E0EAE8EEF06F091
:100D0C00091E041E051E061E092A0422052206229F
:100D1C0009500826045000220550012206500222D8
:100D2C000EBEA5EF06F0D8A0B4EF06F002320132E9
:100D3C0000320832033EB4EF06F0C0EF06F0D8B034
:100D4C00BAEF06F0000E081E001E011E021E082A35
:100D5C000022012202220A7EBAEF06F0010E0C6E6E
:100D6C00C6EC00F0C8EF06F0020E0C6EC6EC00F0FC
:100D7C00C8EF06F0040E0C6E86EC00F0C8EF06F01F
:060D8C00000E0C6E1200C7
:100D92000401286B296B4AD000018A8F0401288143
:100DA20000017F51010A02E10401288354D00001AD
:100DB2008A8F51D000018A8F040124BF16D024C427
:100DC20003F00F0E031603C000F0000E016E003692
:100DD20000900136710E0024E96E000E0120EA6EC9
:100DE200EECF04F0EECF05F015D024C403F00F0EC1
:100DF200031603C000F0000E016E003600900136AB
:100E0200930E0024E96E000E0120EA6EEECF04F08C
:100E1200EECF05F004C0E9FF05C0EAFFEECF01F016
:100E220001A403D00401010E286F15D020C401F0E3
:100E32001F0E01160150000AAFE020C401F01F0E80
:100E420001160150010AB3E020C401F01F0E011681
:100E52000150020AAFE000018AAF07D0280E876F67
:0C0E6200040E886F8A81020E8B6F120054
:100E6E0077C17BF1AEEC00F0005252E047D0006A41
:100E7E006ED0010E006E6BD0020E006E68D0030EA7
:100E8E00775D13E278C17BF177C17CF199EC00F0CC
:100E9E00005202E0006A5BD07751010A03E1020EB4
:100EAE00006E55D0010E006E52D0060E775D13E225
:100EBE0078C17BF177C17CF199EC00F0005203E030
:100ECE00010E006E44D07751040A02E1006A3FD051
:100EDE00020E006E3CD078C17BF177C17CF199ECAB
:100EEE0000F0005203E0020E006E31D07751070A77
:100EFE0002E1006A2CD0010E006E29D07751000A53
:100F0E00B6E07751030AB5E07751060AB5E0B7D7D8
:100F1E007751090A04E077510C0A01E002D0006A09
:100F2E0016D077510A0A04E077510D0A01E003D07A
:100F3E00020E006E0CD077510B0A04E077510E0AA8
:100F4E0001E003D0010E006E02D0FF0E006E120003
:100F5E0077C1E1FF78C1E2FF010EE66E010E0101DD
:100F6E007725E16E000E7821E26EE66A020E772595
:100F7E00E16E000E7821E26EE66A030E7725E16ED1
:100F8E00000E7821E26EE66A040E7725E16E000E01
:100F9E007821E26EE66A050E7725E16E000E782165
:100FAE00E26EE66A05014491120E01017725E16EAB
:100FBE00000E7821E26EE66A130E7725E16E000EC2
:100FCE007821E26EE66A0501409540914093409784
:100FDE0051915193140E01017725E16E000E782187
:100FEE00E26EE66A0501409B4099408D150E0101A7
:100FFE007725E16E000E7821E26EE66A160E7725F1
:10100E00E16E000E7821E26EE66A05014191170E3F
:10101E0001017725E16E000E7821E26EE66A180E68
:10102E007725E16E000E7821E26EE66A05014197A2
:10103E00190E01017725E16E000E7821E26EE66A47
:10104E001C0E7725E16E000E7821E26EE66A1D0E0B
:10105E007725E16E000E7821E26EE66A1A0E77258C
:10106E00E16E000E7821E26EE66A1B0E7725E16EC8
:10107E00000E7821E26EE66A05014199419F838256
:10108E0043818390439381A002D083944395839EA2
:0C109E00429F839A429D839C429B12005B
:0E10AA0077C17BF178C17CF1B6EC00F012004A
:1010B80001017751010A07E07751040A04E07751EA
:1010C800070A01E003D0010E006E01D0006A120089
:1010D800086A096A100E0C6E013408360936045085
:1010E800085E0550D8A0053C095ED8B007D004506A
:1010F80008260550D8B0053C0926D8900036013698
:061108000C2EEAD71200D4
:10110E003E4A3F2A030E3F5C02E1E80E3E5C30E3AE
:10111E003E6A3F6A77C103F078C104F077C1E9FFF8
:10112E0078C1EAFFEECF00F0EECF01F0004A012ABF
:10113E0077C1E1FF78C1E2FF00C0E6FF01C0E6FF24
:10114E0003C0E9FF04C0EAFFEECF01F0EECF02F0DC
:10115E0001017A51025C02E17951015C09E377C128
:10116E00E1FF78C1E2FFE66AE66A010E006E01D089
:04117E00006A1200F1
:10118200010E00018E25E96E000E8F21EA6EEECF70
:1011920000F000C002F0000E9B5D02E102509A5D79
:1011A20003E29AC002F00AD002509A5D006E000E6D
:1011B2009B59016E00C09AF001C09BF0036A025075
:1011C200035C1CE2280EE96E040EEA6E0350E92667
:1011D200D8B0EA2AEECF00F097C0E1FF98C0E2FF54
:1011E20000C0E6FF010E9725006E000E9821016EE9
:1011F20000C097F001C098F0032AE1D7000E006EFC
:101202009B51005C02E19A51000828E2010E9125EF
:10121200E16E000E9221E26E080EE66E020E91253C
:10122200E16E000E9221E26E280EE66E040EE66E6C
:101232008EC0E9FF8FC0EAFFEECF00F000BC07D0FE
:1012420091C0E1FF92C0E2FFC80EE66E06D091C0E7
:10125200E1FF92C0E2FF880EE66E19D0010E9125E1
:10126200E16E000E9221E26E080EE66E020E9125EC
:10127200E16E000E9221E26E200EE66E040EE66E24
:1012820091C0E1FF92C0E2FF840EE66E999F1200C8
:101292006D9800018ABF49D099AF28D0020E866F9F
:1012A200010E9325E16E000E9421E26EE66A93C070
:1012B200E1FF94C0E2FFC80EE66E010E9125E16ED9
:1012C200000E9221E26E080EE66E020E9125E16E8C
:1012D200000E9221E26E280EE66E040EE66E91C0BA
:1012E200E1FF92C0E2FFC80EE66E1ED0010E91250C
:1012F200E16E000E9221E26E080EE66E020E91255C
:10130200E16E000E9221E26E200EE66E040EE66E93
:1013120091C0E1FF92C0E2FF8C0EE66E93C0E1FF46
:1013220094C0E2FF840EE66E83D099BF81D004019F
:1013320020AF56D000018C510401275D04E1000169
:101342008B510401265D04E226C48BF027C48CF085
:1013520018EC04F0010E866F010E9125E16E000E6D
:101362009221E26E080EE66E020E9125E16E000EEB
:101372009221E26E200EE66E040EE66E91C0E1FF4F
:1013820092C0E2FF800EE66E5E6A010E8E25E16E6D
:10139200000E8F21E26E080EE66E020E8E25E16EC1
:1013A200000E8F21E26E200EE66E040EE66E8EC0F7
:1013B200E1FF8FC0E2FF840EE66E010E5E6E020E4A
:1013C2009325E16E000E9421E26E280EE66E040E65
:1013D200E66E93C0E1FF94C0E2FFC80EE66E28D02D
:1013E2000001020E866F010E9325E16E000E94211C
:1013F200E26EE66A93C0E1FF94C0E2FFC80EE66EB9
:10140200010E9125E16E000E9221E26E080EE66E4B
:10141200020E9125E16E000E9221E26E280EE66E1A
:10142200040EE66E91C0E1FF92C0E2FFC80EE66EC6
:021432001200A6
:101434000001866B93C0E1FF94C0E2FFE66A040EEC
:101444009319E16E94C0E2FF000EE21AE66A99AFC6
:0614540001D0999F120077
:10145A0072C104F0000E056ECB50010F006E016AD6
:10146A00000E01221BEC02F0640E046E000E056EE3
:10147A002EDE00C073F101C074F1000E026E01503D
:10148A00025C02E10050FF0805E2FF0E0101736FE2
:10149A00000E746F010173A102D0BA8801D0BA9804
:1014AA0073A302D0BA8A01D0BA9A73C1BBFF1200E1
:1014BA000D0E0001DE6F4B0EDF6F000EE06F810E26
:1014CA00E16F4B0EE26F000EE36FE30EE46F4A0E1C
:1014DA00E56F000EE66FB90EE76F4A0EE86F000E71
:0414EA00E96F120094
:1014EE00086A096A000E07620364FCEF0AF00250F4
:1014FE0006180A6E075003267E0ED8A08DEF0AF04E
:10150E00035ED8B001EF0BF091EF0AF0035ED8A0A6
:10151E0006EF0BF0028E068E02C00EF001C00BF02D
:10152E0000C00DF000500402F4CF0CF00150050283
:10153E00F4CF00F0F3CF08F00402F3500C26F45071
:10154E000822000E00220D500502F3500C26F45016
:10155E000822000E002202500402F3500826F45016
:10156E00002202500502016A000E0122F3500026ED
:10157E00F45001220D500602F3500826F4500022BA
:10158E00026A000E012202220B500602F3500026C0
:10159E00F4500122000E02220E500602F3500126D4
:1015AE00F450022202BEE4EF0AF00836003601368D
:1015BE0002360306D8B406EF0BF0F7EF0AF0D88028
:1015CE00800E08640030000E002201220222D8A0F4
:1015DE00F7EF0AF0023201320032034A01EF0BF04C
:1015EE000AAE029E000E09EF0BF0010E92EC00F017
:1015FE0009EF0BF0020E86EC00F009EF0BF0040E73
:06160E0075EC00F0120073
:10161400570E006E4B0E016E000E026E0E0E00246D
:10162400F66E000E0120F76E000E0220F86E09001F
:10163400F5CF03F003C004F00F0E0024F66E000E85
:101644000120F76E000E0220F86E0900F5CF01F0BC
:101654000150035C12E2570E006E4B0E016E000E39
:10166400026E0F0E0024F66E000E0120F76E000EBF
:101674000220F86E0900F5CF04F0570E006E4B0EF1
:10168400016E000E026E100E0024F66E000E012094
:10169400F76E000E0220F86E0900F5CF01F001503C
:1016A400045C12E2570E006E4B0E016E000E026EC9
:1016B400100E0024F66E000E0120F76E000E0220BC
:0E16C400F86E0900F5CF04F004C000F012002B
:1016D20020C401F0600E0116050E006E005004E0F9
:1016E2000132019EFF0FFBD70150000A01E062D0D8
:1016F2003ED000018A8F080E856F5CD0F0EC02F0BC
:1017020059D0E0EC02F056D00001840E876F000E33
:10171200886F8A81010E8B6F8A8F4CD0C9EC06F0DC
:1017220049D06EEC03F046D08D0E006E000E016EB5
:10173200040124510026D8B0012A00C087F001C05C
:1017420088F000018A81010E8B6F8A8F33D00001ED
:101752008A8F8D0EE16E000EE26E04012451E126A5
:10176200D8B0E22A22C4E6FF25D024D023D0040137
:101772002151050ABEE02151060AC0E02151090AA1
:10178200C0E02151080AC0E02151000AC7E02151FE
:10179200010AC7E02151030AC4E021510A0AC4E048
:1017A20021510B0AD4E02151070ADFE021510C0A32
:0617B200DDE0DCD71200AF
:0E17B800160E6F6E9F0E6B6E3B0E696E12006A
:0A17C6005F5202E043EC02F0120053
:1017D000140E01017225746F000E7321756F5ED0B7
:1017E00005014099409B409D120E01017225E96E52
:1017F000000E7321EA6EEE50190A08E1140E7225EC
:10180000E16E000E7321E26E050EE66E6BD00101F3
:10181000050E7225E96E000E7321EA6EEECF7BF1A4
:1018200006C57CF199EC00F0005203E00501408F01
:1018300002D00501409F140E01017225E16E000ED9
:101840007321E26E0A0EE66E4DD00501408B00ABAF
:1018500009D0140E01017225E16E000E7321E26EB3
:101860000F0EE66E3FD0050100B909D0140E01013C
:101870007225E16E000E7321E26E140EE66E32D018
:10188000050100A909D0140E01017225E16E000EB8
:101890007321E26E190EE66E25D024D074C1E9FFE3
:1018A00075C1EAFFEE50000A9BE074C1E9FF75C103
:1018B000EAFFEE50050AABE074C1E9FF75C1EAFF2B
:1018C000EE500A0AC2E074C1E9FF75C1EAFFEE50AA
:1018D0000F0AC9E074C1E9FF75C1EAFFEE50140AAE
:0618E000CFE0DBD712008F
:1018E600150E01017225746F000E7321756F0DD1EF
:1018F60005014191160E01017225E16E000E73215C
:10190600E26EE66A05010451000812E2140E0101B6
:101916007225E96E000E7321EA6EEE50190A08E18F
:10192600150E7225E16E000E7321E26E030EE66E51
:1019360012D104C577F15CEC08F00052D8A4A0D00F
:1019460006C57BF1AEEC00F000523DE0050E7225B7
:10195600016E000E7321026E01C0E9FF02C0EAFFAC
:10196600EE50010F006E01C0E1FF02C0E2FF00C0B1
:10197600E6FF01C0E9FF02C0EAFF020EEE5C1AE3D1
:10198600040E7225016E000E7321026E01C0E9FF7E
:1019960002C0EAFFEE50010F006E01C0E1FF02C077
:1019A600E2FF00C0E6FF050E7225E16E000E732110
:1019B600E26EE66A1C0E7225E16E000E7321E26E7F
:1019C600010EE66E1AD0040E7225016E000E73210A
:1019D600026E01C0E9FF02C0EAFFEE50010F006E81
:1019E60001C0E1FF02C0E2FF00C0E6FF1C0E722547
:1019F600E16E000E7321E26EE66A05010451020AE9
:101A060007E00451050A04E00451080A01E012D077
:101A1600180E01017225E16E000E7321E26E010EB1
:101A2600E66E1D0E7225E16E000E7321E26E010E4A
:101A3600E66E0FD00101180E7225E16E000E7321BD
:101A4600E26EE66A1D0E7225E16E000E7321E26EED
:101A5600E66A120E7225E16E000E7321E26EE66AE8
:101A6600140E7225E16E000E7321E26EE66A150E03
:101A76007225E16E000E7321E26E050EE66E08D049
:101A8600150E7225E16E000E7321E26E0F0EE66EE4
:101A960062D00501418100AD12D0160E01017225FA
:101AA600E16E000E7321E26E010EE66E170E7225D0
:101AB600E16E000E7321E26E050EE66E18D001018E
:101AC600160E7225E96E000E7321EA6EEE520FE0D5
:101AD600160E7225E16E000E7321E26EE66A150E91
:101AE6007225E16E000E7321E26E0A0EE66E33D0A9
:101AF60005014191150E01017225E16E000E73215B
:101B0600E26EE66A28D027D026D074C1E9FF75C1F7
:101B1600EAFFEE50000AD8B4EBD674C1E9FF75C1EE
:101B2600EAFFEE50030AD8B404D774C1E9FF75C1C1
:101B3600EAFFEE50050AADE074C1E9FF75C1EAFFA0
:101B4600EE500A0AD5E074C1E9FF75C1EAFFEE500E
:081B56000F0AD9E0D9D71200F3
:101B5E000C6A0E6A0250D8A4C8EF0DF001C002F054
:101B6E0000C001F0006A0E860250D8A4C8EF0DF036
:101B7E0001C002F0016A0E960E880250D8B4DAEF58
:101B8E000DF00E50035ED8A4D8A0E0EF0DF0D89063
:101B9E0002BEE6EF0DF0003601360236032ECFEF11
:101BAE000DF0E0EF0DF0010E0C6E92EC00F0EAEF8E
:101BBE000DF0020E0C6E75EC00F0EAEF0DF0040E57
:081BCE000C6E82EC00F0120025
:101BD600120E01017225756F000E7321766FD2D039
:101BE6000501409540914093409751915193010EC4
:101BF60001017225E96E000E7321EA6EEECF00F048
:101C0600005215E1020E7225E96E000E7321EA6E8E
:101C1600EECF00F000520BE1030E7225E96E000EC6
:101C26007321EA6EEECF00F0005201E110D0030EF0
:101C36007225E16E000E7321E26E010EE66E120E43
:101C46007225E16E000E7321E26E050EE66EC1D0BE
:101C5600040E7225E96E000E7321EA6E0501075126
:101C6600EE5C0AE2120E01017225E16E000E73218E
:101C7600E26E0A0EE66E08D00101120E7225E16EC2
:101C8600000E7321E26EE66AA4D006C577F1050E52
:101C96007225E96E000E7321EA6EEECF78F137EC0D
:101CA60007F000C074F10050FF0A35E07451000AD5
:101CB60010E10501408100A10BD040915181120E27
:101CC60001017225E16E000E7321E26E0F0EE66EC3
:101CD60022D001017451010A10E10501408300A3DD
:101CE6000BD040935183120E01017225E16E000E56
:101CF6007321E26E0F0EE66E0ED00501408500A53B
:101D06000AD04095120E01017225E16E000E732174
:101D1600E26E0F0EE66E5DD00501408700A70AD081
:101D2600130E01017225E16E000E7321E26E010EA3
:101D3600E66E18D00101130E7225E96E000E7321AE
:101D4600EA6EEE520FE0130E7225E16E000E73215D
:101D5600E26EE66A120E7225E16E000E7321E26EE5
:101D6600140EE66E36D00501409751915193120E2E
:101D760001017225E16E000E7321E26E190EE66E08
:101D860028D027D075C1E9FF76C1EAFFEE50000AD8
:101D9600D8B426D775C1E9FF76C1EAFFEE50050A29
:101DA600D8B456D775C1E9FF76C1EAFFEE500A0AE4
:101DB600D8B46BD775C1E9FF76C1EAFFEE500F0ABA
:101DC600ABE075C1E9FF76C1EAFFEE50140ACBE03D
:041DD600D8D7120048
:101DDA00838C0501428B409D060E01017225776FA7
:101DEA00000E7321786F010E796F000E7A6F87ECFF
:101DFA0008F0005203E083720501437181B620D0D6
:101E0A000501408941934195419D419B42934291ED
:101E1A004299429742950A0E01017225776F000E88
:101E2A007321786F010E796F000E7A6F87EC08F0D4
:101E3A00005205E072C1E1FF73C1E2FFE66A09D010
:101E4A000A0E01017225776F000E7321786F55EC27
:041E5A0008F012007A
:101E5E00190E01017225036E000E7321046E86D2D7
:101E6E000501419D419B429342914199419F429967
:101E7E004295429734D31D0E01017225E96E000E74
:101E8E007321EA6EEE5209E0190E7225E16E000E14
:101E9E007321E26E0A0EE66E08D0190E7225E16EFF
:101EAE00000E7321E26E640EE66E19D305014189B0
:101EBE001C0E01017225E96E000E7321EA6EEE52C0
:101ECE0009E0190E7225E16E000E7321E26E1E0EF0
:101EDE00E66E08D0190E7225E16E000E7321E26EC9
:101EEE000F0EE66EFCD20501418B01AB0AD01A0E25
:101EFE0001017225E16E000E7321E26E010EE66E97
:101F0E0018D001011A0E7225E96E000E7321EA6EC9
:101F1E00EE520FE01A0E7225E16E000E7321E26E84
:101F2E00E66A190E7225E16E000E7321E26EC80E7E
:101F3E00E66ED5D2050101AB0AD01A0E010172254B
:101F4E00E16E000E7321E26E010EE66E18D00101F5
:101F5E001A0E7225E96E000E7321EA6EEE520FE034
:101F6E001A0E7225E16E000E7321E26EE66A190EEC
:101F7E007225E16E000E7321E26E230EE66EAFD275
:101F8E0005014199418D01AF09D0190E010172254C
:101F9E00E16E000E7321E26E820EE66EA0D2050196
:101FAE00418F1C0E01017225E96E000E7321EA6E3F
:101FBE00EE5209E0190E7225E16E000E7321E26EEB
:101FCE00780EE66E08D0190E7225E16E000E7321A2
:101FDE00E26E690EE66E83D20501428102A10AD03D
:101FEE001B0E01017225E16E000E7321E26E010ED1
:101FFE00E66E18D001011B0E7225E96E000E7321DC
:10200E00EA6EEE520FE01B0E7225E16E000E73218A
:10201E00E26EE66A190E7225E16E000E7321E26E13
:10202E00C80EE66E5CD2050102A10AD01B0E01019C
:10203E007225E16E000E7321E26E010EE66E18D06F
:10204E0001011B0E7225E96E000E7321EA6EEE522F
:10205E000FE01B0E7225E16E000E7321E26EE66A32
:10206E00190E7225E16E000E7321E26E790EE66E88
:10207E0036D20501419F428302A509D0190E0101F6
:10208E007225E16E000E7321E26E820EE66E27D28D
:10209E00050101AF0BD002A509D0190E0101722561
:1020AE00E16E000E7321E26E870EE66E18D2050108
:1020BE00428702A90AD01A0E01017225E16E000EA6
:1020CE007321E26E010EE66E18D001011A0E722512
:1020DE00E96E000E7321EA6EEE520FE01A0E7225B3
:1020EE00E16E000E7321E26EE66A190E7225E16E44
:1020FE00000E7321E26E8C0EE66EF1D1050142895F
:10210E0002AB09D0190E01017225E16E000E73218A
:10211E00E26E910EE66EE3D10501419D01BF09D03D
:10212E00190E01017225E16E000E7321E26E960EFC
:10213E00E66ED5D10501429702A90AD01A0E010109
:10214E007225E16E000E7321E26E010EE66E18D05E
:10215E0001011A0E7225E96E000E7321EA6EEE521F
:10216E000FE01A0E7225E16E000E7321E26EE66A22
:10217E00190E7225E16E000E7321E26E9B0EE66E55
:10218E00AED10501428502A70AD01B0E01017225B0
:10219E00E16E000E7321E26E010EE66E18D00101A3
:1021AE001B0E7225E96E000E7321EA6EEE520FE0E1
:1021BE001B0E7225E16E000E7321E26EE66A190E99
:1021CE007225E16E000E7321E26EA00EE66E87D1CF
:1021DE0005014287429302A90AD01B0E0101722506
:1021EE00E16E000E7321E26E010EE66E18D0010153
:1021FE001B0E7225E96E000E7321EA6EEE520FE091
:10220E001B0E7225E16E000E7321E26EE66A190E48
:10221E007225E16E000E7321E26EA50EE66E5FD1A1
:10222E0005014299190E01017225E16E000E73210E
:10223E00E26EAA0EE66E53D10501429702A90AD0AC
:10224E001B0E01017225E16E000E7321E26E010E6E
:10225E00E66E18D001011B0E7225E96E000E732179
:10226E00EA6EEE520FE01B0E7225E16E000E732128
:10227E00E26EE66A190E7225E16E000E7321E26EB1
:10228E00AF0EE66E2CD105014281418F4295190E9B
:10229E0001017225E16E000E7321E26EC80EE66E2C
:1022AE001ED1050102BD09D0190E01017225E16E84
:1022BE00000E7321E26ECD0EE66E11D10101040EF9
:1022CE007225016E000E7321026E01C0E9FF02C07D
:1022DE00EAFFEECF48F501C0E9FF02C0EAFF0501B3
:1022EE000751EE5C0BE34481190E01017225E16E7C
:1022FE00000E7321E26ED20EE66E08D00101190EA9
:10230E007225E16E000E7321E26EE66AE8D00501D9
:10231E000751000A29E14491040E01017225E16E74
:10232E00000E7321E26EE66A030E7225E16E000E58
:10233E007321E26EE66A0501486B020E01017225F9
:10234E00E96E000E7321EA6EEE5207E0020E722560
:10235E00E16E000E7321E26EE66A190E7225E16ED1
:10236E00000E7321E26EE66ABAD0B9D003C0E9FF5F
:10237E0004C0EAFFEE50000AD8B472D503C0E9FFDC
:10238E0004C0EAFFEE50050AD8B475D503C0E9FFC4
:10239E0004C0EAFFEE500A0AD8B488D503C0E9FF9C
:1023AE0004C0EAFFEE500F0AD8B49DD503C0E9FF72
:1023BE0004C0EAFFEE501E0AD8B4BCD503C0E9FF34
:1023CE0004C0EAFFEE50230AD8B4DAD503C0E9FF01
:1023DE0004C0EAFFEE50640AD8B4E1D503C0E9FFA9
:1023EE0004C0EAFFEE50690AD8B4F6D503C0E9FF7F
:1023FE0004C0EAFFEE50780AD8B415D603C0E9FF40
:10240E0004C0EAFFEE50790AD8B433D603C0E9FF10
:10241E0004C0EAFFEE50820AD8B43AD603C0E9FFF0
:10242E0004C0EAFFEE50870AD8B441D603C0E9FFD4
:10243E0004C0EAFFEE508C0AD8B460D603C0E9FFA0
:10244E0004C0EAFFEE50910AD8B466D603C0E9FF85
:10245E0004C0EAFFEE50960AD8B46CD603C0E9FF6A
:10246E0004C0EAFFEE509B0AD8B48BD603C0E9FF36
:10247E0004C0EAFFEE50A00AD8B4AAD603C0E9FF02
:10248E0004C0EAFFEE50A50AD8B4CAD603C0E9FFCD
:10249E0004C0EAFFEE50AA0AD8B4CED603C0E9FFB4
:1024AE0004C0EAFFEE50AF0AD8B4EDD603C0E9FF80
:1024BE0004C0EAFFEE50C80AD8B4F3D603C0E9FF51
:1024CE0004C0EAFFEE50CD0AD8B4F8D603C0E9FF37
:1024DE0004C0EAFFEE50D20AD8B419D746D712007C
:1024EE00170E01017225026E000E7321036E7AD053
:1024FE000501419341954197B1D005014187170ED2
:10250E0001017225E16E000E7321E26E0A0EE66E77
:10251E00A5D0180E7225E96E000E7321EA6EEE52EA
:10252E000DE0050100AF09D0170E01017225E16E15
:10253E00000E7321E26E0F0EE66E0CD0050101A5A2
:10254E0009D0170E01017225E16E000E7321E26EA5
:10255E00190EE66E83D005014197418301A309D080
:10256E00170E01017225E16E000E7321E26E140E3C
:10257E00E66E74D005014193170E01017225E16ECE
:10258E00000E7321E26E230EE66E68D005014197B0
:10259E00418501A909D0170E01017225E16E000EC9
:1025AE007321E26E1E0EE66E59D005014195170E8F
:1025BE0001017225E16E000E7321E26E230EE66EAE
:1025CE004DD0170E7225E16E000E7321E26EE66A93
:1025DE00190E7225E16E000E7321E26E050EE66E87
:1025EE003DD03CD002C0E9FF03C0EAFFEE50000A26
:1025FE00D8B47ED702C0E9FF03C0EAFFEE50050A49
:10260E00D8B47BD702C0E9FF03C0EAFFEE500A0A36
:10261E00D8B47FD702C0E9FF03C0EAFFEE500F0A1D
:10262E009AE002C0E9FF03C0EAFFEE50140AA2E0EE
:10263E0002C0E9FF03C0EAFFEE50190AA7E002C08C
:10264E00E9FF03C0EAFFEE501E0AAFE002C0E9FF49
:0E265E0003C0EAFFEE50230AB4E0C3D7120017
:10266C000A6A0350D8A40A800750D8A40A820A50D8
:10267C00D8B499EF13F0030AD8B452EF13F00AB0A0
:10268C004DEF13F006AE97EF13F095EF13F002AE8B
:10269C0095EF13F097EF13F00250800B0A6E029E29
:1026AC000650800B069E0A18D8B463EF13F00A503C
:1026BC00D8B495EF13F097EF13F00750035CD8B430
:1026CC006DEF13F0D8A089EF13F08FEF13F00650D5
:1026DC00025CD8B477EF13F0D8A089EF13F08FEF2A
:1026EC0013F00550015CD8B481EF13F0D8A089EF3A
:1026FC0013F08FEF13F00450005CD8B499EF13F083
:10270C00D8B08FEF13F00A52D8B497EF13F095EFBF
:10271C0013F00A52D8B495EF13F097EF13F0D8805A
:0E272C001200D8901200D880D884120012003B
:10273A00839205014391839C429B81B20CD0010E86
:10274A0001017225E16E000E7321E26EE66A839E34
:10275A000501429F2BD081B429D081B814D0010E33
:10276A0001017225E16E000E7321E26E010EE66E22
:10277A00020E7225E16E000E7321E26EE66A838E06
:10278A000501428F13D0020E01017225E16E000E7F
:10279A007321E26E010EE66E010E7225E16E000EE5
:1027AA007321E26EE66A839E0501429F030E0101D0
:1027BA007225E96E000E7321EA6EEECF00F0005228
:1027CA000AE1050109A102D04385838483904393DA
:1027DA00838A428D09D0050109A102D083944395C9
:0A27EA0083804383839A429D12000E
:1027F400020E01017225036E000E7321046E03C0E4
:10280400E9FF04C0EAFF010EEE24006E000EEE2084
:10281400016E03C0E1FF04C0E2FF00C0E6FF01C097
:10282400E6FF03C0E9FF04C0EAFFEECF01F0EECFFC
:1028340002F07551025C02E17451015C0BE3020E7B
:102844007225E16E000E7321E26EE66AE66A010EFD
:08285400006E01D0006A1200C1
:08285C00067EB6EC04F0120048
:1028640072C104F0000E056ECB50010F006E016AB8
:10287400000E01221BEC02F0640E046E000E056EC5
:102884006CEC08F000C073F101C074F1000E026E2C
:102894000150025C02E10050FF0805E2FF0E010155
:1028A400736F000E746F010173A102D0BD8801D053
:1028B400BD9873A302D0BD8A01D0BD9A73C1BEFF77
:0228C400120000
:1028C600050109B119D072C177F173C178F1AFEC86
:1028D60007F00E0E01017225776F000E7321786FD7
:1028E600010E796F000E7A6F87EC08F0005203E054
:1028F60005014375837411D072C1E9FF73C1EAFF04
:10290600EECF00F0005209E0040E01017225E16EDF
:0C291600000E7321E26E0AC5E6FF1200FD
:102922000101516B526B536B020E4E25F66E000E77
:102932004F21F76E000E5021F86E0900F5CF05F019
:10294200030E4E25F66E000E4F21F76E000E50213B
:10295200F86E0900F5CF00F000C003F0000E046E1F
:1029620003C001F0006A05500024066E000E01202B
:10297200076E4EC108F04FC109F050C10AF0010EB6
:102982000824F66E000E0920F76E000E0A20F86E7B
:102992000900F5CF01F00150020A1BE1060E0824DE
:1029A200F66E000E0920F76E000E0A20F86E09007E
:1029B200F5CF01F00150515D0CE2060E0824F66ECF
:1029C200000E0920F76E000E0A20F86E0900F5CFFE
:1029D20051F1010E0824F66E000E0920F76E000E6A
:1029E2000A20F86E0900F5CF01F00150040A1BE13C
:1029F200080E0824F66E000E0920F76E000E0A205B
:102A0200F86E0900F5CF01F00150515D0CE2080E9D
:102A12000824F66E000E0920F76E000E0A20F86EEA
:102A22000900F5CF51F108C0F6FF09C0F7FF0AC04F
:102A3200F8FF0900F5CF00F000505225016E000E9C
:102A42005321026E01C052F102C053F10750025CE1
:102A520002E10650015C01E30FD008C0F6FF09C095
:102A6200F7FF0AC0F8FF0900F5CF00F00050082672
:0E2A7200000E09220A2283D751C100F0120083
:102A80000B800BAE4CEF15F0026A0AAEFF0E026E21
:0C2A9000016E006E0A360232FF0E1200CA
:0A2A9C00D08EA28AA08AF28E1200EA
:082AA6000B6A0B86FF0E120003
:102AAE0062C104F063C105F064C106F065C107F0B0
:102ABE005EC100F05FC101F060C102F061C103F0C0
:102ACE00C6DE00C066F101C067F102C068F103C046
:102ADE0069F159C004F05AC005F05BC006F05CC045
:102AEE0007F0B6EC04F000C059F001C05AF002C075
:102AFE005BF003C05CF000C004F001C005F002C042
:102B0E0006F003C007F04DC000F04EC001F04FC0FC
:102B1E0002F050C003F0A3DD010ED8B0000E006E1F
:102B2E00005208E04DC059F04EC05AF04FC05BF055
:102B3E0050C05CF0000E4D18046E000E4E18056E5F
:102B4E00800E4F18066E000E5018076E59C000F01A
:102B5E005AC001F05BC002F05CC003F080DD010ED4
:102B6E00D8B0000E006E00520CE0000E4D18596EDB
:102B7E00000E4E185A6E800E4F185B6E000E5018D7
:102B8E005C6E51C004F052C005F053C006F054C044
:102B9E0007F066C100F067C101F068C102F069C1BB
:102BAE0003F055DE55C004F056C005F057C006F0D0
:102BBE0058C007F077EC0AF000C06AF101C06BF163
:102BCE0002C06CF103C06DF155C004F056C005F0A3
:102BDE0057C006F058C007F0000E006E000E016ED2
:102BEE00000E026E7F0E036E32DE65C004F066C00C
:102BFE0005F067C006F068C007F077EC0AF06AC10E
:102C0E0004F06BC105F06CC106F06DC107F0B6ECB7
:102C1E0004F000C06EF101C06FF102C070F103C08C
:102C2E0071F166C151F067C152F068C153F069C1CC
:102C3E0054F06EC165F06FC166F070C167F071C17E
:102C4E0068F069C000F06AC001F06BC002F06CC0A1
:102C5E0003F066C104F067C105F068C106F069C1F2
:102C6E0007F077EC0AF000C06AF101C06BF102C008
:102C7E006CF103C06DF16DC000F06EC001F06FC05D
:102C8E0002F070C003F059C004F05AC005F05BC0EA
:102C9E0006F05CC007F077EC0AF06AC104F06BC175
:102CAE0005F06CC106F06DC107F0B6EC04F000C083
:102CBE006AF101C06BF102C06CF103C06DF161C02D
:102CCE0000F062C001F063C002F064C003F06EC198
:102CDE0004F06FC105F070C106F071C107F077EC1A
:102CEE000AF06AC104F06BC105F06CC106F06DC14B
:082CFE0007F0B6EC04F012002F
:102D0600E70E83148C6E5EC172F15FC173F1D8DD7C
:102D160081A007D05EC177F15FC178F1AFEC07F013
:102D260032D05EC1E9FF5FC1EAFFEECF00F000528C
:102D360007E05EC172F15FC173F1EDEC0EF023D0D6
:102D46005EC172F15FC173F1F5DC5EC172F15FC104
:102D560073F1EBEC0DF05EC172F15FC173F1E8EC5B
:102D66000BF05EC172F15FC173F173EC0CF05EC1E2
:102D760072F15FC173F177EC12F05EC172F15FC15F
:082D860073F12FEC0FF01200B5
:062D8E008C948C80120001
:102D94000501546B556B0101726B2DEC0AF00501B2
:102DA400526B536B0101726B5BDD8C90CF0E726FB3
:102DB400000E736FF40E746F010E756F19DD0052FF
:062DC400D8A48C7412007B
:102DCA000050086E0150006E016A026A036A0B6ABB
:102DDA000C6A960E036E0A6A00C001F008C000F081
:0A2DEA00086A026AAFEC0DF0120057
:102DF400BF0E8314006E009AF70E00148C6E800EC2
:0C2E04008310006E100E00108C6E120087
:102E10000501546B556B0101726B2DEC0AF0050135
:102E2000526B536B0101726B1DDD8C90D90E726F6A
:102E3000000E736FF40E746F010E756FDBDC0052C1
:062E4000D8A48C741200FE
:102E46000501486B076B5EC1E1FF5FC1E2FF010E42
:102E5600E66E010E01015E25E16E000E5F21E26E57
:102E6600E66A020E5E25E16E000E5F21E26EE66AFC
:102E7600030E5E25E16E000E5F21E26EE66A040E29
:102E86005E25E16E000E5F21E26EE66A050E5E25A6
:102E9600E16E000E5F21E26EE66A120E5E25E16EBD
:102EA600000E5F21E26EE66A130E5E25E16E000EED
:102EB6005F21E26EE66A140E5E25E16E000E5F216A
:102EC600E26EE66A150E5E25E16E000E5F21E26E89
:102ED600E66A160E5E25E16E000E5F21E26EE66A78
:102EE600170E5E25E16E000E5F21E26EE66A180E91
:102EF6005E25E16E000E5F21E26EE66A190E5E2522
:102F0600E16E000E5F21E26EE66A1C0E5E25E16E42
:102F1600000E5F21E26EE66A1D0E5E25E16E000E72
:102F26005F21E26EE66A1A0E5E25E16E000E5F21F3
:102F3600E26EE66A1B0E5E25E16E000E5F21E26E12
:042F4600E66A120025
:102F4A00FE0E8314006E0092F70E00148C6E040EAF
:0C2F5A008310006E100E00108C6E120030
:062F66008C948C80120027
:102F6C00BF0E8314006E009A0092FE0E00148C6E3D
:0E2F7C00800E8310006E040E00108C6E12008A
:102F8A008C908C928C848C9A8C9C8C8E8C968C884F
:022F9A00120023
:102F9C005DEC0AF07D6B7E6B806B816B6A6A686A94
:102FAC00DCEC0BF06D8C6E6A716A6D9C786B796BD6
:102FBC00000E795D02E1080E785D17E278C000F032
:102FCC0079C001F0003600900136003600900136D1
:102FDC00000E0024E16E040E0120E26EE66AE66A41
:102FEC00E66AE66A784B792BE3D7160E706E68A604
:102FFC0003D0F70E6816FBD78A6B996B9A6B9B6B99
:10300C006D98080E936F040E946F846B856B120091
:10301C0093C0E9FF94C0EAFFEECF00F000AE05D0FC
:10302C0093C0E1FF94C0E2FFE66A0001A06B866BDF
:10303C008B6B8C6B8A6B69EC0BF0E3EC0BF049EC53
:04304C0009F0120075
:04305000A19A12002F
:0A3054006984EF0E68166D82120009
:10305E0070A01CD08EC0E9FF8FC0EAFFEECF01F04A
:10306E000150800A12E193C0E9FF94C0EAFFEECF4F
:10307E0001F0000E000A02E1840E011806E18EC076
:10308E00E1FF8FC0E2FF8C0EE66E7090DF0E6816C9
:02309E0012001E
:1030A0000450000A12E10550000A0FE10650000A20
:1030B0000CE10750000A09E1FF0E006EFF0E016EE1
:1030C0007F0E026EFF0E036EA7D0086A096A0750D2
:1030D000D8B4FBEF18F00350D8B4FFEF18F002504B
:1030E00006180A6E028E068E0E6A02C008F001C033
:1030F0000CF000C00DF004500D5E0550D8A0053C4A
:103100000C5E0650D8A0063C085E086A0C6A0D6A80
:10311000D8A092EF18F0D890023201320032083273
:10312000010E0E6E0750035ED8A09FEF18F07E0EC2
:103130000E240326D8B004EF19F0A5EF18F07E0E88
:103140000E240326D8A009EF19F0180E0B6E0D36C9
:103150000C3608360036013602360E360450005E54
:103160000550D8A0053C015E0650D8A0063C025E82
:1031700006340E120EA0C0EF18F00D80CBEF18F041
:10318000045000260550D8B0053C01260650D8B0A2
:10319000062802260D900B2EA7EF18F0F1EF18F07D
:1031A000D8900036013602360E360450005E0550C7
:1031B000D8A0053C015E0650D8A0063C025E06344D
:1031C0000E10010B0D26D8B00C2AD8B4082AD8A4AA
:1031D000F1EF18F008320C320D32032AD8B404EFA4
:1031E00019F00AAE089E0850026E0C50016E0D5088
:1031F000006E0CEF19F0010E56DC0CEF19F0020E08
:1032000092EC00F00CEF19F0040E86EC00F00CEFDD
:0A32100019F0080E75EC00F0120032
:10321A000B6A0A6A096A086A0E6A03340836045095
:10322A00085E0550D8A0053C095E0650D8A0063CA9
:10323A000A5E0750D8A0073C0B5EE86AD8A0010EC8
:10324A000E5E0336070E0C6E0334083609360A364C
:10325A000B360E36045003A012D0085E0550D8A0D3
:10326A00053C095E0650D8A0063C0A5E0750D8A065
:10327A00073C0B5EE86AD8A0010E0E5E11D0082644
:10328A000550D8B0053C09260650D8B0063C0A2697
:10329A000750D8B0073C0B26E86AD8B0010E0E26B4
:1032AA0003360C2ED1D70234083609360A360B36C5
:1032BA000E36045003A012D0085E0550D8A0053C73
:1032CA00095E0650D8A0063C0A5E0750D8A0073C03
:1032DA000B5EE86AD8A0010E0E5E11D008260550D2
:1032EA00D8B0053C09260650D8B0063C0A26075035
:1032FA00D8B0073C0B26E86AD8B0010E0E26023673
:10330A00070E0C6E0234083609360A360B360E36AC
:10331A00045002A012D0085E0550D8A0053C095EF0
:10332A000650D8A0063C0A5E0750D8A0073C0B5EA0
:10333A00E86AD8A0010E0E5E11D008260550D8B052
:10334A00053C09260650D8B0063C0A260750D8B0D4
:10335A00073C0B26E86AD8B0010E0E2602360C2E60
:10336A00D1D70134083609360A360B360E360450E0
:10337A0002A012D0085E0550D8A0053C095E06508E
:10338A00D8A0063C0A5E0750D8A0073C0B5EE86A44
:10339A00D8A0010E0E5E11D008260550D8B0053C03
:1033AA0009260650D8B0063C0A260750D8B0073C72
:1033BA000B26E86AD8B0010E0E260136070E0C6EEF
:1033CA000134083609360A360B360E36045001A087
:1033DA0012D0085E0550D8A0053C095E0650D8A058
:1033EA00063C0A5E0750D8A0073C0B5EE86AD8A0E4
:1033FA00010E0E5E11D008260550D8B0053C0926EC
:10340A000650D8B0063C0A260750D8B0073C0B260F
:10341A00E86AD8B0010E0E2601360C2ED1D7003438
:10342A00083609360A360B360E36045001A012D079
:10343A00085E0550D8A0053C095E0650D8A0063C97
:10344A000A5E0750D8A0073C0B5EE86AD8A0010EB6
:10345A000E5E11D008260550D8B0053C0926065044
:10346A00D8B0063C0A260750D8B0073C0B26E86AB3
:10347A00D8B0010E0E260036070E0C6E0034083640
:10348A0009360A360B360E36045000A012D0085EF2
:10349A000550D8A0053C095E0650D8A0063C0A5E35
:1034AA000750D8A0073C0B5EE86AD8A0010E0E5E52
:1034BA0011D008260550D8B0053C09260650D8B0C8
:1034CA00063C0A260750D8B0073C0B26E86AD8B053
:1034DA00010E0E2600360C2ED1D700B00ED00450A5
:1034EA0008260550D8B0053C09260650D8B0063C37
:0C34FA000A260750D8B0073C0B26120031
:103506000AEC0BF000C04CF10D0E01014E6F4B0E94
:103516004F6F000E506F91EC14F000C04DF14C51FE
:10352600005C03E24CC100F002D04DC100F0120075
:103536006D92699468A403D0FB0E6816FBD712003F
:103546000B6A0C6A0A6A0350D8B4EDEF1AF0028EC1
:103556008E0E035E03BEB5EF1AF0D8B4B5EF1AF0BF
:10356600F1EF1AF0036C080E035CD8A0CCEF1AF04A
:10357600036E013602C001F0026A080E035CD8A091
:10358600CCEF1AF00136016A0350D8A4D890D6EFD2
:103596001AF00350D8B4D6EF1AF0D890023201329E
:1035A600032ED0EF1AF00BBC01A0E3EF1AF0D8A05F
:1035B600E3EF1AF0012AD8B4022A02BE00EF1BF08C
:1035C6000AAE06EF1BF0021E011E012AD8B4022A1B
:1035D60006EF1BF0026A016A06EF1BF00B800BAECA
:1035E6000AEF1BF0026A0AAE0AEF1BF0FF0E026E2C
:1035F600016E0A3602320AEF1BF0010E0C6E40EC29
:1036060015F00CEF1BF0000E0C6E0CEF1BF0FF0E0E
:0C3616000C6E0150006E0250016E12009C
:1036220000018551000A0CE16D6A696ADCEC0BF05D
:103632004EEC15F06DB602D06D86FCD7010E856F8B
:02364200120074
:1036440000018651020A03E1C1EC08F01FD01AEC14
:103654000AF05E50000A19E1010E9125E16E000E98
:103664009221E26E080EE66E020E9125E16E000EC6
:103674009221E26E200EE66E040EE66E91C0E1FF2A
:0E36840092C0E2FF8C0EE66E01D05E6A12006C
:10369200040E00019319006E00C093F08551080AD0
:1036A2000AE122C46EFF6E50000803E2100E856F1D
:1036B20002D0040E856F8651010A3BE1020E93256A
:1036C200E16E000E9421E26E280EE66E040EE66EA6
:1036D20018EC04F0A051020A07E193C0E1FF94C084
:1036E200E2FF840EE66E24D0040E9319006E00C031
:1036F20093F093C0E9FF94C0EAFFEECF00F000BC64
:103702000CD0040E9319006E00C093F093C0E1FF39
:1037120094C0E2FFC80EE66E0BD0040E9319006E41
:1037220000C093F093C0E1FF94C0E2FF880EE66E02
:0837320002D01AEC0AF01200AB
:10373A000501466B5D520BE0085183188C6E0AC571
:10374A0072F132EC14F011C572F12DEC0AF012008C
:10375A00030E0501466FBED08C808C928C94FAECD5
:10376A0016F0C30E0101776F000E786F080E796F9D
:10377A00000E7A6F87EC08F0005202E0010E2F6EFD
:10378A00CAD08C908C828C94FAEC16F0C30E01018C
:10379A00776F000E786F030E796F000E7A6F87ECE1
:1037AA0008F0005202E0020E2F6EB5D0C5EC17F0F9
:1037BA00C30E0101776F000E786F010E796F000E4C
:1037CA007A6F87EC08F0005202E0030E2F6EA3D046
:1037DA008C8A8C9C8C9EA5EC17F0C30E0101776F26
:1037EA00000E786F080E796F000E7A6F87EC08F07A
:1037FA00005202E0040E2F6E8ED08C9A8C8C8C9E16
:10380A00A5EC17F0C30E0101776F000E786F030E57
:10381A00796F000E7A6F87EC08F0005202E0050E0D
:10382A002F6E79D0C5EC17F0C30E0101776F000E29
:10383A00786F010E796F000E7A6F87EC08F00052EC
:10384A0002E0060E2F6E67D08C868C98B6EC17F0C5
:10385A00C30E0101776F000E786F050E796F000EA7
:10386A007A6F87EC08F0005202E0070E2F6E53D0F1
:10387A008C96C70E0101726F000E736FF40E746F8F
:10388A00010E756FFAEC13F00052D8A48C78B6ECDE
:10389A0017F0C30E776F000E786F030E796F000E64
:1038AA007A6F87EC08F0005202E0080E2F6E33D0D0
:1038BA00C5EC17F0C30E0101776F000E786F010E89
:1038CA00796F000E7A6F87EC08F00052D8A42F6A3D
:1038DA0022D021D02F50000AD8B43ED72F50010A47
:1038EA00D8B44FD72F50020AD8B460D72F50030A42
:1038FA00D8B46ED72F50040AD8B47FD72F50050AF0
:10390A0091E02F50060AA0E02F50070AB1E02F508D
:08391A00080ACEE0DED712001E
:103922008C6A0101726B32EC14F0726B2DEC0AF0AE
:02393200120081
:10393400020E0501466FA50E01015E6F000E5F6F5A
:0639440083EC16F01200F6
:0C394A00240E0D6E0D2EFED700001200A2
:1039560042C104F043C105F0000E066E076E043640
:1039660004900536063607360436049005360636C4
:103976000736000E006E6C0E016EDC0E026E020E35
:10398600036E48DC00C004F001C005F002C006F07A
:1039960003C007F0010E045E000E055A065A075AC8
:1039A60004C048F105C049F106C04AF107C04BF111
:1039B6000750000808E10650000805E10550000818
:1039C60002E10450FF0808E2FF0E0101446F000EF9
:1039D600456F466F476F08D048C144F149C145F16C
:0E39E6004AC146F14BC147F144C1CBFF12006C
:0239F4001200BF
:1039F60001014351000A12E042C100F0000E016EBF
:103A0600003600900136930E0024E96E000E012068
:103A1600EA6EEECF04F0EECF05F011D042C100F011
:103A2600000E016E003600900136710E0024E96E1C
:103A3600000E0120EA6EEECF04F0EECF05F0020E86
:103A46000424E16E000E0520E26E44C1E6FF45C186
:103A5600E6FF010E0424E16E000E0520E26E46C16B
:103A6600E6FF04C0E9FF05C0EAFFEECF00F004C0A0
:103A7600E1FF05C0E2FF400E0014E66E04C0E9FF58
:103A860005C0EAFFEECF00F0880E001204C0E1FF89
:103A960005C0E2FF00C0E6FF4351000A1BE042C139
:103AA60000F0000E016E003600900136930E0024E1
:103AB600026E000E0120036E02C0E9FF03C0EAFF9A
:103AC600040EEE18006E02C0E1FF03C0E2FF00C064
:103AD600E6FF1AD042C100F0000E016E00360090DB
:103AE6000136710E0024026E000E0120036E02C024
:103AF600E9FF03C0EAFF040EEE18006E02C0E1FF04
:103B060003C0E2FF00C0E6FF04C000F005C001F0FC
:023B160012009B
:103B1800F6DC00C090F0010E5F6E42C175F043C143
:103B280076F044C17AF045C17BF0CEEC17F0010E77
:0C3B3800016E0150010A01E170DD120075
:103B440000018551000A0BE16D6A696ADCEC0BF037
:103B54006DB602D06D86FCD70001010E856F8551CC
:103B6400010A08E16DBA06D0686A696A69806988E1
:103B7400020E856F68A405D069A403D0FB0E6816F5
:103B8400D8DC6DA203D028EC18F0DED068A019D0E0
:103B940069A017D0CEEC17F0040E856F200E040137
:103BA400026F040E036F080E016F000E0015006E05
:103BB40000C000F48C0E0011006E00C000F4FE0E74
:103BC400681668A806D069A804D02AEC18F0EF0E8D
:103BD400681668AC04D069AC02D0BF0E681668AA37
:103BE40004D069AA02D02FEC18F068A202D069B2FE
:103BF4006A6A040E0001855D03E228EC18F0A4D083
:103C040069A6A0D00101436B040E435DD8B09AD0DD
:103C140068A694D06CCF7CF0F70E6816780E00017D
:103C24007C15016E0150000AD8A487D0FD0E7C15C6
:103C3400016E026AFF0E0216000E021802E1000E67
:103C440001186DE17E0E7C15016E01C003F0033294
:103C5400039E03C000F0000E016E00360090013692
:103C6400003600900136000E0024026E040E01207E
:103C7400036E02C08EF003C08FF002C091F003C047
:103C840092F0040E9119006E00C091F002C0E9FF99
:103C940003C0EAFFEECF00F000C001F03C0E0116B5
:103CA4000132019E0132019E01500D0A36E1020EDD
:103CB4008E25E96E000E8F21EA6EEECF01F0EECF75
:103CC40002F00250040A02E1280E011823E1020E58
:103CD4008E25E16E000E8F21E26E200EE66E040E3C
:103CE400E66E0101426B080E425D14E2200EE16EA5
:103CF400040EE26E4251E126D8B0E22A280EE96EA3
:103D0400040EEA6E4251E926D8B0EA2AEECFE6FF65
:103D1400422BE9D70EEC18F001D092DC0DD0FD0E49
:103D24007C15016E026AFF0E0216000E021802E1F3
:103D3400040E011801E1ABDC00D001D003D0010175
:0A3D4400432B62D728EC18F01200A0
:103D4E000B6A0C6A0A6A0350D8B4DCEF1EF00A9EA6
:103D5E00028E860E035E03BEBAEF1EF0D8B4BAEF23
:103D6E001EF0DFEF1EF0036C080E035CD8A0C8EF48
:103D7E001EF0036E0236026A0350D8A4D890D1EF1B
:103D8E001EF00350D8B4D1EF1EF0D8900232032E9D
:103D9E00CCEF1EF00BBC02A0DCEF1EF0D8A0DCEFC7
:103DAE001EF0022AD8B4E6EF1EF0016AECEF1EF008
:103DBE000B800BAEF0EF1EF0016AF0EF1EF0010E5D
:103DCE000C6E40EC15F0F2EF1EF0000E0C6EF2EFE2
:0C3DDE001EF0FF0E0C6E0250006E120072
:103DEA00000E0101431902E1000E421902E1016AC3
:103DFA000AD042C1E9FF43C1EAFFEECF00F0000E4C
:0C3E0A0000BE010E016E01C000F01200AD
:023E1600120098
:103E1800010E0501466F3C4A3D2A030E3D5C02E156
:103E2800E80E3C5C04E3831C8C6E3C6A3D6A12001D
:103E3800A50E01015E6F000E5F6F23EC17F01200F4
:0A3E48000001D46B08EC17F0120023
:103E5200050E0501466F81B403D00001D46B07D073
:103E620081B005D00001010ED46FC7EC16F000013D
:103E7200D453D8B41DD1D50E0101726F000E736FE9
:103E82000A0E746F000E756FFAEC13F00052D8B47C
:103E92000ED10EC501F0006A05010D510012000E8F
:103EA2000112E5EC16F000C05AF101C05BF102C04C
:103EB2005CF103C05DF15AC149F05BC14AF05CC1DB
:103EC2004BF05DC14CF028C100F029C101F0E5ECD6
:103ED20016F000C030F001C031F002C032F003C071
:103EE20033F000C05EF101C05FF102C060F103C0B7
:103EF20061F15AC162F15BC163F15CC164F15DC100
:103F020065F157EC15F000C034F001C035F002C085
:103F120036F003C037F000C004F001C005F002C063
:103F220006F003C007F0006A016A026A036A36EC0F
:103F320013F0010ED8B0000E006E005251E00501E0
:103F4200546B556B0101726B2DEC0AF034C000F01A
:103F520035C001F036C002F037C003F0A3EC1AF00E
:103F620000C052F501C002F0036A02C053F5000E10
:103F7200046EC00E056E7F0E066E880E076E34C08C
:103F820000F035C001F036C002F037C003F050EC4B
:103F920018F0000E046E000E056E480E066E850EB9
:103FA200076E77EC0AF0A3EC1AF000C038F001C0FB
:103FB20039F0000E026E0150025C02E1005064080A
:103FC20006E2640E0101566F000E576F04D038C02E
:103FD20056F139C057F156C172F132EC14F067D084
:103FE200367E0501526B536B0101726B32EC14F099
:103FF200000E3418006E000E3518016E800E361851
:10400200026E000E3718036EA3EC1AF000C054F5CE
:10401200000E3418006E000E3518016E800E361830
:10402200026E000E3718036EA3EC1AF001C002F004
:10403200036A02C055F5000E3418006E000E3518E2
:10404200016E800E3618026E000E3718036E000ED7
:10405200046EC00E056E7F0E066E880E076E50EC63
:1040620018F0000E046E000E056E480E066E850EE8
:10407200076E77EC0AF0A3EC1AF000C038F001C02A
:1040820039F0000E026E0150025C02E10050640839
:1040920006E2640E0101586F000E596F04D038C059
:1040A20058F139C059F158C172F12DEC0AF002D021
:0640B20008EC17F01200FB
:1040B800060E0501466F81B403D00001D36B07D00B
:1040C80081B005D00001010ED36FB3EC17F00001E9
:1040D800D35353E0CB0E0101726F000E736F0A0EBB
:1040E800746F000E756FFAEC13F0005245E00EC5C0
:1040F80001F0006A005005010D11026E000E01105A
:10410800036E01012951031802E10250281934E015
:104118000EC501F0006A005005010D11026E000E77
:104128000110036E01012951035C02E12851025C70
:1041380012E20501546B556B0101726B2DEC0AF00C
:10414800E80E0501526F030E536F140E0101726FD2
:1041580032EC14F011D00501526B536B0101726BF4
:1041680032EC14F0E80E0501546F030E556F140E6F
:104178000101726F2DEC0AF002D0CAEC16F01200A1
:0A4188000001D36BCAEC16F0120020
:10419200040E0501466F3A4A3B2A3B50070A02E1E8
:1041A200D00E3A1809E18350010F006E00C083FF60
:0A41B20083CF8CFF3A6A3B6A1200CB
:1041BC0001013A5303E0F28AD58E02D0F29AD59ED1
:0241CC001200DF
:0841CE00D09EF28EF28C12006B
:1041D600949294943AC100F03BC101F03CC102F0C4
:1041E6003DC103F0A3EC1AF000C042F101C043F157
:1041F600ABEC1CF00C0EBD6E0C0EBA6EBE6ABB6A42
:06420600070ECA6E120053
:10420C00C26A2E1C006E0050C116070EC012C08E62
:10421C003AC100F000360090003600900050C212F7
:10422C00C280A5EC1CF0C282C2A201D0FDD7C4CFC3
:10423C0001F0006AC3500012000E0112C29012006D
:10424C00200E0001855D03E36DB201D002D0006A3F
:10425C0053D080C042F181C043F1C1DD00524BE12B
:10426C003DC142F1010E436F3AC144F13BC145F1EE
:10427C003CC146F1FBEC1CF000C080F001C081F0A9
:10428C000001A16BA26BA36BA46B80C042F181C037
:10429C0043F1A5DD005218E0200E0001855D03E31B
:1042AC006DB201D002D0006A27D0010E016E015010
:1042BC00000A01E141DC0001A151A211A311A411DA
:1042CC0002E0006A19D0E1D7000180C03EF181C044
:1042DC003FF1000E811902E1000E80190AE0010E77
:1042EC0001013E25E96E000E3F21EA6EEECF00F093
:0A42FC0003D0006A01D0006A12002E
:10430600EA0E0101406F000E416F3E6B3F6B800E5F
:104316003F19006E800E005C02E1040E3E5D0AE26B
:1043260040C1E1FF41C1E2FFE66A404B412B3E4BF3
:104336003F2BEDD7D59ED58CD59AD598D596D584D5
:10434600D592D5803AC100F03BC101F03CC102F0E4
:104356003DC103F0000E046E1B0E056E370E066E91
:10436600960E076E77EC0AF0000E046E000E056ED0
:10437600000E066E850E076E50EC18F000C004F0B5
:1043860001C005F002C006F003C007F0000E006E83
:10439600000E016E000E026E870E036E2EEC14F0F8
:0843A600D3DC00C0DDF01200C1
:1043AE00F250026EF29E0500FF6A0150FE6E005042
:0843BE00FD6E02BEF28E12003A
:1043C600FF0E01012C6FFF0E2D6FFF0E2E6FFF0EDD
:1043D6002F6FC26A2E1C006E0050C116070EC01247
:0643E600C08EC28012002F
:1043EC000101406B200E0001855D03E36DB201D02D
:1043FC0002D0006A31D07DC042F17EC043F1EFDCC7
:10440C00005229E17DC03EF17EC03FF1000E00015B
:10441C007E1902E1000E7D190BE0010E01013E2513
:10442C00E96E000E3F21EA6EEECF00F000C040F1C5
:10443C0001013DC142F1436B3AC144F13BC145F12D
:10444C003CC146F1FBEC1CF000C07DF001C07EF0DD
:0A445C0040C100F001D0006A120018
:10446600000E0101426F050E436F400E446F050EAC
:08447600456F8CEC1DF01200F3
:10447E00B70E926EFF0E936EF19E956A8C6A1200C5
:10448E0030C13AF131C13BF132C13CF1010E0101B3
:06449E003D6FD5DE1200A7
:1044A40081CF4DF583CF4EF526C14AF527C102F0E1
:1044B400036A02C04BF528C100F0003600900036B4
:1044C40000900050021005014B6F060E026E28C1C9
:1044D40000F029C101F0025005E001320032019ED2
:1044E400FF0FFAD700C04CF52AC14FF52BC100F0DD
:0844F400016A00C050F512003E
:1044FC0038C100F039C101F00036009001360036A9
:10450C0000900136EE0E0024E16E000E0120E26EEA
:10451C0030C1E6FF31C1E6FF32C1E6FF33C1E6FF31
:10452C0038C100F039C101F0003600900136003678
:10453C00009001360A0E0024E16E010E0120E26E9D
:10454C0034C1E6FF35C1E6FF36C1E6FF37C1E6FFF1
:02455C0012004B
:10455E0033DF8EDF000E3A6F800E3B6F3B0E3C6FEB
:10456E008A0E3D6F31DE78DF6F0E01013A6F120E4B
:10457E003B6F030E3C6F750E3D6FBEDE010E0101EB
:08458E003A6F15DE1DDE12007C
:104596000900F5CFE6FF0006FBE10106F9E112008E
:1045A60000018551010A07E16DBA05D0686A698084
:1045B6006988020E856F68A406D069A404D0FB0E34
:1045C60068169BEC1AF06DA203D028EC18F0E0D028
:1045D60068A019D069A017D0CEEC17F0040E856F2D
:1045E600200E0401026F040E036F080E016F000E09
:1045F6000015006E00C000F48C0E0011006E00C0A5
:1046060000F4FE0E681668A806D069A804D02AEC45
:1046160018F0EF0E681668AC04D069AC02D0BF0E75
:10462600681668AA04D069AA02D02FEC18F068A20E
:1046360002D069B26A6A040E0001855D03E228ECC5
:1046460018F0A6D069A6A2D00101556B040E555DDF
:10465600D8B09CD068A696D06CCF7CF0F70E6816C2
:10466600780E00017C15016E0150000AD8A489D08D
:10467600FD0E7C15016E026AFF0E0216000E021870
:1046860002E1000E01186EE17E0E7C15016E01C07E
:1046960003F00332039E03C000F0000E016E0036E5
:1046A60000900136003600900136000E0024026E9E
:1046B600040E0120036E02C08EF003C08FF002C00C
:1046C60091F003C092F0040E9119006E00C091F0B3
:1046D60002C0E9FF03C0EAFFEECF00F000C001F020
:1046E6003C0E01160132019E0132019E01500D0A57
:1046F60036E1020E8E25E96E000E8F21EA6EEECFB0
:1047060001F0EECF02F00250040A02E1280E011871
:1047160023E1020E8E25E16E000E8F21E26E200E41
:10472600E66E040EE66E0101546B080E545D14E24B
:10473600200EE16E040EE26E5451E126D8B0E22A54
:10474600280EE96E040EEA6E5451E926D8B0EA2A1C
:10475600EECFE6FF542BE9D70EEC18F002D022EC90
:104766001BF00ED0FD0E7C15016E026AFF0E0216BE
:10477600000E021802E1040E011802E149EC1BF0DA
:1047860000D001D003D00101552B60D728EC18F0DA
:0247960012000F
:1047980005014581485005191BE005C500F0000ECC
:1047A800016E003600900136003600900136EE0E9C
:1047B8000024E96E000E0120EA6EEECF00F0EECF85
:1047C80001F0EECF02F0EECF03F0EDDD05C548F0C5
:1047D80005C500F0000E016E003600900136003667
:1047E800009001360A0E0024E96E010E0120EA6EDF
:1047F800EECF00F0EECF01F0EECF02F0EECF03F0F7
:04480800D2DD1200EB
:10480C00076A086A400E096E000E0A6E800E0818C0
:10481C00006E800E005C02E1040E075C52E209C0DF
:10482C00E9FF0AC0EAFF010EEE24006E000EEE2036
:10483C00016E09C0E1FF0AC0E2FF00C0E6FF01C043
:10484C00E6FF09C0E9FF0AC0EAFFEECF05F0EECFA4
:10485C0006F007C000F008C001F0000E08BEFF0E05
:10486C00026E036E00360090013602360336790E66
:10487C000024F66E4B0E0120F76E000E0220F86E2F
:10488C000900F5CF01F00900F5CF02F00250065CEB
:10489C0002E10150055C0EE3EA0E0724E16E000E06
:1048AC000820E26E010EE66E09C0E1FF0AC0E2FFCD
:1048BC00E66AE66A074A082A020E0926000E0A2250
:0848CC00A5D7DDC0D6FF1200E4
:1048D40075C03AF176C03BF1400E01013C6F010E08
:0648E4003D6F82DD1200B1
:1048EA000101306B030E305D1BE230C100F0000E97
:1048FA00016E003600900136260E0024316F010E3B
:10490A000120326F30C13AF17CDC31C1E1FF32C1A2
:10491A00E2FF00C0E6FF01C0E6FF0101302BE2D74B
:02492A00120079
:10492C00C3EC25F0220E0101306F390E316F000EF1
:10493C00326F000E336F3A0E346F370E356F000E38
:10494C00366F000E376F386B396BD2DD160E306F49
:10495C003E0E316F000E326F000E336F180E346F37
:10496C003E0E356F000E366F000E376F010E386F2E
:10497C00000E396FBDDDF40E306F390E316F000E45
:10498C00326F000E336F920E346F410E356F000E86
:10499C00366F000E376F040E386F000E396FA8DDBE
:1049AC00480E306F3E0E316F000E326F000E336FBB
:1049BC00520E346F3E0E356F000E366F000E376F91
:1049CC00050E386F000E396F93DD060E306F000E3A
:1049DC00316F000E326F000E336F5A0E346F370E7C
:1049EC00356F000E366F000E376F030E386F000EEA
:1049FC00396F7EDD380E306F3E0E316F000E326F28
:104A0C00000E336F340E346F390E356F000E366F67
:104A1C00000E376F020E386F000E396F69DD880E8D
:104A2C00306F410E316F000E326F000E336FB80EC7
:104A3C00346F400E356F000E366F000E376F060E5A
:104A4C00386F000E396F54DD84DD0501056B0001F4
:104A5C00EA5305E039DF00C05DF00001EA6BEC536E
:104A6C000CE03DDF19DD400E0101306F050E316F9A
:0E4A7C00400E326F06DD0001EC6BE9D7FFD76C
:104B860010EE2EF02F0E006E010E016E8A0EF66EDE
:104B96004A0EF76E000EF86ECBEC22F010EE61F0C6
:104BA600100E006E010E016E690EF66E4B0EF76E5C
:104BB600000EF86ECBEC22F010EE5DF0010E006EEA
:104BC600010E016E850EF66E4B0EF76E000EF86E38
:064BD600CBEC22F01200FE
:014A8A0030FB
:014A8B00002A
:044A8C00000048845A
:044A90000000000022
:024A9400000020
:024A960000001E
:024A980000001C
:024A9A0000001A
:084A9C00000000000000000012
:014AA4000011
:044AA500000000000D
:044AA900000048853C
:044AAD000000000005
:044AB100CDCC4C7BA1
:044AB50000000000FD
:104AB9002A03430065006E007400720061006C00F7
:104AC900200043006F006E00740072006F006C00DC
:0A4AD900610064006F0072006100CC
:104AE3002A03430065006E007400720061006C00CD
:104AF300200043006F006E00740072006F006C00B2
:0A4B0300610064006F0072006100A1
:104B0D00090229000101008032090400000203009E
:104B1D000000092101010001222100070581034048
:094B2D000001070501034000012D
:104B36000600FF0901A10119012940150026FF0001
:104B46007508954081021901294075089540910222
:014B5600C09E
:104B570012010002000000083412010000010102E6
:024B670000014B
:044B6900CDCC4C7CE7
:044B6D000000000044
:044B7100000020829E
:044B75000000007EBE
:084B7900010002000300050029
:044B8100040309041C
:014B8500002F
:020000040030CA
:0E000000240E381EFF0181FF0FC00FE00F40DD
:00000001FF
