:0400000048EF24F0B1
:020006001200E6
:1000080000C023F001C022F002C021F003C020F09C
:1000180004C01FF005C01EF006C01DF007C01CF08C
:1000280008C01BF009C01AF00AC019F00BC018F07C
:100038000CC017F00DC016F00EC015F0E1CF2CF073
:10004800E2CF2DF0E9CF2AF0EACF2BF0F3CF28F05A
:10005800F4CF29F0F5CF27F0F8CF24F0F7CF25F02B
:10006800F6CF26F0F2A405D02AEC24F095EC23F084
:10007800F294A1AA03D09CEC22F0A19A27C0F5FF24
:1000880024C0F8FF25C0F7FF26C0F6FF28C0F3FFFD
:1000980029C0F4FF23C000F022C001F021C002F003
:1000A80020C003F01FC004F01EC005F01DC006F0FC
:1000B8001CC007F01BC008F01AC009F019C00AF0EC
:1000C80018C00BF017C00CF016C00DF015C00EF0DC
:1000D8002AC0E9FF2BC0EAFF2CC0E1FF2DC0E2FFD8
:0200E800110005
:1000EA000B820BAE7FEF00F00368026801680068BC
:0800FA000A360232FF0E12006B
:080102000AAE029E000E12007D
:10010A000B840BAE90EF00F0010E036E026A016AD7
:0A011A00006A0A360232FF0E1200DE
:0E012400026A016A006A086A036A000E12008D
:100132001E0E716E100E506E040E516E50C0E1FF15
:1001420051C0E2FFE69E50C0E1FF51C0E2FFE69CD3
:10015200040E5024E16E000E5120E26EE68C180E61
:100162005B6E040E5C6E5BC0E1FF5CC0E2FFE69E6C
:100172005BC0E1FF5CC0E2FFE69C040E5B24E16E23
:10018200000E5C20E26EE68C020E5024E16E000E40
:100192005120E26E61C0E6FF62C0E6FF010E50240C
:1001A200E16E000E5120E26E400EE66E50C0E9FF95
:1001B20051C0EAFFEECF00F050C0E1FF51C0E2FFB4
:1001C200400E0014E66E50C0E9FF51C0EAFFEECFC8
:1001D20000F0880E001250C0E1FF51C0E2FF00C0E3
:1001E200E6FF50C05DF051C05EF0040E5018006E84
:0601F20000C050F01200F5
:1001F8000CB03EEF01F00CA2E4EF01F00E6A000E25
:10020800026455EF01F0F00E0214D8A420EF01F0BB
:10021800023A01380F0B02260138F00B016E003844
:100228000F0B01260038F00B006E08380F0B002664
:100238000838F00B086E0E84D89002BE39EF01F032
:1002480008360036013602360E2A02BE39EF01F0B2
:1002580008360036013602360E2A02BE39EF01F0A2
:1002680008360036013602360E2A0E500364DAEFDD
:1002780001F0035E0BBC08AEDFEF01F0D880800E02
:1002880008640030000E002201220222D8A0DFEF0D
:1002980001F0023201320032034AE4EF01F0DFEFED
:1002A80001F001C002F000C001F008C000F0086AC7
:1002B800000E0E8602648CEF01F0F00E0214D8A432
:1002C80074EF01F0023A01380F0B02260138F00BE7
:1002D800016E00380F0B01260038F00B006E0E84FB
:1002E800D89002BE39EF01F00036013602360E2AE8
:1002F80002BE39EF01F00036013602360E2A02BE80
:1003080039EF01F00036013602360E2A39EF01F0D6
:1003180001C002F000C001F0006A000E0E960E88BF
:100328000264B9EF01F0F00E0214D8A4A4EF01F0B2
:10033800023A01380F0B02260138F00B016E0E84C9
:10034800D89002BE39EF01F0013602360E2A02BEFD
:1003580039EF01F0013602360E2A02BE39EF01F0FC
:10036800013602360E2A39EF01F001C002F0016AA7
:10037800000E0E860264E9EF01F0F00E0214D8A414
:10038800C8EF01F0023A0E84D89002BE39EF01F0AE
:1003980002360E2A02BE39EF01F002360E2A02BEDC
:1003A80039EF01F002360E2A39EF01F0010E0C6E1A
:1003B800A8DEECEF01F0020E0C6E9FDEECEF01F010
:1003C800040E0C6E8EDEECEF01F0080E0C6EA6DE4D
:0203D800120011
:1003DA000B800BAEF9EF01F0026A0AAEFF0E026E55
:0C03EA00016E006E0A360232FF0E120097
:1003F6000B6A0A6A096A00500402F4CF09F0F3CFC7
:1004060008F001500502F4CF0BF0F3CF0AF00050CC
:100416000502F3500926F4500A22E86A0B2201501D
:100426000402F3500926F4500A22E86A0B2208C097
:1004360000F009C001F00AC002F00BC003F0120080
:10044600090E01015D5D010ED8B0000E006E1200AE
:10045600020E01015D25E16E000E5E21E26EE66A86
:10046600E66A5DC1E1FF5EC1E2FFE66AE66A120086
:10047600090E01015E5D0AE2010E5D15016E015075
:10048600000A010ED8A4000E006E06D00C0E5E5DAA
:0A049600010ED8B0000E006E120037
:1004A0000401286B296B42D0568E28815250010AD4
:1004B000D8B4288350D0568E4ED0568E24BF16D036
:1004C00024C403F00F0E031603C000F0000E016EEB
:1004D0000036009001364E0E0024E96E000E012019
:1004E000EA6EEECF04F0EECF05F015D024C403F091
:1004F0000F0E031603C000F0000E016E00360090D0
:100500000136590E0024E96E000E0120EA6EEECF8E
:1005100004F0EECF05F004C0E9FF05C0EAFFEECF1E
:1005200001F001A402D0010E286F15D020C401F003
:100530001F0E01160150000AB7E020C401F01F0E83
:1005400001160150010AB7E020C401F01F0E011688
:100550000150020AB2E056AE07D0280E536E040EC8
:0A056000546E5680020E576E120012
:10056A0020C401F01F0E01160150010A01E08FD0CC
:10057A0004012451000A01E08AD02151060A41E10E
:10058A0036D00001B751010A17E1280E006E4A0E53
:10059A00016E000E026E120E0026000E01220222C9
:1005AA0000C053F001C054F002C055F0090E576E56
:1005BA00000E586EC00E566E24D00001B751010AC3
:1005CA0012E1510E006E4A0E016E000E026E00C05C
:1005DA0053F001C054F002C055F0210E576E000EC0
:1005EA00586EC00E566E0DD0800E566E0AD004019B
:1005FA002351210AC6E02351220ADFE02351230AAC
:10060A00F3E020C401F0600E0116050E006E0050E2
:10061A0004E00132019EFF0FFBD70150010A01E0FD
:10062A0036D022D034D033D0B00E536E000E546E72
:10063A00010E576E000E586EC10E566E28D0800EEF
:10064A00566E23C4B0F023D0B50E536E000E546E0E
:10065A00010E576E000E586E810E566E18D0800E1F
:10066A00566E22C4B5F013D004012151010ADAE012
:10067A002151090AD8E02151020AD6E021510A0A79
:10068A00DEE02151030AE0E021510B0AE8E0120002
:10069A00000E585C02E1080E575C11E257C003F0E5
:1006AA0058C004F00001AD51000A03E1010EAD6F1C
:1006BA0005D0AD51010A02E1020EAD6F04D0080E59
:1006CA00036E000E046E000159C0E1FF5AC0E2FF3A
:1006DA00E69259C0E1FF5AC0E2FFE69059C0E9FF2D
:1006EA005AC0EAFFEECF00F059C0E1FF5AC0E2FF5C
:1006FA0004500010E66E010E5924E16E000E5A20D5
:10070A00E26E03C0E6FF0350575C006E045058586F
:10071A00016E00C057F001C058F0280EB36F040EE6
:10072A00B46F56B02FD0035004102BE053C0F6FF1D
:10073A0054C0F7FF55C0F8FF0900F5CF00F0B3C069
:10074A00E1FFB4C0E2FF00C0E6FFB34BB42B010ED9
:10075A005324006E000E5420016E000E5520026EC6
:10076A0000C053F001C054F002C055F0010E035C02
:10077A00006E000E0458016E00C003F001C004F0C0
:10078A00D2D724D00350041021E053C0E9FF54C04B
:10079A00EAFFB3C0E1FFB4C0E2FFEECFE6FFB34B1E
:1007AA00B42B010E5324006E000E5420016E00C0BB
:1007BA0053F001C054F0010E035C006E000E0458A1
:0E07CA00016E00C003F001C004F0DCD7120085
:1007D800025006180E6E086A096A0B6A035007640D
:1007E800DFEF04F006500A6E068E028E03500B6E81
:1007F8000750036E000E0B642FEF04F00B50075EDA
:10080800D8B4D0EF04F0070E07649EEF04F0075E3B
:1008180000C008F001C000F002C001F0026A074EF3
:10082800D0EF04F0076473EF04F0075E00C008F02F
:1008380001C000F0016A074ED0EF04F0076451EFE1
:1008480004F0075E00C008F0006A074ED0EF04F01D
:10085800076438EF04F00AC002F005C001F004C0D4
:1008680000F0086AFCEF05F0030E076443EF04F09C
:10087800075E08380F0B086E074ED0EF04F0D890CB
:100888000832074ED0EF04F0D8900832074ED0EF68
:1008980004F0D8900832D0EF04F0030E076462EF3A
:1008A80004F0075E08380F0B086E0038F00B0826B6
:1008B80000380F0B006E074ED0EF04F0D8900032CE
:1008C8000832074ED0EF04F0D89000320832074EB5
:1008D800D0EF04F0D89000320832D0EF04F0030EC5
:1008E80007648AEF04F0075E08380F0B086E0038BB
:1008F800F00B082600380F0B006E0138F00B0026AD
:1009080001380F0B016E074ED0EF04F0D89001327A
:1009180000320832074ED0EF04F0D890013200328E
:100928000832074ED0EF04F0D89001320032083276
:10093800D0EF04F0030E0764BBEF04F0075E08383D
:100948000F0B086E0038F00B082600380F0B006EEE
:100958000138F00B002601380F0B016E0238F00B3E
:10096800012602380F0B026E074ED0EF04F0D89024
:100978000232013200320832074ED0EF04F0D8902C
:100988000232013200320832074ED0EF04F0D8901C
:100998000232013200320832096A000E0EAEC4EF8C
:1009A80005F0081E001E011E021E082A0022012250
:1009B8000222C4EF05F00750D8A4E5EF04F0FCEFDD
:1009C80005F0096A02C00AF0028E068E0750035C21
:1009D800076ED8B4B7EF05F0070E076485EF05F08A
:1009E800075E0450096E0550046E0650056E066ACF
:1009F800074EB7EF05F0070E07645AEF05F0075EDC
:100A08000450096E0550046E056A074EB7EF05F0ED
:100A1800070E076438EF05F0075E0450096E046A94
:100A2800074EB7EF05F0070E07641FEF05F00AC081
:100A380002F0FCEF05F0030E07642AEF05F0075EED
:100A480009380F0B096E074EB7EF05F0D890093239
:100A5800074EB7EF05F0D8900932074EB7EF05F00B
:100A6800D8900932B7EF05F0030E076449EF05F097
:100A7800075E09380F0B096E0438F00B0926043895
:100A88000F0B046E074EB7EF05F0D8900432093209
:100A9800074EB7EF05F0D89004320932074EB7EF8A
:100AA80005F0D89004320932B7EF05F0030E076459
:100AB80071EF05F0075E09380F0B096E0438F00B6B
:100AC800092604380F0B046E0538F00B0426053888
:100AD8000F0B056E074EB7EF05F0D89005320432BC
:100AE8000932074EB7EF05F0D890053204320932C3
:100AF800074EB7EF05F0D890053204320932B7EF48
:100B080005F0030E0764A2EF05F0075E09380F0B26
:100B1800096E0438F00B092604380F0B046E0538EB
:100B2800F00B042605380F0B056E0638F00B05266A
:100B380006380F0B066E074EB7EF05F0D890063251
:100B4800053204320932074EB7EF05F0D890063265
:100B5800053204320932074EB7EF05F0D890063255
:100B6800053204320932086A000E0EAEC4EF05F0F1
:100B7800091E041E051E061E092A04220522062235
:100B8800095008260450002205500122065002226E
:100B98000EBEDBEF05F0D8A0EAEF05F00232013215
:100BA80000320832033EEAEF05F0F6EF05F0D8B060
:100BB800F0EF05F0000E081E001E011E021E082A96
:100BC8000022012202220A7EF0EF05F0010E0C6ECF
:100BD800FCEC00F0FEEF05F0020E0C6EFCEC00F0F1
:100BE800FEEF05F0040E0C6E75EC00F0FEEF05F05C
:060BF800000E0C6E12005D
:100BFE0004012051800AD8A475D0C00E566E67D05D
:100C0E00920E006E4A0E016E000E026E00C053F080
:100C1E0001C054F002C055F0120E576E000E586E01
:100C2E0061D0030E006E000E016E22C404F0000EA1
:100C3E00056EFBEC01F0A80E0024E96E000E0120FB
:100C4E00EA6EEECF53F0EECF54F0EECF55F0020E2B
:100C5E005324F66E000E5420F76E000E5520F86EDB
:100C6E000900F5CF00F00900F5CF01F000C057F0F4
:100C7E0001C058F037D022510001B95D24E3030EB4
:100C8E00006E000E016E22C404F0000E056EFBEC29
:100C9E0001F09F0E0024E96E000E0120EA6EEECFE9
:100CAE0053F0EECF54F0EECF55F053C0F6FF54C0D4
:100CBE00F7FF55C0F8FF0900F5CF00F000C057F060
:100CCE00000E586E01D0566A0DD0566A0BD0040134
:100CDE002351010A95E02351020AA3E02351030A8E
:060CEE00CAE0F3D712007A
:100CF400568E716A0001B66B22C4B7F0B751000A70
:100D040003E1100EB86F04D0200EB86F99EC00F018
:020D14001200CB
:100D1600086A096A000E0762036410EF07F00250C2
:100D260006180A6E075003267E0ED8A0A1EF06F01D
:100D3600035ED8B015EF07F0A5EF06F0035ED8A066
:100D46001AEF07F0028E068E02C00EF001C00BF0FD
:100D560000C00DF000500402F4CF0CF00150050263
:100D6600F4CF00F0F3CF08F00402F3500C26F45051
:100D76000822000E00220D500502F3500C26F450F6
:100D86000822000E002202500402F3500826F450F6
:100D9600002202500502016A000E0122F3500026CD
:100DA600F45001220D500602F3500826F45000229A
:100DB600026A000E012202220B500602F3500026A0
:100DC600F4500122000E02220E500602F3500126B4
:100DD600F450022202BEF8EF06F00836003601365D
:100DE60002360306D8B41AEF07F00BEF07F0D880E7
:100DF600800E08640030000E002201220222D8A0D4
:100E06000BEF07F0023201320032034A15EF07F00A
:100E16000AAE029E000E1DEF07F0010E92EC00F0E6
:100E26001DEF07F0020E75EC00F01DEF07F0040E43
:060E360085EC00F0120043
:100E3C000B6A0C6A0A6A0350D8B468EF07F0028E8A
:100E4C008E0E035E03BE30EF07F0D8B430EF07F020
:100E5C006CEF07F0036C080E035CD8A047EF07F0AB
:100E6C00036E013602C001F0026A080E035CD8A0C2
:100E7C0047EF07F00136016A0350D8A4D89051EF20
:100E8C0007F00350D8B451EF07F0D890023201327A
:100E9C00032E4BEF07F00BBC01A05EEF07F0D8A0C0
:100EAC005EEF07F0012AD8B4022A02BE7BEF07F0EE
:100EBC000AAE81EF07F0021E011E012AD8B4022AE5
:100ECC0081EF07F0026A016A81EF07F00B800BAE2D
:100EDC0085EF07F0026A0AAE85EF07F0FF0E026E8F
:100EEC00016E0A36023285EF07F0010E0C6EEDEC46
:100EFC0001F087EF07F0000E0C6E87EF07F0FF0E86
:0C0F0C000C6E0150006E0250016E1200CD
:0E0F180059C15DF15AC15EF12BEC02F01200DE
:100F260001015951010A07E05951040A04E05951D7
:100F3600070A01E003D0010E006E01D0006A12001C
:100F460059C1E1FF5AC1E2FF010EE66E010E010131
:100F56005925E16E000E5A21E26EE66A020E592507
:100F6600E16E000E5A21E26EE66A030E5925E16E25
:100F7600000E5A21E26EE66A040E5925E16E000E55
:100F86005A21E26EE66A050E5925E16E000E5A21D7
:100F9600E26EE66A05014491120E01015925E16EE1
:100FA600000E5A21E26EE66A130E5925E16E000E16
:100FB6005A21E26EE66A05014095409140934097BA
:100FC60051915193140E01015925E16E000E5A21DB
:100FD600E26EE66A0501409B4099408D150E0101BF
:100FE6005925E16E000E5A21E26EE66A160E592563
:100FF600E16E000E5A21E26EE66A05014191170E76
:1010060001015925E16E000E5A21E26EE66A180EBC
:101016005925E16E000E5A21E26EE66A05014197F6
:10102600190E01015925E16E000E5A21E26EE66A9B
:101036001C0E5925E16E000E5A21E26EE66A1D0E5F
:101046005925E16E000E5A21E26EE66A1A0E5925FE
:10105600E16E000E5A21E26EE66A1B0E5925E16E1C
:10106600000E5A21E26EE66A05014199419F83828C
:1010760043818390439381A002D083944395839EBA
:0C108600429F839A429D839C429B120073
:1010920004012251010A0FE120C401F01F0E0116C2
:1010A2000150000A08E1568E2151030A03E1010EA4
:1010B200526E01D0526A2251000AD8A48BD020C4A9
:1010C20001F01F0E01160150020AD8A483D024C4D5
:1010D20001F00F0E01160150000AD8B47BD0568ED3
:1010E20024BF16D024C403F00F0E031603C000F071
:1010F200000E016E0036009001364E0E0024E96E9D
:10110200000E0120EA6EEECF04F0EECF05F015D00E
:1011120024C403F00F0E031603C000F0000E016E8C
:10112200003600900136590E0024E96E000E0120AF
:10113200EA6EEECF04F0EECF05F02151030A07E18B
:1011420004C0E1FF05C0E2FF840EE66E43D024C472
:1011520000F00F0E0016700E026E0F0E036E00509E
:101162000226D8B0032A02C0E9FF03C0EAFFFE0E3E
:10117200EE14006EEECF01F0FF0E011602C0E1FF89
:1011820003C0E2FF00C0E6FF01C0E6FF24AF11D0BA
:1011920004C0E1FF05C0E2FFE66A040E0418006E17
:1011A20000C004F004C0E1FF05C0E2FF400EE66E9D
:1011B20011D004C0E1FF05C0E2FF880EE66E040E06
:1011C2000418006E00C004F004C0E1FF05C0E2FF95
:0611D200C80EE66E1200DB
:1011D80000C008F00B6A0C6A9E0E036E0A6A026A67
:0E11E800016A006A020E0C6EFCEC00F01200B0
:1011F600434A442A030E445C02E1E80E435C30E3B2
:10120600436A446A59C103F05AC104F059C1E9FF5F
:101216005AC1EAFFEECF00F0EECF01F0004A012AF4
:1012260059C1E1FF5AC1E2FF00C0E6FF01C0E6FF77
:1012360003C0E9FF04C0EAFFEECF01F0EECF02F0F3
:1012460001015C51025C02E15B51015C09E359C199
:10125600E1FF5AC1E2FFE66AE66A010E006E01D0BE
:04126600006A120008
:10126A0059C15DF123EC02F0005252E047D0006A06
:10127A006ED0010E006E6BD0020E006E68D0030EA7
:10128A00595D13E25AC15DF159C15EF13BEC02F0BE
:10129A00005202E0006A5BD05951010A03E1020ED2
:1012AA00006E55D0010E006E52D0060E595D13E243
:1012BA005AC15DF159C15EF13BEC02F0005203E004
:1012CA00010E006E44D05951040A02E1006A3FD06F
:1012DA00020E006E3CD05AC15DF159C15EF13BEC81
:1012EA0002F0005203E0020E006E31D05951070A93
:1012FA0002E1006A2CD0010E006E29D05951000A71
:10130A00B6E05951030AB5E05951060AB5E0B7D714
:10131A005951090A04E059510C0A01E002D0006A45
:10132A0016D059510A0A04E059510D0A01E003D0B6
:10133A00020E006E0CD059510B0A04E059510E0AE4
:10134A0001E003D0010E006E02D0FF0E006E120003
:10135A00150E01015425566F000E5521576F0CD1F9
:10136A0005014191160E01015425E16E000E552129
:10137A00E26EE66A05010451000812E2140E010148
:10138A005425E96E000E5521EA6EEE50190A08E15D
:10139A00150E5425E16E000E5521E26E030EE66E1F
:1013AA0011D104C559F1BADD0052D8A4A0D006C59E
:1013BA005DF123EC02F000523DE0050E5425016E6A
:1013CA00000E5521026E01C0E9FF02C0EAFFEE508D
:1013DA00010F006E01C0E1FF02C0E2FF00C0E6FF9C
:1013EA0001C0E9FF02C0EAFF020EEE5C1AE3040E36
:1013FA005425016E000E5521026E01C0E9FF02C09C
:10140A00EAFFEE50010F006E01C0E1FF02C0E2FFE9
:10141A0000C0E6FF050E5425E16E000E5521E26E6E
:10142A00E66A1C0E5425E16E000E5521E26E010E8D
:10143A00E66E1AD0040E5425016E000E5521026E76
:10144A0001C0E9FF02C0EAFFEE50010F006E01C0C1
:10145A00E1FF02C0E2FF00C0E6FF1C0E5425E16E68
:10146A00000E5521E26EE66A05010451020A07E000
:10147A000451050A04E00451080A01E012D0180ECA
:10148A0001015425E16E000E5521E26E010EE66E51
:10149A001D0E5425E16E000E5521E26E010EE66E18
:1014AA000FD00101180E5425E16E000E5521E26E8F
:1014BA00E66A1D0E5425E16E000E5521E26EE66ABB
:1014CA00120E5425E16E000E5521E26EE66A140EE4
:1014DA005425E16E000E5521E26EE66A150E54257A
:1014EA00E16E000E5521E26E050EE66E08D0150E6D
:1014FA005425E16E000E5521E26E0F0EE66E62D0A3
:10150A000501418100AD12D0160E01015425E16E8C
:10151A00000E5521E26E010EE66E170E5425E16E9D
:10152A00000E5521E26E050EE66E18D00101160E68
:10153A005425E96E000E5521EA6EEE520FE0160EA2
:10154A005425E16E000E5521E26EE66A150E542509
:10155A00E16E000E5521E26E0A0EE66E33D00501E9
:10156A004191150E01015425E16E000E5521E26EDE
:10157A00E66A28D027D026D056C1E9FF57C1EAFF2C
:10158A00EE50000AD8B4ECD656C1E9FF57C1EAFFBB
:10159A00EE50030AD8B405D756C1E9FF57C1EAFF8E
:1015AA00EE50050AADE056C1E9FF57C1EAFFEE5019
:1015BA000A0AD5E056C1E9FF57C1EAFFEE500F0A01
:0615CA00D9E0D9D71200A0
:1015D000050109B117D054C159F155C15AF1B3DC15
:1015E0000E0E01015425596F000E55215A6F010E40
:1015F0005B6F000E5C6FFFDD005203E00501437579
:10160000837411D054C1E9FF55C1EAFFEECF00F059
:10161000005209E0040E01015425E16E000E55212F
:08162000E26E0AC5E6FF1200AC
:101628000C6A0E6A0250D8A42DEF0BF001C002F02C
:1016380000C001F0006A0E860250D8A42DEF0BF00E
:1016480001C002F0016A0E960E880250D8B43FEF2E
:101658000BF00E50035ED8A4D8A045EF0BF0D8903D
:1016680002BE4BEF0BF0003601360236032E34EF84
:101678000BF045EF0BF0010E0C6E92EC00F04FEF03
:101688000BF0020E0C6E85EC00F04FEF0BF0040E21
:081698000C6E81EC00F0120061
:1016A000170E01015425026E000E5521036E7AD0EB
:1016B0000501419341954197B1D005014187170E2E
:1016C00001015425E16E000E5521E26E0A0EE66E10
:1016D000A5D0180E5425E96E000E5521EA6EEE5283
:1016E0000DE0050100AF09D0170E01015425E16E90
:1016F000000E5521E26E0F0EE66E0CD0050101A51D
:1017000009D0170E01015425E16E000E5521E26E3D
:10171000190EE66E83D005014197418301A309D0DC
:10172000170E01015425E16E000E5521E26E140ED4
:10173000E66E74D005014193170E01015425E16E48
:10174000000E5521E26E230EE66E68D0050141972A
:10175000418501A909D0170E01015425E16E000E43
:101760005521E26E1E0EE66E59D005014195170E09
:1017700001015425E16E000E5521E26E230EE66E46
:101780004DD0170E5425E16E000E5521E26EE66A2B
:10179000190E5425E16E000E5521E26E050EE66E1F
:1017A0003DD03CD002C0E9FF03C0EAFFEE50000A82
:1017B000D8B47ED702C0E9FF03C0EAFFEE50050AA5
:1017C000D8B47BD702C0E9FF03C0EAFFEE500A0A93
:1017D000D8B47FD702C0E9FF03C0EAFFEE500F0A7A
:1017E0009AE002C0E9FF03C0EAFFEE50140AA2E04B
:1017F00002C0E9FF03C0EAFFEE50190AA7E002C0E9
:10180000E9FF03C0EAFFEE501E0AAFE002C0E9FFA5
:0E18100003C0EAFFEE50230AB4E0C3D7120073
:10181E006D9856BE4AD00001BEAF28D0020EC56FDD
:10182E00010E5924E16E000E5A20E26EE66A59C08E
:10183E00E1FF5AC0E2FFC80EE66E010EAE25E16E64
:10184E00000EAF21E26E080EE66E020EAE25E16EC0
:10185E00000EAF21E26E280EE66E040EE66EAEC0EE
:10186E00E1FFAFC0E2FFC80EE66E1ED0010EAE2540
:10187E00E16E000EAF21E26E080EE66E020EAE2590
:10188E00E16E000EAF21E26E200EE66E040EE66EE5
:10189E00AEC0E1FFAFC0E2FF8C0EE66E59C0E1FFB5
:1018AE005AC0E2FF840EE66E81D00001BEBF7ED02C
:1018BE00040120AF53D05850275D02E15750265DEA
:1018CE0004E226C457F027C458F04DEC03F0010E85
:1018DE000001C56F010EAE25E16E000EAF21E26E66
:1018EE00080EE66E020EAE25E16E000EAF21E26E20
:1018FE00200EE66E040EE66EAEC0E1FFAFC0E2FF54
:10190E00800EE66EAC6B010EBA25E16E000EBB21A9
:10191E00E26E080EE66E020EBA25E16E000EBB21D7
:10192E00E26E200EE66E040EE66EBAC0E1FFBBC09C
:10193E00E2FF840EE66E010EAC6F020E5924E16ECC
:10194E00000E5A20E26E280EE66E040EE66E59C0A8
:10195E00E1FF5AC0E2FFC80EE66E28D00001020E6B
:10196E00C56F010E5924E16E000E5A20E26EE66A32
:10197E0059C0E1FF5AC0E2FFC80EE66E010EAE2559
:10198E00E16E000EAF21E26E080EE66E020EAE257F
:10199E00E16E000EAF21E26E280EE66E040EE66ECC
:0E19AE00AEC0E1FFAFC0E2FFC80EE66E120051
:0E19BC00160E6F6E9F0E6B6E3B0E696E120064
:1019CA0020C401F0600E0116050E006E005004E0FE
:1019DA000132019EFF0FFBD70150000A01E05DD0E2
:1019EA0039D0568E080E0001B86F57D0FFEC05F0BB
:1019FA0054D07AEC06F051D0B70E536E000E546EE6
:101A0A005680010E576E568E48D050EC02F045D0E3
:101A1A0049EC08F042D0B60E006E000E016E245159
:101A2A000026D8B0012A00C053F001C054F05680F5
:101A3A00010E576E568E31D0568EB60EE16E000EDE
:101A4A00E26E2451E126D8B0E22A22C4E6FF25D06C
:101A5A0024D023D004012151050AC3E02151060AEA
:101A6A00C5E02151090AC5E02151080AC5E0215102
:101A7A00000ACBE02151010ACBE02151030AC8E058
:101A8A0021510A0AC8E021510B0AD6E02151070A5E
:0C1A9A00DFE021510C0ADDE0DCD7120077
:101AA6000001C56B59C0E1FF5AC0E2FFE66A040EA9
:101AB6005918E16E5AC0E2FF000EE21AE66ABEAF9E
:061AC60001D0BE9F1200DA
:101ACC00280E0001A86F4A0EA96F000EAA6FAC0E6B
:101ADC009F6F4A0EA06F000EA16FD40EA26F490E1D
:101AEC00A36F000EA46FFE0EA56F490EA66F000E1D
:041AFC00A76F1200BE
:101B000054C100F0ECEC08F00A0E046ED70E056E1E
:101B1000230E066E820E076E8BEC06F01EEC07F0AD
:101B200000C055F101C056F100A002D0BD8801D01F
:101B3000BD98010155A302D0BD8A01D0BD9A55C1FF
:101B400000F056C101F001320032019E0132003234
:081B5000019E00C0BEFF12005F
:101B580054C100F0ECEC08F00A0E046ED70E056EC6
:101B6800230E066E820E076E8BEC06F01EEC07F055
:101B780000C055F101C056F100A002D0BA8801D0CA
:101B8800BA98010155A302D0BA8A01D0BA9A55C1B0
:101B980000F056C101F001320032019E01320032DC
:081BA800019E00C0BBFF12000A
:101BB000839205014391839C429B81B20CD0010E1C
:101BC00001015425E16E000E5521E26EE66A839E06
:101BD0000501429F2BD081B429D081B814D0010EC9
:101BE00001015425E16E000E5521E26E010EE66EF4
:101BF000020E5425E16E000E5521E26EE66A838ED8
:101C00000501428F13D0020E01015425E16E000E32
:101C10005521E26E010EE66E010E5425E16E000EB6
:101C20005521E26EE66A839E0501429F030E010183
:101C30005425E96E000E5521EA6EEECF00F00052F9
:101C40000AE1050109A102D043858384839043936F
:101C5000838A428D09D0050109A102D0839443955E
:0A1C600083804383839A429D1200A3
:101C6A000A6A0350D8A40A800750D8A40A820A50E4
:101C7A00D8B498EF0EF0030AD8B451EF0EF00AB0B8
:101C8A004CEF0EF006AE96EF0EF094EF0EF002AEA9
:101C9A0094EF0EF096EF0EF00250800B0A6E029E41
:101CAA000650800B069E0A18D8B462EF0EF00A504E
:101CBA00D8B494EF0EF096EF0EF00750035CD8B448
:101CCA006CEF0EF0D8A088EF0EF08EEF0EF00650F3
:101CDA00025CD8B476EF0EF0D8A088EF0EF08EEF43
:101CEA000EF00550015CD8B480EF0EF0D8A088EF52
:101CFA000EF08EEF0EF00450005CD8B498EF0EF0A0
:101D0A00D8B08EEF0EF00A52D8B496EF0EF094EFD8
:101D1A000EF00A52D8B494EF0EF096EF0EF0D88077
:0E1D2A001200D8901200D880D8841200120047
:101D3800140E01015425566F000E5521576F5ED0C1
:101D480005014099409B409D120E01015425E96E02
:101D5800000E5521EA6EEE50190A08E1140E5425BA
:101D6800E16E000E5521E26E050EE66E6BD00101A4
:101D7800050E5425E96E000E5521EA6EEECF5DF191
:101D880006C55EF13BEC02F0005203E00501408F0E
:101D980002D00501409F140E01015425E16E000E8A
:101DA8005521E26E0A0EE66E4DD00501408B00AB60
:101DB80009D0140E01015425E16E000E5521E26E82
:101DC8000F0EE66E3FD0050100B909D0140E0101CF
:101DD8005425E16E000E5521E26E140EE66E32D0E7
:101DE800050100A909D0140E01015425E16E000E69
:101DF8005521E26E190EE66E25D024D056C1E9FFB2
:101E080057C1EAFFEE50000A9BE056C1E9FF57C1EF
:101E1800EAFFEE50050AABE056C1E9FF57C1EAFFF9
:101E2800EE500A0AC2E056C1E9FF57C1EAFFEE5078
:101E38000F0AC9E056C1E9FF57C1EAFFEE50140A7C
:061E4800CFE0DBD7120021
:101E4E00120E01015425576F000E5521586FD2D036
:101E5E000501409540914093409751915193010E49
:101E6E0001015425E96E000E5521EA6EEECF00F009
:101E7E00005215E1020E5425E96E000E5521EA6E50
:101E8E00EECF00F000520BE1030E5425E96E000E6A
:101E9E005521EA6EEECF00F0005201E110D0030E94
:101EAE005425E16E000E5521E26E010EE66E120E05
:101EBE005425E16E000E5521E26E050EE66EC1D080
:101ECE00040E5425E96E000E5521EA6E05010751E8
:101EDE00EE5C0AE2120E01015425E16E000E552150
:101EEE00E26E0A0EE66E08D00101120E5425E16E66
:101EFE00000E5521E26EE66AA4D006C559F1050E14
:101F0E005425E96E000E5521EA6EEECF5AF135ECEE
:101F1E0009F000C056F10050FF0A35E05651000A94
:101F2E0010E10501408100A10BD040915181120EAC
:101F3E0001015425E16E000E5521E26E0F0EE66E84
:101F4E0022D001015651010A10E10501408300A380
:101F5E000BD040935183120E01015425E16E000EF9
:101F6E005521E26E0F0EE66E0ED00501408500A5DE
:101F7E000AD04095120E01015425E16E000E552136
:101F8E00E26E0F0EE66E5DD00501408700A70AD007
:101F9E00130E01015425E16E000E5521E26E010E65
:101FAE00E66E18D00101130E5425E96E000E552170
:101FBE00EA6EEE520FE0130E5425E16E000E55211F
:101FCE00E26EE66A120E5425E16E000E5521E26EA7
:101FDE00140EE66E36D00501409751915193120EB4
:101FEE0001015425E16E000E5521E26E190EE66ECA
:101FFE0028D027D057C1E9FF58C1EAFFEE50000A9A
:10200E00D8B426D757C1E9FF58C1EAFFEE50050AEA
:10201E00D8B456D757C1E9FF58C1EAFFEE500A0AA5
:10202E00D8B46BD757C1E9FF58C1EAFFEE500F0A7B
:10203E00ABE057C1E9FF58C1EAFFEE50140ACBE0FE
:04204E00D8D71200CD
:10205200190E01015425036E000E5521046E86D21D
:102062000501419D419B429342914199419F429971
:102072004295429734D31D0E01015425E96E000E9C
:102082005521EA6EEE5209E0190E5425E16E000E5A
:102092005521E26E0A0EE66E08D0190E5425E16E45
:1020A200000E5521E26E640EE66E19D305014189D8
:1020B2001C0E01015425E96E000E5521EA6EEE5206
:1020C20009E0190E5425E16E000E5521E26E1E0E36
:1020D200E66E08D0190E5425E16E000E5521E26E0F
:1020E2000F0EE66EFCD20501418B01AB0AD01A0E2F
:1020F20001015425E16E000E5521E26E010EE66EDD
:1021020018D001011A0E5425E96E000E5521EA6E0F
:10211200EE520FE01A0E5425E16E000E5521E26ECA
:10212200E66A190E5425E16E000E5521E26EC80EC4
:10213200E66ED5D2050101AB0AD01A0E0101542573
:10214200E16E000E5521E26E010EE66E18D001011D
:102152001A0E5425E96E000E5521EA6EEE520FE07A
:102162001A0E5425E16E000E5521E26EE66A190E32
:102172005425E16E000E5521E26E230EE66EAFD2BB
:1021820005014199418D01AF09D0190E0101542574
:10219200E16E000E5521E26E820EE66EA0D20501BE
:1021A200418F1C0E01015425E96E000E5521EA6E85
:1021B200EE5209E0190E5425E16E000E5521E26E31
:1021C200780EE66E08D0190E5425E16E000E5521E8
:1021D200E26E690EE66E83D20501428102A10AD047
:1021E2001B0E01015425E16E000E5521E26E010E17
:1021F200E66E18D001011B0E5425E96E000E552122
:10220200EA6EEE520FE01B0E5425E16E000E5521D0
:10221200E26EE66A190E5425E16E000E5521E26E59
:10222200C80EE66E5CD2050102A10AD01B0E0101A6
:102232005425E16E000E5521E26E010EE66E18D0B5
:1022420001011B0E5425E96E000E5521EA6EEE5275
:102252000FE01B0E5425E16E000E5521E26EE66A78
:10226200190E5425E16E000E5521E26E790EE66ECE
:1022720036D20501419F428302A509D0190E010100
:102282005425E16E000E5521E26E820EE66E27D2D3
:10229200050101AF0BD002A509D0190E0101542589
:1022A200E16E000E5521E26E870EE66E18D2050130
:1022B200428702A90AD01A0E01015425E16E000ECE
:1022C2005521E26E010EE66E18D001011A0E542558
:1022D200E96E000E5521EA6EEE520FE01A0E5425F9
:1022E200E16E000E5521E26EE66A190E5425E16E8A
:1022F200000E5521E26E8C0EE66EF1D10501428987
:1023020002AB09D0190E01015425E16E000E5521D0
:10231200E26E910EE66EE3D10501419D01BF09D047
:10232200190E01015425E16E000E5521E26E960E42
:10233200E66ED5D10501429702A90AD01A0E010113
:102342005425E16E000E5521E26E010EE66E18D0A4
:1023520001011A0E5425E96E000E5521EA6EEE5265
:102362000FE01A0E5425E16E000E5521E26EE66A68
:10237200190E5425E16E000E5521E26E9B0EE66E9B
:10238200AED10501428502A70AD01B0E01015425D8
:10239200E16E000E5521E26E010EE66E18D00101CB
:1023A2001B0E5425E96E000E5521EA6EEE520FE027
:1023B2001B0E5425E16E000E5521E26EE66A190EDF
:1023C2005425E16E000E5521E26EA00EE66E87D115
:1023D20005014287429302A90AD01B0E010154252E
:1023E200E16E000E5521E26E010EE66E18D001017B
:1023F2001B0E5425E96E000E5521EA6EEE520FE0D7
:102402001B0E5425E16E000E5521E26EE66A190E8E
:102412005425E16E000E5521E26EA50EE66E5FD1E7
:1024220005014299190E01015425E16E000E552154
:10243200E26EAA0EE66E53D10501429702A90AD0B6
:102442001B0E01015425E16E000E5521E26E010EB4
:10245200E66E18D001011B0E5425E96E000E5521BF
:10246200EA6EEE520FE01B0E5425E16E000E55216E
:10247200E26EE66A190E5425E16E000E5521E26EF7
:10248200AF0EE66E2CD105014281418F4295190EA5
:1024920001015425E16E000E5521E26EC80EE66E72
:1024A2001ED1050102BD09D0190E01015425E16EAC
:1024B200000E5521E26ECD0EE66E11D10101040E21
:1024C2005425016E000E5521026E01C0E9FF02C0C3
:1024D200EAFFEECF48F501C0E9FF02C0EAFF0501BD
:1024E2000751EE5C0BE34481190E01015425E16EA4
:1024F200000E5521E26ED20EE66E08D00101190ED1
:102502005425E16E000E5521E26EE66AE8D005011F
:102512000751000A29E14491040E01015425E16E9C
:10252200000E5521E26EE66A030E5425E16E000E9E
:102532005521E26EE66A0501486B020E010154253F
:10254200E96E000E5521EA6EEE5207E0020E5425A6
:10255200E16E000E5521E26EE66A190E5425E16E17
:10256200000E5521E26EE66ABAD0B9D003C0E9FF87
:1025720004C0EAFFEE50000AD8B472D503C0E9FFE6
:1025820004C0EAFFEE50050AD8B475D503C0E9FFCE
:1025920004C0EAFFEE500A0AD8B488D503C0E9FFA6
:1025A20004C0EAFFEE500F0AD8B49DD503C0E9FF7C
:1025B20004C0EAFFEE501E0AD8B4BCD503C0E9FF3E
:1025C20004C0EAFFEE50230AD8B4DAD503C0E9FF0B
:1025D20004C0EAFFEE50640AD8B4E1D503C0E9FFB3
:1025E20004C0EAFFEE50690AD8B4F6D503C0E9FF89
:1025F20004C0EAFFEE50780AD8B415D603C0E9FF4A
:1026020004C0EAFFEE50790AD8B433D603C0E9FF1A
:1026120004C0EAFFEE50820AD8B43AD603C0E9FFFA
:1026220004C0EAFFEE50870AD8B441D603C0E9FFDE
:1026320004C0EAFFEE508C0AD8B460D603C0E9FFAA
:1026420004C0EAFFEE50910AD8B466D603C0E9FF8F
:1026520004C0EAFFEE50960AD8B46CD603C0E9FF74
:1026620004C0EAFFEE509B0AD8B48BD603C0E9FF40
:1026720004C0EAFFEE50A00AD8B4AAD603C0E9FF0C
:1026820004C0EAFFEE50A50AD8B4CAD603C0E9FFD7
:1026920004C0EAFFEE50AA0AD8B4CED603C0E9FFBE
:1026A20004C0EAFFEE50AF0AD8B4EDD603C0E9FF8A
:1026B20004C0EAFFEE50C80AD8B4F3D603C0E9FF5B
:1026C20004C0EAFFEE50CD0AD8B4F8D603C0E9FF41
:1026D20004C0EAFFEE50D20AD8B419D746D7120086
:1026E200020E01015425036E000E5521046E03C033
:1026F200E9FF04C0EAFF010EEE24006E000EEE2098
:10270200016E03C0E1FF04C0E2FF00C0E6FF01C0AA
:10271200E6FF03C0E9FF04C0EAFFEECF01F0EECF0F
:1027220002F05751025C02E15651015C0BE3020ECA
:102732005425E16E000E5521E26EE66AE66A010E4C
:08274200006E01D0006A1200D4
:10274A00838C0501428B409D060E01015425596F69
:10275A00000E55215A6F010E5B6F000E5C6FFBEC89
:10276A0008F0005203E083720501437181B620D05C
:10277A000501408941934195419D419B4293429174
:10278A004299429742950A0E01015425596F000E4B
:10279A0055215A6F010E5B6F000E5C6FFBEC08F05F
:1027AA00005205E054C1E1FF55C1E2FFE66A09D0D3
:1027BA000A0E01015425596F000E55215A6F8CECEF
:0427CA0007F0120002
:0A27CE00D08EA28AA08AF28E1200BB
:1027D800920E006E4A0E016E000E026E0E0E00245E
:1027E800F66E000E0120F76E000E0220F86E09004A
:1027F800F5CF03F003C004F00F0E0024F66E000EB0
:102808000120F76E000E0220F86E0900F5CF01F0E6
:102818000150035C12E2920E006E4A0E016E000E29
:10282800026E0F0E0024F66E000E0120F76E000EE9
:102838000220F86E0900F5CF04F0920E006E4A0EE1
:10284800016E000E026E100E0024F66E000E0120BE
:10285800F76E000E0220F86E0900F5CF01F0015066
:10286800045C12E2920E006E4A0E016E000E026EB9
:10287800100E0024F66E000E0120F76E000E0220E6
:0E288800F86E0900F5CF04F004C000F0120055
:102896000101336B346B356B020E3025F66E000E7C
:1028A6003121F76E000E3221F86E0900F5CF05F0E2
:1028B600030E3025F66E000E3121F76E000E322122
:1028C600F86E0900F5CF00F000C003F0000E046EAC
:1028D60003C001F0006A05500024066E000E0120B8
:1028E600076E30C108F031C109F032C10AF0010E9D
:1028F6000824F66E000E0920F76E000E0A20F86E08
:102906000900F5CF01F00150020A1BE1060E08246A
:10291600F66E000E0920F76E000E0A20F86E09000A
:10292600F5CF01F00150335D0CE2060E0824F66E79
:10293600000E0920F76E000E0A20F86E0900F5CF8A
:1029460033F1010E0824F66E000E0920F76E000E14
:102956000A20F86E0900F5CF01F00150040A1BE1C8
:10296600080E0824F66E000E0920F76E000E0A20E7
:10297600F86E0900F5CF01F00150335D0CE2080E48
:102986000824F66E000E0920F76E000E0A20F86E77
:102996000900F5CF33F108C0F6FF09C0F7FF0AC0FA
:1029A600F8FF0900F5CF00F000503425016E000E47
:1029B6003521026E01C034F102C035F10750025CC8
:1029C60002E10650015C01E30FD008C0F6FF09C022
:1029D600F7FF0AC0F8FF0900F5CF00F000500826FF
:0E29E600000E09220A2283D733C100F012002E
:1029F400010E0001BA25E96E000EBB21EA6EEECF8E
:102A040000F000C002F0000EC05D02E10250BF5DA4
:102A140003E2BFC002F00AD00250BF5D006E000E98
:102A2400C059016E00C0BFF001C0C0F0036A02507B
:102A3400035C1CE2280EE96E040EEA6E0350E926DC
:102A4400D8B0EA2AEECF00F0BCC0E1FFBDC0E2FF7F
:102A540000C0E6FF010EBC25006E000EBD21016E14
:102A640000C0BCF001C0BDF0032AE1D7000E006E27
:102A7400C051005C02E1BF51000828E2010EAE25FE
:102A8400E16E000EAF21E26E080EE66E020EAE2578
:102A9400E16E000EAF21E26E280EE66E040EE66EC5
:102AA400BAC0E9FFBBC0EAFFEECF00F000BC07D01C
:102AB400AEC0E1FFAFC0E2FFC80EE66E06D0AEC006
:102AC400E1FFAFC0E2FF880EE66E19D0010EAE251D
:102AD400E16E000EAF21E26E080EE66E020EAE2528
:102AE400E16E000EAF21E26E200EE66E040EE66E7D
:102AF400AEC0E1FFAFC0E2FF840EE66EBE9F1200DF
:0A2B04005F5202E0B5EC02F012008F
:082B0E00067EECEC03F012005E
:102B160060DE00C02EF1280E0101306F4A0E316FC3
:102B2600000E326FB5DE00C02FF12E51005C03E2BD
:0C2B36002EC100F002D02FC100F01200F0
:082B42000B6A0B86FF0E120066
:0A2B4A006984EF0E68166D82120018
:042B5400A19A120030
:102B58006D92699468A403D0FB0E6816FBD7120027
:102B68000001B851000A0BE16D6A696ADEEC0CF0ED
:102B78002ADE6DB602D06D86FCD7010EB86F120042
:062B88008C948C80120009
:102B8E000501546B556B0101546BACEC0DF0050156
:102B9E00526B536B0101546B80EC0DF08C90E10E77
:102BAE000101546F000E556FF40E566F010E576FE4
:0A2BBE0091DD0052D8A48C741200BF
:102BC8008C908C928C848C9A8C9C8C8E8C968C8815
:022BD8001200E9
:102BDA00BF0E8314006E009A0092FE0E00148C6ED3
:0E2BEA00800E8310006E040E00108C6E120020
:102BF800FE0E8314006E0092F70E00148C6E040E05
:0C2C08008310006E100E00108C6E120085
:102C14000501486B076B40C1E1FF41C1E2FF010EB2
:102C2400E66E010E01014025E16E000E4121E26EC7
:102C3400E66A020E4025E16E000E4121E26EE66A6C
:102C4400030E4025E16E000E4121E26EE66A040E99
:102C54004025E16E000E4121E26EE66A050E402534
:102C6400E16E000E4121E26EE66A120E4025E16E2D
:102C7400000E4121E26EE66A130E4025E16E000E5D
:102C84004121E26EE66A140E4025E16E000E4121F8
:102C9400E26EE66A150E4025E16E000E4121E26EF9
:102CA400E66A160E4025E16E000E4121E26EE66AE8
:102CB400170E4025E16E000E4121E26EE66A180E01
:102CC4004025E16E000E4121E26EE66A190E4025B0
:102CD400E16E000E4121E26EE66A1C0E4025E16EB3
:102CE400000E4121E26EE66A1D0E4025E16E000EE3
:102CF4004121E26EE66A1A0E4025E16E000E412182
:102D0400E26EE66A1B0E4025E16E000E4121E26E82
:042D1400E66A120059
:102D180070A01CD0BAC0E9FFBBC0EAFFEECF01F03B
:102D28000150800A12E159C0E9FF5AC0EAFFEECF0C
:102D380001F0000E000A02E1840E011806E1BAC093
:102D4800E1FFBBC0E2FF8C0EE66E7090DF0E6816E6
:022D5800120067
:102D5A00E70E83148C6E40C154F141C155F1E8EC81
:102D6A000AF081A007D040C159F141C15AF1A3EC40
:102D7A0007F032D040C1E9FF41C1EAFFEECF00F0CF
:102D8A00005206E040C154F141C155F1D9DC24D0CA
:102D9A0040C154F141C155F1D8EC0DF040C154F194
:102DAA0041C155F127EC0FF040C154F141C155F131
:102DBA009CEC0EF040C154F141C155F1ADEC09F063
:102DCA0040C154F141C155F150EC0BF040C154F1EE
:0A2DDA0041C155F129EC10F0120080
:062DE4008C948C801200AB
:102DEA00BF0E8314006E009AF70E00148C6E800ECC
:0C2DFA008310006E100E00108C6E120092
:102E060044C104F045C105F046C106F047C107F0CC
:102E160040C100F041C101F042C102F043C103F0DC
:102E260073DE00C050F101C051F102C052F103C07F
:102E360053F150C148F151C149F152C14AF153C150
:102E46004BF145C004F046C005F047C006F048C047
:102E560007F050C100F051C101F052C102F053C158
:102E660003F052DE00C04CF101C04DF102C04EF13C
:102E760003C04FF149C000F04AC001F04BC002F058
:102E86004CC003F050C104F051C105F052C106F028
:102E960053C107F0ECEC03F000C049F001C04AF062
:102EA60002C04BF003C04CF000C004F001C005F0B6
:102EB60002C006F003C007F0000E006E000E016EA1
:102EC600200E026E820E036E35EC0EF0010ED8B0A7
:102ED600000E006E005209E0000E496E000E4A6EAA
:102EE600200E4B6E820E4C6E20D0000E046E000E2D
:102EF600056EA00E066E820E076E49C000F04AC02F
:102F060001F04BC002F04CC003F035EC0EF0010EA0
:102F1600D8B0000E006E005208E0000E496E000E9A
:102F26004A6EA00E4B6E820E4C6E48C145F049C1EA
:102F360046F04AC147F04BC148F0000E006E000E45
:102F4600016E200E026E810E036E48C104F049C167
:102F560005F04AC106F04BC107F08BEC06F000C045
:102F660050F101C051F102C052F103C053F1000EFD
:102F7600006E000E016E000E026E7E0E036E49C0DC
:102F860004F04AC005F04BC006F04CC007F08BECCD
:102F960006F050C104F051C105F052C106F053C10C
:102FA60007F0ECEC03F000C050F101C051F102C093
:102FB60052F103C053F1CD0E006ECC0E016E4C0ED5
:102FC600026E7C0E036E4CC104F04DC105F04EC17D
:102FD60006F04FC107F08BEC06F050C104F051C16A
:102FE60005F052C106F053C107F0ECEC03F01200F5
:102FF6000050086E0150006E016A026A036A0B6A8D
:103006000C6A960E036E0A6A00C001F008C000F052
:0A301600086A026A14EC0BF01200C5
:103020000501546B556B0101546BACEC0DF00501BF
:10303000526B536B0101546B80EC0DF08C90D90EE8
:103040000101546F000E556FF40E566F010E576F4D
:0C30500071EC13F00052D8A48C74120034
:10305C00040E5918006E00C059F00001B851080A4E
:10306C000AE122C46EFF6E50000803E2100EB86F26
:10307C0002D0040EB86FC551010A3CE1020E59246E
:10308C00E16E000E5A20E26E280EE66E040EE66E1D
:10309C004DEC03F00001AD51020A07E159C0E1FF0C
:1030AC005AC0E2FF840EE66E24D0040E5918006E4E
:1030BC0000C059F059C0E9FF5AC0EAFFEECF00F04A
:1030CC0000BC0CD0040E5918006E00C059F059C049
:1030DC00E1FF5AC0E2FFC80EE66E0BD0040E591881
:1030EC00006E00C059F059C0E1FF5AC0E2FF880ED3
:0A30FC00E66E02D053EC0DF0120056
:1031060066EC0DF05D6A5E6A0101096B0A6B6A6A1C
:10311600686ADEEC0CF06D8C6E6A716A6D9C00015B
:10312600CA6BCB6B000ECB5D02E1080ECA5D17E2DF
:10313600CAC000F0CBC001F0003600900136003660
:1031460000900136000E0024E16E040E0120E26EAE
:10315600E66AE66AE66AE66ACA4BCB2BE3D7160E40
:10316600706E68A603D0F70E6816FBD7566ABE6B5C
:10317600BF6BC06B6D98080E596E040E5A6EB76B16
:04318600B86B120010
:10318A000B6A0A6A096A086A0E6A03340836045026
:10319A00085E0550D8A0053C095E0650D8A0063C3A
:1031AA000A5E0750D8A0073C0B5EE86AD8A0010E59
:1031BA000E5E0336070E0C6E0334083609360A36DD
:1031CA000B360E36045003A012D0085E0550D8A064
:1031DA00053C095E0650D8A0063C0A5E0750D8A0F6
:1031EA00073C0B5EE86AD8A0010E0E5E11D00826D5
:1031FA000550D8B0053C09260650D8B0063C0A2628
:10320A000750D8B0073C0B26E86AD8B0010E0E2644
:10321A0003360C2ED1D70234083609360A360B3655
:10322A000E36045003A012D0085E0550D8A0053C03
:10323A00095E0650D8A0063C0A5E0750D8A0073C93
:10324A000B5EE86AD8A0010E0E5E11D00826055062
:10325A00D8B0053C09260650D8B0063C0A260750C5
:10326A00D8B0073C0B26E86AD8B0010E0E26023603
:10327A00070E0C6E0234083609360A360B360E363D
:10328A00045002A012D0085E0550D8A0053C095E81
:10329A000650D8A0063C0A5E0750D8A0073C0B5E31
:1032AA00E86AD8A0010E0E5E11D008260550D8B0E3
:1032BA00053C09260650D8B0063C0A260750D8B065
:1032CA00073C0B26E86AD8B0010E0E2602360C2EF1
:1032DA00D1D70134083609360A360B360E36045071
:1032EA0002A012D0085E0550D8A0053C095E06501F
:1032FA00D8A0063C0A5E0750D8A0073C0B5EE86AD5
:10330A00D8A0010E0E5E11D008260550D8B0053C93
:10331A0009260650D8B0063C0A260750D8B0073C02
:10332A000B26E86AD8B0010E0E260136070E0C6E7F
:10333A000134083609360A360B360E36045001A017
:10334A0012D0085E0550D8A0053C095E0650D8A0E8
:10335A00063C0A5E0750D8A0073C0B5EE86AD8A074
:10336A00010E0E5E11D008260550D8B0053C09267C
:10337A000650D8B0063C0A260750D8B0073C0B26A0
:10338A00E86AD8B0010E0E2601360C2ED1D70034C9
:10339A00083609360A360B360E36045001A012D00A
:1033AA00085E0550D8A0053C095E0650D8A0063C28
:1033BA000A5E0750D8A0073C0B5EE86AD8A0010E47
:1033CA000E5E11D008260550D8B0053C09260650D5
:1033DA00D8B0063C0A260750D8B0073C0B26E86A44
:1033EA00D8B0010E0E260036070E0C6E00340836D1
:1033FA0009360A360B360E36045000A012D0085E83
:10340A000550D8A0053C095E0650D8A0063C0A5EC5
:10341A000750D8A0073C0B5EE86AD8A0010E0E5EE2
:10342A0011D008260550D8B0053C09260650D8B058
:10343A00063C0A260750D8B0073C0B26E86AD8B0E3
:10344A00010E0E2600360C2ED1D700B00ED0045035
:10345A0008260550D8B0053C09260650D8B0063CC7
:0C346A000A260750D8B0073C0B261200C1
:103476000001C551020A03E1FAEC14F01FD053EC27
:103486000DF0AC51000A19E1010EAE25E16E000EF9
:10349600AF21E26E080EE66E020EAE25E16E000E5C
:1034A600AF21E26E200EE66E040EE66EAEC0E1FFC0
:0E34B600AFC0E2FF8C0EE66E01D0AC6B1200D0
:1034C40059C0E9FF5AC0EAFFEECF00F000AE05D0C4
:1034D40059C0E1FF5AC0E2FFE66A0001AD6BC56B5B
:1034E400576A586A566AE5EC0CF082EC15F00FEC5A
:0434F4000CF01200C6
:1034F800020E0501466FEB0E0101406F000E416F91
:0435080028DC1200A9
:08350C000001D46B87DD120001
:10351400EB0E0101406F000E416F0AEC16F0120031
:103524000001B851000A0BE16D6A696ADEEC0CF027
:103534006DB602D06D86FCD70001010EB86FB8518C
:10354400010A08E16DBA06D0686A696A6980698807
:10355400020EB86F68A406D069A404D0FB0E6816E6
:10356400ACEC15F06DA203D0AAEC15F0DCD068A089
:1035740018D069A016D0C5DD040EB86F200E040162
:10358400026F040E036F080E016F000E0015006E2B
:1035940000C000F48C0E0011006E00C000F4FE0E9A
:1035A400681668A806D069A804D0A5EC15F0EF0E3B
:1035B400681668AC04D069AC02D0BF0E681668AA5D
:1035C40004D069AA02D08CEC16F068A202D069B2C9
:1035D4006A6A040E0001B85D03E2AAEC15F0A3D0F8
:1035E40069A69FD00101256B040E255DD8B099D042
:1035F40068A693D06CCF60F0F70E6816780E0001C1
:103604006015016E0150000AD8A486D0FD0E601525
:10361400016E026AFF0E0216000E021802E1000E8D
:1036240001186CE17E0E6015016E01C003F00332D7
:10363400039E03C000F0000E016E003600900136B8
:10364400003600900136000E0024026E040E0120A4
:10365400036E02C0BAF003C0BBF002C0AEF003C0F8
:10366400AFF0040EAE19006E00C0AEF002C0E9FF68
:1036740003C0EAFFEECF00F000C001F03C0E0116DB
:103684000132019E0132019E01500D0A35E1020E04
:10369400BA25E96E000EBB21EA6EEECF01F0EECF43
:1036A40002F00250040A02E1280E011823E1020E7E
:1036B400BA25E16E000EBB21E26E200EE66E040E0A
:1036C400E66E0101246B080E245D14E2200EE16E07
:1036D400040EE26E2451E126D8B0E22A280EE96EE7
:1036E400040EEA6E2451E926D8B0EA2AEECFE6FFAA
:1036F400242BE9D7E5DE01D0BCDE0DD0FD0E60152C
:10370400016E026AFF0E0216000E021802E1040E98
:10371400011801E1A1DC00D001D003D00101252B67
:0837240063D7AAEC15F01200B6
:10372C00060E0501466F81B403D00001D46B07D09F
:10373C0081B005D00001010ED46FF2EC16F000013F
:10374C00D453D8B473D0D50E0101546F000E556FFD
:10375C00E80E566F030E576F71EC13F0005265E0D4
:10376C000EC501F0006A005005010D11026E000E2D
:10377C000110036E0001E851031802E10250E71931
:10378C0046E00EC501F0006A005005010D11026EF5
:10379C00000E0110036E0001E851035C02E1E751D9
:1037AC00025C12E20501546B556B0101546BACECDD
:1037BC000DF0E80E0501526F030E536F640E0101FC
:1037CC00546F80EC0DF022D00EC501F0006A005051
:1037DC0005010D11026E000E0110036E0350000165
:1037EC00E85D02E10250E75D11E20501526B536B9B
:1037FC000101546B80EC0DF0E80E0501546F030EC3
:10380C00556F640E0101546FACEC0DF00ED0050138
:10381C00526B536B0101546B80EC0DF00501546B32
:10382C00556B0101546BACEC0DF002D010EC18F0A0
:02383C00120078
:10383E000450000A12E10550000A0FE10650000A7A
:10384E000CE10750000A09E1FF0E006EFF0E016E3B
:10385E007F0E026EFF0E036EA8D0086A096A07502B
:10386E00D8B4CAEF1CF00350D8B4CFEF1CF00250FE
:10387E0006180A6E028E068E0E6A02C008F001C08D
:10388E000CF000C00DF004500D5E0550D8A0053CA4
:10389E000C5E0650D8A0063C085E086A0C6A0D6ADB
:1038AE00D8A061EF1CF0D8900232013200320832FB
:1038BE00010E0E6E0750035ED8A06EEF1CF07E0E4A
:1038CE000E240326D8B0D4EF1CF074EF1CF07E0E3D
:1038DE000E240326D8A0D9EF1CF0180E0B6E0D3651
:1038EE000C3608360036013602360E360450005EAF
:1038FE000550D8A0053C015E0650D8A0063C025EDD
:10390E0006340E120EA08FEF1CF00D809AEF1CF0F5
:10391E00045000260550D8B0053C01260650D8B0FC
:10392E00062802260D900B2E76EF1CF0C0EF1CF031
:10393E00D8900036013602360E360450005E055021
:10394E00D8A0053C015E0650D8A0063C025E0634A7
:10395E000E10010B0D26D8B00C2AD8B4082AD8A404
:10396E00C0EF1CF008320C320D32032AD8B4D4EF5B
:10397E001CF00AAE089E0850026E0C50016E0D50DF
:10398E00006EDCEF1CF0010EA1EC15F0DCEF1CF06C
:10399E00020E92EC00F0DCEF1CF0040E75EC00F061
:0C39AE00DCEF1CF0080E85EC00F01200AD
:1039BA0001012551000A12E024C100F0000E016E37
:1039CA00003600900136590E0024E96E000E0120DF
:1039DA00EA6EEECF04F0EECF05F011D024C100F06C
:1039EA00000E016E0036009001364E0E0024E96E7C
:1039FA00000E0120EA6EEECF04F0EECF05F0020EC3
:103A0A000424E16E000E0520E26E26C1E6FF27C1FE
:103A1A00E6FF010E0424E16E000E0520E26E28C1C5
:103A2A00E6FF04C0E9FF05C0EAFFEECF00F004C0DC
:103A3A00E1FF05C0E2FF400E0014E66E04C0E9FF94
:103A4A0005C0EAFFEECF00F0880E001204C0E1FFC5
:103A5A0005C0E2FF00C0E6FF2551000A1BE024C1B1
:103A6A0000F0000E016E003600900136590E002457
:103A7A00026E000E0120036E02C0E9FF03C0EAFFD6
:103A8A00040EEE18006E02C0E1FF03C0E2FF00C0A0
:103A9A00E6FF1AD024C100F0000E016E0036009035
:103AAA0001364E0E0024026E000E0120036E02C083
:103ABA00E9FF03C0EAFF040EEE18006E02C0E1FF40
:103ACA0003C0E2FF00C0E6FF04C000F005C001F039
:023ADA001200D8
:103ADC00010E0501466F394A3A2A030E3A5C02E19F
:103AEC00E80E395C04E3831C8C6E396A3A6A120066
:103AFC008BEC15F000C0B9F0010E5F6E24C161F0C3
:103B0C0025C162F026C1B1F027C1B2F083EC18F0E8
:103B1C00010E016E0150010A02E1B4EC15F0120025
:103B2C0024C104F025C105F0000E066E076E0436A4
:103B3C0004900536063607360436049005360636EC
:103B4C000736000E006E6C0E016EDC0E026E020E5D
:103B5C00036EC5EC18F000C004F001C005F002C003
:103B6C0006F003C007F0010E045E000E055A065A5B
:103B7C00075A04C02AF105C02BF106C02CF107C06E
:103B8C002DF10750000808E10650000805E105502A
:103B9C00000802E10450FF0808E2FF0E0101266F45
:103BAC00000E276F286F296F08D02AC126F12BC170
:103BBC0027F12CC128F12DC129F126C1CBFF120010
:103BCC00016A000E006E01012551005C02E12451D6
:103BDC00010805E2012A25332433259FF2D701C0C1
:043BEC0000F01200D3
:103BF000000E0101251902E1000E241902E1016AFB
:103C00000AD024C1E9FF25C1EAFFEECF00F0000E83
:0C3C100000BE010E016E01C000F01200A9
:103C1C000B6A0C6A0A6A0350D8B443EF1EF00A9E72
:103C2C00028E860E035E03BE21EF1EF0D8B421EF88
:103C3C001EF046EF1EF0036C080E035CD8A02FEFAD
:103C4C001EF0036E0236026A0350D8A4D89038EFE7
:103C5C001EF00350D8B438EF1EF0D8900232032E69
:103C6C0033EF1EF00BBC02A043EF1EF0D8A043EFC5
:103C7C001EF0022AD8B44DEF1EF0016A53EF1EF06D
:103C8C000B800BAE57EF1EF0016A57EF1EF0010EC2
:103C9C000C6EEDEC01F059EF1EF0000E0C6E59EFAE
:0C3CAC001EF0FF0E0C6E0250006E1200A5
:103CB8008C6A0101546B80EC0DF00101546BACEC83
:043CC8000DF01200E9
:103CCC00050E0501466F81B402D0366A06D081B06C
:103CDC0004D0010E366EC4EC15F03652D8B4F3D0C5
:103CEC00DD0E0101546F000E556FE80E566F030E7A
:103CFC00576F71EC13F00052D8B4E4D00EC501F03C
:103D0C00006A05010D510012000E0112FBEC17F0B8
:103D1C0000C03CF101C03DF102C03EF103C03FF1D7
:103D2C003CC1D0F03DC1D1F03EC1D2F03FC1D3F087
:103D3C00E7C000F0E8C001F0FBEC17F000C0C6F0E3
:103D4C0001C0C7F002C0C8F003C0C9F000C040F108
:103D5C0001C041F102C042F103C043F13CC144F146
:103D6C003DC145F13EC146F13FC147F103EC17F0AF
:103D7C0000C02FF001C030F002C031F003C032F0AF
:103D8C0000C004F001C005F002C006F003C007F04B
:103D9C00006A016A026A036A35EC0EF0010ED8B0B3
:103DAC00000E006E005247E00501546B556B01018B
:103DBC00546BACEC0DF02FC000F030C001F031C0F2
:103DCC0002F032C003F01EEC07F000C052F501C047
:103DDC0002F0036A02C053F52FC000F030C001F0AE
:103DEC0031C002F032C003F0CD0E046ECC0E056E65
:103DFC004C0E066E7B0E076E8BEC06F01EEC07F07D
:103E0C0000C033F001C034F0000E026E0150025CB1
:103E1C0002E10050640806E2640E0101386F000EE6
:103E2C00396F04D033C038F134C039F138C154F192
:103E3C0080EC0DF047D0317E0501526B536B0101C4
:103E4C00546B80EC0DF02FC000F030C001F031C08D
:103E5C0002F032C003F01EEC07F000C054F501C0B4
:103E6C0002F0036A02C055F52FC000F030C001F01B
:103E7C0031C002F032C003F0CD0E046ECC0E056ED4
:103E8C004C0E066E7B0E076E8BEC06F01EEC07F0EC
:103E9C0000C033F001C034F0000E026E0150025C21
:103EAC0002E10050640806E2640E01013A6F000E54
:103EBC003B6F04D033C03AF134C03BF13AC154F1FA
:0C3ECC00ACEC0DF002D0C7EC15F01200B9
:103ED8000501466B2E520BE0085183188C6E0AC5FB
:103EE80054F180EC0DF011C554F1ACEC0DF012005A
:023EF8001200B6
:023EFA001200B4
:103EFC00030E0501466FBED08C808C928C94F5EC31
:103F0C0016F00F0E0101596F010E5A6F080E5B6F00
:103F1C00000E5C6FFBEC08F0005202E0010E4D6EDF
:103F2C00CAD08C908C828C94F5EC16F00F0E01019B
:103F3C00596F010E5A6F030E5B6F000E5C6FFBEC3A
:103F4C0008F0005202E0020E4D6EB5D0E4EC15F014
:103F5C000F0E0101596F010E5A6F010E5B6F000EAF
:103F6C005C6FFBEC08F0005202E0030E4D6EA3D028
:103F7C008C8A8C9C8C9EFCEC15F00F0E0101596FF9
:103F8C00010E5A6F080E5B6F000E5C6FFBEC08F0B5
:103F9C00005202E0040E4D6E8ED08C9A8C8C8C9E4E
:103FAC00FCEC15F00F0E0101596F010E5A6F030E48
:103FBC005B6F000E5C6FFBEC08F0005202E0050E2C
:103FCC004D6E79D0E4EC15F00F0E0101596F010E16
:103FDC005A6F010E5B6F000E5C6FFBEC08F0005229
:103FEC0002E0060E4D6E67D08C868C98EDEC15F0C9
:103FFC000F0E0101596F010E5A6F050E5B6F000E0B
:10400C005C6FFBEC08F0005202E0070E4D6E53D0D3
:10401C008C960B0E0101546F010E556FF40E566FFA
:10402C00010E576F71EC13F00052D8A48C78EDECA4
:10403C0015F00F0E596F010E5A6F030E5B6F000EC9
:10404C005C6FFBEC08F0005202E0080E4D6E33D0B2
:10405C00E4EC15F00F0E0101596F010E5A6F010EB1
:10406C005B6F000E5C6FFBEC08F00052D8A44D6A3D
:10407C0022D021D04D50000AD8B43ED74D50010A61
:10408C00D8B44FD74D50020AD8B460D74D50030A5C
:10409C00D8B46ED74D50040AD8B47FD74D50050A0A
:1040AC0091E04D50060AA0E04D50070AB1E04D508A
:0840BC00080ACEE0DED7120075
:0840C400366AC7EC15F012008A
:1040CC00040E0501466F374A382A3850070A02E1B8
:1040DC00D00E371809E18350010F006E00C083FF2A
:0A40EC0083CF8CFF376A386A120098
:0840F600D09EF28EF28C120044
:1040FE000101226B200E0001B85D03E36DB201D009
:10410E0002D0006A2FD05DC024F15EC025F169DDBA
:10411E00005227E15DC020F15EC021F1000E5E1855
:10412E0002E1000E5D180BE00101010E2025E96E83
:10413E00000E2121EA6EEECF00F000C022F1010147
:10414E001FC124F1256B1CC126F11DC127F11EC113
:10415E0028F12CDC00C05DF001C05EF022C100F041
:06416E0001D0006A1200FE
:10417400200E0001B85D03E36DB201D002D0006AE5
:1041840052D009C124F10AC125F130DD00524AE1BF
:104194001FC124F1010E256F1CC126F11DC127F199
:1041A4001EC128F108DC00C009F101C00AF10001B8
:1041B400CC6BCD6BCE6BCF6B09C124F10AC125F159
:1041C40015DD005219E0200E0001B85D03E36DB265
:1041D40001D002D0006A27D0010E016E0150000AFE
:1041E40002E192EC1AF00001CC51CD11CE11CF11A5
:1041F40002E0006A18D0E0D709C120F10AC121F118
:10420400000E01010A1902E1000E091909E0010E6C
:104214002025E96E000E2121EA6EEECF00F003D0D6
:08422400006A01D0006A1200DB
:10422C00000E0101246F050E256F400E266F050E42
:06423C00276F5EDC12009A
:10424200100E0101246F000E256FBFDC00C035F097
:104252009280928292841C6B1D6B800E1D19006EDF
:10426200800E005C02E1030E1C5D12E21CC100F034
:104272001DC101F0003600900136E50E0024E16E0A
:10428200000E0120E26EE66AE66A1C4B1D2BE5D7A2
:104292000C0EC16EC08EC08AC088C096C094C092F7
:0642A200C080C280120082
:1042A800630E0101226F000E236F206B216B800EBD
:1042B8002119006E800E005C02E1040E205D0AE206
:1042C80022C1E1FF23C1E2FFE66A224B232B204BE8
:1042D800212BEDD7D59ED58CD59AD598D596D58452
:1042E800D592D5801CC100F01DC101F01EC102F09D
:1042F8001FC103F0000E046E1B0E056E370E066E0E
:10430800960E076E8BEC06F0000E046E000E056E1E
:10431800000E066E850E076E1FEC1CF000C004F040
:1043280001C005F002C006F003C007F0000E006EE1
:10433800000E016E000E026E870E036E87EC15F0FC
:0843480069DC00C0ABF01200BB
:1043500001011C5303E0F28AD58E02D0F29AD59E59
:02436000120049
:10436200949294941CC124F11DC125F196EC1DF088
:104372000C0EBD6E0C0EBA6EBE6ABB6A070ECA6E1A
:02438200120027
:10438400F250026EF29E0500FF6A0150FE6E00506C
:08439400FD6E02BEF28E120064
:10439C001CC100F000360090003600900050C21294
:1043AC000E0E206E0000202ED8EF21F0C282C2A289
:1043BC0001D0FDD7030EC216C4CF01F0006AC35062
:0843CC000012000E01121200A4
:1043D400B70E926EFF0E936EF19E956A8C6A120070
:1043E4002EDF949C8B9CF4DFB80E1C6F0B0E1D6F9C
:1043F400B6DF1ADF6F0E01011C6F120E1D6F030E64
:104404001E6F750E1F6F4EDF010E01011C6F9EDFC4
:0444140070DE120044
:104418000900F5CFE6FF0006FBE10106F9E112000D
:1044280061C01CF162C01DF1400E01011E6F010E3A
:064438001F6F61DE12009F
:10443E0081CF4DF583CF4EF5E5C04AF5E6C002F0CB
:10444E00036A02C04BF5E7C000F00036009000365C
:10445E0000900050021005014B6F060E026EE7C071
:10446E0000F0E8C001F0025005E001320032019E7A
:10447E00FF0FFAD700C04CF5E9C04FF5EAC000F0C7
:08448E00016A00C050F51200A4
:1044960013C11CF114C11DF115C11EF1010E01015C
:0644A6001F6F65DE12002D
:1044AC000101136B146B800E1419006E800E005CEE
:1044BC0002E1030E135D39E2176B186B156B166B6B
:1044CC00800E1619006E800E005C02E1100E155D58
:1044DC000BE213C11CF15CDF0050010117270150E6
:1044EC001823154B162BECD713C100F014C101F097
:1044FC00003600900136E50E0024E16E000E01201E
:10450C00E26E35C002F017C100F018C101F0025084
:10451C0005E001320032019EFF0FFAD700C0E6FF22
:0C452C0001C0E6FF134B142BBED7120099
:104538000001B851010A07E16DBA05D0686A6980BF
:104548006988020EB86F68A406D069A404D0FB0E6F
:104558006816ACEC15F06DA203D0AAEC15F0E0D00B
:1045680068A019D069A017D083EC18F0040EB86FB2
:10457800200E0401026F040E036F080E016F000E77
:104588000015006E00C000F48C0E0011006E00C013
:1045980000F4FE0E681668A806D069A804D0A5EC39
:1045A80015F0EF0E681668AC04D069AC02D0BF0EE7
:1045B800681668AA04D069AA02D08CEC16F068A222
:1045C80002D069B26A6A040E0001B85D03E2AAEC7F
:1045D80015F0A6D069A6A2D00101376B040E375D8D
:1045E800D8B09CD068A696D06CCF60F0F70E68164D
:1045F800780E00016015016E0150000AD8A489D018
:10460800FD0E6015016E026AFF0E0216000E0218FA
:1046180002E1000E01186EE17E0E6015016E01C008
:1046280003F00332039E03C000F0000E016E003653
:1046380000900136003600900136000E0024026E0C
:10464800040E0120036E02C0BAF003C0BBF002C022
:10465800AEF003C0AFF0040EAE19006E00C0AEF0AD
:1046680002C0E9FF03C0EAFFEECF00F000C001F08E
:104678003C0E01160132019E0132019E01500D0AC5
:1046880036E1020EBA25E96E000EBB21EA6EEECFC6
:1046980001F0EECF02F00250040A02E1280E0118E0
:1046A80023E1020EBA25E16E000EBB21E26E200E58
:1046B800E66E040EE66E0101366B080E365D14E2F6
:1046C800200EE16E040EE26E3651E126D8B0E22AE1
:1046D800280EE96E040EEA6E3651E926D8B0EA2AA9
:1046E800EECFE6FF362BE9D762EC1AF002D03BECAE
:1046F8001AF00ED0FD0E6015016E026AFF0E02164A
:10470800000E021802E1040E011802E12EEC18F066
:1047180000D001D003D00101372B60D7AAEC15F0E7
:0247280012007D
:10472A00076A086A3B0E096E000E0A6E800E0818A8
:10473A00006E800E005C02E1040E075C52E209C0C2
:10474A00E9FF0AC0EAFF010EEE24006E000EEE2019
:10475A00016E09C0E1FF0AC0E2FF00C0E6FF01C026
:10476A00E6FF09C0E9FF0AC0EAFFEECF05F0EECF87
:10477A0006F007C000F008C001F0000E08BEFF0EE8
:10478A00026E036E00360090013602360336A40E1E
:10479A000024F66E4A0E0120F76E000E0220F86E13
:1047AA000900F5CF01F00900F5CF02F00250065CCE
:1047BA0002E10150055C0EE3630E0724E16E000E70
:1047CA000820E26E010EE66E09C0E1FF0AC0E2FFB0
:1047DA00E66AE66A074A082A020E0926000E0A2233
:0847EA00A5D7ABC0D6FF1200F9
:1047F2001BC100F0000E016E00360090013600363B
:1048020000900136670E0024E16E000E0120E26E78
:1048120013C1E6FF14C1E6FF15C1E6FF16C1E6FFAC
:104822001BC100F0000E016E00360090013600360A
:1048320000900136830E0024E16E000E0120E26E2C
:1048420017C1E6FF18C1E6FF19C1E6FF1AC1E6FF6C
:02485200120052
:10485400050145818B8C05C500F0000E016E003604
:1048640000900136003600900136830E0024E96E74
:10487400000E0120EA6EEECF00F0EECF01F0EECF95
:0C48840002F0EECF03F07CDD8B9C1200F4
:1048900058EC25F0B80E0101136F3C0E146F000E9A
:1048A000156F000E166FD80E176F3E0E186F000EA4
:1048B000196F000E1A6F1B6B9CDF060E136F000E34
:1048C000146F000E156F000E166FDC0E176F3A0E88
:1048D000186F000E196F000E1A6F010E1B6F89DF23
:1048E000FA0E136F3E0E146F000E156F000E166F4A
:1048F000CC0E176F400E186F000E196F000E1A6F56
:10490000040E1B6F76DFC40E136F400E146F000E83
:10491000156F000E166FCC0E176F3C0E186F000E41
:10492000196F000E1A6F050E1B6F63DFF80E136F01
:104930003E0E146F000E156F000E166FFC0E176FF3
:104940003E0E186F000E196F000E1A6F030E1B6FCC
:1049500050DF140E136F350E146F000E156F000E1E
:10496000166FF80E176F340E186F000E196F000EC9
:104970001A6F020E1B6F3DDF0C0E136F350E146F96
:10498000000E156F000E166F2C0E176F370E186F76
:10499000000E196F000E1A6F060E1B6F2ADF22DD44
:1049A0000501056B0001635305E03EDD00C02EF0FC
:1049B0000001636B65530CE042DD400E0101136F93
:1049C000050E146F400E156F66DD70DD0001656B1E
:0449D000E9D7FFD74D
:104AB00010EE2EF0200E006E010E016E720EF66EDC
:0E4AC0004A0EF76E000EF86E0CEC22F012009B
:1049D4002A03430065006E007400720061006C00DD
:1049E400200043006F006E00740072006F006C00C2
:0A49F400610064006F0072006100B2
:1049FE002A03430065006E007400720061006C00B3
:104A0E00200043006F006E00740072006F006C0097
:0A4A1E00610064006F007200610087
:104A28000902290001010080320904000002030084
:104A3800000009210101000122210007058103402E
:094A480000010705010340000113
:104A51000600FF0901A10119012940150026FF00E7
:104A61007508954081021901294075089540910208
:014A7100C084
:014A72000043
:044A7300000000003F
:024A770000003D
:014A7900003C
:014A7A00003B
:024A7B00000039
:024A7D00000037
:084A7F0000000000000000002F
:024A870000002D
:044A89000000000029
:044A8D000000000025
:014A91000024
:104A920012010002000000083412010000010102AC
:024AA200000111
:084AA4000100020003000500FF
:044AAC0004030904F2
:020000040030CA
:0E000000240E381EFF0181FF0FC00FE00F40DD
:00000001FF
