:04000000FCEF17F00A
:1000080000C023F001C022F002C021F003C020F09C
:1000180004C01FF005C01EF006C01DF007C01CF08C
:1000280008C01BF009C01AF00AC019F00BC018F07C
:100038000CC017F00DC016F00EC015F0E1CF2CF073
:10004800E2CF2DF0E9CF2AF0EACF2BF0F3CF28F05A
:10005800F4CF29F0F5CF27F0F8CF24F0F7CF25F02B
:10006800F6CF26F0F2A40AD0E0EC17F0F00E01016A
:10007800166F000E176F82EC16F0F294A1AA03D047
:10008800E7EC16F0A19A27C0F5FF24C0F8FF25C0B9
:10009800F7FF26C0F6FF28C0F3FF29C0F4FF23C0EE
:1000A80000F022C001F021C002F020C003F01FC000
:1000B80004F01EC005F01DC006F01CC007F01BC0F0
:1000C80008F01AC009F019C00AF018C00BF017C0E0
:1000D8000CF016C00DF015C00EF02AC0E9FF2BC0B9
:0C00E800EAFF2CC0E1FF2DC0E2FF110078
:0800F4000AAE029E000E12008C
:1000FC000B820BAE88EF00F00368026801680068A1
:08010C000A360232FF0E120058
:100114000B840BAE95EF00F0010E036E026A016AC8
:0A012400006A0A360232FF0E1200D4
:0E012E00026A016A006A086A036A000E120083
:10013C000B6A0A6A096A00500402F4CF09F0F3CF83
:10014C0008F001500502F4CF0BF0F3CF0AF0005089
:10015C000502F3500926F4500A22E86A0B220150DA
:10016C000402F3500926F4500A22E86A0B2208C054
:10017C0000F009C001F00AC002F00BC003F012003D
:10018C001E0E716E100E0001876F040E886F87C0F3
:10019C00E1FF88C0E2FFE69E87C0E1FF88C0E2FF76
:1001AC00E69C040E8725E16E000E8821E26EE68C3B
:1001BC00180E8B6F040E8C6F8BC0E1FF8CC0E2FFAE
:1001CC00E69E8BC0E1FF8CC0E2FFE69C040E8B2503
:1001DC00E16E000E8C21E26EE68C020E8725E16E3C
:1001EC00000E8821E26E72C0E6FF73C0E6FF010EBE
:1001FC008725E16E000E8821E26E400EE66E87C008
:10020C00E9FF88C0EAFFEECF00F087C0E1FF88C0AD
:10021C00E2FF400E0014E66E87C0E9FF88C0EAFFDB
:10022C00EECF00F0880E001287C0E1FF88C0E2FF1D
:10023C0000C0E6FF87C074F088C075F0040E871903
:08024C00006E00C087F01200F3
:100254000CB06CEF01F00CA212EF02F00E6A000E6B
:10026400026483EF01F0F00E0214D8A44EEF01F003
:10027400023A01380F0B02260138F00B016E0038E8
:100284000F0B01260038F00B006E08380F0B002608
:100294000838F00B086E0E84D89002BE67EF01F0A8
:1002A40008360036013602360E2A02BE67EF01F028
:1002B40008360036013602360E2A02BE67EF01F018
:1002C40008360036013602360E2A0E50036408EF53
:1002D40002F0035E0BBC08AE0DEF02F0D880800E76
:1002E40008640030000E002201220222D8A00DEF83
:1002F40002F0023201320032034A12EF02F00DEF33
:1003040002F001C002F000C001F008C000F0086A69
:10031400000E0E860264BAEF01F0F00E0214D8A4A7
:10032400A2EF01F0023A01380F0B02260138F00B5C
:10033400016E00380F0B01260038F00B006E0E849E
:10034400D89002BE67EF01F00036013602360E2A5D
:1003540002BE67EF01F00036013602360E2A02BEF5
:1003640067EF01F00036013602360E2A67EF01F01E
:1003740001C002F000C001F0006A000E0E960E8863
:100384000264E7EF01F0F00E0214D8A4D2EF01F0FA
:10039400023A01380F0B02260138F00B016E0E846D
:1003A400D89002BE67EF01F0013602360E2A02BE73
:1003B40067EF01F0013602360E2A02BE67EF01F044
:1003C400013602360E2A67EF01F001C002F0016A1D
:1003D400000E0E86026417EF02F0F00E0214D8A489
:1003E400F6EF01F0023A0E84D89002BE67EF01F0F6
:1003F40002360E2A02BE67EF01F002360E2A02BE52
:1004040067EF01F002360E2A67EF01F0010E0C6E61
:100414007FDE1AEF02F0020E0C6E6ADE1AEF02F0B3
:10042400040E0C6E69DE1AEF02F0080E0C6E7DDE0F
:020434001200B4
:1004360004012051800AD8A478D0C00E0001906F24
:1004460069D000019C0E006E310E016E000E026E28
:1004560000C08DF001C08EF002C08FF0120E916FB9
:10046600000E926F62D00001030E006E000E016E48
:1004760022C404F0000E056E5EDEF40E0024E96E62
:10048600000E0120EA6EEECF8DF0EECF8EF0EECFAD
:100496008FF0020E8D25F66E000E8E21F76E000E81
:1004A6008F21F86E0900F5CF00F00900F5CF01F0B5
:1004B60000C091F001C092F038D004012251000131
:1004C600995D23E3030E006E000E016E22C404F054
:1004D600000E056E30DEC80E0024E96E000E012007
:1004E600EA6EEECF8DF0EECF8EF0EECF8FF08DC0B0
:1004F600F6FF8EC0F7FF8FC0F8FF0900F5CF00F0BA
:1005060000C091F0000E926F01D0906B0ED00001EA
:10051600906B0BD004012351010A93E02351020A88
:0C052600A2E02351030AC9E0F2D7120042
:10053200000E0001925D02E1080E915D10E291C091
:1005420003F092C004F09A51000A03E1010E9A6F7F
:1005520005D09A51010A02E1020E9A6F04D0080EE8
:10056200036E000E046E89C0E1FF8AC0E2FFE692CC
:1005720089C0E1FF8AC0E2FFE69089C0E9FF8AC034
:10058200EAFFEECF00F089C0E1FF8AC0E2FF04502B
:100592000010E66E010E8925E16E000E8A21E26EE0
:1005A20003C0E6FF0350915D006E04509259016E44
:1005B20000C091F001C092F0280E6F6F040E706FB0
:1005C20090B12FD0035004102BE08DC0F6FF8EC0E7
:1005D200F7FF8FC0F8FF0900F5CF00F06FC0E1FF11
:1005E20070C0E2FF00C0E6FF6F4B702B010E8D253D
:1005F200006E000E8E21016E000E8F21026E00C071
:100602008DF001C08EF002C08FF0010E035C006E0F
:10061200000E0458016E00C003F001C004F0D2D7EE
:1006220024D00350041021E08DC0E9FF8EC0EAFF00
:100632006FC0E1FF70C0E2FFEECFE6FF6F4B702BA1
:10064200010E8D25006E000E8E21016E00C08DF010
:1006520001C08EF0010E035C006E000E0458016EA4
:0C06620000C003F001C004F0DCD712005F
:10066E0004012251010A13E120C401F01F0E0116EC
:10067E000150000A0CE10001908F04012151030A80
:10068E0004E1010E0001836F02D00001836B0401AF
:10069E002251000AD8A48DD020C401F01F0E0116DD
:1006AE000150020AD8A485D024C401F00F0E011601
:1006BE000150000AD8B47DD00001908F040124BFF0
:1006CE0016D024C403F00F0E031603C000F0000E64
:1006DE00016E003600900136850E0024E96E000E84
:1006EE000120EA6EEECF04F0EECF05F015D024C453
:1006FE0003F00F0E031603C000F0000E016E00365D
:10070E0000900136890E0024E96E000E0120EA6E7B
:10071E00EECF04F0EECF05F02151030A07E104C03D
:10072E00E1FF05C0E2FF840EE66E43D024C400F064
:10073E000F0E0016700E026E0F0E036E0050022684
:10074E00D8B0032A02C0E9FF03C0EAFFFE0EEE1482
:10075E00006EEECF01F0FF0E011602C0E1FF03C0E6
:10076E00E2FF00C0E6FF01C0E6FF24AF11D004C0D7
:10077E00E1FF05C0E2FFE66A040E0418006E00C039
:10078E0004F004C0E1FF05C0E2FF400EE66E11D09A
:10079E0004C0E1FF05C0E2FF880EE66E040E0418E9
:1007AE00006E00C004F004C0E1FF05C0E2FFC80EF9
:0407BE00E66E1200D1
:1007C2000401286B296B4AD00001908F0401288113
:1007D20000018351010A02E10401288354D000017F
:1007E200908F51D00001908F040124BF16D024C4F1
:1007F20003F00F0E031603C000F0000E016E003668
:1008020000900136850E0024E96E000E0120EA6E8A
:10081200EECF04F0EECF05F015D024C403F00F0E96
:10082200031603C000F0000E016E00360090013680
:10083200890E0024E96E000E0120EA6EEECF04F06C
:10084200EECF05F004C0E9FF05C0EAFFEECF01F0EC
:1008520001A403D00401010E286F15D020C401F0B9
:100862001F0E01160150000AAFE020C401F01F0E56
:1008720001160150010AB3E020C401F01F0E011657
:100882000150020AAFE0000190AF07D0280E8D6F31
:0C089200040E8E6F9081020E916F120018
:10089E00025006180E6E086A096A0B6A0350076446
:1008AE0042EF05F006500A6E068E028E03500B6E56
:1008BE000750036E000E0B6492EF04F00B50075EB0
:1008CE00D8B433EF05F0070E076401EF05F0075EAD
:1008DE0000C008F001C000F002C001F0026A074E2D
:1008EE0033EF05F00764D6EF04F0075E00C008F0A2
:1008FE0001C000F0016A074E33EF05F00764B4EF54
:10090E0004F0075E00C008F0006A074E33EF05F0F2
:10091E0007649BEF04F00AC002F005C001F004C0AA
:10092E0000F0086A5FEF06F0030E0764A6EF04F00E
:10093E00075E08380F0B086E074E33EF05F0D890A0
:10094E000832074E33EF05F0D8900832074E33EFDA
:10095E0005F0D890083233EF05F0030E0764C5EFAB
:10096E0004F0075E08380F0B086E0038F00B0826EF
:10097E0000380F0B006E074E33EF05F0D8900032A3
:10098E000832074E33EF05F0D89000320832074E8A
:10099E0033EF05F0D8900032083233EF05F0030E36
:1009AE000764EDEF04F0075E08380F0B086E003891
:1009BE00F00B082600380F0B006E0138F00B0026E6
:1009CE0001380F0B016E074E33EF05F0D890013250
:1009DE0000320832074E33EF05F0D8900132003264
:1009EE000832074E33EF05F0D8900132003208324C
:1009FE0033EF05F0030E07641EEF05F0075E0838AF
:100A0E000F0B086E0038F00B082600380F0B006E27
:100A1E000138F00B002601380F0B016E0238F00B77
:100A2E00012602380F0B026E074E33EF05F0D890F9
:100A3E000232013200320832074E33EF05F0D89001
:100A4E000232013200320832074E33EF05F0D890F1
:100A5E000232013200320832096A000E0EAE27EF62
:100A6E0006F0081E001E011E021E082A0022012288
:100A7E00022227EF06F00750D8A448EF05F05FEFEB
:100A8E0006F0096A02C00AF0028E068E0750035C59
:100A9E00076ED8B41AEF06F0070E0764E8EF05F0FC
:100AAE00075E0450096E0550046E0650056E066A08
:100ABE00074E1AEF06F0070E0764BDEF05F0075E4E
:100ACE000450096E0550046E056A074E1AEF06F0C3
:100ADE00070E07649BEF05F0075E0450096E046A6B
:100AEE00074E1AEF06F0070E076482EF05F00AC0F4
:100AFE0002F05FEF06F0030E07648DEF05F0075E60
:100B0E0009380F0B096E074E1AEF06F0D89009320E
:100B1E00074E1AEF06F0D8900932074E1AEF06F07C
:100B2E00D89009321AEF06F0030E0764ACEF05F009
:100B3E00075E09380F0B096E0438F00B09260438CE
:100B4E000F0B046E074E1AEF06F0D89004320932DE
:100B5E00074E1AEF06F0D89004320932074E1AEFFC
:100B6E0006F0D890043209321AEF06F0030E07642D
:100B7E00D4EF05F0075E09380F0B096E0438F00B41
:100B8E00092604380F0B046E0538F00B04260538C1
:100B9E000F0B056E074E1AEF06F0D8900532043291
:100BAE000932074E1AEF06F0D89005320432093298
:100BBE00074E1AEF06F0D8900532043209321AEFBA
:100BCE0006F0030E076405EF06F0075E09380F0BFB
:100BDE00096E0438F00B092604380F0B046E053825
:100BEE00F00B042605380F0B056E0638F00B0526A4
:100BFE0006380F0B066E074E1AEF06F0D890063227
:100C0E00053204320932074E1AEF06F0D89006323A
:100C1E00053204320932074E1AEF06F0D89006322A
:100C2E00053204320932086A000E0EAE27EF06F0C6
:100C3E00091E041E051E061E092A0422052206226E
:100C4E0009500826045000220550012206500222A7
:100C5E000EBE3EEF06F0D8A04DEF06F00232013286
:100C6E0000320832033E4DEF06F059EF06F0D8B0D1
:100C7E0053EF06F0000E081E001E011E021E082A6B
:100C8E000022012202220A7E53EF06F0010E0C6EA4
:100C9E002AEC01F061EF06F0020E0C6E2AEC01F068
:100CAE0061EF06F0040E0C6E7EEC00F061EF06F0C4
:060CBE00000E0C6E120096
:100CC4000001908F716A9D6B22C49EF09E51000AB0
:100CD40003E1100E9C6F04D0200E9C6FC6EC00F054
:020CE4001200FC
:100CE6000134083609360450085E0550D8A0053C84
:100CF600095E003601360F0E0C6E013408360936D1
:100D0600045000A006D0085E0550D8A0053C095E38
:100D160005D008260550D8B0053C09260036013610
:100D26000C2EEBD700B006D0045008260550D8B0DC
:080D3600053C09260000120033
:100D3E0020C401F01F0E01160150010A01E094D0EB
:100D4E0004012451000A01E08FD02151060A42E12C
:100D5E0037D000019E51010A17E1520E006E310E7E
:100D6E00016E000E026E120E0026000E01220222ED
:100D7E0000C08DF001C08EF002C08FF0090E916F91
:100D8E00000E926FC00E906F25D000019E51010A89
:100D9E0012E17B0E006E310E016E000E026E00C06F
:100DAE008DF001C08EF002C08FF0210E916F000EFB
:100DBE00926FC00E906F0ED00001800E906F0AD011
:100DCE0004012351210AC5E02351220ADEE02351FA
:100DDE00230AF2E020C401F0600E0116050E006E2B
:100DEE00005004E00132019EFF0FFBD70150010AB3
:100DFE0001E03AD026D038D037D0820E00018D6F68
:100E0E00000E8E6F010E916F000E926FC10E906FDD
:100E1E002BD00001800E906F23C482F025D00001EC
:100E2E007F0E8D6F000E8E6F010E916F000E926F02
:100E3E00810E906F19D00001800E906F22C47FF04A
:100E4E0013D004012151010AD6E02151090AD4E040
:100E5E002151020AD2E021510A0ADBE02151030A94
:0A0E6E00DEE021510B0AE7E012005C
:100E78009C0E006E310E016E000E026E0E0E0024E6
:100E8800F66E000E0120F76E000E0220F86E0900C3
:100E9800F5CF03F003C004F00F0E0024F66E000E29
:100EA8000120F76E000E0220F86E0900F5CF01F060
:100EB8000150035C12E29C0E006E310E016E000EB2
:100EC800026E0F0E0024F66E000E0120F76E000E63
:100ED8000220F86E0900F5CF04F09C0E006E310E6A
:100EE800016E000E026E100E0024F66E000E012038
:100EF800F76E000E0220F86E0900F5CF01F00150E0
:100F0800045C12E29C0E006E310E016E000E026E41
:100F1800100E0024F66E000E0120F76E000E02205F
:0E0F2800F86E0900F5CF04F004C000F01200CE
:100F3600086A096A000E0762036420EF08F002508F
:100F460006180A6E075003267E0ED8A0B1EF07F0EA
:100F5600035ED8B025EF08F0B5EF07F0035ED8A022
:100F66002AEF08F0028E068E02C00EF001C00BF0CA
:100F760000C00DF000500402F4CF0CF00150050241
:100F8600F4CF00F0F3CF08F00402F3500C26F4502F
:100F96000822000E00220D500502F3500C26F450D4
:100FA6000822000E002202500402F3500826F450D4
:100FB600002202500502016A000E0122F3500026AB
:100FC600F45001220D500602F3500826F450002278
:100FD600026A000E012202220B500602F35000267E
:100FE600F4500122000E02220E500602F350012692
:100FF600F450022202BE08EF08F008360036013629
:1010060002360306D8B42AEF08F01BEF08F0D880A2
:10101600800E08640030000E002201220222D8A0B1
:101026001BEF08F0023201320032034A25EF08F0C6
:101036000AAE029E000E2DEF08F0010E97EC00F0AE
:101046002DEF08F0020E7EEC00F02DEF08F0040EF6
:061056008AEC00F012001C
:10105C006D98000190BF49D078AF28D0020E9B6FDD
:10106C00010E8925E16E000E8A21E26EE66A89C0C6
:10107C00E1FF8AC0E2FFC80EE66E010E6D25E16E3F
:10108C00000E6E21E26E080EE66E020E6D25E16E0C
:10109C00000E6E21E26E280EE66E040EE66E6DC03A
:1010AC00E1FF6EC0E2FFC80EE66E1ED0010E6D258C
:1010BC00E16E000E6E21E26E080EE66E020E6D25DC
:1010CC00E16E000E6E21E26E200EE66E040EE66EF0
:1010DC006DC0E1FF6EC0E2FF8C0EE66E89C0E1FFD1
:1010EC008AC0E2FF840EE66E83D078BF81D0040103
:1010FC0020AF56D0000192510401275D04E100019C
:10110C0091510401265D04E226C491F027C492F0AB
:10111C0099EC02F0010E9B6F010E6D25E16E000E35
:10112C006E21E26E080EE66E020E6D25E16E000E6B
:10113C006E21E26E200EE66E040EE66E6DC0E1FFCF
:10114C006EC0E2FF800EE66E716B010E9325E16EB0
:10115C00000E9421E26E080EE66E020E9325E16EEF
:10116C00000E9421E26E200EE66E040EE66E93C025
:10117C00E1FF94C0E2FF840EE66E010E716F020E69
:10118C008925E16E000E8A21E26E280EE66E040EB1
:10119C00E66E89C0E1FF8AC0E2FFC80EE66E28D079
:1011AC000001020E9B6F010E8925E16E000E8A2153
:1011BC00E26EE66A89C0E1FF8AC0E2FFC80EE66E05
:1011CC00010E6D25E16E000E6E21E26E080EE66ECC
:1011DC00020E6D25E16E000E6E21E26E280EE66E9B
:1011EC00040EE66E6DC0E1FF6EC0E2FFC80EE66E47
:0211FC001200DF
:1011FE000101136B146B156B020E1025F66E000EAB
:10120E001121F76E000E1221F86E0900F5CF05F0D0
:10121E00030E1025F66E000E1121F76E000E122130
:10122E00F86E0900F5CF00F000C003F0000E046E5A
:10123E0003C001F0006A05500024066E000E012066
:10124E00076E10C108F011C109F012C10AF0010EAB
:10125E000824F66E000E0920F76E000E0A20F86EB6
:10126E000900F5CF01F00150020A1BE1060E082419
:10127E00F66E000E0920F76E000E0A20F86E0900B9
:10128E00F5CF01F00150135D0CE2060E0824F66E48
:10129E00000E0920F76E000E0A20F86E0900F5CF39
:1012AE0013F1010E0824F66E000E0920F76E000EE3
:1012BE000A20F86E0900F5CF01F00150040A1BE177
:1012CE00080E0824F66E000E0920F76E000E0A2096
:1012DE00F86E0900F5CF01F00150135D0CE2080E17
:1012EE000824F66E000E0920F76E000E0A20F86E26
:1012FE000900F5CF13F108C0F6FF09C0F7FF0AC0C9
:10130E00F8FF0900F5CF00F000501425016E000E15
:10131E001521026E01C014F102C015F10750025CD6
:10132E0002E10650015C01E30FD008C0F6FF09C0D0
:10133E00F7FF0AC0F8FF0900F5CF00F000500826AD
:0E134E00000E09220A2283D713C100F01200FC
:0A135C00D08EA28AA08AF28E120041
:08136600067E4FEC04F01200BA
:10136E000B800BAEC3EF09F0026A0AAEFF0E026EDF
:0C137E00016E006E0A360232FF0E1200F3
:08138A000B6A0B86FF0E120036
:0A1392000001845301E0D2DC1200D8
:10139C000C6A0E6A0250D8A4E7EF09F001C002F003
:1013AC0000C001F0006A0E860250D8A4E7EF09F0E5
:1013BC0001C002F0016A0E960E880250D8B4F9EF03
:1013CC0009F00E50035ED8A4D8A0FFEF09F0D89016
:1013DC0002BE05EF0AF0003601360236032EEEEFA0
:1013EC0009F0FFEF09F0010E0C6E97EC00F009EF1D
:1013FC000AF0020E0C6E8AEC00F009EF0AF0040EF3
:08140C000C6E7AEC00F01200F6
:10141400520E0001F46F310EF56F000EF66FC20E1E
:10142400C86F310EC96F000ECA6F280ECB6F310E14
:10143400CC6F000ECD6FFE0ECE6F300ECF6F000E50
:04144400D06F120053
:101448000A6A0350D8A40A800750D8A40A820A500E
:10145800D8B487EF0AF0030AD8B440EF0AF00AB00C
:101468003BEF0AF006AE85EF0AF083EF0AF002AE12
:1014780083EF0AF085EF0AF00250800B0A6E029E95
:101488000650800B069E0A18D8B451EF0AF00A508D
:10149800D8B483EF0AF085EF0AF00750035CD8B49C
:1014A8005BEF0AF0D8A077EF0AF07DEF0AF006505C
:1014B800025CD8B465EF0AF0D8A077EF0AF07DEFA8
:1014C8000AF00550015CD8B46FEF0AF0D8A077EFA6
:1014D8000AF07DEF0AF00450005CD8B487EF0AF0F8
:1014E800D8B07DEF0AF00A52D8B485EF0AF083EF3E
:1014F8000AF00A52D8B483EF0AF085EF0AF0D880D0
:0E1508001200D8901200D880D8841200120071
:101516000450000A08E10550000A05E1FF0E006EBE
:101526007F0E016E58D00D6A096A086A01500010D4
:10153600D8B4000C015005180A6E0ABE0D1E0B6ABF
:1015460005AE05D0041E051E042AD8B4052A01AE30
:1015560005D0001E011E002AD8B4012A015005102C
:101566000A6E0ABE10D073EC06F00BB020D00DAE9A
:10157600000C001E011E002AD8B4012A081E091EEE
:10158600082AD8B4092A000C05AE0DD001BE07D032
:101596000150096E0050086E016A006AE8D7016AB8
:1015A600006A002A000C011E001E0B2ADDD7082A3D
:1015B600D8B4092A0450085CD8A4D9D70550095CC8
:1015C600D8A4D5D7096A086A002AD8B4012A01AE78
:0815D600CED70000FF0C12004B
:1015DE00010E00019325E96E000E9421EA6EEECF06
:1015EE0000F000C002F0000E7A5D02E10250795D5B
:1015FE0003E279C002F00AD00250795D006E000E4F
:10160E007A59016E00C079F001C07AF0036A025077
:10161E00035C1CE2280EE96E040EEA6E0350E92606
:10162E00D8B0EA2AEECF00F076C0E1FF77C0E2FF35
:10163E0000C0E6FF010E7625006E000E7721016ECA
:10164E0000C076F001C077F0032AE1D7000E006EDD
:10165E007A51005C02E17951000828E2010E6D25F5
:10166E00E16E000E6E21E26E080EE66E020E6D2524
:10167E00E16E000E6E21E26E280EE66E040EE66E30
:10168E0093C0E9FF94C0EAFFEECF00F000BC07D094
:10169E006DC0E1FF6EC0E2FFC80EE66E06D06DC0F3
:1016AE00E1FF6EC0E2FF880EE66E19D0010E6D25C9
:1016BE00E16E000E6E21E26E080EE66E020E6D25D4
:1016CE00E16E000E6E21E26E200EE66E040EE66EE8
:1016DE006DC0E1FF6EC0E2FF840EE66E789F1200D1
:0E16EE00160E6F6E9F0E6B6E3B0E696E120035
:1016FC0020C401F0600E0116050E006E005004E0CF
:10170C000132019EFF0FFBD70150000A01E062D0AD
:10171C003ED00001908F080E9C6F5CD01BEC02F049
:10172C0059D062EC06F056D000019E0E8D6F000E63
:10173C008E6F9081010E916F908F4CD0E1EC03F085
:10174C0049D037EC03F046D09D0E006E000E016EB2
:10175C00040124510026D8B0012A00C08DF001C02C
:10176C008EF000019081010E916F908F33D00001AB
:10177C00908F9D0EE16E000EE26E04012451E12665
:10178C00D8B0E22A22C4E6FF25D024D023D004010D
:10179C002151050ABEE02151060AC0E02151090A77
:1017AC00C0E02151080AC0E02151000AC7E02151D4
:1017BC00010AC7E02151030AC4E021510A0AC4E01E
:1017CC0021510B0AD4E02151070ADFE021510C0A08
:0617DC00DDE0DCD7120085
:1017E20000019B6B89C0E1FF8AC0E2FFE66A040E3A
:1017F2008919E16E8AC0E2FF000EE21AE66A78AF4A
:0618020001D0789F1200E6
:1018080022C104F023C105F024C106F025C107F068
:101818001EC100F01FC101F020C102F021C103F078
:101828009EDD00C026F101C027F102C028F103C0E7
:1018380029F14CC004F04DC005F04EC006F04FC071
:1018480007F04FEC04F000C04CF001C04DF002C0AE
:101858004EF003C04FF000C004F001C005F002C014
:1018680006F003C007F050C000F051C001F052C0AC
:1018780002F053C003F0E4DD010ED8B0000E006E94
:10188800005208E050C04CF051C04DF052C04EF02C
:1018980053C04FF0000E5018046E000E5118056E1C
:1018A800800E5218066E000E5318076E4CC000F0DA
:1018B8004DC001F04EC002F04FC003F0C1DD010E73
:1018C800D8B0000E006E00520CE0000E50184C6E9E
:1018D800000E51184D6E800E52184E6E000E5318A1
:1018E8004F6E54C004F055C005F056C006F057C0FE
:1018F80007F026C100F027C101F028C102F029C174
:1019080003F02DDD65C004F066C005F067C006F081
:1019180068C007F09BEC07F000C02AF101C02BF16A
:1019280002C02CF103C02DF165C004F066C005F0BB
:1019380067C006F068C007F0000E006E000E016E6A
:10194800000E026E7F0E036E0ADD69C004F06AC0E5
:1019580005F06BC006F06CC007F09BEC07F02AC1DD
:1019680004F02BC105F02CC106F02DC107F04FEC97
:1019780004F000C02EF101C02FF102C030F103C005
:1019880031F126C154F027C155F028C156F029C1BC
:1019980057F02EC169F02FC16AF030C16BF031C128
:1019A8006CF061C000F062C001F063C002F064C076
:1019B80003F026C104F027C105F028C106F029C1AB
:1019C80007F09BEC07F000C02AF101C02BF102C020
:1019D8002CF103C02DF158C000F059C001F05AC0D5
:1019E80002F05BC003F04CC004F04DC005F04EC0DF
:1019F80006F04FC007F09BEC07F02AC104F02BC19A
:101A080005F02CC106F02DC107F04FEC04F000C022
:101A18002AF101C02BF102C02CF103C02DF15CC0EA
:101A280000F05DC001F05EC002F05FC003F02EC19F
:101A380004F02FC105F030C106F031C107F09BEC6E
:101A480007F02AC104F02BC105F02CC106F02DC106
:081A580007F04FEC04F012004E
:101A6000CB50010F006E016A000E01221EC104F06E
:101A7000000E056E9EEC00F0640E046E000E056E06
:081A80004ADD00C0BEFF1200A8
:101A8800020E01011E25036E000E1F21046E03C005
:101A9800E9FF04C0EAFF010EEE24006E000EEE20FE
:101AA800016E03C0E1FF04C0E2FF00C0E6FF01C011
:101AB800E6FF03C0E9FF04C0EAFFEECF01F0EECF76
:101AC80002F02151025C02E12051015C0BE3020E9D
:101AD8001E25E16E000E1F21E26EE66AE66A010E1F
:081AE800006E01D0006A12003B
:101AF000BF0E8314006E009A0092FE0E00148C6ECE
:0E1B0000800E8310006E040E00108C6E12001A
:101B0E000B6A0C6A0A6A0350D8B4D1EF0DF0028E3C
:101B1E008E0E035E03BE99EF0DF0D8B499EF0DF063
:101B2E00D5EF0DF0036C080E035CD8A0B0EF0DF0EE
:101B3E00036E013602C001F0026A080E035CD8A0E3
:101B4E00B0EF0DF00136016A0350D8A4D890BAEF69
:101B5E000DF00350D8B4BAEF0DF0D8900232013226
:101B6E00032EB4EF0DF00BBC01A0C7EF0DF0D8A003
:101B7E00C7EF0DF0012AD8B4022A02BEE4EF0DF031
:101B8E000AAEEAEF0DF0021E011E012AD8B4022A97
:101B9E00EAEF0DF0026A016AEAEF0DF00B800BAE70
:101BAE00EEEF0DF0026A0AAEEEEF0DF0FF0E026ED2
:101BBE00016E0A360232EEEF0DF0010E0C6EB7EC2E
:101BCE0009F0F0EF0DF0000E0C6EF0EF0DF0FF0EC1
:0C1BDE000C6E0150006E0250016E1200EF
:101BEA000050086E0150006E016A026A036A0B6AAD
:101BFA000C6A960E036E0A6A00C001F008C000F073
:0A1C0A00086A026ACEEC09F012002D
:101C14008C908C928C848C9A8C9C8C8E8C968C88D8
:021C24001200AC
:101C2600BF0E8314006E009AF70E00148C6E800EA1
:0C1C36008310006E100E00108C6E120067
:101C4200404A412A030E415C02E1E80E405C30E367
:101C5200406A416A1EC103F01FC104F01EC1E9FFC0
:101C62001FC1EAFFEECF00F0EECF01F0004A012AD9
:101C72001EC1E1FF1FC1E2FF00C0E6FF01C0E6FF97
:101C820003C0E9FF04C0EAFFEECF01F0EECF02F09D
:101C920001012151025C02E12051015C09E31EC1F4
:101CA200E1FF1FC1E2FFE66AE66A010E006E01D0A3
:041CB200006A1200B2
:101CB600FE0E8314006E0092F70E00148C6E040E56
:0C1CC6008310006E100E00108C6E1200D7
:101CD2003CEC07F000C00EF1520E0101106F310E04
:101CE200116F000E126FFFEC08F000C00FF10E51E1
:101CF200005C03E20EC100F002D00FC100F012003E
:101D02006D92699468A403D0FB0E6816FBD712008B
:101D120000019B51020A02E161DC1ED061DD7151BA
:101D2200000A19E1010E6D25E16E000E6E21E26ED0
:101D3200080EE66E020E6D25E16E000E6E21E26E59
:101D4200200EE66E040EE66E6DC0E1FF6EC0E2FF8D
:0A1D52008C0EE66E01D0716B1200DA
:101D5C00040E00018919006E00C089F09C51080A1C
:101D6C000AE122C46EFF6E50000803E2100E9C6F55
:101D7C0002D0040E9C6F9B51010A3BE1020E892597
:101D8C00E16E000E8A21E26E280EE66E040EE66EFF
:101D9C0099EC02F09A51020A07E189C0E1FF8AC06E
:101DAC00E2FF840EE66E24D0040E8919006E00C08A
:101DBC0089F089C0E9FF8AC0EAFFEECF00F000BCD1
:101DCC000CD0040E8919006E00C089F089C0E1FFA7
:101DDC008AC0E2FFC80EE66E0BD0040E8919006EA5
:101DEC0000C089F089C0E1FF8AC0E2FF880EE66E70
:061DFC0001D0F1DC120031
:101E02000AEC0AF0746B756B806B816B6A6A686AA4
:101E12006DDC6D8C6E6A716A6D9C9F6BA06B000E9F
:101E2200A05D02E1080E9F5D17E29FC000F0A0C016
:101E320001F0003600900136003600900136000EA7
:101E42000024E16E040E0120E26EE66AE66AE66AAA
:101E5200E66A9F4BA02BE3D7160E706E68A603D0DE
:101E6200F70E6816FBD7906B786B796B7A6B6D986F
:0E1E7200080E896F040E8A6F9E6B9C6B120027
:041E8000A19A120011
:0A1E84006984EF0E68166D821200EB
:101E8E0070A01CD093C0E9FF94C0EAFFEECF01F022
:101E9E000150800A12E189C0E9FF8AC0EAFFEECF45
:101EAE0001F0000E000A02E1840E011806E193C053
:101EBE00E1FF94C0E2FF8C0EE66E7090DF0E6816A6
:021ECE00120000
:101ED00000019C51000A0BE16D6A696A08DCAEECF6
:101EE00009F06DB602D06D86FCD7010E9C6F120012
:101EF0000450000A12E10550000A0FE10650000AE2
:101F00000CE10750000A09E1FF0E006EFF0E016EA2
:101F10007F0E026EFF0E036EA8D0086A096A075092
:101F2000D8B423EF10F00350D8B428EF10F00250CB
:101F300006180A6E028E068E0E6A02C008F001C0F4
:101F40000CF000C00DF004500D5E0550D8A0053C0B
:101F50000C5E0650D8A0063C085E086A0C6A0D6A42
:101F6000D8A0BAEF0FF0D890023201320032083216
:101F7000010E0E6E0750035ED8A0C7EF0FF07E0E65
:101F80000E240326D8B02DEF10F0CDEF0FF07E0E0B
:101F90000E240326D8A032EF10F0180E0B6E0D366B
:101FA0000C3608360036013602360E360450005E16
:101FB0000550D8A0053C015E0650D8A0063C025E44
:101FC00006340E120EA0E8EF0FF00D80F3EF0FF0C5
:101FD000045000260550D8B0053C01260650D8B064
:101FE000062802260D900B2ECFEF0FF019EF10F000
:101FF000D8900036013602360E360450005E055089
:10200000D8A0053C015E0650D8A0063C025E06340E
:102010000E10010B0D26D8B00C2AD8B4082AD8A46B
:1020200019EF10F008320C320D32032AD8B42DEF1C
:1020300010F00AAE089E0850026E0C50016E0D5052
:10204000006E35EF10F0010EC5EC09F035EF10F021
:10205000020E97EC00F035EF10F0040E7EEC00F06D
:0C20600035EF10F0080E8AEC00F01200C2
:10206C0089C0E9FF8AC0EAFFEECF00F000AE05D0D0
:10207C0089C0E1FF8AC0E2FFE66A00019A6B9B6BA4
:10208C00916B926B906B7EEC0BF0C9EC09F02EEC23
:04209C0008F0120036
:1020A000040E0501466F3E4A3F2A3F50070A02E1EF
:1020B000D00E3E1809E18350010F006E00C083FF6F
:0A20C00083CF8CFF3E6A3F6A1200D6
:1020CA000501466B0001605307E0050108518318BA
:0A20DA008C6E0AC51EF1BFDC120077
:1020E400010E0501466F424A432A030E435C02E196
:1020F400E80E425C04E3831C8C6E426A436A12005D
:10210400030E0501466FABD08C808C928C9489DDD4
:10211400A10E01011E6F000E1F6F080E206F000E2E
:10212400216F8DDD005202E0010E316EB9D08C902A
:102134008C828C9476DDA10E01011E6F000E1F6F40
:10214400030E206F000E216F7ADD005202E0020EB2
:10215400316EA6D05DDDA10E01011E6F000E1F6F52
:10216400010E206F000E216F6ADD005202E0030EA3
:10217400316E96D08C8A8C9C8C9E9BDDA10E0101C5
:102184001E6F000E1F6F080E206F000E216F57DDAB
:10219400005202E0040E316E83D08C9A8C8C8C9E9B
:1021A40088DDA10E01011E6F000E1F6F030E206F4C
:1021B400000E216F44DD005202E0050E316E70D036
:1021C40027DDA10E01011E6F000E1F6F010E206F8F
:1021D400000E216F34DD005202E0060E316E60D035
:1021E4008C868C9883DCA10E01011E6F000E1F6F7C
:1021F400050E206F000E216F22DD005202E0070E53
:10220400316E4ED08C96A50E01011E6F000E1F6F0D
:10221400F40E206F010E216F35DC0052D8A48C78A7
:1022240065DCA10E1E6F000E1F6F030E206F000EE3
:10223400216F05DD005202E0080E316E31D0E8DC7A
:10224400A10E01011E6F000E1F6F010E206F000E04
:10225400216FF5DC0052D8A4316A22D021D031504C
:10226400000AD8B451D73150010AD8B460D73150DC
:10227400020AD8B46FD73150030AD8B47BD731508F
:10228400040AD8B48AD73150050A9AE03150060AB4
:10229400A7E03150070AB6E03150080AD0E0DED793
:0222A400120026
:1022A60001010A51000A12E009C100F0000E016E98
:1022B600003600900136890E0024E96E000E0120DA
:1022C600EA6EEECF04F0EECF05F011D009C100F0B2
:1022D600000E016E003600900136850E0024E96E70
:1022E600000E0120EA6EEECF04F0EECF05F0020EEE
:1022F6000424E16E000E0520E26E0BC1E6FF0CC160
:10230600E6FF010E0424E16E000E0520E26E0DC10B
:10231600E6FF04C0E9FF05C0EAFFEECF00F004C007
:10232600E1FF05C0E2FF400E0014E66E04C0E9FFBF
:1023360005C0EAFFEECF00F0880E001204C0E1FFF0
:1023460005C0E2FF00C0E6FF0A51000A1BE009C112
:1023560000F0000E016E003600900136890E002452
:10236600026E000E0120036E02C0E9FF03C0EAFF01
:10237600040EEE18006E02C0E1FF03C0E2FF00C0CB
:10238600E6FF1AD009C100F0000E016E003600907B
:102396000136850E0024026E000E0120036E02C077
:1023A600E9FF03C0EAFF040EEE18006E02C0E1FF6B
:1023B60003C0E2FF00C0E6FF04C000F005C001F064
:0223C600120003
:1023C800000E01010A1902E1000E091902E1016A71
:1023D8000AD009C1E9FF0AC1EAFFEECF00F0000EFA
:0C23E80000BE010E016E01C000F01200EA
:1023F4000B6A0C6A0A6A0350D8B42FEF12F00A9ED3
:10240400028E860E035E03BE0DEF12F0D8B40DEFFC
:1024140012F032EF12F0036C080E035CD8A01BEF2D
:1024240012F0036E0236026A0350D8A4D89024EF47
:1024340012F00350D8B424EF12F0D8900232032ED5
:102444001FEF12F00BBC02A02FEF12F0D8A02FEF59
:1024540012F0022AD8B439EF12F0016A3FEF12F0F9
:102464000B800BAE43EF12F0016A43EF12F0010E42
:102474000C6EB7EC09F045EF12F0000E0C6E45EF50
:0C24840012F0FF0E0C6E0250006E1200F1
:0C249000240E0D6E0D2EFED70000120071
:10249C00050E0501466FA90E01011E6F000E1F6F80
:1024AC000A0E206F000E216F44EC0DF00052D8B4D0
:1024BC00CCD00EC501F0006A05010D510012000EC2
:1024CC000112F5EC0DF000C01AF101C01BF102C0B5
:1024DC001CF103C01DF11AC136F01BC137F01CC131
:1024EC0038F01DC139F0ECC000F0EDC001F0F5EC96
:1024FC000DF000C03AF001C03BF002C03CF003C04C
:10250C003DF000C01EF101C01FF102C020F103C05C
:10251C0021F11AC122F11BC123F11CC124F11DC1EF
:10252C0025F104EC0CF000C032F001C033F002C015
:10253C0034F003C035F000C004F001C005F002C057
:10254C0006F003C007F0006A016A026A036A24EC11
:10255C000AF0010ED8B0000E006E00524CE032C0F2
:10256C0000F033C001F034C002F035C003F087EC4A
:10257C000DF000C052F501C002F0036A02C053F521
:10258C000501546B556B000E046EC00E056E7F0E6C
:10259C00066E880E076E32C000F033C001F034C0F6
:1025AC0002F035C003F09EDC000E046E000E056ECA
:1025BC00480E066E850E076E9BEC07F087EC0DF04F
:1025CC0000C02FF001C030F0000E026E0150025C12
:1025DC0002E10050640806E2640E0101186F000E5F
:1025EC00196F04D02FC018F130C019F118C11EF1A9
:1025FC0030EC0DF02AD00501526B536B000E3218E3
:10260C00006E000E3318016E800E3418026E000E30
:10261C003518036E87EC0DF000C054F5000E32181F
:10262C00006E000E3318016E800E3418026E000E10
:10263C003518036E87EC0DF001C002F0036A02C07E
:0C264C0055F501011E6B30EC0DF0120082
:08265800020E0501466F12009D
:1026600000019C51000A0BE16D6A696A77EC0BF07E
:102670006DB602D06D86FCD70001010E9C6F9C5197
:10268000010A08E16DBA06D0686A696A69806988DA
:10269000020E9C6F68A406D069A404D0FB0E6816D5
:1026A00081EC0EF06DA203D040EC0FF0DFD068A0FB
:1026B00019D069A017D001EC0FF0040E9C6F200E0A
:1026C0000401026F040E036F080E016F000E001567
:1026D000006E00C000F48C0E0011006E00C000F40B
:1026E000FE0E681668A806D069A804D042EC0FF068
:1026F000EF0E681668AC04D069AC02D0BF0E681645
:1027000068AA04D069AA02D047EC0FF068A202D0F0
:1027100069B26A6A040E00019C5D03E240EC0FF0AE
:10272000A5D069A6A1D00101096B040E095DD8B03E
:102730009BD068A695D06CCFC7F0F70E6816780EC0
:102740000001C715016E0150000AD8A488D0FD0E03
:10275000C715016E026AFF0E0216000E021802E192
:10276000000E01186DE17E0EC715016E01C003F069
:102770000332039E03C000F0000E016E003600908D
:102780000136003600900136000E0024026E040E61
:102790000120036E02C093F003C094F002C06DF0FC
:1027A00003C06EF0040E6D19006E00C06DF002C023
:1027B000E9FF03C0EAFFEECF00F000C001F03C0EDD
:1027C00001160132019E0132019E01500D0A35E1D0
:1027D000020E9325E96E000E9421EA6EEECF01F011
:1027E000EECF02F00250040A02E1280E011823E1A4
:1027F000020E9325E16E000E9421E26E200EE66E2D
:10280000040EE66E0101006B080E005D14E2200E5E
:10281000E16E040EE26E0051E126D8B0E22A280EE5
:10282000E96E040EEA6E0051E926D8B0EA2AEECF2E
:10283000E6FF002BE9D71ADC02D089EC0EF00ED0AF
:10284000FD0EC715016E026AFF0E0216000E021879
:1028500002E1040E011802E1AEEC0EF000D001D04E
:0E28600003D00101092B61D740EC0FF01200EC
:10286E0069EC0EF000C099F0010E0001846F09C1F1
:10287E0072F00AC173F00BC1C5F00CC1C6F001ECC9
:10288E000FF0010E016E0150010A02E168EC0FF02B
:02289E00120026
:1028A000F250026EF29E0500FF6A0150FE6E00506B
:0828B000FD6E02BEF28E120063
:1028B800FF0E0001956FFF0E966FFF0E976FFF0ECC
:1028C800986FC26A2E1C006E0050C116070EC01207
:0628D800C08EC280120058
:1028DE0001C107F102C108F10001FD6BFE6B800E14
:1028EE00FE19006E800E005C02E1040EFD5D0CE22E
:1028FE0007C1E1FF08C1E2FFE66A0101074B082BA1
:10290E000001FD4BFE2BEBD7D59ED58CD59AD598D5
:10291E00D596D584D592D58003C100F004C101F0BF
:10292E0005C102F006C103F0000E046E1B0E056E0B
:10293E00370E066E960E076E9BEC07F0000E046EB9
:10294E00000E056E000E066E850E076E78EC0FF00B
:10295E0000C004F001C005F002C006F003C007F08D
:10296E00000E006E000E016E000E026E870E036EDC
:0C297E00B3EC09F038DD00C0E9F01200F5
:10298A000001FD5303E0F28AD58E02D0F29AD59E59
:02299A00120029
:08299C00D09EC00EF2121200E1
:1029A400200E00019C5D03E36DB201D002D0006AE9
:1029B40051D080C009F181C00AF104DD005249E11F
:1029C40004C109F1010E0A6F01C10BF102C10CF13E
:1029D40003C10DF166DC00C080F001C081F000018C
:1029E400C16BC26BC36BC46B80C009F181C00AF1B7
:1029F400E9DC005218E0200E00019C5D03E36DB297
:102A040001D002D0006A26D0010E016E0150000AE6
:102A140001E124DE0001C151C211C311C41102E05D
:102A2400006A18D0E1D7000180C0FDF081C0FEF03B
:102A3400000E811902E1000E801909E0010EFD2546
:102A4400E96E000EFE21EA6EEECF00F003D0006ABC
:062A540001D0006A12002F
:102A5A00C26A2E1C006E0050C116070EC012C08E2C
:102A6A00FDC000F000360090003600900050C212FF
:102A7A00C28009DDC282C2A201D0FDD7C4CF01F053
:0E2A8A00006AC3500012000E0112C29012002A
:102A9800000E0101096F050E0A6F400E0B6F050E3F
:062AA8000C6FE1DE1200DC
:102AAE00B70E926EFF0E936EF19E956A8C6A1200AF
:102ABE000001FF6B200E9C5D03E36DB201D002D0CE
:102ACE00006A30D074C009F175C00AF176DC00528C
:102ADE0028E174C0FDF075C0FEF0000E00017519FE
:102AEE0002E1000E74190AE0010EFD25E96E000EDA
:102AFE00FE21EA6EEECF00F000C0FFF004C109F136
:102B0E0001010A6B01C10BF102C10CF103C10DF100
:102B1E0053EC11F000C074F001C075F0FFC000F06E
:062B2E0001D0006A120054
:102B3400070ECA6E000E006E000E016E000E026ECD
:102B4400810E036E01C104F002C105F003C106F059
:102B540004C107F09BEC07F000C004F001C005F0CD
:102B640002C006F003C007F0000E006E1B0E016EDB
:102B7400370E026E980E036E78EC0FF0000E046EA2
:102B8400000E056E000E066E7F0E076EB3EC09F0A4
:102B94002FDC00C0FDF0010E005C05E30001FD51D7
:102BA400FF0801E301D006D0FDC0CBFF94940C0EC6
:062BB400BD6EBE6A1200B6
:102BBA00FBC000F0FCC001F0003600900136003680
:102BCA0000900136D10E0024E16E000E0120E26E63
:102BDA00F7C0E6FFF8C0E6FFF9C0E6FFFAC0E6FF75
:022BEA001200D7
:102BEC0065DE5FDF000E0101016F400E026F1C0EEF
:102BFC00036F8B0E046F98DF49DFF00E0101016F3C
:102C0C00000E026F6F0E036F120E046F030E056F32
:102C1C00750E066F5EDE010E0001FD6FB0DEB8DED4
:022C2C00120094
:102C2E00F7C001F1F8C002F1F9C003F1010E010184
:062C3E00046FB1DE12007C
:102C44000001F76B030EF75D1BE2F7C000F0000E06
:102C5400016E003600900136EA0E0024F86F000E73
:102C64000120F96FF7C0FDF0F6DEF8C0E1FFF9C00E
:102C7400E2FF00C0E6FF01C0E6FF0001F72BE2D748
:022C840012003C
:102C860072C001F173C002F1400E0101036F010E23
:062C9600046F12DF1200C2
:102C9C0081CF4DF583CF4EF5EAC04AF5EBC002F07B
:102CAC00036A02C04BF5ECC000F000360090003611
:102CBC0000900050021005014B6F060E026EECC026
:102CCC0000F0EDC001F0025005E001320032019E2F
:102CDC00FF0FFAD700C04CF5EEC04FF5EFC000F077
:082CEC00016A00C050F512005E
:102CF4000900F5CFE6FF0006FBE10106F9E1120049
:102D0400076A086A440E096E000E0A6E800E0818DF
:102D1400006E800E005C02E1040E075C53E209C001
:102D2400E9FF0AC0EAFF010EEE24006E000EEE2059
:102D3400016E09C0E1FF0AC0E2FF00C0E6FF01C066
:102D4400E6FF09C0E9FF0AC0EAFFEECF05F0EECFC7
:102D540006F007C000F008C001F0000E08BEFF0E28
:102D6400026E036E00360090013602360336BA0E48
:102D74000024F66E310E0120F76E000E0220F86E6C
:102D84000900F5CF01F00900F5CF02F00250065C0E
:102D940002E10150055C0FE3075001011625E16EC5
:102DA40008501721E26E010EE66E09C0E1FF0AC069
:102DB400E2FFE66AE66A074A082A020E0926000EBE
:0A2DC4000A22A4D7E9C0D6FF1200CE
:102DCE0000019C51010A07E16DBA05D0686A69805D
:102DDE006988020E9C6F68A406D069A404D0FB0E0D
:102DEE00681681EC0EF06DA203D040EC0FF0E0D02F
:102DFE0068A019D069A017D001EC0FF0040E9C6FDB
:102E0E00200E0401026F040E036F080E016F000EF8
:102E1E000015006E00C000F48C0E0011006E00C094
:102E2E0000F4FE0E681668A806D069A804D042EC1D
:102E3E000FF0EF0E681668AC04D069AC02D0BF0E6E
:102E4E00681668AA04D069AA02D047EC0FF068A2EF
:102E5E0002D069B26A6A040E00019C5D03E240EC86
:102E6E000FF0A6D069A6A2D00101176B040E175D54
:102E7E00D8B09CD068A696D06CCFC7F0F70E681667
:102E8E00780E0001C715016E0150000AD8A489D032
:102E9E00FD0EC715016E026AFF0E0216000E021815
:102EAE0002E1000E01186EE17E0EC715016E01C023
:102EBE0003F00332039E03C000F0000E016E0036D5
:102ECE0000900136003600900136000E0024026E8E
:102EDE00040E0120036E02C093F003C094F002C0F2
:102EEE006DF003C06EF0040E6D19006E00C06DF033
:102EFE0002C0E9FF03C0EAFFEECF00F000C001F010
:102F0E003C0E01160132019E0132019E01500D0A46
:102F1E0036E1020E9325E96E000E9421EA6EEECF95
:102F2E0001F0EECF02F00250040A02E1280E011861
:102F3E0023E1020E9325E16E000E9421E26E200E27
:102F4E00E66E040EE66E0101166B080E165D14E2B7
:102F5E00200EE16E040EE26E1651E126D8B0E22A82
:102F6E00280EE96E040EEA6E1651E926D8B0EA2A4A
:102F7E00EECFE6FF162BE9D736EC10F002D089EC37
:102F8E000EF00ED0FD0EC715016E026AFF0E021670
:102F9E00000E021802E1040E011802E1AEEC0EF072
:102FAE0000D001D003D00101172B60D740EC0FF0F9
:022FBE001200FF
:102FC0000501458105C500F0000E016E0036009038
:102FD0000136003600900136D10E0024E96E000E55
:102FE0000120EA6EEECF00F0EECF01F0EECF02F05E
:082FF000EECF03F055DC1200E6
:102FF800E3EC18F0CA0E0001F76F200EF86F000E10
:10300800F96F000EFA6FFB6BFC6BD3DDE40EF76F04
:10301800200EF86F000EF96F000EFA6F010EFB6FAD
:10302800000EFC6FC6DDA00EF76F200EF86F000EC5
:10303800F96F000EFA6F040EFB6F000EFC6FB9DD1E
:103048009C0EF76F240EF86F000EF96F000EFA6FE2
:10305800050EFB6F000EFC6FACDD040EF76F210E42
:10306800F86F000EF96F000EFA6F030EFB6F000E7B
:10307800FC6F9FDD580EF76F260EF86F000EF96F84
:10308800000EFA6F020EFB6F000EFC6F92DDAADDD8
:103098000501056B0001F05305E0F1DD00C060F0AB
:1030A8000001F06BF2530CE0C9DDF4DD400E0001C5
:1030B800F76F050EF86F400EF96FB5DD0001F26B82
:0430C800E9D7FFD76E
:1031C60010EE2EF0320E006E010E016ECC0EF66E73
:1031D600300EF76E000EF86E7AEC16F010EE61F017
:1031E6000C0E006E010E016EAE0EF66E310EF76E0F
:1031F600000EF86E7AEC16F010EE60F0010E006E1E
:10320600010E016E060EF66E000EF76E000EF86EDB
:063216007AEC16F0120034
:0100060000F9
:0130CC0030D3
:0230CD00000001
:0130CF000000
:0430D00000000000FC
:0430D40000000000F8
:0430D8000000488428
:0230DC000000F2
:0230DE000000F0
:0230E0000000EE
:0830E2000000000000000000E6
:0430EA0000000000E2
:0430EE000000488511
:0430F20000000000DA
:0430F600CDCC4C7C75
:0430FA00CDCC4C7B72
:1030FE002A03430065006E007400720061006C00CC
:10310E00200043006F006E00740072006F006C00B0
:0A311E00610064006F0072006100A0
:103128002A03430065006E007400720061006C00A1
:10313800200043006F006E00740072006F006C0086
:0A314800610064006F007200610076
:103152000902290001010080320904000002030073
:10316200000009210101000122210007058103401D
:0931720000010705010340000102
:10317B000600FF0901A10119012940150026FF00D6
:10318B0075089540810219012940750895409102F7
:01319B00C073
:10319C0012010002000000083412010000010102BB
:0231AC00000120
:0431AE00000020817C
:0431B200CDCC4C7BB9
:0431B6000000000015
:0831BA00010002000300050002
:0431C20004030904F5
:020000040030CA
:0E000000240E381EFF0181FF0FC00FE00F40DD
:00000001FF
