:0400000027EF1AF0DC
:020006001200E6
:1000080000C023F001C022F002C021F003C020F09C
:1000180004C01FF005C01EF006C01DF007C01CF08C
:1000280008C01BF009C01AF00AC019F00BC018F07C
:100038000CC017F00DC016F00EC015F0E1CF2CF073
:10004800E2CF2DF0E9CF2AF0EACF2BF0F3CF28F05A
:10005800F4CF29F0F5CF27F0F8CF24F0F7CF25F02B
:10006800F6CF26F0F2A405D090EC18F0CAEC18F000
:10007800F294A1AA03D02EEC19F0A19A27C0F5FF9B
:1000880024C0F8FF25C0F7FF26C0F6FF28C0F3FFFD
:1000980029C0F4FF23C000F022C001F021C002F003
:1000A80020C003F01FC004F01EC005F01DC006F0FC
:1000B8001CC007F01BC008F01AC009F019C00AF0EC
:1000C80018C00BF017C00CF016C00DF015C00EF0DC
:1000D8002AC0E9FF2BC0EAFF2CC0E1FF2DC0E2FFD8
:0200E800110005
:1000EA000B840BAE80EF00F0010E036E026A016A08
:0A00FA00006A0A360232FF0E1200FF
:080104000AAE029E000E12007B
:10010C000B820BAE90EF00F0036802680168006888
:08011C000A360232FF0E120048
:0E012400026A016A006A086A036A000E12008D
:100132000B6A0A6A096A00500402F4CF09F0F3CF8D
:1001420008F001500502F4CF0BF0F3CF0AF0005093
:100152000502F3500926F4500A22E86A0B220150E4
:100162000402F3500926F4500A22E86A0B2208C05E
:1001720000F009C001F00AC002F00BC003F0120047
:100182001E0E716E100E0001736F040E746F73C039
:10019200E1FF74C0E2FFE69E73C0E1FF74C0E2FFBC
:1001A200E69C040E7325E16E000E7421E26EE68C6D
:1001B200180EC26F040EC36FC2C0E1FFC3C0E2FFDC
:1001C200E69EC2C0E1FFC3C0E2FFE69C040EC22568
:1001D200E16E000EC321E26EE68C020E7325E16E23
:1001E200000E7421E26EB0C0E6FFB1C0E6FF010E60
:1001F2007325E16E000E7421E26E400EE66E73C04E
:10020200E9FF74C0EAFFEECF00F073C0E1FF74C0F3
:10021200E2FF400E0014E66E73C0E9FF74C0EAFF0D
:10022200EECF00F0880E001273C0E1FF74C0E2FF4F
:1002320000C0E6FF73C0B2F074C0B3F0040E7319CD
:08024200006E00C073F0120011
:10024A000CB067EF01F00CA20DEF02F00E6A000E7F
:10025A0002647EEF01F0F00E0214D8A449EF01F017
:10026A00023A01380F0B02260138F00B016E0038F2
:10027A000F0B01260038F00B006E08380F0B002612
:10028A000838F00B086E0E84D89002BE62EF01F0B7
:10029A0008360036013602360E2A02BE62EF01F037
:1002AA0008360036013602360E2A02BE62EF01F027
:1002BA0008360036013602360E2A0E50036403EF62
:1002CA0002F0035E0BBC08AE08EF02F0D880800E85
:1002DA0008640030000E002201220222D8A008EF92
:1002EA0002F0023201320032034A0DEF02F008EF47
:1002FA0002F001C002F000C001F008C000F0086A74
:10030A00000E0E860264B5EF01F0F00E0214D8A4B6
:10031A009DEF01F0023A01380F0B02260138F00B6B
:10032A00016E00380F0B01260038F00B006E0E84A8
:10033A00D89002BE62EF01F00036013602360E2A6C
:10034A0002BE62EF01F00036013602360E2A02BE04
:10035A0062EF01F00036013602360E2A62EF01F032
:10036A0001C002F000C001F0006A000E0E960E886D
:10037A000264E2EF01F0F00E0214D8A4CDEF01F00E
:10038A00023A01380F0B02260138F00B016E0E8477
:10039A00D89002BE62EF01F0013602360E2A02BE82
:1003AA0062EF01F0013602360E2A02BE62EF01F058
:1003BA00013602360E2A62EF01F001C002F0016A2C
:1003CA00000E0E86026412EF02F0F00E0214D8A498
:1003DA00F1EF01F0023A0E84D89002BE62EF01F00A
:1003EA0002360E2A02BE62EF01F002360E2A02BE61
:1003FA0062EF01F002360E2A62EF01F0010E0C6E76
:10040A006FDE15EF02F0020E0C6E77DE15EF02F0CA
:10041A00040E0C6E76DE15EF02F0080E0C6E7DDE11
:02042A001200BE
:10042C0004012251010A13E120C401F01F0E011630
:10043C000150000A0CE10001C88F04012151030A8C
:10044C0004E1010E0001AC6F02D00001AC6B0401A1
:10045C002251000AD8A48DD020C401F01F0E011621
:10046C000150020AD8A485D024C401F00F0E011645
:10047C000150000AD8B47DD00001C88F040124BFFC
:10048C0016D024C403F00F0E031603C000F0000EA8
:10049C00016E003600900136710E0024E96E000EDC
:1004AC000120EA6EEECF04F0EECF05F015D024C497
:1004BC0003F00F0E031603C000F0000E016E0036A1
:1004CC0000900136C00E0024E96E000E0120EA6E89
:1004DC00EECF04F0EECF05F02151030A07E104C082
:1004EC00E1FF05C0E2FF840EE66E43D024C400F0A9
:1004FC000F0E0016700E026E0F0E036E00500226C9
:10050C00D8B0032A02C0E9FF03C0EAFFFE0EEE14C6
:10051C00006EEECF01F0FF0E011602C0E1FF03C02A
:10052C00E2FF00C0E6FF01C0E6FF24AF11D004C01B
:10053C00E1FF05C0E2FFE66A040E0418006E00C07D
:10054C0004F004C0E1FF05C0E2FF400EE66E11D0DE
:10055C0004C0E1FF05C0E2FF880EE66E040E04182D
:10056C00006E00C004F004C0E1FF05C0E2FFC80E3D
:04057C00E66E120015
:10058000000E0001CA5D02E1080EC95D10E2C9C09B
:1005900003F0CAC004F0D351000A03E1010ED36F87
:1005A00005D0D351010A02E1020ED36F04D0080E28
:1005B000036E000E046EC0C0E1FFC1C0E2FFE69210
:1005C000C0C0E1FFC1C0E2FFE690C0C0E9FFC1C00A
:1005D000EAFFEECF00F0C0C0E1FFC1C0E2FF04506F
:1005E0000010E66E010EC025E16E000EC121E26E24
:1005F00003C0E6FF0350C95D006E0450CA59016E86
:1006000000C0C9F001C0CAF0280E756F040E766FE5
:10061000C8B12FD0035004102BE0C5C0F6FFC6C0F0
:10062000F7FFC7C0F8FF0900F5CF00F075C0E1FF84
:1006300076C0E2FF00C0E6FF754B762B010EC525A4
:10064000006E000EC621016E000EC721026E00C0B2
:10065000C5F001C0C6F002C0C7F0010E035C006E19
:10066000000E0458016E00C003F001C004F0D2D7A0
:1006700024D00350041021E0C5C0E9FFC6C0EAFF42
:1006800075C0E1FF76C0E2FFEECFE6FF754B762B3B
:10069000010EC525006E000EC621016E00C0C5F01A
:1006A00001C0C6F0010E035C006E000E0458016E1E
:0C06B00000C003F001C004F0DCD7120011
:1006BC0004012051800AD8A478D0C00E0001C86F64
:1006CC0069D00001500E006E360E016E000E026EE7
:1006DC0000C0C5F001C0C6F002C0C7F0120EC96F51
:1006EC00000ECA6F62D00001030E006E000E016E88
:1006FC0022C404F0000E056E16DDD00E0024E96E47
:10070C00000E0120EA6EEECFC5F0EECFC6F0EECFB4
:10071C00C7F0020EC525F66E000EC621F76E000E50
:10072C00C721F86E0900F5CF00F00900F5CF01F0F4
:10073C0000C0C9F001C0CAF038D004012251000138
:10074C00CE5D23E3030E006E000E016E22C404F096
:10075C00000E056EE8DCD80E0024E96E000E0120B8
:10076C00EA6EEECFC5F0EECFC6F0EECFC7F0C5C047
:10077C00F6FFC6C0F7FFC7C0F8FF0900F5CF00F0C1
:10078C0000C0C9F0000ECA6F01D0C86B0ED00001BA
:10079C00C86B0BD004012351010A93E02351020AC8
:0C07AC00A2E02351030AC9E0F2D71200BA
:1007B8000001C88F716ABF6B22C4AFF0AF51000A45
:1007C80003E1100EC46F03D0200EC46FD6DC1200F4
:1007D800025006180E6E086A096A0B6A035007640D
:1007E800DFEF04F006500A6E068E028E03500B6E81
:1007F8000750036E000E0B642FEF04F00B50075EDA
:10080800D8B4D0EF04F0070E07649EEF04F0075E3B
:1008180000C008F001C000F002C001F0026A074EF3
:10082800D0EF04F0076473EF04F0075E00C008F02F
:1008380001C000F0016A074ED0EF04F0076451EFE1
:1008480004F0075E00C008F0006A074ED0EF04F01D
:10085800076438EF04F00AC002F005C001F004C0D4
:1008680000F0086AFCEF05F0030E076443EF04F09C
:10087800075E08380F0B086E074ED0EF04F0D890CB
:100888000832074ED0EF04F0D8900832074ED0EF68
:1008980004F0D8900832D0EF04F0030E076462EF3A
:1008A80004F0075E08380F0B086E0038F00B0826B6
:1008B80000380F0B006E074ED0EF04F0D8900032CE
:1008C8000832074ED0EF04F0D89000320832074EB5
:1008D800D0EF04F0D89000320832D0EF04F0030EC5
:1008E80007648AEF04F0075E08380F0B086E0038BB
:1008F800F00B082600380F0B006E0138F00B0026AD
:1009080001380F0B016E074ED0EF04F0D89001327A
:1009180000320832074ED0EF04F0D890013200328E
:100928000832074ED0EF04F0D89001320032083276
:10093800D0EF04F0030E0764BBEF04F0075E08383D
:100948000F0B086E0038F00B082600380F0B006EEE
:100958000138F00B002601380F0B016E0238F00B3E
:10096800012602380F0B026E074ED0EF04F0D89024
:100978000232013200320832074ED0EF04F0D8902C
:100988000232013200320832074ED0EF04F0D8901C
:100998000232013200320832096A000E0EAEC4EF8C
:1009A80005F0081E001E011E021E082A0022012250
:1009B8000222C4EF05F00750D8A4E5EF04F0FCEFDD
:1009C80005F0096A02C00AF0028E068E0750035C21
:1009D800076ED8B4B7EF05F0070E076485EF05F08A
:1009E800075E0450096E0550046E0650056E066ACF
:1009F800074EB7EF05F0070E07645AEF05F0075EDC
:100A08000450096E0550046E056A074EB7EF05F0ED
:100A1800070E076438EF05F0075E0450096E046A94
:100A2800074EB7EF05F0070E07641FEF05F00AC081
:100A380002F0FCEF05F0030E07642AEF05F0075EED
:100A480009380F0B096E074EB7EF05F0D890093239
:100A5800074EB7EF05F0D8900932074EB7EF05F00B
:100A6800D8900932B7EF05F0030E076449EF05F097
:100A7800075E09380F0B096E0438F00B0926043895
:100A88000F0B046E074EB7EF05F0D8900432093209
:100A9800074EB7EF05F0D89004320932074EB7EF8A
:100AA80005F0D89004320932B7EF05F0030E076459
:100AB80071EF05F0075E09380F0B096E0438F00B6B
:100AC800092604380F0B046E0538F00B0426053888
:100AD8000F0B056E074EB7EF05F0D89005320432BC
:100AE8000932074EB7EF05F0D890053204320932C3
:100AF800074EB7EF05F0D890053204320932B7EF48
:100B080005F0030E0764A2EF05F0075E09380F0B26
:100B1800096E0438F00B092604380F0B046E0538EB
:100B2800F00B042605380F0B056E0638F00B05266A
:100B380006380F0B066E074EB7EF05F0D890063251
:100B4800053204320932074EB7EF05F0D890063265
:100B5800053204320932074EB7EF05F0D890063255
:100B6800053204320932086A000E0EAEC4EF05F0F1
:100B7800091E041E051E061E092A04220522062235
:100B8800095008260450002205500122065002226E
:100B98000EBEDBEF05F0D8A0EAEF05F00232013215
:100BA80000320832033EEAEF05F0F6EF05F0D8B060
:100BB800F0EF05F0000E081E001E011E021E082A96
:100BC8000022012202220A7EF0EF05F0010E0C6ECF
:100BD80025EC01F0FEEF05F0020E0C6E25EC01F09D
:100BE800FEEF05F0040E0C6E86EC00F0FEEF05F04B
:060BF800000E0C6E12005D
:100BFE0020C401F01F0E01160150010A01E094D02D
:100C0E0004012451000A01E08FD02151060A42E16D
:100C1E0037D00001AF51010A17E1060E006E360EF5
:100C2E00016E000E026E120E0026000E012202222E
:100C3E0000C0C5F001C0C6F002C0C7F0090EC96FF2
:100C4E00000ECA6FC00EC86F25D00001AF51010A49
:100C5E0012E12F0E006E360E016E000E026E00C0F7
:100C6E00C5F001C0C6F002C0C7F0210EC96F000E5C
:100C7E00CA6FC00EC86F0ED00001800EC86F0AD0AA
:100C8E0004012351210AC5E02351220ADEE023513B
:100C9E00230AF2E020C401F0600E0116050E006E6C
:100CAE00005004E00132019EFF0FFBD70150010AF4
:100CBE0001E03AD026D038D037D0600E0001C56F93
:100CCE00000EC66F010EC96F000ECA6FC10EC86F3F
:100CDE002BD00001800EC86F23C460F025D0000118
:100CEE005E0EC56F000EC66F010EC96F000ECA6F85
:100CFE00810EC86F19D00001800EC86F22C45EF03D
:100D0E0013D004012151010AD6E02151090AD4E081
:100D1E002151020AD2E021510A0ADBE02151030AD5
:0A0D2E00DEE021510B0AE7E012009D
:100D38000401286B296B4AD00001C88F040128815F
:100D48000001AC51010A02E10401288354D00001DA
:100D5800C88F51D00001C88F040124BF16D024C405
:100D680003F00F0E031603C000F0000E016E0036EC
:100D780000900136710E0024E96E000E0120EA6E23
:100D8800EECF04F0EECF05F015D024C403F00F0E1B
:100D9800031603C000F0000E016E00360090013605
:100DA800C00E0024E96E000E0120EA6EEECF04F0BA
:100DB800EECF05F004C0E9FF05C0EAFFEECF01F071
:100DC80001A403D00401010E286F15D020C401F03E
:100DD8001F0E01160150000AAFE020C401F01F0EDB
:100DE80001160150010AB3E020C401F01F0E0116DC
:100DF8000150020AAFE00001C8AF07D0280EC56F46
:0C0E0800040EC66FC881020EC96F1200F4
:100E1400086A096A100E0C6E01340836093604504B
:100E2400085E0550D8A0053C095ED8B007D0045030
:100E340008260550D8B0053C0926D890003601365E
:060E44000C2EEAD712009B
:100E4A00500E006E360E016E000E026E0E0E00245B
:100E5A00F66E000E0120F76E000E0220F86E0900F1
:100E6A00F5CF03F003C004F00F0E0024F66E000E57
:100E7A000120F76E000E0220F86E0900F5CF01F08E
:100E8A000150035C12E2500E006E360E016E000E27
:100E9A00026E0F0E0024F66E000E0120F76E000E91
:100EAA000220F86E0900F5CF04F0500E006E360EDF
:100EBA00016E000E026E100E0024F66E000E012066
:100ECA00F76E000E0220F86E0900F5CF01F001500E
:100EDA00045C12E2500E006E360E016E000E026EB7
:100EEA00100E0024F66E000E0120F76E000E02208E
:0E0EFA00F86E0900F5CF04F004C000F01200FD
:100F0800086A096A000E0762036409EF08F00250D4
:100F180006180A6E075003267E0ED8A09AEF07F02F
:100F2800035ED8B00EEF08F09EEF07F0035ED8A07E
:100F380013EF08F0028E068E02C00EF001C00BF00F
:100F480000C00DF000500402F4CF0CF0015005026F
:100F5800F4CF00F0F3CF08F00402F3500C26F4505D
:100F68000822000E00220D500502F3500C26F45002
:100F78000822000E002202500402F3500826F45002
:100F8800002202500502016A000E0122F3500026D9
:100F9800F45001220D500602F3500826F4500022A6
:100FA800026A000E012202220B500602F3500026AC
:100FB800F4500122000E02220E500602F3500126C0
:100FC800F450022202BEF1EF07F00836003601366F
:100FD80002360306D8B413EF08F004EF08F0D880FF
:100FE800800E08640030000E002201220222D8A0E0
:100FF80004EF08F0023201320032034A0EEF08F023
:101008000AAE029E000E16EF08F0010E92EC00F0F8
:1010180016EF08F0020E86EC00F016EF08F0040E4A
:0610280075EC00F012005F
:0A102E000001A75301E0E4DD120009
:1010380020C401F0600E0116050E006E005004E099
:101048000132019EFF0FFBD70150000A01E061D079
:101058003DD00001C88F080EC46F5BD05EEC03F072
:1010680058D0DCEC03F055D00001AF0EC56F000E70
:10107800C66FC881010EC96FC88F4BD059DE49D0E1
:1010880016EC02F046D0BF0E006E000E016E040191
:1010980024510026D8B0012A00C0C5F001C0C6F00E
:1010A8000001C881010EC96FC88F33D00001C88FF5
:1010B800BF0EE16E000EE26E04012451E126D8B0A5
:1010C800E22A22C4E6FF25D024D023D004012151EE
:1010D800050ABFE02151060AC1E02151090AC1E011
:1010E8002151080AC1E02151000AC8E02151010A32
:1010F800C7E02151030AC4E021510A0AC4E0215182
:101108000B0AD4E02151070ADFE021510C0ADDE087
:04111800DCD712000E
:10111C000101226B236B246B020E1F25F66E000E51
:10112C002021F76E000E2121F86E0900F5CF05F095
:10113C00030E1F25F66E000E2021F76E000E2121E6
:10114C00F86E0900F5CF00F000C003F0000E046E3D
:10115C0003C001F0006A05500024066E000E012049
:10116C00076E1FC108F020C109F021C10AF0010E61
:10117C000824F66E000E0920F76E000E0A20F86E99
:10118C000900F5CF01F00150020A1BE1060E0824FC
:10119C00F66E000E0920F76E000E0A20F86E09009C
:1011AC00F5CF01F00150225D0CE2060E0824F66E1C
:1011BC00000E0920F76E000E0A20F86E0900F5CF1C
:1011CC0022F1010E0824F66E000E0920F76E000EB7
:1011DC000A20F86E0900F5CF01F00150040A1BE15A
:1011EC00080E0824F66E000E0920F76E000E0A2079
:1011FC00F86E0900F5CF01F00150225D0CE2080EEB
:10120C000824F66E000E0920F76E000E0A20F86E08
:10121C000900F5CF22F108C0F6FF09C0F7FF0AC09C
:10122C00F8FF0900F5CF00F000502325016E000EE9
:10123C002421026E01C023F102C024F10750025C8C
:10124C0002E10650015C01E30FD008C0F6FF09C0B3
:10125C00F7FF0AC0F8FF0900F5CF00F00050082690
:0E126C00000E09220A2283D722C100F01200D0
:08127A00067EECEC03F012000B
:081282000B6A0B86FF0E12003F
:10128A000B800BAE51EF09F0026A0AAEFF0E026E36
:0C129A00016E006E0A360232FF0E1200D8
:0A12A600D08EA28AA08AF28E1200F8
:0E12B000160E6F6E9F0E6B6E3B0E696E120077
:1012BE0043C104F0000E056ECB50010F006E016AA3
:1012CE00000E012299EC00F0640E046E000E056E05
:1012DE009ADD00C044F101C045F1000E026E0150CE
:1012EE00025C02E10050FF0805E2FF0E0101446FAF
:1012FE00000E456F010144A102D0BA8801D0BA9800
:10130E0044A302D0BA8A01D0BA9A44C1BBFF1200DC
:10131E000C6A0E6A0250D8A4A8EF09F001C002F0C0
:10132E0000C001F0006A0E860250D8A4A8EF09F0A2
:10133E0001C002F0016A0E960E880250D8B4BAEFC0
:10134E0009F00E50035ED8A4D8A0C0EF09F0D890D3
:10135E0002BEC6EF09F0003601360236032EAFEF9D
:10136E0009F0C0EF09F0010E0C6E92EC00F0CAEF1E
:10137E0009F0020E0C6E75EC00F0CAEF09F0040EC7
:08138E000C6E82EC00F012006D
:1013960043C104F0000E056ECB50010F006E016ACA
:1013A600000E012299EC00F0640E046E000E056E2C
:1013B6002EDD00C044F101C045F1000E026E015061
:1013C600025C02E10050FF0805E2FF0E0101446FD6
:1013D600000E456F010144A102D0BD8801D0BD9821
:1013E60044A302D0BD8A01D0BD9A44C1BEFF1200FB
:1013F600020E01014325036E000E4421046E03C054
:10140600E9FF04C0EAFF010EEE24006E000EEE2096
:10141600016E03C0E1FF04C0E2FF00C0E6FF01C0A9
:10142600E6FF03C0E9FF04C0EAFFEECF01F0EECF0E
:1014360002F04651025C02E14551015C0BE3020EEB
:101446004325E16E000E4421E26EE66AE66A010E6D
:08145600006E01D0006A1200D3
:10145E000A6A0350D8A40A800750D8A40A820A50F8
:10146E00D8B492EF0AF0030AD8B44BEF0AF00AB0E0
:10147E0046EF0AF006AE90EF0AF08EEF0AF002AEDB
:10148E008EEF0AF090EF0AF00250800B0A6E029E69
:10149E000650800B069E0A18D8B45CEF0AF00A506C
:1014AE00D8B48EEF0AF090EF0AF00750035CD8B470
:1014BE0066EF0AF0D8A082EF0AF088EF0AF0065025
:1014CE00025CD8B470EF0AF0D8A082EF0AF088EF71
:1014DE000AF00550015CD8B47AEF0AF0D8A082EF7A
:1014EE000AF088EF0AF00450005CD8B492EF0AF0CC
:1014FE00D8B088EF0AF00A52D8B490EF0AF08EEF07
:10150E000AF00A52D8B48EEF0AF090EF0AF0D880A3
:0E151E001200D8901200D880D884120012005B
:10152C00010E0001CC25E96E000ECD21EA6EEECF46
:10153C0000F000C002F0000EBA5D02E10250B95D8D
:10154C0003E2B9C002F00AD00250B95D006E000E81
:10155C00BA59016E00C0B9F001C0BAF0036A02506A
:10156C00035C1CE2280EE96E040EEA6E0350E926B9
:10157C00D8B0EA2AEECF00F0B6C0E1FFB7C0E2FF68
:10158C0000C0E6FF010EB625006E000EB721016EFD
:10159C0000C0B6F001C0B7F0032AE1D7000E006E10
:1015AC00BA51005C02E1B951000828E2010EB425E1
:1015BC00E16E000EB521E26E080EE66E020EB42549
:1015CC00E16E000EB521E26E280EE66E040EE66E9C
:1015DC00CCC0E9FFCDC0EAFFEECF00F000BC07D0D5
:1015EC00B4C0E1FFB5C0E2FFC80EE66E06D0B4C0D1
:1015FC00E1FFB5C0E2FF880EE66E19D0010EB425EE
:10160C00E16E000EB521E26E080EE66E020EB425F8
:10161C00E16E000EB521E26E200EE66E040EE66E53
:10162C00B4C0E1FFB5C0E2FF840EE66EB89F1200B5
:10163C006D980001C8BF49D0B8AF28D0020ECB6F4F
:10164C00010EC025E16E000EC121E26EE66AC0C03B
:10165C00E1FFC1C0E2FFC80EE66E010EB425E16EDB
:10166C00000EB521E26E080EE66E020EB425E16E98
:10167C00000EB521E26E280EE66E040EE66EB4C0C6
:10168C00E1FFB5C0E2FFC80EE66E1ED0010EB42518
:10169C00E16E000EB521E26E080EE66E020EB42568
:1016AC00E16E000EB521E26E200EE66E040EE66EC3
:1016BC00B4C0E1FFB5C0E2FF8C0EE66EC0C0E1FF26
:1016CC00C1C0E2FF840EE66E83D0B8BF81D00401A6
:1016DC0020AF56D00001CA510401275D04E100017E
:1016EC00C9510401265D04E226C4C9F027C4CAF01E
:1016FC00C0EC02F0010ECB6F010EB425E16E000EB2
:10170C00B521E26E080EE66E020EB425E16E000EF7
:10171C00B521E26E200EE66E040EE66EB4C0E1FF5B
:10172C00B5C0E2FF800EE66E5F6A010ECC25E16E5D
:10173C00000ECD21E26E080EE66E020ECC25E16E97
:10174C00000ECD21E26E200EE66E040EE66ECCC0CD
:10175C00E1FFCDC0E2FF840EE66E010E5F6E020E5D
:10176C00C025E16E000EC121E26E280EE66E040E5D
:10177C00E66EC0C0E1FFC1C0E2FFC80EE66E28D025
:10178C000001020ECB6F010EC025E16E000EC121CF
:10179C00E26EE66AC0C0E1FFC1C0E2FFC80EE66EB1
:1017AC00010EB425E16E000EB521E26E080EE66E58
:1017BC00020EB425E16E000EB521E26E280EE66E27
:1017CC00040EE66EB4C0E1FFB5C0E2FFC80EE66ED3
:0217DC001200F9
:1017DE00060E0001D06F360ED16F000ED26F7A0E4C
:1017EE00D86F360ED96F000EDA6FDC0EDB6F350E4A
:1017FE00DC6F000EDD6FB20EDE6F350EDF6F000E8A
:04180E00E06F120075
:101812000001CB6BC0C0E1FFC1C0E2FFE66A040E6B
:10182200C019E16EC1C0E2FF000EE21AE66AB8AF6B
:0618320001D0B89F120076
:101838000050086E0150006E016A026A036A0B6A62
:101848000C6A960E036E0A6A00C001F008C000F028
:08185800086A026A60DD12005B
:101860000501546B556B0101436B29DD0501526B7A
:10187000536B0101436B8FDD8C90FD0E436F000EA7
:10188000446FF40E456F010E466FB5DD0052D8A4CB
:041890008C74120042
:061894008C948C80120010
:10189A006D92699468A403D0FB0E6816FBD71200F8
:1018AA000B6A0C6A0A6A0350D8B49FEF0CF0028ED6
:1018BA008E0E035E03BE67EF0CF0D8B467EF0CF030
:1018CA00A3EF0CF0036C080E035CD8A07EEF0CF0BB
:1018DA00036E013602C001F0026A080E035CD8A04A
:1018EA007EEF0CF00136016A0350D8A4D89088EF35
:1018FA000CF00350D8B488EF0CF0D89002320132C1
:10190A00032E82EF0CF00BBC01A095EF0CF0D8A0CF
:10191A0095EF0CF0012AD8B4022A02BEB2EF0CF0FD
:10192A000AAEB7EF0CF0021E011E012AD8B4022A31
:10193A00B7EF0CF0026A016AB7EF0CF00B800BAE3E
:10194A00BBEF0CF0026A0AAEBBEF0CF0FF0E026EA0
:10195A00016E0A360232BBEF0CF0010E0C6E90DCFF
:10196A00BDEF0CF0000E0C6EBDEF0CF0FF0E0C6E0E
:0A197A000150006E0250016E1200D1
:1019840033C104F034C105F035C106F036C107F0A7
:101994002FC100F030C101F031C102F032C103F0B7
:1019A4006ADC00C037F101C038F102C039F103C06C
:1019B4003AF15AC004F05BC005F05CC006F05DC0AB
:1019C40007F0ECEC03F000C05AF001C05BF002C079
:1019D4005CF003C05DF000C004F001C005F002C07B
:1019E40006F003C007F04EC000F04FC001F050C035
:1019F40002F051C003F031DD010ED8B0000E006ECC
:101A0400005208E04EC05AF04FC05BF050C05CF08A
:101A140051C05DF0000E4E18046E000E4F18056E96
:101A2400800E5018066E000E5118076E5AC000F052
:101A34005BC001F05CC002F05DC003F00EDD010E7E
:101A4400D8B0000E006E00520CE0000E4E185A6E14
:101A5400000E4F185B6E800E50185C6E000E51180D
:101A64005D6E56C004F057C005F058C006F059C06A
:101A740007F037C100F038C101F039C102F03AC1B2
:101A840003F03DEC09F052C004F053C005F054C01B
:101A940006F055C007F084EC07F000C03BF101C02C
:101AA4003CF102C03DF103C03EF152C004F053C00A
:101AB40005F054C006F055C007F0000E006E000E8D
:101AC400016E000E026E7F0E036E3DEC09F06DC0D8
:101AD40004F06EC005F06FC006F070C007F084EC2F
:101AE40007F03BC104F03CC105F03DC106F03EC126
:101AF40007F0ECEC03F000C03FF101C040F102C07C
:101B040041F103C042F137C156F038C157F039C131
:101B140058F03AC159F03FC16DF040C16EF041C177
:101B24006FF042C170F069C000F06AC001F06BC090
:101B340002F06CC003F037C104F038C105F039C1BC
:101B440006F03AC107F084EC07F000C03BF101C095
:101B54003CF102C03DF103C03EF161C000F062C03F
:101B640001F063C002F064C003F05AC004F05BC02B
:101B740005F05CC006F05DC007F084EC07F03BC1E3
:101B840004F03CC105F03DC106F03EC107F0ECECA9
:101B940003F000C03BF101C03CF102C03DF103C0C1
:101BA4003EF165C000F066C001F067C002F068C095
:101BB40003F03FC104F040C105F041C106F042C149
:101BC40007F084EC07F03BC104F03CC105F03DC1D3
:0C1BD40006F03EC107F0ECEC03F012003C
:101BE0008C908C928C848C9A8C9C8C8E8C968C880D
:021BF0001200E1
:101BF200BF0E8314006E009AF70E00148C6E800ED6
:0C1C02008310006E100E00108C6E12009B
:101C0E00FE0E8314006E0092F70E00148C6E040EFE
:0C1C1E008310006E100E00108C6E12007F
:101C2A00434A442A030E445C02E1E80E435C30E373
:101C3A00436A446A2FC103F030C104F02FC1E9FF9F
:101C4A0030C1EAFFEECF00F0EECF01F0004A012AE0
:101C5A002FC1E1FF30C1E2FF00C0E6FF01C0E6FF8D
:101C6A0003C0E9FF04C0EAFFEECF01F0EECF02F0B5
:101C7A0001013251025C02E13151015C09E32FC1D9
:101C8A00E1FF30C1E2FFE66AE66A010E006E01D0AA
:041C9A00006A1200CA
:101C9E00BF0E8314006E009A0092FE0E00148C6E1E
:0E1CAE00800E8310006E040E00108C6E12006B
:101CBC000B6A0A6A096A086A0E6A03340836045009
:101CCC00085E0550D8A0053C095E0650D8A0063C1D
:101CDC000A5E0750D8A0073C0B5EE86AD8A0010E3C
:101CEC000E5E0336070E0C6E0334083609360A36C0
:101CFC000B360E36045003A012D0085E0550D8A047
:101D0C00053C095E0650D8A0063C0A5E0750D8A0D8
:101D1C00073C0B5EE86AD8A0010E0E5E11D00826B7
:101D2C000550D8B0053C09260650D8B0063C0A260A
:101D3C000750D8B0073C0B26E86AD8B0010E0E2627
:101D4C0003360C2ED1D70234083609360A360B3638
:101D5C000E36045003A012D0085E0550D8A0053CE6
:101D6C00095E0650D8A0063C0A5E0750D8A0073C76
:101D7C000B5EE86AD8A0010E0E5E11D00826055045
:101D8C00D8B0053C09260650D8B0063C0A260750A8
:101D9C00D8B0073C0B26E86AD8B0010E0E260236E6
:101DAC00070E0C6E0234083609360A360B360E3620
:101DBC00045002A012D0085E0550D8A0053C095E64
:101DCC000650D8A0063C0A5E0750D8A0073C0B5E14
:101DDC00E86AD8A0010E0E5E11D008260550D8B0C6
:101DEC00053C09260650D8B0063C0A260750D8B048
:101DFC00073C0B26E86AD8B0010E0E2602360C2ED4
:101E0C00D1D70134083609360A360B360E36045053
:101E1C0002A012D0085E0550D8A0053C095E065001
:101E2C00D8A0063C0A5E0750D8A0073C0B5EE86AB7
:101E3C00D8A0010E0E5E11D008260550D8B0053C76
:101E4C0009260650D8B0063C0A260750D8B0073CE5
:101E5C000B26E86AD8B0010E0E260136070E0C6E62
:101E6C000134083609360A360B360E36045001A0FA
:101E7C0012D0085E0550D8A0053C095E0650D8A0CB
:101E8C00063C0A5E0750D8A0073C0B5EE86AD8A057
:101E9C00010E0E5E11D008260550D8B0053C09265F
:101EAC000650D8B0063C0A260750D8B0073C0B2683
:101EBC00E86AD8B0010E0E2601360C2ED1D70034AC
:101ECC00083609360A360B360E36045001A012D0ED
:101EDC00085E0550D8A0053C095E0650D8A0063C0B
:101EEC000A5E0750D8A0073C0B5EE86AD8A0010E2A
:101EFC000E5E11D008260550D8B0053C09260650B8
:101F0C00D8B0063C0A260750D8B0073C0B26E86A26
:101F1C00D8B0010E0E260036070E0C6E00340836B3
:101F2C0009360A360B360E36045000A012D0085E65
:101F3C000550D8A0053C095E0650D8A0063C0A5EA8
:101F4C000750D8A0073C0B5EE86AD8A0010E0E5EC5
:101F5C0011D008260550D8B0053C09260650D8B03B
:101F6C00063C0A260750D8B0073C0B26E86AD8B0C6
:101F7C00010E0E2600360C2ED1D700B00ED0045018
:101F8C0008260550D8B0053C09260650D8B0063CAA
:0C1F9C000A260750D8B0073C0B261200A4
:041FA800A19A1200E8
:101FAC000001CB51020A03E196EC0AF01ED02BDCA7
:101FBC005F50000A19E1010EB425E16E000EB52147
:101FCC00E26E080EE66E020EB425E16E000EB5212F
:101FDC00E26E200EE66E040EE66EB4C0E1FFB5C0F4
:0C1FEC00E2FF8C0EE66E01D05F6A12006E
:101FF8000001C451000A0CE16D6A696A58EC09F0E5
:1020080053EC09F06DB602D06D86FCD7010EC46F93
:022018001200B4
:10201A00C0C0E9FFC1C0EAFFEECF00F000AE05D0B4
:10202A00C0C0E1FFC1C0E2FFE66A0001D36BCB6B1F
:10203A00C96BCA6BC86B1CEC08F017EC08F01EECF5
:04204A000BF0120085
:10204E000450000A12E10550000A0FE10650000A82
:10205E000CE10750000A09E1FF0E006EFF0E016E43
:10206E007F0E026EFF0E036EA8D0086A096A075033
:10207E00D8B4D2EF10F00350D8B4D7EF10F002500E
:10208E0006180A6E028E068E0E6A02C008F001C095
:10209E000CF000C00DF004500D5E0550D8A0053CAC
:1020AE000C5E0650D8A0063C085E086A0C6A0D6AE3
:1020BE00D8A069EF10F0D890023201320032083207
:1020CE00010E0E6E0750035ED8A076EF10F07E0E56
:1020DE000E240326D8B0DCEF10F07CEF10F07E0E4D
:1020EE000E240326D8A0E1EF10F0180E0B6E0D365D
:1020FE000C3608360036013602360E360450005EB7
:10210E000550D8A0053C015E0650D8A0063C025EE4
:10211E0006340E120EA097EF10F00D80A2EF10F005
:10212E00045000260550D8B0053C01260650D8B004
:10213E00062802260D900B2E7EEF10F0C8EF10F041
:10214E00D8900036013602360E360450005E055029
:10215E00D8A0053C015E0650D8A0063C025E0634AF
:10216E000E10010B0D26D8B00C2AD8B4082AD8A40C
:10217E00C8EF10F008320C320D32032AD8B4DCEF5F
:10218E0010F00AAE089E0850026E0C50016E0D50F3
:10219E00006EE4EF10F0010E41EC09F0E4EF10F0E8
:1021AE00020E92EC00F0E4EF10F0040E86EC00F05C
:0C21BE00E4EF10F0080E75EC00F01200C9
:1021CA00EFEC0BF0B26BB36BAD6BAE6B6A6A686A1D
:1021DA0058EC09F06D8C6E6A716A6D9CE16BE26B6A
:1021EA00000EE25D02E1080EE15D17E2E1C000F0D7
:1021FA00E2C001F000360090013600360090013648
:10220A00000E0024E16E040E0120E26EE66AE66A20
:10221A00E66AE66AE14BE22BE3D7160E706E68A611
:10222A0003D0F70E6816FBD7C86BB86BB96BBA6BDD
:10223A006D98080EC06F040EC16FAF6BC46B1200AD
:0A224A006984EF0E68166D82120021
:1022540070A01CD0CCC0E9FFCDC0EAFFEECF01F0E6
:102264000150800A12E1C0C0E9FFC1C0EAFFEECF0D
:1022740001F0000E000A02E1840E011806E1CCC050
:10228400E1FFCDC0E2FF8C0EE66E7090DF0E6816A3
:02229400120036
:1022960025EC07F000C01DF1060E01011F6F360E7A
:1022A600206F000E216F8EEC08F000C01EF11D514C
:1022B600005C03E21DC100F002D01EC100F0120056
:1022C600040E0001C019006E00C0C0F0C451080A17
:1022D6000AE122C46EFF6E50000803E2100EC46FBE
:1022E60002D0040EC46FCB51010A3BE1020EC02599
:1022F600E16E000EC121E26E280EE66E040EE66E59
:10230600C0EC02F0D351020A07E1C0C0E1FFC1C030
:10231600E2FF840EE66E24D0040EC019006E00C0E3
:10232600C0F0C0C0E9FFC1C0EAFFEECF00F000BCBC
:102336000CD0040EC019006E00C0C0F0C0C0E1FF92
:10234600C1C0E2FFC80EE66E0BD0040EC019006EC7
:1023560000C0C0F0C0C0E1FFC1C0E2FF880EE66E5B
:0823660002D009EC0CF012009A
:10236E00030E0501466FB3D08C808C928C943ADCB0
:10237E00E40E01012F6F000E306F080E316F000E4C
:10238E00326F4CDC005202E0010E366EC1D08C90E2
:10239E008C828C9427DCE40E01012F6F000E306FBF
:1023AE00030E316F000E326F39DC005202E0020E66
:1023BE00366EAED00EDCE40E01012F6F000E306FC4
:1023CE00010E316F000E326F29DC005202E0030E57
:1023DE00366E9ED08C8A8C9C8C9E12DCE40E010193
:1023EE002F6F000E306F080E316F000E326F16DC3D
:1023FE00005202E0040E366E8BD08C9A8C8C8C9E22
:10240E0007EC0EF0E40E01012F6F000E306F030E7D
:10241E00316F000E326F02DC005202E0050E366E96
:10242E0077D0F0EC0DF0E40E01012F6F000E306F3F
:10243E00010E316F000E326F15EC0EF0005202E0FD
:10244E00060E366E65D08C868C9822DCE40E010169
:10245E002F6F000E306F050E316F000E326F15ECC0
:10246E000EF0005202E0070E366E52D08C96E80E39
:10247E000101436F000E446FF40E456F010E466F5F
:10248E00FBEC09F00052D8A48C7802DCE40E2F6F1E
:10249E00000E306F030E316F000E326F15EC0EF022
:1024AE00005202E0080E366E33D0F0EC0DF0E40E62
:1024BE0001012F6F000E306F010E316F000E326F63
:1024CE0015EC0EF00052D8A4366A22D021D0365028
:1024DE00000AD8B449D73650010AD8B458D7365066
:1024EE00020AD8B467D73650030AD8B473D7365019
:1024FE00040AD8B482D73650050A93E03650060A3D
:10250E00A2E03650070AB2E03650080ACEE0DED717
:02251E001200A9
:08252000020E0501466F1200D6
:102528000501466B2E520BE0085183188C6E0AC5C4
:1025380043F1CBEC09F011C543F15FEC09F012004F
:10254800010E0501466F3F4A402A030E405C02E136
:10255800E80E3F5C04E3831C8C6E3F6A406A1200FD
:102568008C6A0101436BCBEC09F0436B5FEC09F01B
:0225780012004F
:0A257A000001E36B30EC0CF01200DE
:02258400120043
:10258600050E0501466F81B403D00001E36B07D049
:1025960081B005D00001010EE36F4AEC0CF000019A
:1025A600E353D8B41BD1F90E0101436F000E446FFB
:1025B6000A0E456F000E466FFBEC09F00052D8B4C8
:1025C6000CD10EC501F0006A05010D510012000E76
:1025D60001121CEC0CF000C02BF101C02CF102C062
:1025E6002DF103C02EF12BC137F02CC138F02DC1CF
:1025F60039F02EC13AF0EEC000F0EFC001F01CEC4D
:102606000CF000C03BF001C03CF002C03DF003C03E
:102616003EF000C02FF101C030F102C031F103C01D
:1026260032F12BC133F12CC134F12DC135F12EC15C
:1026360036F1C2EC0CF000C030F001C031F002C03F
:1026460032F003C033F000C004F001C005F002C050
:1026560006F003C007F0006A016A026A036A2FECFB
:102666000AF0010ED8B0000E006E005250E00501CF
:10267600546B556B0101436B5FEC09F030C000F001
:1026860031C001F032C002F033C003F055EC0CF05B
:1026960000C052F501C002F0036A02C053F5000EF5
:1026A600046EC00E056E7F0E066E880E076E30C075
:1026B60000F031C001F032C002F033C003F0C4DCD8
:1026C600000E046E000E056E480E066E850E076E31
:1026D60084EC07F055EC0CF000C034F001C035F086
:1026E600000E026E0150025C02E10050640806E230
:1026F600640E0101276F000E286F04D034C027F145
:1027060035C028F127C143F1CBEC09F066D0327E03
:102716000501526B536B0101436BCBEC09F0000EC4
:102726003018006E000E3118016E800E3218026EDF
:10273600000E3318036E55EC0CF000C054F5000E75
:102746003018006E000E3118016E800E3218026EBF
:10275600000E3318036E55EC0CF001C002F0036A4C
:1027660002C055F5000E3018006E000E3118016ECD
:10277600800E3218026E000E3318036E000E046EC1
:10278600C00E056E7F0E066E880E076E5DDC000EAF
:10279600046E000E056E480E066E850E076E84ECFE
:1027A60007F055EC0CF000C034F001C035F0000E17
:1027B600026E0150025C02E10050640806E2640EFB
:1027C6000101296F000E2A6F04D034C029F135C0EB
:1027D6002AF129C143F15FEC09F002D030EC0CF08C
:0227E6001200DF
:0227E8001200DD
:1027EA00000E0101141902E1000E131902E1016A37
:1027FA000AD013C1E9FF14C1EAFFEECF00F0000EC0
:0C280A0000BE010E016E01C000F01200C3
:102816000B6A0C6A0A6A0350D8B440EF14F00A9E99
:10282600028E860E035E03BE1EEF14F0D8B41EEFB2
:1028360014F043EF14F0036C080E035CD8A02CEFE1
:1028460014F0036E0236026A0350D8A4D89035EF0E
:1028560014F00350D8B435EF14F0D8900232032E9A
:1028660030EF14F00BBC02A040EF14F0D8A040EFFC
:1028760014F0022AD8B44AEF14F0016A50EF14F0AB
:102886000B800BAE54EF14F0016A54EF14F0010EF6
:102896000C6E45EC09F056EF14F0000E0C6E56EF78
:0C28A60014F0FF0E0C6E0250006E1200C9
:1028B2000001C451000A0BE16D6A696A58EC09F023
:1028C2006DB602D06D86FCD70001010EC46FC451F3
:1028D200010A08E16DBA06D0686A696A6980698886
:1028E200020EC46F68A406D069A404D0FB0E681659
:1028F2004DEC0CF06DA203D0D4EC0FF0DCD068A04C
:1029020018D069A016D060DC040EC46F200E04013A
:10291200026F040E036F080E016F000E0015006EA9
:1029220000C000F48C0E0011006E00C000F4FE0E18
:10293200681668A805D069A803D086DCEF0E681671
:1029420068AC04D069AC02D0BF0E681668AA03D086
:1029520069AA01D07EDC68A202D069B26A6A040E5A
:102962000001C45D03E2D4EC0FF0A5D069A6A1D0AA
:102972000101146B040E145DD8B09BD068A695D0EB
:102982006CCFF2F0F70E6816780E0001F215016EA8
:102992000150000AD8A488D0FD0EF215016E026A19
:1029A200FF0E0216000E021802E1000E01186EE17F
:1029B2007E0EF215016E01C003F00332039E03C0C6
:1029C20000F0000E016E00360090013600360090D5
:1029D2000136000E0024026E040E0120036E02C0B6
:1029E200CCF003C0CDF002C0B4F003C0B5F0040EC9
:1029F200B419006E00C0B4F002C0E9FF03C0EAFFE0
:102A0200EECF00F000C001F03C0E01160132019E33
:102A12000132019E01500D0A36E1020ECC25E96E0B
:102A2200000ECD21EA6EEECF01F0EECF02F00250A1
:102A3200040A02E1280E011823E1020ECC25E16E00
:102A4200000ECD21E26E200EE66E040EE66E01014E
:102A5200136B080E135D14E2200EE16E040EE26E9B
:102A62001351E126D8B0E22A280EE96E040EEA6E6E
:102A72001351E926D8B0EA2AEECFE6FF132BE9D7A5
:102A82000DEC10F002D0D6EC0FF00DD0FD0EF215C9
:102A9200016E026AFF0E0216000E021802E1040E17
:102AA200011801E10FDC00D001D003D00101142B89
:082AB20061D7D4EC0FF0120013
:102ABA004BEC11F000C0CEF0010E0001A76F13C15C
:102ACA00B0F014C1B1F015C1F3F016C1F4F0E5ECA1
:102ADA0010F0010E016E0150010A02E1FCEC0FF048
:022AEA001200D8
:102AEC0013C104F014C105F0000E066E076E043617
:102AFC00049005360636073604360490053606363D
:102B0C000736000E006E6C0E016EDC0E026E020EAD
:102B1C00036E5EEC0EF000C004F001C005F002C0C4
:102B2C0006F003C007F0010E045E000E055A065AAB
:102B3C00075A04C019F105C01AF106C01BF107C0F1
:102B4C001CF10750000808E10650000805E105508B
:102B5C00000802E10450FF0808E2FF0E0101156FA6
:102B6C00000E166F176F186F08D019C115F11AC126
:102B7C0016F11BC117F11CC118F115C1CBFF1200C6
:022B8C00120035
:102B8E00040E0501466F414A422A4250070A02E1ED
:102B9E00D00E411809E18350010F006E00C083FF73
:0A2BAE0083CF8CFF416A426A1200D7
:102BB80001011451000A12E013C100F0000E016E69
:102BC800003600900136C00E0024E96E000E012088
:102BD800EA6EEECF04F0EECF05F011D013C100F08D
:102BE800000E016E003600900136710E0024E96E69
:102BF800000E0120EA6EEECF04F0EECF05F0020ED3
:102C08000424E16E000E0520E26E15C1E6FF16C130
:102C1800E6FF010E0424E16E000E0520E26E17C1E6
:102C2800E6FF04C0E9FF05C0EAFFEECF00F004C0EC
:102C3800E1FF05C0E2FF400E0014E66E04C0E9FFA4
:102C480005C0EAFFEECF00F0880E001204C0E1FFD5
:102C580005C0E2FF00C0E6FF1451000A1BE013C1E3
:102C680000F0000E016E003600900136C00E002400
:102C7800026E000E0120036E02C0E9FF03C0EAFFE6
:102C8800040EEE18006E02C0E1FF03C0E2FF00C0B0
:102C9800E6FF1AD013C100F0000E016E0036009056
:102CA8000136710E0024026E000E0120036E02C070
:102CB800E9FF03C0EAFF040EEE18006E02C0E1FF50
:102CC80003C0E2FF00C0E6FF04C000F005C001F049
:022CD8001200E8
:0C2CDA00240E0D6E0D2EFED7000012001F
:102CE600B70E926EFF0E936EF19E956A8C6A120075
:102CF600000E0101136F050E146F400E156F050EC1
:062D0600166FD8DE12007A
:102D0C00200E0001C45D03E36DB201D002D0006A55
:102D1C0052D0ADC013F1AEC014F161DD00524AE1E6
:102D2C000EC113F1010E146F0BC115F10CC116F18C
:102D3C000DC117F13BDF00C0ADF001C0AEF00001DA
:102D4C00F56BF66BF76BF86BADC013F1AEC014F10D
:102D5C0046DD005218E0200E0001C45D03E36DB2A5
:102D6C0001D002D0006A27D0010E016E0150000A7A
:102D7C0001E199DD0001F551F611F711F81102E0AE
:102D8C00006A19D0E1D70001ADC00FF1AEC010F14F
:102D9C00000EAE1902E1000EAD190AE0010E0101A0
:102DAC000F25E96E000E1021EA6EEECF00F003D075
:082DBC00006A01D0006A120058
:102DC400FF0E0001D46FFF0ED56FFF0ED66FFF0EFE
:102DD400D76FC26A2F1C006E0050C116070EC012B6
:062DE400C08EC280120047
:102DEA0001010B5303E0F28AD58E02D0F29AD59EE6
:022DFA001200C5
:082DFC00D09EF28EF28C120051
:102E04000101116B200E0001C45D03E36DB201D01A
:102E140002D0006A30D0B2C013F1B3C014F1E3DCC5
:102E2400005228E1B2C00FF1B3C010F1000E00014E
:102E3400B31902E1000EB2190BE0010E01010F25D6
:102E4400E96E000E1021EA6EEECF00F000C011F121
:102E540001010EC113F1146B0BC115F10CC116F174
:102E64000DC117F1A7DE00C0B2F001C0B3F011C16B
:082E740000F001D0006A120019
:102E7C00C26A2F1C006E0050C116070EC012C08E05
:102E8C000BC100F000360090003600900050C212CA
:102E9C00C2801DDFC282C2A201D0FDD7C4CF01F017
:0E2EAC00006AC3500012000E0112C290120004
:102EBA00F250026EF29E0500FF6A0150FE6E00504B
:082ECA00FD6E02BEF28E120043
:102ED200949294940BC100F00CC101F00DC102F068
:102EE2000EC103F055EC0CF000C013F101C014F157
:102EF200FCDD0C0EBD6E0C0EBA6EBE6ABB6A070E0E
:042F0200CA6E120081
:102F0600A80E0101116F000E126F0F6B106B800E71
:102F16001019006E800E005C02E1040E0F5D0AE2DD
:102F260011C1E1FF12C1E2FFE66A114B122B0F4BF2
:102F3600102BEDD7D59ED58CD59AD598D596D58418
:102F4600D592D5800BC100F00CC101F00DC102F085
:102F56000EC103F0000E046E1B0E056E370E066ED4
:102F6600960E076E84EC07F0000E046E000E056EDA
:102F7600000E066E850E076E27EC10F000C004F0FA
:102F860001C005F002C006F003C007F0000E006E97
:102F9600000E016E000E026E870E036E3DEC09F008
:082FA60037DC00C0CFF012007F
:102FAE0001C10BF102C10CF103C10DF1010E0101C2
:062FBE000E6FA5DE1200FB
:102FC40081CF4DF583CF4EF5ECC04AF5EDC002F04C
:102FD400036A02C04BF5EEC000F0003600900036E4
:102FE40000900050021005014B6F060E026EEEC0F9
:102FF40000F0EFC001F0025005E001320032019E02
:10300400FF0FFAD700C04CF5F0C04FF5F1C000F047
:08301400016A00C050F5120032
:10301C0009C100F00AC101F00036009001360036FB
:10302C0000900136770E0024E16E000E0120E26E56
:10303C0001C1E6FF02C1E6FF03C1E6FF04C1E6FFE2
:10304C0009C100F00AC101F00036009001360036CB
:10305C00009001368F0E0024E16E000E0120E26E0E
:10306C0005C1E6FF06C1E6FF07C1E6FF08C1E6FFA2
:02307C00120040
:10307E00A2DE32DE000E01010B6F800E0C6F3B0ED6
:10308E000D6F8A0E0E6F1EDF2FDE6F0E01010B6F9E
:10309E00120E0C6F030E0D6F750E0E6F2DDF010EDF
:0A30AE0001010B6F9BDEA3DE120090
:1030B8000900F5CFE6FF0006FBE10106F9E1120081
:1030C800B0C00BF1B1C00CF1400E01010D6F010E43
:0630D8000E6F94DE1200F1
:1030DE000101016B030E015D1BE201C100F0000E48
:1030EE00016E003600900136EC0E0024026F000EC9
:1030FE000120036F01C10BF1BADE02C1E1FF03C172
:10310E00E2FF00C0E6FF01C0E6FF0101012BE2D79E
:02311E0012009D
:10312000050145814D5005191BE005C500F0000E55
:10313000016E003600900136003600900136770EA1
:103140000024E96E000E0120EA6EEECF00F0EECF13
:1031500001F0EECF02F0EECF03F0AFDE05C54DF08B
:1031600005C500F0000E016E0036009001360036F5
:10317000009001368F0E0024E96E000E0120EA6EE9
:10318000EECF00F0EECF01F0EECF02F0EECF03F085
:0431900094DE1200B7
:10319400076A086A450E096E000E0A6E800E08184A
:1031A400006E800E005C02E1040E075C52E209C06E
:1031B400E9FF0AC0EAFF010EEE24006E000EEE20C5
:1031C400016E09C0E1FF0AC0E2FF00C0E6FF01C0D2
:1031D400E6FF09C0E9FF0AC0EAFFEECF05F0EECF33
:1031E40006F007C000F008C001F0000E08BEFF0E94
:1031F400026E036E00360090013602360336720EFC
:103204000024F66E360E0120F76E000E0220F86ED2
:103214000900F5CF01F00900F5CF02F00250065C79
:1032240002E10150055C0EE3A80E0724E16E000ED6
:103234000820E26E010EE66E09C0E1FF0AC0E2FF5B
:10324400E66AE66A074A082A020E0926000E0A22DE
:08325400A5D7CFC0D6FF120080
:10325C000001C451010A07E16DBA05D0686A6980A2
:10326C006988020EC46F68A406D069A404D0FB0E52
:10327C0068164DEC0CF06DA203D0D4EC0FF0E0D03E
:10328C0068A019D069A017D0E5EC10F0040EC46F3B
:10329C00200E0401026F040E036F080E016F000E66
:1032AC000015006E00C000F48C0E0011006E00C002
:1032BC0000F4FE0E681668A806D069A804D025ECA8
:1032CC0011F0EF0E681668AC04D069AC02D0BF0EDA
:1032DC00681668AA04D069AA02D02AEC11F068A278
:1032EC0002D069B26A6A040E0001C45D03E2D4EC38
:1032FC000FF0A6D069A6A2D00101266B040E265DA4
:10330C00D8B09CD068A696D06CCFF2F0F70E6816A9
:10331C00780E0001F215016E0150000AD8A489D074
:10332C00FD0EF215016E026AFF0E0216000E021857
:10333C0002E1000E01186EE17E0EF215016E01C065
:10334C0003F00332039E03C000F0000E016E003642
:10335C0000900136003600900136000E0024026EFB
:10336C00040E0120036E02C0CCF003C0CDF002C0ED
:10337C00B4F003C0B5F0040EB419006E00C0B4F084
:10338C0002C0E9FF03C0EAFFEECF00F000C001F07D
:10339C003C0E01160132019E0132019E01500D0AB4
:1033AC0036E1020ECC25E96E000ECD21EA6EEECF91
:1033BC0001F0EECF02F00250040A02E1280E0118CF
:1033CC0023E1020ECC25E16E000ECD21E26E200E23
:1033DC00E66E040EE66E0101256B080E255D14E207
:1033EC00200EE16E040EE26E2551E126D8B0E22AE1
:1033FC00280EE96E040EEA6E2551E926D8B0EA2AA9
:10340C00EECFE6FF252BE9D70DEC10F002D0D6EC71
:10341C000FF00ED0FD0EF215016E026AFF0E0216B1
:10342C00000E021802E1040E011802E163EC11F027
:10343C0000D001D003D00101262B60D7D4EC0FF0C3
:02344C0012006C
:10344E003FEC1BF0680E0101016F250E026F000E9E
:10345E00036F000E046F280E056F250E066F000E0B
:10346E00076F000E086F096B0A6BD1DD840E016FBA
:10347E00250E026F000E036F000E046F480E056FCF
:10348E00250E066F000E076F000E086F010E096FF6
:10349E00000E0A6FBCDDE80E016F270E026F000EE4
:1034AE00036F000E046F8E0E056F2B0E066F000E4F
:1034BE00076F000E086F040E096F000E0A6FA7DD6E
:1034CE007A0E016F250E026F000E036F000E046F51
:1034DE00860E056F250E066F000E076F000E086F25
:1034EE00050E096F000E0A6F92DD060E016F000EBB
:1034FE00026F000E036F000E046F6E0E056F230E2B
:10350E00066F000E076F000E086F030E096F000E98
:10351E000A6F7DDD8C0E016F2B0E026F000E036F96
:10352E00000E046F200E056F250E066F000E076F3E
:10353E00000E086F020E096F000E0A6F68DD98DD2F
:10354E000501056B0001A85305E0B7DD00C02EF0A4
:10355E000001A86BAA530CE0BBDD2DDD400E01016E
:10356E00016F050E026F400E036F1ADD0001AA6B8C
:04357E00E9D7FFD7B3
:10367E0010EE2EF0300E006E010E016E820EF66E02
:10368E00350EF76E000EF86E5CEC18F010EE61F071
:10369E00100E006E010E016E620EF66E360EF76E95
:0A36AE00000EF86E5CEC18F012003C
:013582000048
:013583003017
:043584000000000043
:02358800000041
:01358A000040
:04358B00000000003C
:04358F00000048846C
:02359300000036
:02359500000034
:02359700000032
:0835990000000000000000002A
:0135A1000029
:0435A2000000488558
:0435A600CDCC4C7BC1
:0435AA00000000001D
:0435AE000000000019
:1035B2002A03430065006E007400720061006C0013
:1035C200200043006F006E00740072006F006C00F8
:0A35D200610064006F0072006100E8
:1035DC002A03430065006E007400720061006C00E9
:1035EC00200043006F006E00740072006F006C00CE
:0A35FC00610064006F0072006100BE
:1036060009022900010100803209040000020300BA
:103616000000092101010001222100070581034064
:0936260000010705010340000149
:10362F000600FF0901A10119012940150026FF001D
:10363F00750895408102190129407508954091023E
:01364F00C0BA
:103650001201000200000008341201000001010202
:02366000000167
:043662000000007EE6
:04366600CDCC4C7CFF
:04366A0000002082BA
:04366E000000000058
:08367200010002000300050045
:04367A000403090438
:020000040030CA
:0E000000240E381EFF0181FF0FC00FE00F40DD
:00000001FF
